:020000040800F2
:10000000D004002045010008C30A0008C509000803
:10001000C10A0008B10100089B0D000800000000A3
:100020000000000000000000000000003D0D00087E
:10003000B3010008000000003B0D00083F0D000860
:100040005F0100085F0100085F0100085F01000810
:100050005F0100085F0100085F0100085F01000800
:100060005F0100085F0100085F0100085F010008F0
:100070005F0100085F0100085F0100085F010008E0
:100080005F0100085F0100085F0100085F010008D0
:100090005F0100085F0100085F0100085F010008C0
:1000A0005F0100085F0100085F0100085F010008B0
:1000B0005F0100085F0100085F0100085F010008A0
:1000C0005F0100085F0100085F0100085F01000890
:1000D0005F0100085F0100085F0100085F01000880
:1000E0005F0100085F0100085F0100085F01000870
:1000F0005F0100085F0100085F0100085F01000860
:100100005F0100085F0100085F0100085F0100084F
:100110005F0100085F0100085F0100085F0100083F
:100120005F0100085F0100085F0100085F0100082F
:10013000DFF80CD000F02AF800480047950E0008C0
:10014000D00400200648804706480047FEE7FEE747
:10015000FEE7FEE7FEE7FEE7FEE7FEE7FEE7FEE777
:10016000990D000831010008D2B201E000F8012B1E
:10017000491EFBD270470022F6E710B513460A4627
:1001800004461946FFF7F0FF204610BD064C074D08
:1001900006E0E06840F0010394E807009847103457
:1001A000AC42F6D3FFF7C8FF341700085417000815
:1001B000FEE7704770B5044600F004F90546601C80
:1001C00002D004480078044400F0FCF8401BA04230
:1001D000FAD370BDC00000202DE9F84FDFF8B891C8
:1001E000002409F1040A0AF1040B23460F270BF13E
:1001F000040EC9E00125A5402A40AA427DD1674EE0
:10020000D1F804C0ACEB0608B44532D014DCBCF124
:10021000030F3AD009DCBCF1000F2AD0BCF1010F6A
:100220001CD0BCF1020F31D11DE0BCF1110F17D071
:10023000BCF1120F2AD119E0B8F5881F19D006DCDD
:10024000B8F5803F15D0B8F5801F1FD111E0B8F583
:10025000001F0ED0B8F5041F18D10AE0CB6815E0D6
:10026000CB681B1D12E0CB6808330FE0CB680C3362
:100270000CE08B682BB1012B4FF0080303D04561D4
:1002800004E0042302E0056100E00023FF2A01D816
:10029000064601E000F104064FEA840501D9A5F104
:1002A0002005D6F8008007FA05FC28EA0C0803FAB6
:1002B00005F548EA0508C6F800804D68ED0062D5EE
:1002C000374DAE6946F00106AE61AD6924F0030614
:1002D00005F001050095334D06EB050CDCF80850E0
:1002E000A607360F07FA06F825EA0805DFF8B880F2
:1002F000404503D14FF0000817E044E0DFF8AC8040
:10030000404502D14FF001080FE0DFF8A4804045DE
:1003100002D14FF0020808E0DFF89880404502D192
:100320004FF0030801E04FF0040808FA06F848EA25
:100330000508CCF808804D68D9F80060ED034D46FB
:1003400001D5164300E096432E604D68DAF8006050
:10035000AD03554601D5164300E096432E604D6827
:10036000DBF80060ED025D4601D5164300E09643E0
:100370002E604D68DEF80060AD02754601D516436B
:1003800000E096432E60641C0D682A46E5407FF429
:1003900031AFBDE8F88F00000004014000001110EB
:1003A000001002400000014000080140000C014024
:1003B00000100140001401400AB1016170470904B6
:1003C000FBE700000148806870470000C000002083
:1003D000024881680278114481607047C0000020A3
:1003E000074810B5016841F010010160032000F0DA
:1003F00067F80F2000F006F800F024F8002010BD88
:100400000020024070B50D4D04464FF47A712878F3
:10041000B1FBF0F00A490968B1FBF0F000F0BEFA58
:1004200048B9102C07D200222146501E00F028F8AF
:1004300000206C6070BD012070BD0000C000002075
:10044000CC0000200C4808B5816941F001018161B0
:10045000816901F001010091C16941F08051C161E0
:10046000C06900F0805000900448416821F0E061CC
:1004700041F00071416008BD0010024000000140E1
:10048000F0B40E4B1B680C46C3F30223C3F10705FF
:10049000042D00D90425191D072901D2002300E0ED
:1004A000DB1E012606FA05F1491E214099409E40B7
:1004B000761E16403143F0BC00F0CCBC0CED00E0E1
:1004C000064900F0070208684FF6FF03184040EAAB
:1004D0000220034A10430860704700000CED00E062
:1004E0000000FA052DE9F0470F46050061D0434EA4
:1004F000306800F00700B84209D2306820F00700E9
:1005000038433060306800F00700B84251D12868A5
:100510003B4C810712D5400703D5606840F4E0608A
:1005200060602878000703D5606840F46050606020
:100530006068A96820F0F000084360602878C00770
:1005400028D06868012810D02168022810D08907B7
:1005500000292EDA616821F0030101436160FFF791
:1005600031FF804641F288390DE021688903EFE7C9
:100570008901EDE7FFF726FFA0EB0801494502D905
:100580000320BDE8F0876068696800F00C00B0EBFC
:10059000810FEFD1306800F00700B8420BD9306806
:1005A00020F0070038433060306800F00700B842A0
:1005B00001D00120E5E72878400705D56068E968A3
:1005C00020F4E060084360602878000706D5606882
:1005D000296920F4605040EAC100606000F018F81A
:1005E0006168084AC1F30311515CC84006490860BC
:1005F00006480068FFF706FF0020C2E7002002401F
:100600000010024024170008CC000020C400002085
:1006100012A185B00FC98DE80F0014A0144A00681C
:1006200004905168134801F00C03042B10D0082BE0
:100630000ED1C1F38343C9031DF803000AD55168E5
:1006400004AAC1F34041515C0A4A5043B0FBF1F0A7
:1006500005B0704708494843FAE700000203040563
:10066000060708090A0B0C0D0E0F101001020000FE
:100670000010024000127A0000093D002DE9F84FF9
:10068000040070D02078C04DC00749D06868C0F31E
:100690008100012807D06868C0F38100022809D1D1
:1006A0006868C00306D52868800339D560680028CB
:1006B000E7D035E06068B0F5803F0BD010B1B0F501
:1006C000A02F11D0286820F480302860286820F4FA
:1006D000802002E0286840F480302860606890B193
:1006E000FFF770FE06460AE0286840F48020286084
:1006F000F0E700BFFFF766FE801B642873D8286808
:100700008003F7D50CE0FFF75DFE064605E000BF6D
:10071000FFF758FE801B6428F0D828688003F7D4C0
:1007200020789A4E80074FF001094FF0000839D524
:10073000686810F00C0F07D06868C0F381000228C9
:1007400009D16868C00306D42868800714D52069D9
:10075000012808D110E02069B0B1C6F80090FFF779
:1007600031FE074605E00AE1FFF72CFEC01B022818
:10077000C4D828688007F7D52868616920F0F80098
:1007800040EAC10028600DE0C6F80080FFF71AFEBD
:10079000074604E0FFF716FEC01B022823D828688E
:1007A0008007F7D4207800072CD57948A169D9B102
:1007B000C0F80090FFF706FE074604E0FFF702FED0
:1007C000C01B02280FD8686A8007F7D571484FF41C
:1007D000FA510068B0FBF1F0009000BF0098411E94
:1007E0000091FAD20EE080E0C0F80080FFF7EAFD49
:1007F000074604E0FFF7E6FDC01B022875D8686ACB
:100800008007F7D42078400760D5E8690027C0004A
:1008100008D4E86940F08050E861E869012700F0F9
:10082000805000905C480168C90513D40168834674
:1008300041F480710160FFF7C5FD824606E000BF0C
:10084000FFF7C0FDA0EB0A0064284ED8DBF80000DB
:10085000C005F5D5E06801280AD008B1052813D0F5
:10086000286A20F001002862286A20F0040002E0D3
:10087000286A40F001002862E06841F2883B98B1A4
:10088000FFF7A0FD82460BE0286A40F004002862D2
:10089000EEE700BFFFF796FDA0EB0A0159455AD8D5
:1008A000286A8007F6D50CE0FFF78CFD824605E04C
:1008B000FFF788FDA0EB0A0159454CD8286A80074C
:1008C000F6D41FB1E86920F08050E861E06988B390
:1008D0006968C1F38101022944D00228C6F860800A
:1008E00004D0FFF76FFD044638E034E0FFF76AFDFF
:1008F000074604E0FFF766FDC01B02282BD82868D6
:100900008001F7D4206AB0F5803F05D16868A168FE
:1009100020F4003008436860D4E90801084369689E
:1009200021F4741108436860C6F86090FFF74AFD2F
:10093000044606E025E000BFFFF744FD001B022847
:1009400009D828688001F7D51BE000BFFFF73AFD02
:10095000001B022802D90320BDE8F88F2868800117
:10096000F4D40EE00128F7D06868226A00F48031E0
:10097000914204D1616A00F47010884201D00120D4
:10098000EAE70020E8E700000010024000004242D1
:1009900080044242CC0000200070004010B5401E90
:1009A000B0F1807F01D3012010BD4FF0E0246061E1
:1009B0000F21601700F04EFA0020A061072020618F
:1009C000002010BDFEE7000070B501220B4DD402DF
:1009D00021462846FFF7F0FC01221603314628463F
:1009E000FFF7EAFC002231462846FFF7E5FC2146E6
:1009F0002846BDE870400022FFF7DEBC0008014039
:100A000070B5094C0122D1022046FFF7D5FCA51490
:100A1000002229462046FFF7CFFC29462046BDE8A4
:100A200070400122FFF7C8BC0008014070B50122E8
:100A3000064DD40221462846FFF7BEFC2146284633
:100A4000BDE870400022FFF7B7BC0000000801407D
:100A500070B586B000241848009401940294039461
:100A6000816941F010018161816901F010010491F7
:100A7000816941F020018161816901F020010491C7
:100A8000816941F00401816180690C4E00F004002D
:100A90004FF4C0550490002229463046FFF78CFCE5
:100AA00001200095CDE901040320039069463046FA
:100AB000FFF792FB06B070BD001002400008014035
:100AC000FEE7FEE770B506460024002104F1B00001
:100AD00000F02DF90021084600F029F9002110202E
:100AE00000F025F900250121304600F020F96D1CA9
:100AF000EDB2802DF7D3641CE4B2082CE5D370BDB1
:100B000010B501224FF4C0513948FFF755FCC820F9
:100B1000FFF750FB0021AE2000F009F90021084644
:100B200000F005F90021102000F001F9002140201B
:100B300000F0FDF80021B02000F0F9F8002181203C
:100B400000F0F5F80021FF2000F0F1F80021A120CD
:100B500000F0EDF80021A62000F0E9F80021A8201F
:100B600000F0E5F800213F2000F0E1F80021C82066
:100B700000F0DDF80021D32000F0D9F8002108466C
:100B800000F0D5F80021D52000F0D1F80021802018
:100B900000F0CDF80021D82000F0C9F80021052090
:100BA00000F0C5F80021D92000F0C1F80021F120A3
:100BB00000F0BDF80021DA2000F0B9F80021122081
:100BC00000F0B5F80021DB2000F0B1F80021302062
:100BD00000F0ADF800218D2000F0A9F800211420CC
:100BE00000F0A5F80021BDE81040AF2000F09FB84C
:100BF0000008014010B50A460446002102F1B00089
:100C000000F095F8102040EA1410002100F08FF851
:100C100004F00F00BDE81040002100F088B800008B
:100C20002DE9F04115460E460746FFF7E3FF0F4852
:100C3000002400EB85150121285D00F078F8641C84
:100C4000E4B2102CF7D3761CF1B23846FFF7D2FF8E
:100C500000242819012190F8200000F068F8641C95
:100C6000E4B2102CF5D3BDE8F081000000000020B4
:100C70002DE9F041203A00240D468046D6B27F2867
:100C800003D900208D1C8046EDB2102B294610D0D0
:100C9000FFF7B0FF164906EB460001EB40050121C6
:100CA000285D00F044F8641CE4B2062CF7D3BDE8DC
:100CB000F081FFF79FFF0F4F04EB06100121385C16
:100CC00000F035F8641CE4B2082CF5D36D1CE9B2D1
:100CD0004046FFF78FFF002404EB06103844012143
:100CE000007A00F024F8641CE4B2082CF4D3DEE7A8
:100CF0000C0F0008341100082DE9F0419846174602
:100D00000E46044600250DE0434631462046FFF7D7
:100D1000AFFF0834E4B2782C02D90024B61CF6B236
:100D20006D1CEDB27A5D002AEED1BDE8F081C0B253
:100D300009B100F078B800F05FB870477047FFF76E
:100D400047BB30B58FB028216846FFF714FA14214D
:100D50000AA8FFF710FA0121080400240491CDE944
:100D60000010CDE908040294022507956846FFF7B4
:100D700085FC08B172B6FEE70F200A90CDE90B544E
:100D80000D9400210AA80E94FFF7ACFB002801D0B7
:100D900072B6FEE70FB030BD7047FEE72DE9F041B7
:100DA000144F04464FF40066002231463846FFF7E0
:100DB00003FB00254FF4805804F08000802816D0F3
:100DC000002241463846FFF7F7FA6006040E01227A
:100DD00031463846FFF7F0FA002231463846FFF731
:100DE000EBFA6D1CEDB2082DE6D3BDE8F0810122CF
:100DF000E7E700000008014010B50446FFF7E4FDF6
:100E00007820FFF7CBFFFFF711FE0020FFF7C6FFAA
:100E1000FFF70CFE2046FFF7C1FFFFF707FEBDE816
:100E20001040FFF7EDBD10B50446FFF7CDFD78206B
:100E3000FFF7B4FFFFF7FAFD4020FFF7AFFFFFF722
:100E4000F5FD2046FFF7AAFFFFF7F0FDBDE81040D3
:100E5000FFF7D6BD0907090E002804DB00F1E020EA
:100E600080F80014704700F00F0000F1E02080F8D7
:100E7000141D704702E008C8121F08C1002AFAD1E9
:100E800070477047002001E001C1121F002AFBD10A
:100E900070470000FFF7A4FAFFF753FFFFF7D8FDF4
:100EA000FFF72EFE0020FFF70DFE00221146062060
:100EB000FFF7B6FE012200211A20FFF7B1FE022241
:100EC00000212E20FFF7ACFE102309A203210620EB
:100ED000FFF712FF10230AA206210020FFF70CFFE4
:100EE000102309A206213F20FFF706FFDDE70000DF
:100EF000302E393627204F4C45442054455354005A
:100F000041534349493A00003132330000000000A8
:100F100000000000002F0000000007000700001480
:100F20007F147F1400242A7F2A120062640813238E
:100F300000364955225000000503000000001C2225
:100F40004100000041221C000014083E0814000863
:100F5000083E0808000000A0600000080808080813
:100F6000000060600000002010080402003E5149AB
:100F7000453E0000427F4000004261514946002149
:100F800041454B31001814127F1000274545453963
:100F9000003C4A49493000017109050300364949BE
:100FA000493600064949291E000036360000000077
:100FB00056360000000814224100001414141414C2
:100FC000000041221408000201510906003249596B
:100FD000513E007C1211127C007F49494936003E87
:100FE00041414122007F4141221C007F4949494142
:100FF000007F09090901003E4149497A007F08083C
:10100000087F0000417F4100002040413F01007FF8
:1010100008142241007F40404040007F020C027FC4
:10102000007F0408107F003E4141413E007F0909D6
:101030000906003E4151215E007F091929460046FC
:10104000494949310001017F0101003F4040403FD3
:10105000001F2040201F003F4038403F006314081D
:1010600014630007087008070061514945430000F8
:101070007F41410000552A552A55000041417F001B
:101080000004020102040040404040400000010210
:101090000400002054545478007F484444380038F9
:1010A0004444442000384444487F00385454541881
:1010B00000087E0901020018A4A4A47C007F080493
:1010C00004780000447D4000004080847D00007F63
:1010D000102844000000417F4000007C0418047880
:1010E000007C0804047800384444443800FC24247C
:1010F00024180018242418FC007C08040408004864
:101100005454542000043F444020003C4040207C84
:10111000001C2040201C003C4030403C0044281073
:101120002844001CA0A0A07C004464544C44141427
:10113000141414140000000000000000000000005F
:1011400000000000000000F8000000000000003374
:101150003000000000100C06100C0600000000001B
:101160000000000040C07840C0784000043F040404
:101170003F040400007088FC08300000001820FFC5
:10118000211E0000F008F000E018000000211C0300
:101190001E211E0000F00888700000001E2123247C
:1011A0001927211010160E0000000000000000009A
:1011B00000000000000000E018040200000000072A
:1011C0001820400000020418E00000000040201831
:1011D00007000000404080F0804040000202010F04
:1011E00001020200000000F0000000000101011FE8
:1011F00001010100000000000000000080B070004C
:1012000000000000000000000000000000010101DB
:10121000010101010000000000000000003030006A
:101220000000000000000000806018040060180644
:101230000100000000E010080810E000000F10207E
:1012400020100F00001010F8000000000020203FC8
:101250002020000000700808088870000030282452
:1012600022213000003008888848300000182020F3
:1012700020110E000000C02010F800000007042418
:10128000243F240000F8088888080800001921205D
:1012900020110E0000E0108888180000000F1120B7
:1012A00020110E0000380808C83808000000003F70
:1012B000000000000070880808887000001C2221CF
:1012C00021221C0000E010080810E000000031227C
:1012D00022110F00000000C0C0000000000000301C
:1012E000300000000000008000000000000080606E
:1012F00000000000000080402010080000010204EF
:1013000008102000404040404040400004040404D5
:101310000404040000081020408000000020100891
:1013200004020100007048080808F00000000030C6
:1013300036010000C030C828E810E0000718272454
:1013400023140B000000C038E0000000203C230202
:101350000227382008F8888888700000203F202065
:1013600020110E00C0300808080838000718202097
:101370002010080008F808080810E000203F20208E
:1013800020100F0008F88888E8081000203F20206F
:101390002320180008F88888E8081000203F200063
:1013A00003000000C030080808380000071820209B
:1013B000221E020008F808000008F808203F21015A
:1013C00001213F20000808F8080800000020203F05
:1013D0002020000000000808F8080800C080808075
:1013E0007F00000008F888C028180800203F20016E
:1013F0002638200008F8080000000000203F2020C8
:101400002020300008F8F800F8F80800203F003FDE
:10141000003F200008F830C00008F808203F2000F6
:1014200007183F00E01008080810E0000F10202007
:1014300020100F0008F808080808F000203F2101DC
:1014400001010000E01008080810E0000F18242433
:1014500038504F0008F8888888887000203F2000A6
:10146000030C30200070880808083800003820215C
:1014700021221C00180808F8080818000000203F66
:101480002000000008F808000008F808001F2020CD
:1014900020201F000878880000C83808000007389E
:1014A0000E010000F80800F80008F800033C0700EF
:1014B000073C0300081868808068180820302C0357
:1014C000032C30200838C800C83808000000203F2E
:1014D0002000000010080808C8380800203826211D
:1014E00020201800000000FE020202000000007F21
:1014F00040404000000C30C000000000000000012F
:101500000638C00000020202FE0000000040404019
:101510007F0000000000040202020400000000003E
:1015200000000000000000000000000080808080BB
:1015300080808080000202040000000000000000A3
:10154000000000000000808080800000001924223C
:1015500022223F2008F8008080000000003F112078
:1015600020110E000000008080800000000E11207D
:1015700020201100000000808088F800000E11205B
:1015800020103F200000808080800000001F222269
:1015900022221300008080F0888888180020203FD5
:1015A000202000000000808080808000006B9494E8
:1015B0009493600008F8008080800000203F2100A4
:1015C00000203F2000809898000000000020203F6D
:1015D00020200000000000809898000000C080805B
:1015E000807F000008F8000080808000203F2402F7
:1015F0002D302000000808F8000000000020203FE7
:10160000202000008080808080808000203F20009B
:101610003F20003F8080008080800000203F21002C
:1016200000203F200000808080800000001F2020DC
:1016300020201F00808000808000000080FFA1200B
:1016400020110E000000008080808000000E11201C
:1016500020A0FF80808080008080800020203F21AB
:10166000200001000000808080808000003324245E
:1016700024241900008080E0808000000000001F0A
:10168000202000008080000000808000001F2020BB
:1016900020103F20808080000080808000010E307C
:1016A0000806010080800080008080800F300C03DD
:1016B0000C300F0000808000808080000020312EE0
:1016C0000E312000808080000080808080818E70BC
:1016D0001806010000808080808080000021302C6E
:1016E0002221300000000000807C02020000000087
:1016F000003F404000000000FF000000000000002C
:10170000FF0000000002027C800000000040403F1B
:1017100000000000000601010202040400000000B5
:1017200000000000000000000000000001020304AF
:10173000060708095417000800000020D000000028
:10174000740E000824180008D000002000040000D7
:10175000840E0008022222AAAFAAAAFAAAAAAFAA55
:101760002222020000000000000000000000000033
:10177000000000008080A0AFAAAAAAFFAAAAAAAF70
:10178000A0808000000000000000000000000000B9
:10179000000000000008C8388F0808001222FE0070
:1017A0001222FE0000000000000000000000000007
:1017B000000000000423702C2328700044827F0462
:1017C00042817F00000000000000000000000000D7
:1017D00000000000807000FF08505E50505F5050C5
:1017E0005E4000000000000000000000000000005B
:1017F00000000000000000FF00404F59694969598E
:101800004F40400000000000000000000000000009
:1018100000000000010000001000000000000000B7
:041820000024F400AC
:0400000508000131BD
:00000001FF
