:020000040800F2
:100000004805002045010008FF1C0008E31A00080D
:10001000FD1C00080F080008352100080000000042
:10002000000000000000000000000000031D0008A8
:100030001108000800000000011D0008051D00084F
:100040005F0100085F0100085F0100085F01000810
:100050005F0100085F0100085F0100085F01000800
:100060005F0100085F0100085F0100085F010008F0
:100070005F0100085F0100085F0100085F010008E0
:100080005F0100085F0100085F0100085F010008D0
:100090005F0100085F0100085F0100085F010008C0
:1000A0005F010008691D00085F0100085F0100088A
:1000B0005F010008751D00085F0100085F0100086E
:1000C0005F0100085F0100085F0100085F01000890
:1000D0005F0100085F0100085F0100085F01000880
:1000E0005F0100085F0100085F0100085F01000870
:1000F0005F0100085F0100085F0100085F01000860
:100100005F0100085F0100085F0100085F0100084F
:100110005F0100085F0100085F0100085F0100083F
:100120005F0100085F0100085F0100085F0100082F
:10013000DFF80CD000F038FB00480047692A0008BF
:10014000480500200648804706480047FEE7FEE7CE
:10015000FEE7FEE7FEE7FEE7FEE7FEE7FEE7FEE777
:10016000671D000831010008202A04DB203A21FA2B
:1001700002F00021704721FA02F3D040C2F12002C0
:100180009140084319467047D2B201E000F8012BB4
:10019000491EFBD270470022F6E710B513460A4607
:1001A00004461946FFF7F0FF204610BD80EA010221
:1001B00010B502F00043400022D04A001FD0010ECB
:1001C00001EB1261C0F35600C2F3560240F4000086
:1001D00042F40002A0FB022000047F39140400D086
:1001E000401C50EA124001D44000491EC2B20C0625
:1001F00004EBD010401C4008802A02D003E000200D
:1002000010BD20F00100002900DA0020184310BDC5
:100210002DE9FE4F81EA030404F0004421F000417F
:1002200000944FF0000B23F0004350EA01045ED02D
:1002300052EA03045BD0C3F30A54C1F30A552C44B9
:10024000A4F2F3340194A0FB0254C1F3130141F46E
:100250008011C3F3130343F4801301FB024400FB3A
:10026000034E840A970A44EA815447EA8357A4FB61
:10027000076802958D0A05FB07854FEA932C04FB5E
:100280000C542705029D4FEA065847EA1637B5EB8E
:1002900008056EEB070C870E920E47EA811742EABB
:1002A0008312A7FB0201B6EB0B0164EB00042B0DDC
:1002B00043EA0C335E1844EB1C50DA465146E7FB28
:1002C0000201C5F313044FEA0B3343EA14534FEA18
:1002D0000432019C43EA0603A4F10C040294009C3E
:1002E000CDE900B400F0CBF803B0BDE8F08F0020FA
:1002F0000146F9E7C10F80EAE0700844CA07962377
:10030000002100F07FB800F0004230F000400AD039
:10031000C10D01F56071C0F3160042EA0151C20837
:1003200040071143704700200146704701F0004329
:1003300030B421F0004150EA010206D00A0DA2F5C6
:100340006072C1F31301002A02DC30BC0020704748
:10035000440F44EAC104C100E01830BC00EBC250B5
:1003600000F047B830B50B4601460020202201249A
:1003700009E021FA02F59D4205D303FA02F5491B73
:1003800004FA02F52844151EA2F10102F1DC30BD89
:100390002DE9F05F0546002092469B4688460646BA
:1003A000814640241BE02846414647462246FFF747
:1003B000DBFE53465A46C01A914110D311461846E7
:1003C000224600F003FA2D1A67EB01084F46224639
:1003D0000120002100F0FAF917EB00094E41201E20
:1003E000A4F10104DFDC484631462A464346BDE815
:1003F000F09F0029A8BF7047401C490008BF20F0AB
:100400000100704710B4B0FA80FC00FA0CF050EA1A
:10041000010404BF10BC704749B1CCF1200421FA9B
:1004200004F411FA0CF118BF012121430843A3EB96
:100430000C01CB1D4FEA00614FEA102042BF0020A3
:1004400010BC704700EBC35010440029A4BF10BC7F
:100450007047401C490008BF20F0010010BC7047E5
:1004600010B5141E73F1000408DA401C41F10001BC
:1004700092185B411A4301D120F0010010BD2DE913
:10048000F04D92469B4611B1B1FA81F202E0B0FA0A
:1004900080F22032904600F099F904460F4640EA77
:1004A0000A0041EA0B0153465A46084313D011464D
:1004B00053EA010019D0C8F140025046FFF754FE3C
:1004C00005460E4650465946424600F07FF908431D
:1004D00005D0012004E020463946BDE8F08D00201B
:1004E000054346EAE0762C4337430A986305E40A5D
:1004F000A0EB08000022FD0A44EA47540A3002D566
:1005000000200146E9E7010510196941DDE90845C8
:1005100000196941BDE8F04DA2E72DE9FE4F804684
:1005200081EA0300C00F0C46009021F0004123F047
:100530000045B8EB0200A94105D24046214690464D
:100540001C460B46024623F00040104347D0270DBF
:10055000C7F30A00C3F30A510290401A01904028E1
:100560006BDAC3F3130040F4801B0098924620B16D
:100570000023D2EB030A63EB0B0B01985946C0F141
:100580004002504600F022F906460D4650465946B4
:10059000019A00F02AF910EB08006141002487EA73
:1005A000115284EAE7731A4340D0009A62B3019A69
:1005B000012A4FEA075215DC001B61EB02014FF0E4
:1005C000004202EA0752CDE90042001C41F58011C9
:1005D00032462B46FFF753FF03B0BDE8F08F40468D
:1005E0002146F9E7001B61EB0201001C41F5801375
:1005F00000185B412018A2F5001747EB030140EA01
:10060000D570B6196D4111E06D084FEA360645EA1E
:10061000C0754FEA0752001B61EB0201001C41F557
:10062000801149084FEA30000019514132462B46EB
:1006300003B0BDE8F04FFFF713BF00980122400060
:100640000023D0EB020263EBE073009821464FEAEF
:10065000E074B8EB000061EB0401E9E783F00043CC
:100660005BE781F0004158E72DE9F04D81EA030492
:1006700004F0004B21F0004514464FF0000A23F02F
:10068000004150EA050220D054EA01021DD0C5F312
:100690000A570246C5F31303C1F31300C1F30A5608
:1006A00040F4801543F48013A7EB0608101BD646D0
:1006B00008F2FD3873EB050002D308F1010801E0F0
:1006C00092185B41B8F1000F03DA00200146BDE843
:1006D000F08D00204FF48011064684460EE0171B73
:1006E00073EB050705D3121B63EB050306434CEAC6
:1006F000010C49084FEA300092185B4150EA0107AB
:10070000EDD152EA030012D082EA040083EA050127
:10071000084305D0101BAB4106D20122002306E09E
:1007200000224FF0004302E06FF0010253101AEB79
:1007300006004CEB085110EB0A0041EB0B01BDE841
:10074000F04DFFF78DBEC1F30A52C1F3130140F221
:10075000FF3341F480119A4202DA002001467047CB
:1007600040F233439A42A2F2334202DC5242FFF794
:10077000FBBC00F02BB8000030B5041E71F1000482
:1007800004DB4FF00044404264EB0101141E73F19E
:10079000000405DB1C464FF00043524263EB0403A8
:1007A000994208BF904230BD064C074D06E0E06814
:1007B00040F0010394E8070098471034AC42F6D3A8
:1007C000FFF7BAFCC02A0008E02A0008202A04DB50
:1007D000203A00FA02F1002070479140C2F1200354
:1007E00020FA03F3194390407047202A06DBCB1709
:1007F000203A41FA02F043EAE07306E041FA02F3DC
:10080000D040C2F120029140084319467047FEE7EC
:10081000704772B6FEE7000010B5081AFFF76AFDD0
:1008200010F1FF4F01D380F00040FFF76CFD084A44
:10083000084BFFF7EDFC084A084BFFF7E9FCFFF710
:1008400075FD074C0749E060FFF7B0FC206110BD63
:100850007B14AE47E17A15406811F16346DF913FA2
:10086000000000200000F0412DE9F84FDFF8C891AA
:10087000002409F1040A0AF1040B23460F270BF1A7
:10088000040ED1E00125A54006EA0502AA4276D170
:10089000DFF8A8C14E68A6EB0C0866452BD00DDC2E
:1008A000032E34D005DC36B3012E19D0022E2FD101
:1008B0001BE0112E16D0122E2AD119E0B8F5881F90
:1008C00019D006DCB8F5803F15D0B8F5801F1FD1D0
:1008D00011E0B8F5001F0ED0B8F5041F18D10AE0DA
:1008E000CB6815E0CB681B1D12E0CB6808330FE026
:1008F000CB680C330CE08B682BB1012B4FF0080355
:1009000003D0456104E0042302E0056100E0002318
:10091000FF2A01D8064601E000F104064FEA8405EB
:1009200001D9A5F12005D6F8008007FA05FC28EAD0
:100930000C0803FA05F548EA0508C6F800804D687A
:10094000ED0070D53E4DAE6946F00106AE61AD6971
:1009500024F0030605F0010500953A4D06EB050C61
:10096000DCF80850A607360F07FA06F825EA08054E
:10097000DFF8D480404503D14FF0000825E052E075
:10098000DFF8C880404502D14FF001081DE0DFF8D4
:10099000C080404502D14FF0020816E0DFF8B48075
:1009A000404502D14FF003080FE0DFF8AC8040452E
:1009B00002D14FF0040808E0DFF8A080404502D1E2
:1009C0004FF0050801E04FF0060808FA06F848EA7B
:1009D0000508CCF808804D68D9F80060ED034D4655
:1009E00001D5164300E096432E604D68DAF80060AA
:1009F000AD03554601D5164300E096432E604D6881
:100A0000DBF80060ED025D4601D5164300E0964339
:100A10002E604D68DEF80060AD02754601D51643C4
:100A200000E096432E60641C0A681646E2407FF49C
:100A300029AFBDE8F88F000000040140000011104C
:100A4000001002400000014000080140000C01407D
:100A5000001001400014014000180140001C01403A
:100A6000C26821EA02030A4043EA02410161704779
:100A70000AB1016170470904FBE700000148806882
:100A80007047000018000020024881680278114475
:100A90008160704718000020074810B5016841F0D8
:100AA00010010160032000F075F80E2000F006F838
:100AB00000F024F8002010BD0020024070B50D4D5C
:100AC00004464FF47A712878B1FBF0F00A490968BE
:100AD000B1FBF0F000F0ECFA48B9102C07D200227C
:100AE0002146501E00F036F800206C6070BD0120D9
:100AF00070BD000018000020240000200C4808B53C
:100B0000816941F001018161816901F00101009178
:100B1000C16941F08051C161C06900F0805000900E
:100B20000448416821F0E06141F00071416008BD76
:100B30000010024000000140002809DB00F01F0205
:100B4000012191404009800000F1E020C0F800112F
:100B500070470000F0B40E4B1B680C46C3F3022331
:100B6000C3F10705042D00D90425191D072901D259
:100B7000002300E0DB1E012606FA05F1491E214094
:100B800099409E40761E16403143F0BC01F0E4BA15
:100B90000CED00E0064900F0070208684FF6FF037D
:100BA000184040EA0220034A1043086070470000E2
:100BB0000CED00E00000FA052DE9F0470F460500B6
:100BC00061D0434E306800F00700B84209D2306867
:100BD00020F0070038433060306800F00700B8426A
:100BE00051D128683B4C810712D5400703D5606876
:100BF00040F4E06060602878000703D5606840F446
:100C0000605060606068A96820F0F0000843606090
:100C10002878C00728D06868012810D021680228E9
:100C200010D0890700292EDA616821F00301014301
:100C30006160FFF723FF804641F288390DE02168AB
:100C40008903EFE78901EDE7FFF718FFA0EB080143
:100C5000494502D90320BDE8F0876068696800F063
:100C60000C00B0EB810FEFD1306800F00700B84204
:100C70000BD9306820F0070038433060306800F04E
:100C80000700B84201D00120E5E72878400705D5E4
:100C90006068E96820F4E060084360602878000735
:100CA00006D56068296920F4605040EAC1006060A0
:100CB00000F038F86168084AC1F30311515CC8407C
:100CC0000649086006480068FFF7F8FE0020C2E702
:100CD0000020024000100240A82A00082400002042
:100CE0001C0000200448054900684968044AC1F313
:100CF0000221515CC84070472400002000100240CF
:100D0000B82A00080448054900684968044AC1F344
:100D1000C221515CC84070472400002000100240EE
:100D2000B82A000812A185B00FC98DE80F0014A0E1
:100D3000144A006804905168134801F00C03042B16
:100D400010D0082B0ED1C1F38343C9031DF8030053
:100D50000AD5516804AAC1F34041515C0A4A504384
:100D6000B0FBF1F005B0704708494843FAE70000CE
:100D700002030405060708090A0B0C0D0E0F1010DC
:100D8000010200000010024000127A0000093D003C
:100D90002DE9F84F040070D02078C04DC00749D02D
:100DA0006868C0F38100012807D06868C0F381003B
:100DB000022809D16868C00306D52868800339D5A0
:100DC00060680028E7D035E06068B0F5803F0BD060
:100DD00010B1B0F5A02F11D0286820F48030286021
:100DE000286820F4802002E0286840F480302860E1
:100DF000606890B1FFF742FE06460AE0286840F4BA
:100E000080202860F0E700BFFFF738FE801B6428D1
:100E100073D828688003F7D50CE0FFF72FFE06464D
:100E200005E000BFFFF72AFE801B6428F0D8286881
:100E30008003F7D420789A4E80074FF001094FF0D5
:100E4000000839D5686810F00C0F07D06868C0F347
:100E50008100022809D16868C00306D42868800789
:100E600014D52069012808D110E02069B0B1C6F876
:100E70000090FFF703FE074605E00AE1FFF7FEFDDD
:100E8000C01B0228C4D828688007F7D52868616984
:100E900020F0F80040EAC10028600DE0C6F80080AC
:100EA000FFF7ECFD074604E0FFF7E8FDC01B022852
:100EB00023D828688007F7D4207800072CD57948F4
:100EC000A169D9B1C0F80090FFF7D8FD074604E04A
:100ED000FFF7D4FDC01B02280FD8686A8007F7D53A
:100EE00071484FF4FA510068B0FBF1F0009000BF78
:100EF0000098411E0091FAD20EE080E0C0F8008018
:100F0000FFF7BCFD074604E0FFF7B8FDC01B022851
:100F100075D8686A8007F7D42078400760D5E869FB
:100F20000027C00008D4E86940F08050E861E86913
:100F3000012700F0805000905C480168C90513D477
:100F40000168834641F480710160FFF797FD824696
:100F500006E000BFFFF792FDA0EB0A0064284ED820
:100F6000DBF80000C005F5D5E06801280AD008B11B
:100F7000052813D0286A20F001002862286A20F092
:100F8000040002E0286A40F001002862E06841F2B3
:100F9000883B98B1FFF772FD82460BE0286A40F06B
:100FA00004002862EEE700BFFFF768FDA0EB0A012E
:100FB00059455AD8286A8007F6D50CE0FFF75EFD40
:100FC000824605E0FFF75AFDA0EB0A0159454CD8CF
:100FD000286A8007F6D41FB1E86920F08050E861E4
:100FE000E06988B36968C1F38101022944D002280D
:100FF000C6F8608004D0FFF741FD044638E034E0D5
:10100000FFF73CFD074604E0FFF738FDC01B022850
:101010002BD828688001F7D4206AB0F5803F05D12D
:101020006868A16820F4003008436860D4E90801CA
:101030000843696821F4741108436860C6F8609039
:10104000FFF71CFD044606E025E000BFFFF716FD94
:10105000001B022809D828688001F7D51BE000BFD3
:10106000FFF70CFD001B022802D90320BDE8F88F12
:1010700028688001F4D40EE00128F7D06868226A5D
:1010800000F48031914204D1616A00F4701088420A
:1010900001D00120EAE70020E8E70000001002404C
:1010A00000004242800442422400002000700040C0
:1010B00010B5401EB0F1807F01D3012010BD4FF06C
:1010C000E02460610F21601701F046F80020A06164
:1010D00007202061002010BD7047704770B590F860
:1010E0003C20012A2CD0012480F83C40022280F8C8
:1010F0003D2003685A689D6822F070060A683243F2
:101100005A60104B02689A420ED00F4B9A420BD095
:10111000B2F1804F08D00D4B9A4205D00C4B9A4249
:1011200002D00C4B9A4204D1496825F08003194340
:10113000916080F83D40002180F83C10084670BD69
:10114000022070BD002C014000340140000400402A
:1011500000080040000C004010B5040003D094F8D3
:101160003D0010B107E0012010BD002084F83C00D4
:10117000204600F01FF8022084F83D00211D206861
:1011800000F0FEFD012084F8460084F83E0084F85B
:101190003F0084F8400084F8410084F8420084F85D
:1011A000430084F8440084F8450084F83D000020A2
:1011B00010BD000008B500680B49884212D10B48E9
:1011C000816941F4006181618069002200F400605E
:1011D00000900F211920FFF7BDFCBDE80840192041
:1011E000FFF7AABC08BD0000002C0140001002401F
:1011F00090F83D10012901D001207047022180F8AC
:101200003D100168CA6842F00102CA6000680E49D8
:1012100088420ED00D4988420BD0B0F1804F08D0E3
:101220000B49884205D00B49884202D00A498842BE
:1012300004D1816801F00701062903D0016841F05B
:101240000101016000207047002C01400034014082
:101250000004004000080040000C004070B5044647
:1012600090F83C00012817D0012584F83C5002205A
:1012700084F83D002068826822F0770222F47F42E1
:1012800082600868502830D00DDC20284DD005DC65
:1012900098B310283BD148E0022070BD302844D0DC
:1012A000402834D139E0602828D0702806D0B0F525
:1012B000805F2CD0B0F5005F29D10AE0CB68D1E97E
:1012C0000121206800F0AFFD2068816841F07701BE
:1012D00009E0CB68D1E90121206800F0A4FD206875
:1012E000816841F48041816011E0CA6849682068E2
:1012F00000F06EFE5021206807E016E0CA684968D9
:10130000206800F076FE6021206800F096FD84F8E9
:101310003D50002084F83C0070BDCA6849682068D0
:1013200000F056FE40212068EFE722680146104693
:10133000EBE72DE9F0410D46040003D094F83D00A1
:1013400018B108E00120BDE8F081002084F83C00DD
:10135000204600F041F8022084F83D0020688168B2
:1013600044F2070291438160211D206800F008FDCE
:10137000226890689169166A2B68AF69034340F24E
:101380000330814341EA0721A868EF6908434FF61B
:10139000FC418843E96840EA0720014328692F6A35
:1013A000000140EA0730084369686D6926F02206AB
:1013B00046EA0515294393602268906154F8460B6C
:1013C0000162012004F81F09E0752076E07620779D
:1013D000A0750020B7E7000000B585B0002100919E
:1013E0000191029103910068114988421ED1114870
:1013F000C16941F00201C161C16901F002010491BA
:10140000816941F0040181618069694600F004004E
:101410000490C02000900848FFF726FA00220F2110
:101420001D20FFF797FB1D20FFF786FB05B000BDD1
:1014300000040040001002400008014070B590F820
:101440003E60044690F83F5090F8423090F84320B8
:10145000022021B104290ED0012E1BD114E0012E4F
:1014600018D1012B16D184F83E0084F842000122E5
:101470000021206820E0012D0CD1012A0AD184F836
:101480003F0084F8430014E0012D03D1012B01D16A
:10149000012A01D0012070BD84F83E0084F83F008D
:1014A00084F8420084F8430001220021206800F003
:1014B000ADFC01220421206800F0A8FC206801682E
:1014C00041F001010160002070BD704770B5044615
:1014D000006801694FF00005C943890715D4C16848
:1014E000C943890711D4E91E0161012020772068D2
:1014F00080698007204602D0FFF7E7FF04E000F094
:10150000BDF8204600F05EF9257720680169C943DF
:10151000490717D4C168C943490713D46FF00401C0
:101520000161022020772068806910F4407F204606
:1015300002D0FFF7CAFF04E000F0A0F8204600F058
:1015400041F9257720680169C943090716D4C168A4
:10155000C943090712D46FF0080101610420207704
:101560002068C0698007204602D0FFF7AEFF04E084
:1015700000F084F8204600F025F9257720680169FD
:10158000C943C90617D4C168C943C90613D46FF04B
:1015900010010161082020772068C06910F4407FA5
:1015A000204602D0FFF791FF04E000F067F82046E4
:1015B00000F008F9257720680169C943C90708D1F7
:1015C000C168C943C90704D1891E0161204600F0E2
:1015D00069F920680169C943090609D4C168C9438A
:1015E000090605D46FF0800101612046FFF774FD04
:1015F00020680169C943490609D4C168C94349063D
:1016000005D46FF040010161204600F0A7F9206881
:101610000169C94389060BD4C168C943890607D447
:101620006FF0200101612046BDE87040FFF755BD15
:1016300070BD000000B585B00021009101910291BC
:1016400003910068B0F1804F12D10A48816941F0DE
:10165000040181618069694600F004000490012062
:10166000009002200190032003900348FFF7FCF84C
:1016700005B000BD0010024000080140704770B581
:10168000044690F83C000D4601280AD0012084F859
:101690003C0042B1042A18D0082A2AD00C2A4DD185
:1016A00039E0022070BD206800F0D0FB206881691D
:1016B00041F0080181612068816921F004018161A4
:1016C000206881692A69114311E0206800F0EEFB6F
:1016D0002068816941F4006181612068816921F499
:1016E00080618161206881692A6941EA0221816102
:1016F00024E0206800F010FC2068C16941F0080176
:10170000C1612068C16921F00401C1612068C1691B
:101710002A69114311E0206800F032FC2068C16999
:1017200041F40061C1612068C16921F48061C16137
:101730002068C1692A6941EA0221C161002084F858
:101740003C0070BD10B5040003D094F83D0010B10A
:1017500007E0012010BD002084F83C00204600F086
:101760001FF8022084F83D00211D206800F008FBCE
:10177000012084F8460084F83E0084F83F0084F895
:10178000400084F8410084F8420084F8430084F863
:10179000440084F8450084F83D00002010BD00009E
:1017A00008B50068B0F1804F08D10548C16941F023
:1017B0000101C161C06900F00100009008BD000096
:1017C000001002407047000010B50446022249B1E3
:1017D000042912D008291CD094F84100012823D0F4
:1017E000012010BD94F83E000128F9D184F83E2074
:1017F0002068C26842F0020209E094F83F00012824
:10180000EED184F83F202068C26842F00402C26032
:101810000EE094F840000128E2D184F840202068CE
:10182000C26842F00802F2E784F841200C292AD06D
:101830000122206800F0EAFA15492068154A88421A
:1018400001D0904203D1436C43F4004343642068C9
:1018500088420DD090420BD0B0F1804F08D00E4995
:10186000884205D00D49884202D00D49884204D1F2
:10187000816801F00701062903D0016841F00101E8
:101880000160002010BD2068C26842F01002BEE76F
:10189000002C0140003401400004004000080040DA
:1018A000000C00407CB51A49884230D120211948EB
:1018B000FFF7D6F8184C41F65831A06860602068F0
:1018C000884202DAC830206001E0084621601349EE
:1018D0000968486312480068406AA060012202213A
:1018E0001048FFF7C5F8D4E90101FEF795FF20691C
:1018F000FEF709FD05460E46E068FEF704FDCDE95A
:1019000000560B46024608A0A16800F015FC7CBDFD
:101910002C0000200018014000000020740000206E
:10192000BC00002000080140B1E0C2EBC6F7D6B50C
:10193000CEAA25642020BDC7CBD9B6C8CEAA252EF5
:101940003366207261642F732020CBD9B6C8CEAA2B
:10195000252E3366206D6D2F73200A00704770B5F9
:10196000040004D094F83D00002510B106E00120E9
:1019700070BD84F83C50204600F022F8242084F802
:101980003D002068C16821F40051C160204600F08C
:1019900043FB2068016921F490410161206841699D
:1019A00021F02A0141612068C16841F40051C16001
:1019B0002564202084F83D0084F83E00002070BD9E
:1019C00030B585B00024009401940294039400681B
:1019D0001449884224D11448816941F480418161CD
:1019E000816901F480410491816941F004018161C0
:1019F00080690E4D00F0040004904FF400700090D8
:101A0000022001900320039069462846FEF72CFF30
:101A10002815CDE90004694628460294FEF724FF04
:101A200005B030BD00380140001002400008014000
:101A30002DE9F843044690F83D001F4616460D4632
:101A400020284CD1C5B1BEB194F83C00012846D045
:101A5000012084F83C004FF00008C4F840802120A9
:101A600084F83D00FFF70AF8A6848146E684A06862
:101A7000B0F5805F03D004E00120BDE8F883206961
:101A800028B12E465FF0000584F83C800EE0002669
:101A9000FAE78021204600F01BFBA0B9AEB116F892
:101AA000010B21684860E08C401EE084E08C4B46CE
:101AB0004FF0000200970028EBD14FF04001204684
:101AC00000F006FB30B10320D7E735F8020BC0F376
:101AD0000800E6E7202084F83D000020CDE7022042
:101AE000CBE7FEE72DE9F04186B0002420480094C2
:101AF000019402940394816941F0400181618169FC
:101B000001F040010491816941F004018161806923
:101B1000184F00F004000490012220213846FEF7FF
:101B2000A7FFDFF85480002206214046FEF7A0FF01
:101B30001020CDE90004694638460294FEF794FE71
:101B4000202001250326CDE90005CDE9024669469E
:101B50003846FEF789FE0620CDE90005CDE90246AC
:101B600069464046FEF780FE06B0BDE8F081000001
:101B700000100240001801400008014010B586B076
:101B80000024184800940194029403940494144986
:101B90000594016042F20F71C0E9011441F61F4142
:101BA000C0E9031444618461FFF7D6FA08B1FEF777
:101BB00030FE4FF48050009069460A48FFF74EFB14
:101BC00008B1FEF726FE049404A906480594FFF721
:101BD00085FA002801D0FEF71CFE06B010BD0000FB
:101BE000002C01402C00002010B58AB0002407947E
:101BF0001C2168460894FEF7CEFA16484FF0804143
:101C00000160C721C0E9011441F61F41C0E9031476
:101C10008461FFF797FD08B1FEF7FBFD079407A964
:101C20000C480894FFF75AFA08B1FEF7F2FD60205D
:101C3000CDE9000402940022694606480494FFF7A7
:101C40001EFD08B1FEF7E5FD0248FFF7F3FC0AB000
:101C500010BD00007400002010B58CB0242168462F
:101C6000FEF799FA00241648099414490A94016071
:101C70001321C0E901144FF4E151C0E90314846158
:101C80000320CDE900040120CDE902040494CDE94C
:101C90000540079469460A480894FFF74AFB08B1D3
:101CA000FEF7B7FD099409A905480A94FFF716FA4B
:101CB000002801D0FEF7ADFD0CB010BD00040040BF
:101CC000BC0000200C4810B50A4901604FF4E13116
:101CD0004160002181600C22C160C0E90412816171
:101CE000C161FFF73CFE002803D0BDE81040FEF7BD
:101CF00090BD10BD0038014004010020FEE7FEE762
:101D000070477047FEF7C0BE30B58FB028216846D7
:101D1000FEF741FA14210AA8FEF73DFA0121080452
:101D2000CDE900100024029402250491CDE907506A
:101D30004FF4E01009906846FFF72AF808B172B630
:101D4000FEE70F20CDE90A054FF48060CDE90C4095
:101D500002210AA80E94FEF72FFF002801D072B6C8
:101D6000FEE70FB030BD70470148FFF7AFBB000082
:101D70002C0000200148FFF7A9BB0000BC00002098
:101D8000F0B502681C4B1D4D1D4E1E4F1E4C4FF0F2
:101D9000804C984209D0A04207D0604505D0A842A7
:101DA00003D0B04201D0B84204D122F0700E4A688C
:101DB00042EA0E02984209D0A04207D0604505D001
:101DC000A84203D0B04201D0B84203D122F44075FA
:101DD000CA682A434D6922F080022A4302608A6859
:101DE000C2620A688262984201D0A04201D10969A8
:101DF000016301214161F0BD002C0140000400405D
:101E000000080040000C00400034014010B501F013
:101E10001F030121046A99408C430462016A9A40BD
:101E20001143016210BD10B5846842EA032224F414
:101E30007F440A432243826010BD826822F0700210
:101E40000A4342F00701816070470000F0B5026A62
:101E500022F001020262036A42688469124E24F091
:101E600073050C682C4323F002058B682B430D4D42
:101E7000A84201D0B04205D123F00807CB683B430C
:101E800023F00403A84201D0B04205D14D6922F4E9
:101E9000407215438A692A434260846149684163FC
:101EA0000362F0BD002C014000340140F0B5026A2D
:101EB00022F010020262026A436884690D6824F409
:101EC000E64444EA05248D6822F0200242EA051225
:101ED0000F4D104EA84201D0B04206D1CF6822F07B
:101EE000800242EA071222F04002A84201D0B0422A
:101EF00007D14D6923F4406343EA85038D6943EAC2
:101F0000850343608461496881630262F0BD00001B
:101F1000002C014000340140F0B5026A22F48072C6
:101F20000262026A4368C46922F4007224F07305F5
:101F30000C68124E2C438D6842EA05220E4DA842D1
:101F400001D0B04206D1CF6822F4006242EA0722F3
:101F500022F48062A84201D0B04207D14D6923F437
:101F6000405343EA05138D6943EA05134360C46196
:101F70004968C1630262F0BD002C01400034014099
:101F800030B5026A22F480520262046A4268C36970
:101F90000D6823F4E64343EA05238D6824F40054D6
:101FA00044EA0534084DA84202D0084DA84204D1A5
:101FB0004D6922F4804242EA85124260C361496859
:101FC0000164046230BD0000002C01400034014077
:101FD00010B5036A046A24F001040462846924F0E1
:101FE000F00444EA021423F00A020A438461026204
:101FF00010BD10B5036A23F0100303628369046AFD
:1020000023F4704343EA023224F0A00343EA0111AF
:102010008261016210BD000070B50446006801696C
:10202000E26821F44051114301612169A06808432D
:10203000616908432168CA6841F20C639A4302430C
:10204000CA6020684169A26921F44071114341616D
:102050001E492068884202D1FEF754FE01E0FEF7D7
:1020600041FE00EBC00101EB0012606864218000BA
:10207000B2FBF0F3B3FBF1F36FF018067343B2FB5E
:10208000F0F5B2FBF0F605EB8305322303EB051503
:10209000B5FBF1F5B6FBF1F605F0F00505EB06151D
:1020A000B2FBF0F6B2FBF0F0B0FBF1F06FF018020B
:1020B000504306EB800003EB0010B0FBF1F0216809
:1020C00000F00F002844886070BD00000038014017
:1020D0002DE9F041984617460E460446069D1DE040
:1020E000681C1BD02DB1FEF7C9FCA0EB0800A8426C
:1020F00014D92068C16821F4D071C1602068416999
:1021000021F001014161202084F83D0084F83E0067
:10211000002084F83C000320BDE8F08120680068BE
:1021200036EA000004D00020B842D9D00020F3E7FE
:102130000120F9E7FEE700000FB4054B10B503A935
:10214000044A029800F0EAF810BC5DF814FB0000A5
:102150004D2A0008280000200907090E002804DB8A
:1021600000F1E02080F80014704700F00F0000F14B
:10217000E02080F8141D704702E008C8121F08C153
:10218000002AFAD170477047002001E001C1121FF8
:10219000002AFBD1704700002DE9FF5F82B00021CB
:1021A000DDE90430020DDDF840B0034318D044F6F9
:1021B0001050A2F2FF3242431514119801281FD08B
:1021C000A5EB0B00401C5FEA000A4FF000064E4FE3
:1021D000DFF83891B046504615D5CAF1000413E037
:1021E000119801244AA3012801D16FEA0B0102983A
:1021F000119AC0E90031C0E9024206B0BDE8F09F83
:10220000CBF10000DFE704460021404A491842EBC9
:102210000450CDE9001012E0E00707D032463B46FB
:1022200040464946FDF7F4FF8046894632463B4624
:1022300010461946FDF7ECFF06460F466410002CC9
:10224000EAD1DDE90401DDE90023BAF1000F06DA85
:10225000FDF7DEFF42464B46FDF7DAFF05E0FEF7ED
:1022600003FA42464B46FEF7FFF904460E460022AB
:10227000284BFEF781FA03D84FF0FF30014607E004
:102280000022254B20463146FEF747F9FEF75BFA60
:10229000102409E0002C0ADB0A220023FEF778F85C
:1022A000039B30321A55641E50EA0102F2D1641CBD
:1022B000039AC4F111031444119A012A03D0012294
:1022C00008430DD10AE0084304D000204FF0110B61
:1022D000119072E7A3EB0B056D1E0DE05B4504DD6D
:1022E0004FF0000205F1010504E003DA4FF00002AF
:1022F000A5F10105002AECD002981199C0E902313C
:10230000C0E9004579E70000000014400000F03FFC
:10231000300000000000F0430000E03F2DE9FF4FD7
:1023200095B09B468946064600250FE2252877D1C1
:1023300000242746F84A0121059400E0044316F8DA
:10234000013F203B01FA03F01042F7D130782A28F0
:1023500011D06FF02F033078A0F13002092A16D87F
:10236000059A44F0020402EB820203EB420210449D
:10237000761C0590EFE759F8042B0592002A03DA42
:10238000504244F40054059044F00204761C307826
:102390002E2816D116F8010F44F004042A280DD077
:1023A0006FF02F023078A0F13003092B09D807EB2A
:1023B000870302EB4303C718761CF3E759F8047B45
:1023C000761C30786C280FD006DC4C2817D0682893
:1023D0000DD06A2814D104E0742810D07A280FD1C7
:1023E0000DE044F400140AE044F4801401E044F4E5
:1023F00040147278824202D104F58014761C761C57
:10240000307866280BD013DC582877D009DC0028F8
:1024100075D04528F6D04628F4D047281AD19DE13A
:1024200018E0632835D0642879D0652812D195E169
:10243000702873D008DC6728F1D069286FD06E2827
:102440000DD06F2806D1B5E073282CD0752875D033
:10245000782874D05A46179990476D1C75E1C4F3DB
:102460000250022809D003280DD0D9F80010042802
:102470000DD00D6009F1040967E1D9F80010EA17E1
:10248000C1E90052F6E7D9F800100D80F2E70D70AF
:10249000F0E719F8041B8DF8001000208DF80100FA
:1024A000EA46012003E059F804AB4FF0FF30610722
:1024B0004FF0000102D40DE008F101018846B94255
:1024C0000FDA8045F8DB1AF808100029F4D108E08B
:1024D00008F1010188468142FADB1AF80810002948
:1024E000F6D105985B46A0EB080721463846179AB7
:1024F00000F094FA284400EB080507E04DE029E1DC
:102500000DE01AF8010B5A4617999047B8F10108E7
:10251000F7D25B4621463846179A13E142E00A2279
:102520000092C4F302524FF0000A022A08D059F870
:1025300004CB032A4FEAEC710AD00DE029E02AE02F
:1025400009F1070121F00702F2E802C1914609E012
:102550000FFA8CFC4FEAEC71042A03D14FFA8CFC81
:102560004FEAEC71002907DA0A460021DCF1000C81
:1025700061EB02012D2202E0220504D52B228DF809
:102580000420012203E0E20701D02022F7E7904671
:1025900059E00A2102E010220DE010214FF0000A5C
:1025A00000910BE010224FF0000A44F004040827C9
:1025B000009203E008224FF0000A0092C4F3025296
:1025C000022A05D059F804CB0021032A08D009E0DB
:1025D00009F1070121F00702F2E802C1914605E086
:1025E0001FFA8CFC042A01D10CF0FF0C4FF00008FC
:1025F000220728D5702806D0009B83F0100353EAE9
:102600000A0305D00EE040228DF80420012208E0E4
:102610005CEA010206D030228DF804208DF8050016
:1026200002229046009B83F0080353EA0A030AD172
:102630005CEA010201D1620705D530228DF8042041
:102640004FF001087F1E582804D034A003900EA834
:1026500002900DE036A0F9E753466046009AFDF778
:1026600097FE84460398825C0298401E0290027096
:102670005CEA0100F0D1029806A9081A00F1200ACC
:10268000600702D524F4803400E00127574502DDBD
:10269000A7EB0A0000E0002000EB0A01009005987B
:1026A0004144401A0590E00306D45B462146179A40
:1026B000059800F0B3F90544002706E001A85A4642
:1026C000C05D179990476D1C7F1C4745F6DBE00302
:1026D0000CD55B462146179A059800F09FF90544F2
:1026E00004E030205A46179990476D1C0099481E07
:1026F00000900029F5DC08E0029802995A4600781B
:10270000491C0291179990476D1CBAF10001AAF17A
:10271000010AF1DC65E100000928010030313233A3
:10272000343536373839616263646566000000000D
:1027300030313233343536373839414243444546F7
:102740000000000000F058F90544761C307800289D
:102750007FF4ECAD19B02846BDE8F08F620700D4D5
:10276000062709F1070222F0070CFCE80223E146E4
:1027700003F000485FEA080C02D00FF2702C0DE065
:102780005FEA045C02D50FF2682C07E05FEAC47CC4
:1027900002D00FF2602C01E0AFF2700C4FF0FF3866
:1027A00023F00043CDF850C065280CD006DC452846
:1027B00009D046281DD047283DD13DE0662818D0D5
:1027C00067287ED138E00021112F01DB112000E0C5
:1027D000781CCDE9000106A90EA8FFF7DDFCDDE9B4
:1027E0000F010E9A03910021009207F1010A049152
:1027F0004DE04FF000400097CDE9011006A90EA86A
:10280000FFF7CAFCDDE90F0203920E9B119900222B
:10281000DDF80CA00093049211B9791C00EB010AB9
:10282000B7EB0A0004D4C0F1FF3007F1010A0490AD
:10283000AAEB0700019044E0012F00DA01270021F4
:10284000112F01DD112000E03846CDE9000106A975
:102850000EA8FFF7A1FCDDE90F010E9A03910021FC
:1028600004910092BA4621070CD40399514500DA2D
:102870008A46BAF1010F05DD009AAAF10101515C07
:10288000302908D0B84202DA10F1040F06DA01212B
:10289000CDE9011015E0AAF10101E9E7002805DC06
:1028A000049901440491AAEB000102E0411C514546
:1028B00000DD8A460499401A401C01904FF0004008
:1028C0000290200704D40198504501DBCDF8048024
:1028D00000208DF84F0002980DF14F07B0F1004F26
:1028E00025D02B200E9002984FF0020800280CDA19
:1028F000404202902D200E9007E00A210298FDF739
:1029000031FD3031029007F8011DB8F10001A8F146
:102910000108F2DC02980028EFD1791E0E980870A9
:10292000307800F0200040F0450007F8020D12A8B2
:10293000C01B00F107081498007800B1012000EBDB
:102940000A01019801EBE07105984144401A401ECC
:102950000590E00306D45B462146179A059800F0DF
:102960005DF805441498007818B15A4617999047B5
:102970006D1CE00324D55B462146179A059800F0AC
:102980004DF805441CE00498002807DBDDE903014D
:10299000884203DD0098405C179901E017993020C8
:1029A0005A469047049805F10105401C049001988F
:1029B000401E019004D12E205A46179990476D1C55
:1029C000BAF10001AAF1010ADDDC05E017F8010BFC
:1029D0005A46179990476D1CB8F10001A8F10108FB
:1029E000F4DC5B462146179A0598ABE62D00000003
:1029F0002B000000200000002DE9F04104460025D6
:102A00001E461746880404D405E039462020B04706
:102A10006D1C641EF9D52846BDE8F0812DE9F04112
:102A2000044600251E469046C80301D5302700E025
:102A30002027880404D505E041463846B0476D1C80
:102A4000641EF9D52846BDE8F081000038B504467B
:102A50008DF800000223012269460248FEF7E8FFD4
:102A6000204638BD04010020FEF716F8FFF74CF9A8
:102A7000FFF738F8FFF782F8FFF7B6F8FFF7ECF842
:102A8000FFF720F900210548FEF79EFE3C2104488F
:102A9000FEF7D4FC0348FEF7ABFBFEE77400002012
:102AA000BC0000202C0000200000000000000000FE
:102AB00001020304060708090000000001020304E4
:102AC000E02A0008000000202C0000007821000807
:102AD0000C2B00082C0000201C0500008821000899
:102AE000DC05000000000000000000000000000005
:102AF00000000000000000000100000010000000C5
:0C2B0000000000000024F40000000000B1
:0400000508000131BD
:00000001FF
