:020000040800F2
:10000000B0080020450100087D0F00087F0F0008A0
:10001000830F0008870F00088B0F00080000000006
:100020000000000000000000000000008F0F00082A
:10003000910F000800000000930F0008950F0008C2
:100040005F0100085F0100085F0100085F01000810
:100050005F0100085F0100085F0100085F01000800
:100060005F0100085F0100085F0100085F010008F0
:100070005F0100085F0100085F0100085F010008E0
:100080005F0100085F0100085F0100085F010008D0
:100090005F0100085F0100085F0100085F010008C0
:1000A0005F0100085F0100085F0100085F010008B0
:1000B0005F0100085F0100085F0100085F010008A0
:1000C0005F0100085F0100085F0100085F01000890
:1000D0005F0100085F0100085F010008970F00083A
:1000E0005F0100085F0100085F0100085F01000870
:1000F0005F0100085F0100085F0100085F01000860
:100100005F0100085F0100085F0100085F0100084F
:100110005F0100085F0100085F0100085F0100083F
:100120005F0100085F0100085F0100085F0100082F
:10013000DFF80CD002F09EF9004800472D0F0008B0
:10014000B00800200648804706480047FEE7FEE763
:10015000FEE7FEE7FEE7FEE7FEE7FEE7FEE7FEE777
:1001600047020008310100080CB500200190009002
:100170006C48006840F480306A49086000BF6948F4
:10018000006800F4003000900198401C0190009835
:1001900018B90198B0F5A06FF1D16248006800F479
:1001A000003010B10120009001E000200090009884
:1001B000012843D15C48006840F010005A490860AB
:1001C0000846006820F0030008600846006840F018
:1001D0000200086053484068524948600846406839
:1001E00048600846406840F48060486008464068BF
:1001F00020F47C1048600846406840F4E8104860ED
:100200000846006840F08070086000BF45480068FC
:1002100000F000700028F9D04248406820F0030048
:10022000404948600846406840F00200486000BF0E
:100230003C48406800F00C000828F9D10CBD10B50E
:10024000FFF792FF10BD10B53648006840F001007E
:1002500034490860084640683449084031494860DC
:1002600008460068324908402E4908600846006880
:1002700020F4802008600846406820F4FE004860B2
:100280004FF41F008860FFF7DAFF4FF00060294944
:10029000086010BD10B5002100200022214B5B68D2
:1002A00003F00C0121B1042906D0082928D107E068
:1002B000214B224C236027E01F4B204C236023E07E
:1002C000184B5B6803F47010164B5B6803F48032C4
:1002D000022303EB904022B9194B4343174C236090
:1002E0000DE0104B5B6803F4003323B1144B434320
:1002F000124C236003E0104B4343104C236003E097
:100300000D4B0E4C236000BF00BF064B5B68C3F370
:1003100003130C4CE15C094B1B68CB40074C23607A
:1003200010BD000000100240002002400000FFF855
:10033000FFFFF6FE08ED00E000127A00000000204A
:1003400000093D000400002031490143314A116099
:10035000704770B5002100230F22C47804B32D4CE0
:10036000246804F4E064C4F5E064210AC1F10403E4
:10037000CA40447804FA03F1847814402143090107
:10038000254C0678A155047804F01F050124AC40E3
:1003900005786D11AD0005F1E025C5F8004109E0D3
:1003A000047804F01F050124AC401C4D067876113A
:1003B00045F8264070BD1A4A0A400243154B1B1FE0
:1003C0001A60704739B1134A121D12680243114B6B
:1003D0001B1D1A6006E00F4A121D126882430D4B66
:1003E0001B1D1A607047042808D14FF0E0210969ED
:1003F00041F004014FF0E022116107E04FF0E021ED
:10040000096921F004014FF0E022116170470000FA
:100410000000FA050CED00E000E400E080E100E0FF
:1004200080FFFF1F10B50446CC48844208D101214B
:10043000042000F02DFB0021042000F029FB46E001
:10044000C748844208D10121082000F021FB002187
:10045000082000F01DFB3AE0C248844208D1012187
:10046000102000F015FB0021102000F011FB2EE001
:10047000BD48844208D10121202000F009FB002161
:10048000202000F005FB22E0B848844208D1012179
:10049000402000F0FDFA0021402000F0F9FA16E0BB
:1004A000B348844208D10121802000F0F1FA0021F4
:1004B000802000F0EDFA0AE0AE48844207D1012125
:1004C000801500F0E5FA0021A01500F0E1FA10BD5A
:1004D00010B50121084600F0DBFA0021012000F0F0
:1004E000D7FA10BD2DE9F041024600250026002074
:1004F00000230024002791F803C00CF00F0591F8A9
:1005000003C00CF0100CBCF1000F03D091F802C036
:100510004CEA050591F800C0BCF1000F31D0146819
:1005200000202BE04FF0010C0CFA00F3B1F800C0F2
:100530000CEA03069E4220D183004FF00F0C0CFA08
:1005400003F7BC4305FA03FC4CEA040491F803C02A
:10055000BCF1280F06D14FF0010C0CFA00FCC2F8D8
:1005600014C00AE091F803C0BCF1480F05D14FF068
:10057000010C0CFA00FCC2F810C0401C0828D1D3B2
:100580001460B1F800C0BCF1FF0F34DD54680020E6
:100590002EE000F1080C4FF0010808FA0CF3B1F856
:1005A00000C00CEA03069E4221D183004FF00F0CDD
:1005B0000CFA03F7BC4305FA03FC4CEA040491F877
:1005C00003C0BCF1280F05D100F1080C08FA0CF8A3
:1005D000C2F8148091F803C0BCF1480F07D100F1B4
:1005E000080C4FF0010808FA0CF8C2F81080401C03
:1005F0000828CED35460BDE8F0814FF6FF7101802A
:10060000022181700421C170704702460020936866
:100610000B400BB1012000E00020704701468868C4
:1006200080B2704702460020D3680B400BB1012016
:1006300000E0002070470146C86880B27047016141
:100640007047416170470AB1016100E04161704744
:10065000C16070474FF480320A43826181618261D8
:1006600082698269704702460020434B18684FF642
:100670008073184040EA021008433F4B18607047EF
:100680003E49C8617047F0B50A46002300240021A6
:10069000002500F00046B6F1004F02D1364EF16958
:1006A00001E0354E7168C0F3034583B200F4401693
:1006B000B6F5401F08D121F070612F4E766826F004
:1006C00070662D4F7E6012E000F48016B6F5801F34
:1006D00006D1032606FA05F4A14341F0706106E055
:1006E000460D360103FA06F6B14341F0706122B1BE
:1006F000460D360103FA06F6314300F00046B6F126
:10070000004F02D11C4EF16101E01B4E7160F0BD43
:1007100030B500228B071C0F0F2303FA04F2164B8F
:1007200008338C1053F824309343134C08348D1045
:1007300044F8253023468C1053F824308C07240FBE
:1007400000FA04F423430C4C08348D1044F825308F
:1007500030BD0A49DC3108607047000000080140E4
:10076000000C01400010014000140140001801403D
:10077000001C014000200140000001400000204218
:10078000DF48006840F00100DD4908600846406825
:10079000DC490840DA49486008460068DA49084000
:1007A000D74908600846006820F4802008600846A1
:1007B000406820F4FE0048604FF41F0088607047D6
:1007C000CF49096821F48031CD4A1160114609688A
:1007D00021F480211160B0F5803F03D0B0F5802F67
:1007E0000ED106E0C649096841F48031C44A11605F
:1007F00007E0C349096841F4A021C14A116000E043
:1008000000BF00BF704710B5014600220023002042
:100810004A11012A02D1BA4C236806E0022A02D109
:10082000B74C236A01E0B64C636A01F01F02012451
:1008300094401C400CB1012000E0002010BD38B5F0
:10084000002000900024002500BF3120FFF7DBFFCF
:1008500005460098401C00900098B0F5A06F01D0AC
:10086000002DF2D03120FFF7CEFF08B1012400E0C7
:100870000024204638BD01460020A14A106820F01F
:10088000F80040EAC10010607047A0490860704756
:10089000024600209A4B586820F47C1042EA01037B
:1008A0001843974B5860704798490866704701464F
:1008B0000020934A506820F00300084350607047BE
:1008C0008F48406800F00C007047014600208C4AB9
:1008D000506820F0F0000843506070470146002047
:1008E000874A506820F4E060084350607047014632
:1008F0000020834A506820F4605040EAC1005060F4
:10090000704729B17E4A527A02437D4B5A7204E005
:100910007B4A527A82437A4B5A7270477B49D8316C
:100920000860704701460020754A506820F4404036
:100930000843506070470021714A20321170704A9C
:1009400082F82010012802D004280AD104E00121F5
:100950006B4A2032117005E00521694A203211707E
:1009600000E000BF00BF70476949086070476449F4
:10097000096A0143624A1162704765494439086057
:10098000704730B500210022002400235C4D6D68C3
:1009900005F00C0121B1042905D0082923D105E077
:1009A0005C4D056022E05B4D05601FE0544D6D68B5
:1009B00005F47012524D6D6805F48034022505EB84
:1009C00092421CB9544D554305600BE04C4D6D6887
:1009D00005F400351DB1504D5543056002E04D4D05
:1009E0005543056002E04B4D056000BF00BF444D1C
:1009F0006D6805F0F0010909484D6B5C0568DD4044
:100A000045603F4D6D6805F4E061090A434D6B5C3C
:100A10004568DD4085603A4D6D6805F46051C90A4E
:100A20003E4D6B5C4568DD40C560354D6D6805F435
:100A30004041890B3A4D6B5CC568B5FBF3F5056128
:100A400030BD29B12E4A526902432D4B5A6104E050
:100A50002B4A526982432A4B5A61704729B1284A6E
:100A600092690243264B9A6104E0254A92698243C7
:100A7000234B9A61704729B1214AD2690243204B26
:100A8000DA6104E01E4AD26982431D4BDA61704785
:100A900029B11B4AD2680243194BDA6004E0184AB4
:100AA000D2688243164BDA60704729B1144A126942
:100AB0000243134B1A6104E0114A12698243104B3E
:100AC0001A61704712494039086070470F49C8647D
:100AD00070470B49C87170470948406A40F0807000
:100AE00007494862704701460020054A92680A405B
:100AF0000AB1012000E00020704701498872704768
:100B0000001002400000FFF8FFFFF6FE0000424226
:100B10008004424200127A0000093D0014000020C7
:100B20002400002010B50446FB48844209D101216D
:100B30008803FFF7ADFF00214FF48040FFF7A8FFC7
:100B400032E0F648844209D101214804FFF7ADFFA5
:100B500000214FF40030FFF7A8FF25E0F048844261
:100B600009D101218804FFF7A0FF00214FF4802064
:100B7000FFF79BFF18E0EB48844209D10121C8042C
:100B8000FFF793FF00214FF40020FFF78EFF0BE0EB
:100B9000E548844208D101210805FFF786FF0021BE
:100BA0004FF48010FFF781FF10BD2DE9F04786B0AC
:100BB00005460E460024A24600BFA1460027B08984
:100BC00000B100BF2F462C8A4CF6FF700440F0881D
:100BD00004432C82AC894EF6F3100440B08831896E
:100BE0000843718908430443AC81AC8A4FF6FF4047
:100BF0000440B0890443AC8201A8FFF7C2FEC64896
:100C0000874202D1DDF810A001E0DDF80CA0A88930
:100C100000F4004040B10AEBCA0000EB0A10316852
:100C20004900B0FBF1F807E00AEBCA0000EB0A103C
:100C300031688900B0FBF1F86420B8FBF0F00401E2
:100C40002009642101FB1089A88900F4004040B10B
:100C5000322000EBC900B0FBF1F000F007000443C4
:100C600008E0322000EB09106421B0FBF1F000F045
:100C70000F0004432C8106B0BDE8F0874FF41651F5
:100C8000016000218180C18001810C21418100210E
:100C90008181704710B502460020108A4FF2FF0391
:100CA00018400B884C8823438C882343CC882343EB
:100CB0001843108210BD0021018041808180C180D5
:100CC000704721B1828942F40052828104E0828916
:100CD0004DF6FF731A4082817047F0B50346002439
:100CE00000260025002040F66A17B94200D100BF57
:100CF0001846C1F3421401F01F06012707FA06F552
:100D0000012C01D10C3004E0022C01D1103000E0A4
:100D100014301AB107682F43076002E00768AF4339
:100D20000760F0BD1AB1838A0B43838202E0838A95
:100D30008B4383827047028A4FF6F0731A40028217
:100D4000028A0A430282704782894FF2FF731A4077
:100D5000828182890A438281704721B1828942F06F
:100D60000202828104E082894FF6FD731A4082817B
:100D70007047028A4FF6DF731A400282028A0A43E2
:100D80000282704721B1028A42F48042028204E06A
:100D9000028A4BF6FF731A4002827047C1F30802C1
:100DA0008280704701468888C0F3080070478189B7
:100DB00041F0010181817047028BD2B20283028B24
:100DC00042EA012202837047028B02F47F420283CF
:100DD000028B0A430283704721B1828A42F02002CB
:100DE000828204E0828A4FF6DF731A408282704763
:100DF00021B1828A42F01002828204E0828A4FF698
:100E0000EF731A408282704721B1828A42F0080251
:100E1000828204E0828A4FF6F7731A40828270471A
:100E200021B1828942F40042828103E08289C2F3C7
:100E30000E028281704721B1828A42F4006282826E
:100E400004E0828A4FF2FF731A4082827047828ADE
:100E50004FF6FB731A408282828A0A43828270476D
:100E600021B1828A42F00202828204E0828A4FF635
:100E7000FD731A408282704702460020B1F5007F60
:100E800000D100BF13880B400BB1012000E000200F
:100E9000704701F40072B2F5007F00D100BFCA4371
:100EA0000280704770B50246002400230025002010
:100EB00040F66A16B14200D100BFC1F3421501F0FD
:100EC0001F03012606FA03F3012D02D19689334050
:100ED00006E0022D02D1168A334001E0968A3340A3
:100EE0000C12012606FA04F41688344013B10CB132
:100EF000012000E0002070BD10B50022002340F664
:100F00006A14A14200D100BF0A1201249440A3B286
:100F1000DC43048010BD0000003801400044004064
:100F200000480040004C00400050004000F070F8C5
:100F300000F0B6FA00F070FB00F07DFA00F0A4FAC1
:100F400004A001F0A9FA00F0B5FF01E001F008F8F3
:100F5000FCE700000D0AD2B0BBF02057462D4553E8
:100F600050383236362057694669C4A3BFE9B2E229
:100F7000CAD4C0FDB3CC0D0A00000000704700BF0A
:100F8000FEE700BFFEE700BFFEE700BFFEE77047D9
:100F900070477047704710B540F225511A48FFF767
:100FA00081FFD8B11848FFF7FDFEC4B21748B0F86A
:100FB0000004C0F30E0040F2FF3188420EDA1349FC
:100FC000B1F80014C1F30E00411C104AB2F800241D
:100FD00061F30E020D49A1F800240C5440F22441A3
:100FE0000948FFF75FFF01280DD10848B0F8000459
:100FF00020F4004000F500400449A1F80004024834
:10100000FFF7D0FEC4B210BD0048004044000020ED
:1010100000B585B001218803FFF720FD01210420E0
:10102000FFF71CFD4FF40070ADF8100018208DF88C
:10103000130003208DF8120004A92248FFF752FA8A
:101040004FF48060ADF8100004208DF8130004A95F
:101050001C48FFF747FA4FF4E13000900020ADF84C
:101060000400ADF80600ADF80800ADF80C000C2047
:10107000ADF80A0069461448FFF797FD01211248B0
:10108000FFF71FFE05B000BD70B504460D46E1B286
:101090000D48FFF783FE00BF80210B48FFF7ECFEF1
:1010A0000028F9D0204670BD10B5044600BF2021AD
:1010B0000548FFF7E1FE0028F9D00348FFF772FE6C
:1010C00010BD00000008014000380140F0B50346A3
:1010D0000D461646002729460A2E03D00020087028
:1010E0002846F0BD33B9302001F8010B002008700C
:1010F0002846F6E7002B03DA2D2001F8010B5B42AE
:1011000042F210720DE093FBF2F404B937B104F12E
:10111000300001F8010B04FB123301270A2092FB77
:10112000F0F2002AEFDC002008702846D9E70FB45F
:1011300070B586B006460CA8019073E00B98007855
:101140005C281CD10B98401C0B9000786E2809D0AD
:1011500072280FD10D213046FFF720FE0B98401C5E
:101160000B900BE00A213046FFF718FE0B98401C4D
:101170000B9003E00B98401C0B9000BF4BE00B98CA
:101180000078252840D10B98401C0B9000786428EB
:1011900018D0732833D1019810C801900BE0217842
:1011A0003046FFF7FBFD00BF80213046FFF764FEAD
:1011B0000028F9D0641C20780028F0D10B98401C3E
:1011C0000B9020E0019820C801900A2202A928462D
:1011D000FFF77CFF02AC0BE021783046FFF7DEFD25
:1011E00000BF80213046FFF747FE0028F9D0641C7D
:1011F00020780028F0D10B98401C0B9003E00B984E
:10120000401C0B9000BF06E00B9810F8011B0B90E0
:101210003046FFF7C3FD00BF80213046FFF72CFEAC
:101220000028F9D00B980078002887D106B070BC50
:101230005DF814FB08B501214020FFF70FFC4020AA
:10124000ADF8000010208DF8030003208DF8020097
:1012500069465148FFF746F908BD10B5FFF7EAFFA8
:1012600040214D48FFF7EBF910BD08B54020ADF81F
:10127000000048208DF8030069464748FFF732F91F
:1012800008BD08B54020ADF8000010208DF803001F
:1012900003208DF8020069463F48FFF723F908BD97
:1012A00070B50025002424E000BF40213A48FFF734
:1012B000ACF90028F9D0282000F004F94021364884
:1012C000FFF7A3F901280DD100BF40213248FFF7F5
:1012D0009CF90128F9D0C4F1070101208840C0B26F
:1012E000054304E0C4F10701012088408543601CE8
:1012F000C4B2082CD8DB284670BD10B50446FFF7F1
:10130000C0FF40212448FFF79CF944F2506000F0F0
:10131000D9F840212048FFF792F91E2000F0D2F8BA
:10132000FFF7A3FF40211C48FFF76FF980BB00BF08
:1013300040211948FFF769F90028F9D000BF402182
:101340001548FFF762F90128F9D0FFF7A9FF2070CF
:10135000FFF7A6FF6070FFF7A3FFA070FFF7A0FFE5
:10136000E070FFF79DFF2071FFF78BFF40210A48D7
:10137000FFF765F9207861780844A1780844E1789E
:1013800008442179884201D1012010BD0020FCE7EA
:10139000FFE70020F9E700000018014008B501212F
:1013A0000820FFF75BFB2020ADF8000010208DF82F
:1013B000030003208DF8020069462748FFF792F8E2
:1013C00001210820FFF74AFB0120ADF80000694623
:1013D0002148FFF787F801210820FFF73FFB022093
:1013E000ADF8000069461C48FFF77CF80121102089
:1013F000FFF734FB4FF48070ADF8000010208DF83B
:10140000030003208DF8020069461448FFF76AF8CC
:1014100001211020FFF722FB4FF40070ADF800000F
:1014200010208DF8030003208DF8020069460B4858
:10143000FFF758F808BD10B5FFF7B0FF20210648A8
:10144000FFF7FDF801210448FFF7F9F802210248EF
:10145000FFF7F5F810BD0000000C0140001001403E
:1014600008B501210420FFF7F9FA4FF48070ADF8B8
:10147000000010208DF8030003208DF8020069465B
:101480000648FFF72FF808BD10B5FFF7E9FF4FF446
:1014900080710248FFF7D5F810BD00000008014038
:1014A0001A48006840F08070184908600020184908
:1014B00048600846006840F0010008607047144822
:1014C0004068704731B5002312480068124DB0FBE8
:1014D000F5F0009D00FB05F400BFFFF7F0FF0246AA
:1014E00011E0FFF7ECFF014691420CD0914202D986
:1014F000881A034403E0C2F1FF30084403440A465B
:10150000A34200D300E0ECE700BF38BDFCED00E0F3
:10151000001000E00000002040420F0008B54FF42A
:10152000A060FEF711FF27208DF8000000208DF845
:1015300001008DF8020001208DF803006846FEF7D7
:1015400008FF08BD00B585B001218804FFF793FAB4
:1015500001210820FFF782FA4FF48060ADF81000F7
:1015600018208DF8130003208DF8120004A9FB4801
:10157000FEF7B8FF4FF40060ADF8100004208DF8BE
:10158000130004A9F548FEF7ADFF4FF4E1300090D9
:101590000020ADF80400ADF80600ADF80800ADF885
:1015A0000C000C20ADF80A006946ED48FFF7FDFA83
:1015B000012240F22551EA48FFF78FFB012240F259
:1015C0002441E748FFF789FBFFF7A8FF0121E44822
:1015D000FFF777FB05B000BD08B501210820FFF734
:1015E0003DFA4FF48070ADF8000010208DF8030034
:1015F00003208DF802006946D848FEF773FF0121E9
:101600000820FFF72BFA4FF40070ADF80000694690
:10161000D248FEF767FF08BD10B5FFF7DDFFFFF703
:1016200091FF4FF40071CD48FFF709F84FF4807136
:10163000CA48FFF706F810BD10B54FF40071C7484F
:10164000FEF7FFFFC748FFF73DFF4FF40071C348A7
:10165000FEF7F5FF10BD2DE9F04106460C46154694
:101660001F46C148B0F800046FF30E00BE49A1F850
:1016700000043246BDA1BA48FFF759FD1CB915B99F
:101680000120BDE8F0814FF47A7107FB01F0FFF70C
:1016900019FF0020B449B1F80014C1F30E01B24A99
:1016A00050541146B3A000F0F7FEB4B1ADB12146DD
:1016B000AD4800F0AFFE08B1012000E0002040B9C5
:1016C0002946A94800F0A6FE08B1012000E000204C
:1016D00008B10120D5E70020D3E744B12146A24854
:1016E00000F098FE08B10120CBE70020C9E72946A9
:1016F0009D4800F08FFE08B10120C2E70020C0E73E
:1017000000B58BB09CA101A800F0D6FE4FF4FA738F
:1017100000229EA101A8FFF79EFF0BB000BD10B5EF
:1017200000244FF400718D48FEF789FF98A000F067
:10173000B3FE9B48FFF7C6FE15E0214699A000F0D6
:10174000ABFE4FF4FA73002290A19CA0FFF783FF39
:1017500028B121469AA000F09FFE012010BDFFF79E
:101760006BFF601CC4B20A2CE7DB0020F6E710B563
:10177000044624B1012C0AD0022C18D10FE040F607
:10178000C41396A281A198A0FFF765FF10BD40F693
:10179000C41392A27DA197A0FFF75DFFF6E740F684
:1017A000C4138EA279A196A0FFF755FFEEE70020A3
:1017B000ECE730B59FB004460D462B46224693A178
:1017C00001A800F079FE41F2883300226FA101A840
:1017D000FFF741FF1FB030BD70B5A0B004460D4605
:1017E00016462B4622468EA102A8009600F064FE03
:1017F0004FF47A73002265A102A8FFF72CFF20B0F6
:1018000070BD10B586B004460CB1012000E0002088
:10181000024689A101A800F04FFE4FF4FA7300229E
:101820005AA101A8FFF717FF06B010BDF0B5B9B077
:1018300006460F4614461D46642120A800F0DFFD31
:1018400016B1012E10D107E03B467FA27FA120A850
:10185000009400F031FE08E03B4680A27BA120A866
:10186000009400F029FE00E000BF00BF052D06DA5D
:1018700020AB2A467AA102A800F01EFE04E020AAAE
:101880007CA102A800F018FE4FF47A637DA23FA16C
:1018900002A8FFF7E0FE39B0F0BD70B5BCB0044659
:1018A0000D461646FCB12B4601227AA11EA800F077
:1018B00003FE32467CA1684600F0FEFD4FF4FA7349
:1018C000002232A11EA8FFF7C6FE50B14FF4FA73F2
:1018D00000222EA16846FFF7BEFE10B101203CB0E9
:1018E00070BD0020FBE72B4600226AA11EA800F075
:1018F000E3FD4FF4FA73002224A11EA8FFF7ABFE0C
:10190000EDE710B54FF4FA73002220A16AA0FFF7AB
:10191000A2FEA0B16CA1144800F07CFD08B1022029
:1019200010BD6CA1104800F075FD08B10320F7E769
:101930006BA10D4800F06EFD08B10420F0E7002017
:10194000EEE710B500244FF4FA7300220FA15AA05D
:10195000FFF781FE002800D0C8E0F9E0000C01404C
:101960000048004020A107004400002025730D0A14
:10197000000000002573000041542B4357444843A6
:10198000505F4355523D312C310000004F4B000059
:101990000D0A4154B2E2CAD42E2E2E2E2E0D0A006C
:1019A00080841E000D0A4154B2E2CAD4B4CECAFDEE
:1019B0002025642E2E2E2E2E2E0D0A0041540000BE
:1019C0000D0A4154B2E2CAD4C6F4B6AFB3C9B9A63F
:1019D0002025642E2E2E2E2E2E0D0A006E6F2063D3
:1019E00068616E676500000041542B43574D4F44BA
:1019F000453D310041542B43574D4F44453D320046
:101A000041542B43574D4F44453D330041542B43E4
:101A1000574A41503D222573222C22257322000073
:101A200041542B43575341503D222573222C2225EC
:101A300073222C312C25640041542B4349504D55C1
:101A4000583D2564000000005443500022257322B5
:101A50002C222573222C25730000000055445000D1
:101A600041542B43495053544152543D25642C2535
:101A70007300000041542B43495053544152543D8C
:101A800025730000414C5245415920434F4E4E456D
:101A90004354000041542B4349505345525645523C
:101AA0003D25642C2573000041542B434950535469
:101AB0004F3D25730000000041542B4349505354BF
:101AC00041545553000000005354415455533A3289
:101AD0000D0A00005354415455533A330D0A000087
:101AE0005354415455533A340D0A0000ADA1B14846
:101AF00000F090FC10B144F0010401E024F0010476
:101B0000ADA1AC4800F086FC10B144F0020401E045
:101B100024F00204ACA1A74800F07CFC10B144F012
:101B2000040401E024F00404ABA1A24800F072FC1C
:101B300010B144F0080401E024F00804AAA19D4873
:101B400000F068FC10B144F0100401E024F010042F
:101B5000204610BD2DE9F04105460F464FF4FA73BB
:101B60000022AFF2D811A4A0FFF775FDA5A19148FE
:101B700000F050FC06460EB1B61D02E00020BDE8A4
:101B8000F081002409E0305D2855285D222802D12B
:101B90000020285503E0601CC4B2BC42F3DB00BF48
:101BA0000120ECE72DE9F04105460F464FF4FA73AA
:101BB0000022AFF2282190A0FFF74DFD93A17D48B0
:101BC00000F028FC06460EB1F61D02E00020BDE83C
:101BD000F081002409E0305D2855285D222802D1DB
:101BE0000020285503E0601CC4B2BC42F3DB00BFF8
:101BF0000120ECE710B54FF4FA730022AFF2742124
:101C000084A0FFF728FD08B9002010BD4FF4FA7337
:101C100084A2AFF2882184A0FFF71DFDF5E710B57F
:101C20008448FFF74FFC84A18448FFF780FA84487A
:101C3000FFF748FC10BD2DE9F04186B007460C4681
:101C400015461E464FF0000847B12246AFF2DC2190
:101C50007A48FFF76CFA4FF001081BE0052E06DA10
:101C6000AB1C324677A101A800F026FC04E0AA1CB8
:101C700079A101A800F020FC642300227AA101A828
:101C8000FFF7E9FC4FF4FA73002278A12046FFF732
:101C9000E2FC8046404606B0BDE8F08170B50446DF
:101CA00000254448B0F800046FF30E004149A1F844
:101CB00000040846B0F8000420F40040A1F8000435
:101CC00000BF3C48B0F80004C00B0028F9D0002049
:101CD0003849B1F80014C1F30E01364A50540CB122
:101CE000154605E063A1334800F094FB00B1314D87
:101CF000284670BD2DE9F041054664230022AFF26D
:101D000074315EA0FFF7A7FC29A12A4800F082FBEE
:101D10008046B8F1000F09D05BA1264800F07AFB9D
:101D200000F10B07A8EB0700C6B202E00020BDE8F7
:101D3000F081002403E0385D2855601CC4B2B44231
:101D4000F9DB0020A8550120F1E710B588B0044662
:101D5000224650A1684600F0AFFB41F288330022D2
:101D6000AFF2D8316846FFF776FC10B1012008B019
:101D700010BD0020FBE710B588B00446224649A1FB
:101D8000684600F099FB41F288330022AFF204412B
:101D90006846FFF760FC10B1012008B010BD0020BC
:101DA000FBE700002B4349505354415455533A30FC
:101DB0002C000000440000202B4349505354415450
:101DC00055533A312C0000002B4349505354415491
:101DD00055533A322C0000002B4349505354415480
:101DE00055533A332C0000002B434950535441546F
:101DF00055533A342C00000041542B43494653526A
:101E000000000000415049502C2200005354414929
:101E1000502C220041542B4349504D4F44453D31F5
:101E2000000000003E00000041542B434950534540
:101E30004E44000040420F002B2B2B000048004076
:101E400020A1070041542B43495053454E443D25A2
:101E5000642C25640000000041542B434950534535
:101E60004E443D25640000003E20000053454E4492
:101E7000204F4B002B4950440000000041542B439D
:101E8000574C49460000000041542B43574C4946EB
:101E90000D0D0A0041542B43495041503D222573FA
:101EA0002200000041542B4349505354413D222508
:101EB0007322000010B5D5A000F0EEFADAA000F011
:101EC000EBFA4FF48071DE48FEF7B9FB00BFFFF775
:101ED00026FC0028FBD0DBA000F0DEFA00BF0120CA
:101EE000FFF745FC0028FAD0DFA000F0D5FA00BFCC
:101EF0000022E4A1E6A0FFF76FFC0028F8D0E5A0DF
:101F000000F0CAFA00BF0120FFF77BFC0028FAD0DE
:101F1000E6A000F0C1FA00BFEBA2EDA10120FFF79F
:101F2000BCFC0028F8D01421EB48FFF713FEE8A30F
:101F3000E94AD7A1E94800F0AFFAE948B0F800044F
:101F40006FF30E00E649A1F800040846B0F800045B
:101F500020F40040A1F80004E2A000F09DFA10BDBA
:101F600010B586B0DE48B0F80004C00B002873D06E
:101F7000002240F22551E148FEF7AFFE0020D8498B
:101F8000B1F80014C1F30E01D54A50541146DCA03B
:101F900000F082FADDA1D24800F03CFADE49086088
:101FA000002871D008460068007ADC4908700846AD
:101FB0000178DBA000F070FAD8480078312804D00E
:101FC00032282DD033286BD14AE0D3480068807A7C
:101FD000D249087008460078302802D031281CD138
:101FE0000DE04FF48071CF48FEF729FB4FF40071EC
:101FF000CC48FEF726FB0020CB4908700EE04FF4DA
:102000000071C848FEF71BFB4FF48071C548FEF70E
:1020100018FB0120C449087000E000BF00BF40E089
:10202000BD480068807ABD490870084600783028AD
:1020300002D0312811D107E001218148FEF7FFFAD3
:102040000020BA49087009E001217D48FEF7F9FA3D
:102050000120B649087001E0D5E000BF00BF20E0D4
:10206000AD480068807AAD4908700846007830288D
:1020700002D0312811D108E002217148FEF7DFFAC1
:102080000020AB49087009E018E002216C48FEF717
:10209000D8FA0120A649087000E000BF00BF00E0A8
:1020A00000BF00BFA24800780090A04803789E4877
:1020B0000278A0A1884800F0FFF977E0A4A1884841
:1020C00000F0A8F99449086030B308460068C07A67
:1020D0009249087008460078302802D0312812D181
:1020E00008E04FF480719D48FEF7ABFA00209C4950
:1020F000087009E04FF480719848FEF7A0FA0120BB
:102100009749087000E000BF00BF9548027895A18C
:10211000714800F0D1F949E099A1714800F07AF9CD
:102120007D49086000B399A16D4800F073F99B499F
:102130000860C8B1784800680968884236D2974874
:10214000007875490978401A0C309549087008469E
:10215000027871480168604800F038F900215E4853
:102160008F4A1278815421E08EA15D4800F052F927
:10217000E0B19148FFF7C1F8794803788E4840787C
:102180008D4909788C4AD278CDE90403CDE9022142
:102190008948807866490978CDE90010634803785A
:1021A0006148027885494C4800F086F984A14C4882
:1021B00000F030F95849086080B10846006840795D
:1021C000303881490870444800F036F904467E48AA
:1021D0000378224640490020FFF72DFD4048B0F823
:1021E00000046FF30E003E49A1F800040846B0F861
:1021F000000420F40040A1F80004012240F225511F
:102200003E48FEF76AFD06B010BD00000D0AD5FD80
:10221000D4DAC5E4D6C32045535038323636202EA2
:102220002E2E2E2E2E0D0A000D0ACAB9C4DC204512
:10223000535038323636202E2E2E2E2E2E0D0A00DA
:10224000000C01400D0AD5FDD4DAC5E4D6C3B9A40B
:10225000D7F7C4A3CABDCEAA204150202E2E2E2EC1
:102260002E2E0D0A000000000D0AD5FDD4DAB4B4FC
:10227000BDA857694669C8C8B5E3202E2E2E2E2E5C
:102280002E0D0A0077696C646669726500000000B3
:1022900064686B000D0AD4CAD0EDB6E0C1ACBDD302
:1022A000202E2E2E2E2E2E0D0A0000000D0ABFAA63
:1022B000C6F4B7FECEF1C6F7C4A3CABD202E2E2E9B
:1022C0002E2E2E0D0A0000003138303000000000A4
:1022D000383038300000000046040020C4260008D2
:1022E000440000200D0AC5E4D6C3204553503832BF
:1022F000363620CDEAB1CF0D0A000000004800407C
:1023000075634368203D25730A000000434D445F18
:102310004C45445F00000000300000202E000020EB
:1023200025630A00001001402A0000202B00002035
:102330002C000020434D445F4C45445F25645F25DD
:10234000645F25645F454E444C45445F454E440000
:10235000434D445F42555A5A45525F0000080140C0
:102360002D000020434D445F42555A5A45525F2587
:10237000645F454E4442555A5A45525F454E4400AB
:10238000434D445F554152545F0000005F454E4449
:10239000554152545F454E44000000003400002077
:1023A00029000020434D445F524541445F414C4C5D
:1023B0005F454E440000000038000020342700082C
:1023C0002B4950442C0000002800002040EA010363
:1023D0009B0703D009E008C9121F08C0042AFAD2DB
:1023E00003E011F8013B00F8013B521EF9D270479F
:1023F000D2B201E000F8012B491EFBD27047002247
:10240000F6E710B513460A4604461946FFF7F0FFF3
:10241000204610BD30B505462A460B4612F8010B82
:1024200013F8014B08B1A042F8D01CB1002802D02B
:102430006D1CF1E7284630BD421C10F8011B002935
:10244000FBD1801A704730B50B4601460020202290
:10245000012409E021FA02F59D4205D303FA02F5B1
:10246000491B04FA02F52844151EA2F10102F1DC11
:1024700030BD0000064C074D06E0E06840F0010367
:1024800094E8070098471034AC42F6D3FDF754FEA9
:1024900080270008A02700080FB4054B10B503A93A
:1024A000044A029800F02CF810BC5DF814FB000000
:1024B00089100008400000200FB4084B10B504A993
:1024C00002AA039800F01CF8044602A9002000F0BC
:1024D000F3F8204610BC5DF814FB0000B926000894
:1024E00002E008C8121F08C1002AFAD170477047DD
:1024F000002001E001C1121F002AFBD1704700003B
:102500002DE9FF4F8BB09A460F460546002606E0A0
:1025100025280BD052460D9990476D1C761C2878C3
:102520000028F5D10FB03046BDE8F08F0024A0465A
:102530000122604900E0044315F8013F203B02FA04
:1025400003F00842F7D128782E2817D115F8010F8B
:1025500044F004042A280ED06FF02F022878A0F14E
:10256000300109290AD808EB880102EB410100EB90
:1025700001086D1CF2E757F8048B6D1C2878692858
:102580003ED006DC0028CDD063280BD0642804D1CF
:1025900036E0732810D075284BD052460D999047DD
:1025A000761C85E017F8040B8DF8000000208DF8EC
:1025B0000100E946012003E057F8049B4FF0FF308B
:1025C00061074FF0000401D40AE0641C44450DDAB1
:1025D0008442FADB19F804100029F6D106E0641CE5
:1025E0008442FCDB19F804100029F8D1264404E0E9
:1025F00019F8010B52460D999047641EF8D257E026
:1026000001CF4FF00A0B002802DA40422D2102E0F0
:10261000210504D52B218DF82410012103E0E107C9
:1026200005D02021F7E70DF1200908910CE00021E9
:10263000F9E701CF4FF00A0BF9E75946FFF703FF1F
:1026400001F1300209F8012D0028F6D1ADEB0900A7
:1026500000F1200B600701D44FF00108D84502DDDE
:10266000A8EB0B0000E000208046002406E009A84B
:102670005246005D0D999047641C761C0898844270
:10268000F5DB04E0302052460D999047761CB8F1F6
:102690000001A8F10108F5DC05E019F8010B52462C
:1026A0000D999047761CBBF10001ABF1010BF4DCF6
:1026B0006D1C34E7092801000A68531C0B60107078
:1026C000704700000AB1BEC4A3BFE957494649CECE
:1026D000AA202573A3ACC3DCC2EBBFAAB7C50A41CD
:1026E0005020495020CEAAA3BA2573A3ACBFAAC6D6
:1026F000F4B5C4B6CBBFDACEAAA3BA25730ACAD63C
:10270000BBFACDF8C2E7D6FACAD6C1ACBDD3B8C3BE
:1027100020495020BACDB6CBBFDAA3ACD7EEB6E095
:10272000BFC9C1ACBDD335B8F6BFCDBBA7B6CB0AC8
:1027300000000000434D445F4C45445F25645F2525
:10274000645F25645F454E444C45445F44485431C2
:10275000315F25642E25645F25642E25645F454E18
:102760004444485431315F42555A5A45525F2564BA
:102770005F454E4442555A5A45525F454E4400000B
:10278000A02700080000002044000000E02400080A
:10279000E4270008440000206C080000F024000832
:1027A00000A24A040000000000000000010203042F
:1027B00006070809000000000102030401020304E7
:1027C00006070809020406080000000000000000D7
:1027D00000000000000000000000000000000000F9
:0427E00000000000F5
:0400000508000131BD
:00000001FF
