:020000040800F2
:10000000F00900204501000833210008851E000882
:1000100031210008350200083D27000800000000DB
:100020000000000000000000000000003721000870
:100030007F02000800000000352100083921000877
:100040005F0100085F0100085F0100085F01000810
:100050005F0100085F0100085F0100085F01000800
:100060005F0100085F0100085F0100085F010008F0
:100070005F010008490200085F0100085F010008F5
:100080005F0100085F0100085F0100085F010008D0
:100090005F0100085F0100085F0100085F010008C0
:1000A0005F0100085F0100085F0100085F010008B0
:1000B0005F0100085F0100085F0100085F010008A0
:1000C0005F0100085F0100085F0100085F01000890
:1000D0005F0100085F0100085F0100082527000894
:1000E0005F0100085F0100085F0100085F01000870
:1000F0005F0100085F0100085F0100085F01000860
:100100005F0100085F0100085F0100085F0100084F
:100110005F0100085F0100085F0100085F0100083F
:100120005F0100085F0100085F0100085F0100082F
:10013000DFF80CD000F06CF800480047C92B00082D
:10014000F00900200648804706480047FEE7FEE722
:10015000FEE7FEE7FEE7FEE7FEE7FEE7FEE7FEE777
:100160009B2100083101000840EA01039B0703D0EE
:1001700009E008C9121F08C0042AFAD203E011F8E6
:10018000013B00F8013B521EF9D27047D2B201E0A8
:1001900000F8012B491EFBD270470022F6E710B58C
:1001A00013460A4604461946FFF7F0FF204610BDE5
:1001B00030B505462A460B4612F8010B13F8014BE1
:1001C00008B1A042F8D01CB1002802D06D1CF1E7A4
:1001D000284630BD421C10F8011B0029FBD1801AB3
:1001E000704730B50B46014600202022012409E06B
:1001F00021FA02F59D4205D303FA02F5491B04FAE0
:1002000002F52844151EA2F10102F1DC30BD000008
:10021000064C074D06E0E06840F0010394E8070053
:1002200098471034AC42F6D3FFF786FFC42D000880
:10023000E42D0008FEE7B42803DAB42101EB8000C6
:100240007047002070470000014800F01DBC00000E
:100250004401002030B590F840500124AC40C56BFB
:100260006C60046863604368102B036803D0996076
:100270000068C26030BD9A600068C16030BD7047E0
:1002800070B50122002411030C4800F00FFE4FF45A
:10029000FA75284600F008FD2B46002208A109A0A7
:1002A00000F030FA08B1012070BD00F0DFFA641CE4
:1002B000E4B20A2CF0D3002070BD0000000C014015
:1002C0004F4B00004154000010B5012251031B4860
:1002D00000F0ECFDFFF7D4FF0028FBD0012000F078
:1002E00095FA0028FAD016A000F066F80028FAD097
:1002F000002217A119A000F03FF80028F8D0012033
:1003000000F038FA0028FAD015A217A1012000F059
:1003100005FB0028F8D01421154800F049FA1548CB
:10032000B0F800146FF30E01A0F80014B0F8001438
:1003300021F40041A0F8001410BD0000000C0140A1
:100340003139322E3136382E302E3435000000004F
:1003500077696C64666972650000000064686B0010
:1003600031383030000000003830383000000000F4
:100370008A0500208801002000B59FB00B4600923E
:10038000024606A101A802F019FA4FF47A7300227E
:1003900008A101A800F0B6F91FB000BD41542B43DD
:1003A000575341503D222573222C222573222C3194
:1003B0002C2564004F4B000000B589B0024608A10F
:1003C000684602F0FBF941F28833002208A1684632
:1003D00000F098F9002800D0012009B000BD00000D
:1003E00041542B43495041503D22257322000000C7
:1003F0004F4B00002DE9F8439B4FB7F80004000471
:1004000075D5DFF86882D8F80000C16821F01001C6
:10041000C160B7F800040025C0F30E0094A13D545C
:100420003846FFF7C5FE944C0126A06090B3417991
:10043000A17153292FD004DC482910D0512938D17B
:1004400004E059291DD05A2933D111E0C079A07197
:10045000302827D031282CD102F02EFC28E0C0799A
:10046000A07130281ED0312823D102F0E3FB1FE019
:10047000C079A071302815D031281AD102F0EBFBD9
:1004800016E0C079A07130280CD0312811D102F0CB
:10049000F3FB0DE016E0C079A071302802D03128BE
:1004A00007D103E002F0F9FB257002E002F0F5FB52
:1004B0002670A07800906378227870A1764802F0C8
:1004C0007DF9ABE075A16848FFF772FEA060011EE0
:1004D0007ED0CA79A2714FF0FF304A2A27D007DCBC
:1004E000432A3AD0442A63D0462A73D141E0B9E086
:1004F0004D2A0FD0532A4ED0542A6BD1497AA1717C
:10050000302902D0312965D102E002F02DFC61E0F2
:100510000120FAE7487AA071302802D0312859D159
:1005200001E0002000E0012002F02EFB3EE04B7ACB
:100530005C495D4AA371302B09D0312B4AD10E6042
:10054000116863204863012002F0FEFA42E00D606A
:1005500011684D6302F0F8FA28E0487AA07130285B
:1005600003D0312836D1012000E0002002F03CFA0F
:100570001CE0497AA17142F21076302902D031296B
:1005800028D1012002F054FA304600F08DFB002003
:1005900002F04EFA0AE0487AA071302804D03128DF
:1005A00002D002F0B3FA15E002F0B0FAE57011E003
:1005B000487AA07130280DD031280BD100213B485A
:1005C00001F082F95020FFF736FE3849096800E053
:1005D00006E04863E27836A12F4802F0EFF81DE00C
:1005E0003AA12148FFF7E4FDA06098B13AA11E4866
:1005F000FFF7DEFDE06068B1A16881420ED2401ACB
:100600000C30C2B262712448FFF7AEFD2248617916
:10061000455403E034A11448FFF7CAFD37A112483E
:10062000FFF7C6FDA06058B14079303820711A48F4
:10063000FFF7D0FD024623791749002000F02CF97E
:10064000B7F800046FF30E00A7F80004B7F8000431
:1006500020F40040A7F80004D8F80000C16841F079
:100660001001C160BDE8F88388010020000100206E
:100670004D4F56455F00000018000020434D445F79
:100680004C45445F25645F25645F25645F454E44A7
:100690004C45445F454E44008A05002047494D4281
:1006A000414C5F00000000202C000020740000205E
:1006B000434D445F42555A5A45525F25645F454E4B
:1006C0004442555A5A45525F454E4400434D445F9B
:1006D000554152545F0000005F454E44554152540D
:1006E0005F454E4400000000434D445F5245414485
:1006F0005F414C4C5F454E44000000002B49504484
:100700002C0000002DE9F041164C0E461F46B4F8AF
:10071000001415466FF30E01A4F80014124A017874
:100720001170014611A002F039F856EA050016D002
:10073000384600F0B9FAB4F800140020C1F30E01F5
:10074000002E60540CD0314625B12046FFF730FD15
:1007500028B929460348FFF72BFD002800D00120C7
:10076000BDE8F081880100201400002025730D0AE7
:100770000000000000B585B008B1012200E00022B1
:1007800006A1684602F01AF84FF4FA73002207A196
:100790006846FFF7B7FF05B000BD000041542B438A
:1007A00049504D55583D2564000000004F4B000056
:1007B00070B50D4604464FF4FA7300220CA10DA04B
:1007C000FFF7A0FF0EA11048FFF7F2FC00280BD0A6
:1007D0000022801D05E0815CA154222905D0521C15
:1007E000D2B2AA42F7D3012070BD0020A054FAE78C
:1007F0004F4B000041542B43494653520000000028
:10080000415049502C2200008801002040F6C413BA
:1008100028B1012807D0022809D00020704706A27D
:1008200008A109A006E004A206A10AA002E002A213
:1008300004A10BA0FFF766BF6E6F206368616E674F
:10084000650000004F4B000041542B43574D4F446F
:10085000453D310041542B43574D4F44453D3200F7
:1008600041542B43574D4F44453D330070B5094D1E
:100870004FF4805400222146284600F017FB4FF425
:10088000FA7000F011FA21462846BDE870400122B6
:1008900000F00CBB000C014030B585B01C460D4685
:1008A00028B111A001F07AFF012005B030BD052C60
:1008B00006D2931C22460DA1684601F07FFF04E09A
:1008C0000FA16846921C01F079FF6423002210A159
:1008D0006846FFF717FF4FF4FA7300220DA1284670
:1008E000FFF710FFE1E700002573000041542B43A0
:1008F000495053454E443D25642C256400000000BA
:1009000041542B43495053454E443D25640000005B
:100910003E20000053454E44204F4B0030B5BDB043
:1009200015464FF4FA740B46E0B1012213A1684654
:1009300001F044FF2A4616A11EA801F03FFF2346FE
:10094000002217A16846FFF7DDFE48B123460022CA
:1009500013A11EA8FFF7D6FE10B101203DB030BD97
:100960000020FBE7002205A1684601F027FF23468F
:1009700000220BA16846FFF7C5FEEFE741542B4369
:1009800049505345525645523D25642C257300006D
:1009900041542B43495053544F3D257300000000F0
:1009A0004F4B000072B6FEE710B590F82110002200
:1009B000022905D00421816380F82020012010BD88
:1009C00001680B6823F00E030B6001680B6823F0CD
:1009D00001030B6090F84030C46B012101FA03F36E
:1009E000636080F8211080F82020104610BD0000C0
:1009F00010B590F821100024022903D0042181634E
:100A000001243DE001680A6822F00E020A600168D4
:100A10000A6822F001020A601A4A0168914201D173
:100A2000012121E0174A1432914201D110211BE02B
:100A3000144A2832914201D1891515E0114A3C32FD
:100A4000914201D189140FE00E4A5032914202D1F5
:100A50004FF4803108E00B4A6432914202D14FF4E6
:100A6000801101E04FF08071064A083A516001217F
:100A700080F82110002180F82010416B01B18847D7
:100A8000204610BD080002402DE9F05FC16B0C68E4
:100A900001680B68D0F840C0042202FA0CF2494DFC
:100AA000DFF824A1494E4A4FDFF828B1DFF828E1EA
:100AB00022422CD05A072AD50A68920603D40A6823
:100AC00022F004020A600168A94201D1042219E05F
:100AD000514501D1402215E0B14202D14FF480626C
:100AE00010E0B94202D14FF480420BE0594502D1E7
:100AF0004FF4802206E0714502D14FF4800201E0FC
:100B00004FF080622F4908394A60C16A3BE04FF0DC
:100B1000020808FA0CF818EA040F4FF000094FF029
:100B2000010235D05FEA837832D50B689B0605D485
:100B30000B6823F00A030B6080F821200168A942AA
:100B400001D1022219E0514501D1202215E0B14224
:100B500002D14FF4007210E0B94202D14FF40052BA
:100B60000BE0594502D14FF4003206E0714502D145
:100B70004FF4001201E04FF00072124908394A6048
:100B800080F82090816A00291AD0BDE8F05F0847FC
:100B9000082505FA0CF5254212D01B0710D50B6865
:100BA00023F00E030B6090F84010C36B02FA01F1C2
:100BB0005960826380F8212080F82090016BE2E781
:100BC000BDE8F09F080002401C00024030000240D7
:100BD00044000240580002406C00024030B528B387
:100BE00008C8134914221944B1FBF2F18900C1630A
:100BF00010498163022141771A6843F6F0718A43F4
:100C0000D0E900142143D0E902452C432143046973
:100C10002143446921438469214311431960002120
:100C20004163012242770177084630BD012030BD83
:100C3000F8FFFDBF0000024070B5044690F82000A8
:100C4000002501280CD0012084F8200094F82160B0
:100C50000020012E06D084F820000225284670BD11
:100C6000022070BD022684F82160A0632068066817
:100C700026F0010606602046FFF7ECFAE06A00283D
:100C80002068016802D041F00E0106E021F0040165
:100C900001602068016841F00A0101602068016874
:100CA00041F001010160D9E770B5044600F004F994
:100CB0000546601C02D004480078044400F0FCF8AB
:100CC000401BA042FAD370BD040000202DE9F84F6C
:100CD000DFF8B891002409F1040A0AF1040B234655
:100CE0000F270BF1040EC9E00125A5402A40AA42B6
:100CF0007DD1674ED1F804C0ACEB0608B44532D0C4
:100D000014DCBCF1030F3AD009DCBCF1000F2AD08F
:100D1000BCF1010F1CD0BCF1020F31D11DE0BCF1C0
:100D2000110F17D0BCF1120F2AD119E0B8F5881FA6
:100D300019D006DCB8F5803F15D0B8F5801F1FD15B
:100D400011E0B8F5001F0ED0B8F5041F18D10AE065
:100D5000CB6815E0CB681B1D12E0CB6808330FE0B1
:100D6000CB680C330CE08B682BB1012B4FF00803E0
:100D700003D0456104E0042302E0056100E00023A4
:100D8000FF2A01D8064601E000F104064FEA840577
:100D900001D9A5F12005D6F8008007FA05FC28EA5C
:100DA0000C0803FA05F548EA0508C6F800804D6806
:100DB000ED0062D5374DAE6946F00106AE61AD6912
:100DC00024F0030605F001050095334D06EB050CF4
:100DD000DCF80850A607360F07FA06F825EA0805DA
:100DE000DFF8B880404503D14FF0000817E044E039
:100DF000DFF8AC80404502D14FF001080FE0DFF88A
:100E0000A480404502D14FF0020808E0DFF8988046
:100E1000404502D14FF0030801E04FF0040808FA02
:100E200006F848EA0508CCF808804D68D9F8006053
:100E3000ED034D4601D5164300E096432E604D6804
:100E4000DAF80060AD03554601D5164300E096433D
:100E50002E604D68DBF80060ED025D4601D516435B
:100E600000E096432E604D68DEF80060AD027546E6
:100E700001D5164300E096432E60641C0D682A4697
:100E8000E5407FF431AFBDE8F88F00000004014079
:100E90000000111000100240000001400008014055
:100EA000000C014000100140001401400AB1016132
:100EB00070470904FBE700000148806870470000A4
:100EC0000400002002488168027811448160704764
:100ED00004000020074810B5016841F010010160CE
:100EE000032000F075F8002000F006F800F024F868
:100EF000002010BD0020024070B50D4D04464FF497
:100F00007A712878B1FBF0F00A490968B1FBF0F07A
:100F100000F0ECFA48B9102C07D200222146501EEE
:100F200000F036F800206C6070BD012070BD00003C
:100F300004000020100000200C4808B5816941F031
:100F400001018161816901F001010091C16941F0F4
:100F50008051C161C06900F0805000900448416830
:100F600021F0E06141F00071416008BD00100240D5
:100F700000000140002809DB00F01F020121914020
:100F80004009800000F1E020C0F800117047000027
:100F9000F0B40E4B1B680C46C3F30223C3F10705E4
:100FA000042D00D90425191D072901D2002300E0D2
:100FB000DB1E012606FA05F1491E214099409E409C
:100FC000761E16403143F0BC01F00CBC0CED00E085
:100FD000064900F0070208684FF6FF03184040EA90
:100FE0000220034A10430860704700000CED00E047
:100FF0000000FA052DE9F0470F46050061D0434E89
:10100000306800F00700B84209D2306820F00700CD
:1010100038433060306800F00700B84251D128688A
:101020003B4C810712D5400703D5606840F4E0606F
:1010300060602878000703D5606840F46050606005
:101040006068A96820F0F000084360602878C00755
:1010500028D06868012810D02168022810D089079C
:1010600000292EDA616821F0030101436160FFF776
:1010700023FF804641F288390DE021688903EFE7BC
:101080008901EDE7FFF718FFA0EB0801494502D9F8
:101090000320BDE8F0876068696800F00C00B0EBE1
:1010A000810FEFD1306800F00700B8420BD93068EB
:1010B00020F0070038433060306800F00700B84285
:1010C00001D00120E5E72878400705D56068E96888
:1010D00020F4E060084360602878000706D5606867
:1010E000296920F4605040EAC100606000F038F8DF
:1010F0006168084AC1F30311515CC84006490860A1
:1011000006480068FFF7F8FE0020C2E70020024012
:1011100000100240AC2D0008100000200800002044
:101120000448054900684968044AC1F30221515C3A
:10113000C84070471000002000100240BC2D00087D
:101140000448054900684968044AC1F3C221515C5A
:10115000C84070471000002000100240BC2D00085D
:1011600012A185B00FC98DE80F0014A0144A0068C1
:1011700004905168134801F00C03042B10D0082B85
:101180000ED1C1F38343C9031DF803000AD551688A
:1011900004AAC1F34041515C0A4A5043B0FBF1F04C
:1011A00005B0704708494843FAE700000203040508
:1011B000060708090A0B0C0D0E0F101001020000A3
:1011C0000010024000127A0000093D002DE9F84F9E
:1011D000040070D02078C04DC00749D06868C0F3C3
:1011E0008100012807D06868C0F38100022809D176
:1011F0006868C00306D52868800339D56068002870
:10120000E7D035E06068B0F5803F0BD010B1B0F5A5
:10121000A02F11D0286820F480302860286820F49E
:10122000802002E0286840F480302860606890B137
:10123000FFF742FE06460AE0286840F48020286056
:10124000F0E700BFFFF738FE801B642873D82868DA
:101250008003F7D50CE0FFF72FFE064605E000BF40
:10126000FFF72AFE801B6428F0D828688003F7D493
:1012700020789A4E80074FF001094FF0000839D5C9
:10128000686810F00C0F07D06868C0F3810002286E
:1012900009D16868C00306D42868800714D520697E
:1012A000012808D110E02069B0B1C6F80090FFF71E
:1012B00003FE074605E00AE1FFF7FEFDC01B02281A
:1012C000C4D828688007F7D52868616920F0F8003D
:1012D00040EAC10028600DE0C6F80080FFF7ECFD91
:1012E000074604E0FFF7E8FDC01B022823D8286862
:1012F0008007F7D4207800072CD57948A169D9B1A7
:10130000C0F80090FFF7D8FD074604E0FFF7D4FDD2
:10131000C01B02280FD8686A8007F7D571484FF4C0
:10132000FA510068B0FBF1F0009000BF0098411E38
:101330000091FAD20EE080E0C0F80080FFF7BCFD1B
:10134000074604E0FFF7B8FDC01B022875D8686A9D
:101350008007F7D42078400760D5E8690027C000EF
:1013600008D4E86940F08050E861E869012700F09E
:10137000805000905C480168C90513D40168834619
:1013800041F480710160FFF797FD824606E000BFDF
:10139000FFF792FDA0EB0A0064284ED8DBF80000AE
:1013A000C005F5D5E06801280AD008B1052813D09A
:1013B000286A20F001002862286A20F0040002E078
:1013C000286A40F001002862E06841F2883B98B149
:1013D000FFF772FD82460BE0286A40F004002862A5
:1013E000EEE700BFFFF768FDA0EB0A0159455AD8A8
:1013F000286A8007F6D50CE0FFF75EFD824605E01F
:10140000FFF75AFDA0EB0A0159454CD8286A80071E
:10141000F6D41FB1E86920F08050E861E06988B334
:101420006968C1F38101022944D00228C6F86080AE
:1014300004D0FFF741FD044638E034E0FFF73CFDFF
:10144000074604E0FFF738FDC01B02282BD82868A8
:101450008001F7D4206AB0F5803F05D16868A168A3
:1014600020F4003008436860D4E908010843696843
:1014700021F4741108436860C6F86090FFF71CFD02
:10148000044606E025E000BFFFF716FD001B02281A
:1014900009D828688001F7D51BE000BFFFF70CFDD5
:1014A000001B022802D90320BDE8F88F28688001BC
:1014B000F4D40EE00128F7D06868226A00F4803185
:1014C000914204D1616A00F47010884201D0012079
:1014D000EAE70020E8E70000001002400000424276
:1014E00080044242100000200070004010B5401EF1
:1014F000B0F1807F01D3012010BD4FF0E024606186
:101500000F21601701F06EF90020A0610720206113
:10151000002010BD10B590F83C20012A22D00122F5
:1015200080F83C20CA688C6822F4407222434C68E0
:1015300022F4806222430C6822F4006222430C6988
:1015400022F4805222434C6922F400522243C9699A
:10155000002322F480420A4301684A6480F83C3048
:10156000002010BD022010BD70B590F83C20012A6B
:1015700026D0012480F83C40022280F83D200368F8
:101580005A689D6822F070060A6832435A600D4B13
:1015900002689A4208D0B2F1804F05D00A4B9A42B5
:1015A00002D00A4B9A4204D1496825F080031943BE
:1015B000916080F83D40002180F83C10084670BDE5
:1015C000022070BD002C01400004004000080040D3
:1015D00010B5040003D094F83D0010B107E00120DD
:1015E00010BD002084F83C00204600F01FF80220C7
:1015F00084F83D00211D206800F0D0FD012084F812
:10160000460084F83E0084F83F0084F8400084F8E7
:10161000410084F8420084F8430084F8440084F8D0
:10162000450084F83D00002010BD000008B50C4ABC
:1016300001680C48914207D1816941F400618161E0
:10164000806900F4006009E0B1F1804F07D1C16901
:1016500041F00101C161C06900F00100009008BDC6
:10166000002C01400010024070B5044690F83C0088
:10167000012817D0012584F83C50022084F83D0051
:101680002068826822F0770222F47F428260086834
:10169000502830D00DDC20284DD005DC98B3102820
:1016A0003BD148E0022070BD302844D0402834D1DE
:1016B00039E0602828D0702806D0B0F5805F2CD0A3
:1016C000B0F5005F29D10AE0CB68D1E9012120689B
:1016D00000F0A7FD2068816841F0770109E0CB6840
:1016E000D1E90121206800F09CFD2068816841F467
:1016F0008041816011E0CA684968206800F046FEB8
:101700005021206807E016E0CA684968206800F0A8
:101710004EFE6021206800F08EFD84F83D500020D0
:1017200084F83C0070BDCA684968206800F02EFE4D
:1017300040212068EFE7226801461046EBE70000F1
:1017400010B586B000210091019102910391124CD5
:101750000368124902221248A34209D18B6943F05F
:1017600004038B61896901F00401049181150BE088
:10177000B3F1804F0ED18B6943F004038B6189690B
:1017800001F0040104910321CDE90012694603929E
:10179000FFF79CFA06B010BD002C0140001002407B
:1017A0000008014070B5044690F83C000D46012841
:1017B0000AD0012084F83C0042B1042A18D0082A3B
:1017C0002AD00C2A4DD139E0022070BD206800F0EB
:1017D0003BFD2068816941F00801816120688169D1
:1017E00021F004018161206881692A69114311E0B7
:1017F000206800F051FD2068816941F40061816139
:101800002068816921F480618161206881692A6989
:1018100041EA0221816124E0206800F069FD20682E
:10182000C16941F00801C1612068C16921F004016A
:10183000C1612068C1692A69114311E0206800F084
:1018400083FD2068C16941F40061C1612068C169FC
:1018500021F48061C1612068C1692A6941EA0221DD
:10186000C161002084F83C0070BD10B5040003D0B5
:1018700094F83D0010B107E0012010BD002084F86D
:101880003C00204600F01EF8022084F83D00211D97
:10189000206800F083FC012084F8460084F83E00B4
:1018A00084F83F0084F8400084F8410084F8420046
:1018B00084F8430084F8440084F8450084F83D002F
:1018C000002010BD7047000010B50446022249B147
:1018D00004290ED0082913D094F84100012816D00D
:1018E000012010BD94F83E000128F9D184F83E2073
:1018F0000FE094F83F000128F2D184F83F2008E07F
:1019000094F840000128EBD184F8402001E084F8ED
:1019100041200122206800F077FC0F4920688842AE
:1019200003D1426C42F4004242642068884208D0ED
:10193000B0F1804F05D00949884202D00849884259
:1019400004D1816801F00701062903D0016841F044
:1019500001010160002010BD002C01400004004086
:101960000008004030B504460D460068002200F033
:101970004BFC174B41F2111120688A10984209D193
:10198000036A0B4206D1036A134203D1436C23F46A
:10199000004343642068036A0B4206D1016A114286
:1019A00003D1016821F00101016001203DB1042D46
:1019B00008D0082D09D084F84100002030BD84F8FB
:1019C0003E00FAE784F83F00F7E784F84000F4E7C8
:1019D000002C0140704710B504460068416994F836
:1019E0003D20C1F3C011212A0BD151B1416921F031
:1019F00080014161606B08B1FEF7D6FF204600F020
:101A000067FD2068416994F83E20C1F38011222AC5
:101A10000BD151B1416921F040014161A06B08B186
:101A2000FEF7C2FF204600F03BFD002010BD7047CE
:101A3000F8B5026804461068D168536910F00F0FBA
:101A40004FF0000553D003F0010601F490773743BF
:101A50005FD0C20705D0CA0503D5226C42F001024F
:101A60002264420705D5DA0703D0226C42F0020255
:101A70002264820705D5DA0703D0226C42F0040203
:101A80002264020707D501F02002324303D0226C02
:101A900042F008022264226C002A34D0800604D569
:101AA000880602D5204600F01CFD20684069216CA4
:101AB000C0F38010090700D430B3204600F0F0FCDA
:101AC0002068416949061BD5416921F04001416107
:101AD000A06BA8B158494163A06BFEF789FF0028AD
:101AE00011D0A06B416B01B0BDE8F0400847830600
:101AF0000FD58B060DD52046BDE8F84000F0F1BCAF
:101B00002046FFF794FFF8BD2046FFF790FF2564BD
:101B1000F8BD266B2023012E52D1C60650D5CE0625
:101B20004ED5106850680090506940062AD5A16BC8
:101B3000086840680004000CEAD0A68D8642E7D908
:101B4000E0858869202818D0D06820F48070D060A3
:101B50002068416921F0010141612068416921F05B
:101B60004001416184F83E3025632068C16821F05E
:101B70001001C160A06BFEF717FFA08DE18D401A28
:101B800081B219E0A08DE18D401A81B2E08D00286C
:101B9000BED00029BCD0D06820F49070D0602068FE
:101BA000426922F00102426184F83E3025632068D8
:101BB000C26822F01002C2602046FFF70BFFF8BD9A
:101BC00005062BD50D0629D594F83D002128F6D120
:101BD000A068B0F5805F01D12069B0B1206A411CD6
:101BE0002162216800784860E08C401E0004000CEF
:101BF000E084E4D12068C16821F08001C1602068E0
:101C0000C16841F04001C160F8BD206A0088C0F39E
:101C100008005060206A801C2062E5E74006F3D58A
:101C20004806F1D5D168204621F04001D16084F802
:101C30003D3000F026F9F8BDD323000870B504004C
:101C400004D094F83D00002510B106E0012070BDDD
:101C500084F83C50204600F023F8242084F83D000E
:101C60002068C16821F40051C160204600F094FC56
:101C70002068016921F4904101612068416921F0E7
:101C80002A0141612068C16841F40051C1602564A6
:101C9000202084F83D0084F83E00002070BD000044
:101CA000F0B585B000240094019402940394064694
:101CB0000368344F0220344903224502BB4221D13C
:101CC0008B6943F480438B618B6903F480430493F5
:101CD0008B6943F004038B6189692C4E01F0040188
:101CE00004910102CDE90010039269463046FEF7E7
:101CF000EDFFCDE90054694630460294FEF7E6FF59
:101D000005B0F0BD224FBB42FAD1CB6943F480232A
:101D1000CB61CB6903F4802304938B6943F0080300
:101D20008B61896901F00801CDE90321CDE90050FB
:101D3000184D69462846FEF7C9FFE814CDE90004AE
:101D4000694628460294FEF7C1FF144D1248C5E9C2
:101D500000048020C5E9024020202C61C5E905402F
:101D60002846EC61FEF73AFF08B1FEF71BFEB563AB
:101D70000022114627206E62FFF70AF92720FFF79D
:101D8000F9F8BDE7003801400010024000080140AA
:101D900000480040000C0140300002404401002097
:101DA00090F83E30202B0ED159B152B190F83C3012
:101DB000012B08D0012380F83C300023036300F09E
:101DC00047BC0120704702207047704770470000F1
:101DD0002DE9F843044690F83D001F4616460D468F
:101DE00020284CD1C5B1BEB194F83C00012846D0A2
:101DF000012084F83C004FF00008C4F84080212006
:101E000084F83D00FFF758F8A6848146E684A06870
:101E1000B0F5805F03D004E00120BDE8F8832069BD
:101E200028B12E465FF0000584F83C800EE00026C5
:101E3000FAE78021204600F043FCA0B9AEB116F8C5
:101E4000010B21684860E08C401EE084E08C4B462A
:101E50004FF0000200970028EBD14FF040012046E0
:101E600000F02EFC30B10320D7E735F8020BC0F3A9
:101E70000800E6E7202084F83D000020CDE702209E
:101E8000CBE77047FEE70000094808B5416941F01B
:101E9000010141614069002200F0010000901146FB
:101EA0000D20FFF775F8BDE808400D20FFF762B878
:101EB000001002402DE9F04385B000242148009431
:101EC000019402940394816941F020018161816948
:101ED00001F020010491816941F00401816181696F
:101EE00001F004010491816941F008018161806978
:101EF000DFF8548000F0080049F6F805049000224D
:101F000029464046FEF7D2FFDFF8409043F2FF3704
:101F1000002239464846FEF7C9FF009502260125F2
:101F20000396CDE9015469464046FEF7CFFE00977F
:101F30000396CDE9015469464846FEF7C7FE05B051
:101F4000BDE8F0830010024000080140000C014091
:101F500010B596B000240F94109411941294139419
:101F60001C2108A81494FEF718F920216846FEF7F2
:101F700014F928482649016040F23B51C0E9011498
:101F80006321C0E9031444618461FFF721FB08B1B8
:101F9000FEF708FD4FF480500F900FA91D48FFF782
:101FA00063FB08B1FEF7FEFC1A48FFF75EFC08B1C0
:101FB000FEF7F8FC139413A916481494FFF7D4FA0B
:101FC00008B1FEF7EFFC6020CDE908040A940B94F9
:101FD0000C940D94002208A90E480E94FFF7E2FB22
:101FE00008B1FEF7DFFC00944FF40050CDE9044047
:101FF000029401940394694606480794FFF78AFA0D
:1020000008B1FEF7CFFC0348FFF79AFB16B010BDEE
:10201000002C01402C00002010B58EB00024079445
:10202000089409940A940B941C2168460C94FEF7BA
:10203000B4F822484FF080410160C721C0E9011483
:1020400041F61F41C0E9031480218161FFF7C0FA06
:1020500008B1FEF7A7FC4FF48050079007A9174876
:10206000FFF702FB08B1FEF79DFC1448FFF7FDFBEC
:1020700008B1FEF797FC0B940BA910480C94FFF7DE
:1020800073FA08B1FEF78EFC6020CDE900040294DB
:102090000022694609480494FFF784FB08B1FEF763
:1020A00081FC042269460548FFF77CFB08B1FEF776
:1020B00079FC0248FFF744FB0EB010BD740000200D
:1020C0000C4810B50A4901604FF4E131416000212C
:1020D00081600C22C160C0E904128161C161FFF717
:1020E000ADFD002803D0BDE81040FEF75BBC10BD7D
:1020F00000380140BC0000200C4810B50A490160BE
:102100004FF4E1314160002181600C22C160C0E9DF
:1021100004128161C161FFF791FD002803D0BDE881
:102120001040FEF73FBC10BD0048004000010020F9
:10213000FEE7FEE770477047FEF7C4BE30B58FB0CC
:1021400028216846FEF729F814210AA8FEF725F889
:1021500001210804CDE90010002402940225049115
:10216000CDE907504FF4E01009906846FFF72EF8CC
:1021700008B172B6FEE70F20CDE90A054FF4806082
:10218000CDE90C4002210AA80E94FEF733FF002887
:1021900001D072B6FEE70FB030BD7047F0B50268EF
:1021A000164B174C174D4FF08047984205D0B84258
:1021B00003D0A04201D0A84203D122F070064A68A1
:1021C0003243984205D0B84203D0A04201D0A84281
:1021D00003D122F44074CA6822434C6922F0800281
:1021E000224302608A68C2620A688262984201D110
:1021F0000969016301214161F0BD0000002C01402B
:10220000000400400008004010B501F01F03012148
:10221000046A99408C430462016A9A401143016246
:1022200010BD10B5846842EA032224F47F440A43B7
:102230002243826010BD826822F070020A4342F09D
:10224000070181607047000030B5026A22F0010288
:102250000262026A4368846924F073050C682C43A7
:1022600022F002058A682A430A4DA8420BD122F0C7
:102270000805CA6823F440732A434D6922F004021A
:102280001D438B692B43436084614968416302624B
:1022900030BD0000002C014030B5026A22F010026F
:1022A0000262026A436884690D6824F4E64444EAE1
:1022B00005248D6822F0200242EA05120B4DA84247
:1022C0000ED1CD6822F0800242EA05124D6923F456
:1022D000406343EA85038D6922F0400243EA8503A7
:1022E0004360846149688163026230BD002C014013
:1022F00030B5026A22F480720262036A4268C469DD
:1023000023F4007324F073050C682C438D6843EAB2
:1023100005230C4DA8420ED1CD6823F4006343EA97
:1023200005234D6922F4405242EA05128D6923F4D7
:10233000806342EA05124260C4614968C163036276
:1023400030BD0000002C014030B5026A22F48052FA
:102350000262046A4268C3690D6823F4E64343EAF3
:1023600005238D6824F4005444EA0534064DA84240
:1023700004D14D6922F4804242EA85124260C36171
:1023800049680164046230BD002C014010B5036A45
:10239000046A24F001040462846924F0F00444EA2D
:1023A000021423F00A020A438461026210BD10B5D0
:1023B000036A23F0100303628369046A23F4704301
:1023C00043EA023224F0A00343EA01118261016270
:1023D00010BD10B5406A0021C185C184FFF727FBFD
:1023E00010BD70B5446A2068406994F83D10C0F390
:1023F000C0100025212904D118B1E584204600F041
:1024000067F82068406994F83E10C0F380102229D4
:1024100004D118B1E585204600F042F8206C40F068
:10242000100020642046FFF702FB70BD10B5014686
:10243000406A0968096889061BD40021C1850168C2
:10244000CA6822F48072CA6001684A6922F00102F7
:102450004A6101684A6922F040024A61202180F8FD
:102460003E10016B012904D10168CA6822F01002F4
:10247000CA60016B012902D0FFF7A7FC10BD818D56
:10248000FFF7A8FA10BD10B5406A016B012902D010
:10249000FFF79CFC10BD818D4908FFF79BFA10BD2A
:1024A0000168CA6822F49072CA6001684A6922F021
:1024B00001024A61016B012904D10168CA6822F056
:1024C0001002CA60202180F83E100021016370478D
:1024D0000168CA6822F0C002CA60202180F83D105D
:1024E000704708B590F83E10222901D0022008BD9F
:1024F00082684FF480539A4201D1016921B1816A07
:102500009A421BD04AB10AE00268816A5268C2F35B
:1025100008020A80816A891C08E0026972B10268B7
:10252000526802F07F020A70816A491C8162C18D83
:10253000491E0904090CC18503D019E002685268DC
:10254000F1E70168CA6822F02002CA600168CA681F
:1025500022F48072CA6001684A6922F001024A616D
:10256000202180F83E10016B012903D0FFF72DFCDC
:10257000002008BD002101630168CA6822F0100232
:10258000CA6001680A68D20602D50A6849680091E3
:10259000818DFFF71FFAEBE770B50446006801690B
:1025A000E26821F44051114301612169A0680843A8
:1025B000616908432168CA6841F20C639A43024387
:1025C000CA6020684169A26921F4407111434161E8
:1025D0001E492068884202D1FEF7B2FD01E0FEF7F5
:1025E0009FFD00EBC00101EB0012606864218000D8
:1025F000B2FBF0F3B3FBF1F36FF018067343B2FBD9
:10260000F0F5B2FBF0F605EB8305322303EB05157D
:10261000B5FBF1F5B6FBF1F605F0F00505EB061597
:10262000B2FBF0F6B2FBF0F0B0FBF1F06FF0180285
:10263000504306EB800003EB0010B0FBF1F0216883
:1026400000F00F002844886070BD00000038014091
:1026500038B5816282850025134604460564222030
:1026600084F83E00A26B13489062A26B1248D062BD
:10267000A26B12481063A06B0A4645632168A06BE9
:10268000091DFEF7D9FA206801684168009184F8B5
:102690003C50C16841F48071C1602068416941F0DB
:1026A000010141612068416941F040014161002020
:1026B00038BD00002D24000887240008E32300080B
:1026C0002DE9F041984617460E460446069D1DE04A
:1026D000681C1BD02DB1FEF7EFFBA0EB0800A84251
:1026E00014D92068C16821F4D071C16020684169A3
:1026F00021F001014161202084F83D0084F83E0072
:10270000002084F83C000320BDE8F08120680068C8
:1027100036EA000004D00020B842D9D00020F3E708
:102720000120F9E710B5044800F00AF8BDE81040B0
:102730000148FFF77DB9000000010020FEE700001E
:1027400038B500680068C043C00621D4114C206829
:102750000168406800902046FFF73DF9A06B0068D3
:102760004068C0F580610C48B0F8002461F30E02A7
:10277000A0F80024B0F8001441F40041A0F80014BF
:1027800001462046BDE838404FF48062FFF708BBA1
:1027900038BD000000010020880100200FB4054B67
:1027A00010B503A9044A029800F03CF810BC5DF88B
:1027B00014FB0000712A0008280000200FB4084B09
:1027C00010B504A902AA039800F02CF8044602A947
:1027D000002000F003F9204610BC5DF814FB000057
:1027E000DD2900080907090E002804DB00F1E020BC
:1027F00080F80014704700F00F0000F1E02080F82E
:10280000141D704702E008C8121F08C1002AFAD13F
:1028100070477047002001E001C1121F002AFBD160
:10282000704700002DE9FF4F8BB09A460F460546D2
:10283000002606E025280BD052460D9990476D1CC6
:10284000761C28780028F5D10FB03046BDE8F08F0F
:102850000024A0460122604900E0044315F8013F2E
:10286000203B02FA03F00842F7D128782E2817D12E
:1028700015F8010F44F004042A280ED06FF02F023F
:102880002878A0F1300109290AD808EB880102EB69
:10289000410100EB01086D1CF2E757F8048B6D1C39
:1028A000287869283ED006DC0028CDD063280BD0DC
:1028B000642804D136E0732810D075284BD05246D6
:1028C0000D999047761C85E017F8040B8DF80000F1
:1028D00000208DF80100E946012003E057F8049B31
:1028E0004FF0FF3061074FF0000401D40AE0641C90
:1028F00044450DDA8442FADB19F804100029F6D1B8
:1029000006E0641C8442FCDB19F804100029F8D1AD
:10291000264404E019F8010B52460D999047641EB5
:10292000F8D257E001CF4FF00A0B002802DA4042FC
:102930002D2102E0210504D52B218DF82410012141
:1029400003E0E10705D02021F7E70DF12009089108
:102950000CE00021F9E701CF4FF00A0BF9E75946E7
:10296000FDF73FFC01F1300209F8012D0028F6D1F6
:10297000ADEB090000F1200B600701D44FF0010816
:10298000D84502DDA8EB0B0000E0002080460024C3
:1029900006E009A85246005D0D999047641C761C1C
:1029A00008988442F5DB04E0302052460D999047A8
:1029B000761CB8F10001A8F10108F5DC05E019F872
:1029C000010B52460D999047761CBBF10001ABF10B
:1029D000010BF4DC6D1C34E7092801000A68531C64
:1029E0000B6010707047000010B50F4B0F4C0128A2
:1029F0000FD0411C0FD0002814D10022802118468E
:102A0000FEF754FA00222046BDE810400121FEF7EF
:102A10004DBA0122F2E7002280211846FEF746FA5D
:102A20000122F0E710BD000000080140000C014049
:102A300010B50E4C01280FD0411C0FD0002814D126
:102A4000002202212046FEF731FA00222046BDE88E
:102A500010400421FEF72ABA0122F2E700220221E7
:102A60002046FEF723FA0122F0E710BD000C0140DA
:102A700013B54FF6FF73012269460248FFF7A8F924
:102A800000981CBD0001002070B54FF480710E4C01
:102A90004D0001280ED0421C0ED0002812D1002279
:102AA0002046FEF703FA002229462046BDE8704082
:102AB000FEF7FCB90122F3E700222046FEF7F6F903
:102AC0000122F1E770BD0000000C014010B50E4C72
:102AD00001280FD0411C0FD0002814D100228021E2
:102AE0002046FEF7E3F900222046BDE810404021D1
:102AF000FEF7DCB90122F2E7002280212046FEF732
:102B0000D5F90122F0E710BD000C014010B50020FE
:102B100000F03AF8002000F017F80020FFF764FFFB
:102B20000020FFF785FF002000F01EF90021044877
:102B3000FEF718FFBDE8104000210248FEF712BF63
:102B4000740000202C00002010B50E4C01280FD07E
:102B5000411C0FD0002814D1002220212046FEF76E
:102B6000A5F900222046BDE810404021FEF79EB99D
:102B70000122F2E7002220212046FEF797F90122E8
:102B8000F0E710BD0008014010B50E4C01280FD031
:102B9000411C0FD0002814D1002208212046FEF746
:102BA00085F900222046BDE810401021FEF77EB9CD
:102BB0000122F2E7002208212046FEF777F90122E0
:102BC000F0E710BD00080140FEF784F9FFF7B6FA00
:102BD000FFF770F9FFF758F9FFF78EFAFFF770FA71
:102BE000FFF71AFAFFF7B4F90F4C01221103204640
:102BF000FEF75CF9002261142046FEF757F90B48F6
:102C00000068C16841F01001C160221508490748F9
:102C1000FFF7C6F86420FEF747F8FDF755FB00BF45
:102C2000FDF7E8FBFCE70000000C0140000100207C
:102C30008801002010B54FF0FF342046FFF724FF35
:102C4000204600F04BF80120FFF740FFBDE81040A0
:102C5000012000F063B810B54FF0FF342046FFF7B5
:102C600013FF012000F03AF82046FFF72FFFBDE8E0
:102C70001040012000F052B810B50120FFF704FF0A
:102C80004FF0FF34204600F029F80120FFF71EFF27
:102C90002046BDE8104000F041B810B50020FFF715
:102CA000F3FE002000F01AF80020FFF70FFFBDE848
:102CB0001040002000F032B810B50120FFF7E4FE0C
:102CC000012000F00BF84FF0FF342046FFF7FEFE26
:102CD0002046BDE8104000F021B8000010B50E4CB1
:102CE00001280FD0411C0FD0002814D10022202130
:102CF0002046FEF7DBF800222046BDE810401021F8
:102D0000FEF7D4B80122F2E7002220212046FEF788
:102D1000CDF80122F0E710BD000C014070B5104B5A
:102D2000104D4FF4004401280FD0411C0FD0002853
:102D300014D1002208211846FEF7B8F800222146D7
:102D40002846BDE87040FEF7B1B80122F2E7002244
:102D500008211846FEF7AAF80122F0E770BD00002E
:102D6000000C01400008014070B54FF400610E4CAA
:102D70004D0001280ED0421C0ED0002812D1002296
:102D80002046FEF793F8002229462046BDE8704011
:102D9000FEF78CB80122F3E700222046FEF786F802
:102DA0000122F1E770BD00000008014000000000B2
:102DB00000000000010203040607080900000000EB
:102DC00001020304E42D0008000000202C00000094
:102DD00004280008102E00082C000020C409000060
:102DE000142800080000000001000000100000008E
:102DF000000000000024F4000000000000000000BB
:102E000000000000000000000000000000000000C2
:0400000508000131BD
:00000001FF
