:020000040800F2
:10000000B0080020215F0008CD030008CF030008DE
:10001000D1030008D3030008D50300080000000046
:10002000000000000000000000000000D7030008EE
:10003000D903000800000000DB030008DD0300080E
:100040003B5F00083B5F00083B5F00083B5F000828
:100050003B5F00083B5F00083B5F00083B5F000818
:100060003B5F00083B5F00083B5F00083B5F000808
:100070003B5F00083B5F00083B5F00083B5F0008F8
:100080003B5F00083B5F00083B5F00083B5F0008E8
:100090003B5F00083B5F00083B5F00083B5F0008D8
:1000A0003B5F00083B5F00083B5F00083B5F0008C8
:1000B0003B5F00083B5F0008317900083B5F0008A8
:1000C0003B5F00083B5F00083B5F00083B5F0008A8
:1000D0003B5F0008B95E00083B5F00083B5F00081B
:1000E0003B5F00083B5F00083B5F00083B5F000888
:1000F0003B5F00083B5F00083B5F00083B5F000878
:100100003B5F00083B5F00083B5F00083B5F000867
:100110003B5F00083B5F00083B5F00083B5F000857
:100120003B5F00083B5F00083B5F00083B5F000847
:1001300000F002F800F06BF80AA090E8000C82448E
:100140008344AAF10107DA4501D100F060F8AFF26B
:10015000090EBAE80F0013F0010F18BFFB1A43F0A5
:10016000010318471CA200003CA200000A444FF003
:10017000000C10F8013B13F0070408BF10F8014B06
:100180001D1108BF10F8015B641E05D010F8016B4B
:10019000641E01F8016BF9D113F0080F1EBF10F8AF
:1001A000014BAD1C0C1B09D16D1E58BF01F801CBD2
:1001B000FAD505E014F8016B01F8016B6D1EF9D555
:1001C0009142D6D37047000000230024002500266A
:1001D000103A28BF78C1FBD8520728BF30C148BFAA
:1001E0000B607047642908F0A180752908F09E8093
:1001F000782908F0D780632908F02B82732908F04A
:100200003082002070471FB51FBD10B510BD08F02B
:100210005BFA1146FFF7F7FF00F008F808F079FAEB
:1002200003B4FFF7F2FF03BC05F0F0FD1CB54FF47B
:10023000A06006F0B7FA05F09DFD4FF4165005F0EA
:10024000EFFD00F079F901F062FA05F0ABF83448FF
:10025000416848208847334D4FF478401024288067
:1002600031A0CDE900402346C82232211E2005F0EE
:1002700070F830A0CDE900401023C82246211E208E
:1002800005F067F831A0CDE900401023C8225A21BB
:100290001E2005F05EF831A0CDE900401023C822F1
:1002A0006E211E2005F055F81F2028802E4D4FF49A
:1002B000FA7620E02DA007F0DDFF32A0CDE9004066
:1002C0001023C8228C211E2005F043F8304605F08B
:1002D0007FFD31A0CDE900401023C8228C211E20D3
:1002E00005F037F8304605F073FDD5F8A001A8B148
:1002F0000021C5F8A01105F0F6F80028DAD02BA0EF
:1003000007F0B8FF2DA0CDE900401023C8228C21B2
:100310001E2005F01EF805F0BBFAFCE70121E8E716
:1003200084000020140000204D696E692053544D54
:100330003332000053656E736F722050414A373676
:1003400032305532205445535400000041544F4D33
:1003500040414C49454E54454B0000003230313746
:100360002F382F32330000000000214250414A371D
:100370003632305532204572726F722121210D0ABA
:100380000000000050414A37363230553220457265
:10039000726F7221212100002020202020202020A7
:1003A00020202020202020202020000050414A37FB
:1003B0003632305532204F4B0D0A000050414A373B
:1003C0003632305532204F4B000000007047FEE7B8
:1003D000FEE7FEE7FEE77047704770477047000092
:1003E0000CB500224C4800920192016841F4803122
:1003F00001604FF4A063016801F40031019100999C
:10040000491C0091019911B900999942F3D10168F1
:10041000890333D50121019140490A6842F0100255
:100420000A600A6822F003020A600A6842F00202C7
:100430000A604168416041684160416841F48061FF
:100440004160416821F47C114160416841F4E81148
:100450004160016841F08071016001688901FCD54B
:10046000416821F003014160416841F002014160AF
:100470004168C1F381010229FAD10CBD01920CBD82
:10048000254810B5016841F0010101604168244A26
:10049000114041600168234A11400160016821F464
:1004A00080210160416821F4FE0141604FF41F0189
:1004B0008160FFF795FF1C494FF00060086010BD98
:1004C000154A10B55068194B10F00C01184803D0AC
:1004D000042901D0082901D0036012E05168536853
:1004E00001F470114FF0020413F4803F04EB9141CA
:1004F00002D053689B0301D50E4B00E00B4B5943D0
:10050000016051680A4AC1F30311121D515C02686F
:10051000CA40026010BD00000010024000200240EE
:100520000000FFF8FFFFF6FE08ED00E000127A0081
:100530000000002000093D0038B50121242005F00D
:100540004EFF4FF48074ADF8004010208DF803008A
:1005500003200C4D8DF802006946284605F057FD32
:100560002146284605F0BDFD0420074CADF80000EB
:100570006946204605F04BFD0421204605F0B1FDFB
:1005800038BD000000080140001401404FF48072A3
:10059000FE494A614A154A61FD4B18608020486156
:1005A00008610A617047F9494FF480720A614A157F
:1005B0004A61F74B18608020486108610A61704702
:1005C0002DE9F047DFF8C8934FF08830A9F10C0906
:1005D000C9F8000009F104052860ED4E00203060E4
:1005E000EA4CA8152061470067614FF04008C4F845
:1005F0001480E8488088A0F50941893902D1022099
:1006000005F0CFFBE248001F0068C4F8108080B2FC
:1006100027614FF03331C9F8001029604FF6FF71A0
:100620003160BDE8F08710B50C46FFF7AFFFD74843
:100630004FF48071016142154261D5490C608021FF
:1006400041610161026110BD10B5FFF79FFFBDE878
:100650001040B5E7CF48008998E7CC494FF4807245
:100660000A614A154A61CA4B1860802048610861D6
:100670000A617047C0F34511C20AC00200EB411085
:10068000104480B27047401EC0B2FCD270472DE9C2
:10069000F34F0446070A00F0FF090198BD4A060A15
:1006A000C5B291881046DFF8E4A24089A1F5134352
:1006B0004FF4807B413B1CD0A1F5A643103B18D0E2
:1006C000134690469A791B88A1F5D04C1B1B5B1EE4
:1006D000BCF1040C3CD0C446A1F5C858B8F163087D
:1006E0007DD0A1F5A048B8F5A26876D0012A75D0D2
:1006F00062E1FFF74BFF5446CAF810B04FF4007C9C
:10070000CAF814C0DFF88882C8F800708027CAF8D9
:100710001470CAF81070CAF810C0CAF810B0CAF83D
:1007200014C0C8F80090CAF81470CAF81070CAF85B
:1007300010C098488089FFF729FFC4F810B0C4F8AA
:1007400014C0C8F8006067612761C4F810C027E1D1
:10075000012A00D19CB2FFF719FF5746CAF810B022
:100760004FF4007CCAF814C0DFF82492210AC9F8BB
:1007700000104FF08008CAF81480CAF81080CAF838
:1007800010C0CAF810B0CAF814C0E1B2C9F800101D
:10079000CAF81480C7F81080C7F810C07D48808957
:1007A000FFF7F4FEC7F810B0C7F814C0C9F800602E
:1007B000C7F81480C7F81080C7F810C0C7F810B089
:1007C000C7F814C0C9F80050C7F81480C7F81080E3
:1007D000C7F810C0BDE8FC8F01E0A2E0EBE0E04606
:1007E000F2B3FFF7D3FE5C465046CAF810B04FF4A0
:1007F0000071CAF81410DFF898C1CCF8007080229C
:10080000CAF81420CAF81020CAF81010CAF810B09C
:10081000CAF81410CCF80090CAF81420CAF81020B6
:10082000CAF81010CAF810404161B8F800305B1ED9
:100830001F12CCF8007042610261016104614161E4
:10084000DBB2CCF800304261026101614446B8F885
:100850000C00FFF79BFE5F465046CAF810B000E060
:100860002EE04FF40072CAF81420DFF824C1CCF84F
:1008700000608021CAF81410CAF81010CAF81020BD
:10088000CAF810B0CAF81420CCF80050CAF81410F6
:10089000CAF81010CAF81020CAF8107042616388B4
:1008A0005B1E1C12CCF800404161016102610761CE
:1008B0004261DBB2CCF8003041610161026189E73D
:1008C0009CB2FFF763FE5B465046CAF810B04FF487
:1008D0000071CAF814102E4F4FF0000CC7F800C07A
:1008E0008022CAF81420CAF81020CAF81010CAF8DA
:1008F00010B0CAF81410C7F800C0CAF81420CAF81B
:100900001020CAF81010036141614FEA142CC7F897
:1009100000C042610261016103614161E3B23B6079
:1009200091E7FFF733FE5446CAF810B04FF4007C4D
:10093000CAF814C0DFF85880C8F800708027CAF8D9
:100940001470CAF81070CAF810C012484089401CD0
:1009500080B2FFF71BFEC4F810B0C4F814C0C8F88A
:10096000009067612761C4F810C00A488089FFF7CA
:100970000DFEC4F810B0C4F814C0C8F80060676178
:100980002761C4F810C00348808905E000100140C9
:100990000C0C014078010020401C80B2FFF7F6FDEE
:1009A000C4F810B0C4F814C0C8F8005067612761DB
:1009B000C4F810C00EE79CB22146FFF734FEBCF825
:1009C0000C000199BDE8FC4F2DE62DE9F84FFC4DD8
:1009D0002A88824202D96A888A4202D80020BDE869
:1009E000F88FFFF754FEF64845F2103B8088A0F5DB
:1009F0001341413956D0A0F5D041043952D0584561
:100A000050D0A0F5C85163394CD0A0F5AA41103997
:100A10004AD02220FFF7BAFDEA4F4FF08830386005
:100A200007F1040CCCF80000DFF898A34FF6FF752F
:100A30000AF10C0ACAF80050E34BB81518614FF4DC
:100A40000079C3F814904FF04008C3F814800220D6
:100A5000401EC0B2FCD2DB4E08363068C3F81080AE
:100A600080B2D7494FF0333E8988A1F5C852633A26
:100A70001DD0C3F814800220401EC0B2FCD23068E2
:100A8000C3F8108080B2A1F51342413A18D05945FD
:100A900016D0A1F5AA42103A12D0A1F5D042043ADC
:100AA0001DD022E02E20B5E74FF43850B2E7C3F84E
:100AB0001090C7F800E0CCF800E0CAF800508EE7CC
:100AC000C3F814800222521ED2B2FCD2326892B213
:100AD0000092C3F81080C2B205EA022405E0C3F810
:100AE0001480C3F81080306880B2C3F81090C7F843
:100AF00000E0CCF800E0CAF80050A1F51342253A16
:100B0000DDD0A1F58A42353AD9D0A1F58A42313AF1
:100B1000D5D0A1F50942893AD1D0A1F53542053A9F
:100B2000CDD0A1F51342413A08D0594506D0A1F5E0
:100B3000AA42103A02D0BDE8F84F9BE56FF30A00D5
:100B4000A10A40EA4111009841EAD02047E79C48B9
:100B50008088A0F51341413913D0A0F5D041043964
:100B60000FD0A0F5A64110390BD0A0F5C8516339BC
:100B700007D0A0F5AA41103905D040F27311072023
:100B800051E5292001E04FF42450FFE48C4880888F
:100B9000A0F51341413912D0A0F5D04104390ED04F
:100BA000A0F5A64110390AD0A0F5C851633906D086
:100BB000A0F5AA41103904D00021072033E52820F0
:100BC00001E04FF42050E1E42DE9F04F7C4C002689
:100BD0002146A279898846F6040341F66317012A63
:100BE00001D02AB11DE099421BD0B94202D118E0D0
:100BF000B94216D1082814D2DFE800F00406080A2A
:100C00000C0E101206200CE007200AE0042008E079
:100C1000052006E0012004E0002002E0032000E0BF
:100C20000220A1F5134C45F2103245F21055BCF1EB
:100C3000410C07D0994205D0914203D0A94201D07E
:100C4000B9427DD1082812D2DFE800F0110406086D
:100C50000A0C0E1080260AE0402608E0C02606E0B6
:100C6000202604E0602602E0A02600E0E026A9425B
:100C700002D14FF4585000E03620914205D0A942ED
:100C800003D0B94201D046F00806994201D146F09E
:100C900002063146FFF7C7FCA088B8420AD0B10669
:100CA0002188628802D5914202D303E0914201D9A2
:100CB00022806180444EDFF80CA177154FF00008C8
:100CC0004FF0800B4FF4807C0AF10C0AA8427ED1D1
:100CD0006089FFF75BFCC6F810C077614046C146EB
:100CE000D046CAF800005D46C6F814B0C6F810B089
:100CF00037616089401C80B2FFF748FCC6F810C01D
:100D00007761C8F800907561356137616089801C32
:100D100080B2FFF73BFCC6F810C077612088401E08
:100D20000112C8F800107561356137616089C01C17
:100D300080B2FFF72BFCC6F810C07761207800E086
:100D40009CE0401EC1B2C8F8001075613561376182
:100D5000A089FFF71BFCC6F810C07761C8F80090A7
:100D6000756135613761A089401C80B2FFF70EFCC8
:100D7000C6F810C07761C8F80090756135613761B9
:100D8000A089801C80B2FFF701FCC6F810C0776113
:100D90006088401E0112C8F8001075613561376126
:100DA000A089C01C80B2FFF7F1FBC6F810C07761C4
:100DB000A078401EC1B2C8F80010756135615AE0D4
:100DC00078010020000C014000100140FFE7A1461F
:100DD0006089FFF7DBFBC6F810C077615546CAF89B
:100DE00000805C46C6F814B0C6F810B03761C6F88B
:100DF00010C07761CAF80080C6F814B0C6F810B009
:100E00003761C6F810C07761B9F80000401E0112C2
:100E10002960C6F814B034613761C6F810C0776134
:100E2000C0B22860746134613761B9F80C00FFF713
:100E3000ADFBC6F810C07761C5F8008074613461FD
:100E40003761C6F810C07761C5F8008074613461FD
:100E50003761C6F810C07761B9F80200401E011270
:100E60002960746134613761C6F810C07761C0B21F
:100E70002860746134613761BDE8F08F082812D2B0
:100E8000DFE800F0040608110A0C0E1030260AE014
:100E9000102608E0202606E0382604E0282602E096
:100EA000182600E0082646F48051BDE8F04F0320E4
:100EB000FFF7B9BB00B5FFF7EAFBFFF7CBFBF8483C
:100EC0004FF48071016141154161F64AF64B128879
:100ED0001A60802242610261016100BD2DE9F74F75
:100EE0000446F24881B0DFF8B8B381880298DFF891
:100EF000B89300F0FF08050AE0B20090EB48270A1B
:100F0000A1F5134240894FF4807A4FF40076413ABC
:100F100019D0DFF898C3A1F5A642103A13D0A1F575
:100F2000AA42103A3BD06346A1F5C8579A791B886C
:100F30001B1B5B1E633F6CD0A1F5D047043F7DD0E7
:100F4000012A7CD0F6E0DFF864C3FFF71FFB5C46A4
:100F5000CBF810A0CBF81460C9F800708027CBF84C
:100F60001470CBF81070CBF81060CBF810A0CBF851
:100F700014600098C9F80000CBF81470CBF810701A
:100F8000CBF81060BCF80C00FFF700FBC4F810A011
:100F90006661C9F8005067612761266130E0FFF79C
:100FA000F5FA5C46CBF810A0CBF81460C9F80070D5
:100FB0008027CBF81470CBF81070CBF81060BCF819
:100FC0000A00401C80B2FFF7E1FAC4F810A0666185
:100FD0000098C9F80000676127612661BCF80C0021
:100FE000FFF7D4FAC4F810A06661C9F80050676131
:100FF00027612661BCF80C00401C80B2FFF7C6FADE
:10100000C4F810A06661C9F8008067612761266195
:1010100098E002B99CB2FFF7B9FA5F46CBF810A08E
:10102000CBF81460200AC9F800004FF0800CCBF810
:1010300014C0CBF810C0CBF8106001E03EE078E0BF
:10104000CBF810A0CBF81460E1B2C9F80010CBF8CF
:1010500014C0CBF810C0CBF81060C7F810A07E61A8
:10106000C9F80000C7F814C0C7F810C03E61C7F83F
:1010700010A07E61C9F80010C7F814C0C7F810C0EE
:101080003E618A488089FFF781FAC7F810A07E6127
:10109000C9F80050C7F814C0C7F810C03E61C7F8BF
:1010A00010A07E61C9F80080C7F814C0C7F810C04E
:1010B0003E61C7F810A07E61484629E0012A00D1B0
:1010C0009CB2FFF763FA5F46CBF810A0CBF8146030
:1010D000210AC9F800104FF0800CCBF814C0CBF8EF
:1010E00010C0CBF81060CBF810A0CBF81460E1B2C0
:1010F000C9F80010CBF814C0CBF810C0CBF81060C2
:101100006A488089FFF742FAC7F810A07E61484616
:101110000560C7F814C0C7F810C03E61C7F810A03A
:101120007E61C9F80080C7F814C0C7F810C03E61DE
:1011300008E09CB22146FFF776FABCF80C00029951
:10114000FFF771FA5846CBF814A0CBF81460574952
:101150000989C9F800108021CBF81410CBF81010C1
:10116000CBF81060CBF810A0CBF81460039BC9F843
:101170000030CBF81410CBF810100661BDE8FF8FDB
:101180002DE9F0418446BE20FFF700FA444C4FF4AD
:101190008077276165156561DFF80C810521C8F846
:1011A00000108026666126612561276165616046C1
:1011B00007F0F1FA4FF066323D4B07F0FFFA07F007
:1011C000BDFAC8F800006661266125612761656186
:1011D0000121C8F8001066612661256127616561FB
:1011E000FF21C8F8001066612661256127616561ED
:1011F0000020C8F8000066612661256127616561ED
:10120000C8F80000666126612561BDE8F0812DE91E
:10121000F04F26492A232B24898845F2105A4FF48F
:10122000305B4FF4285E4FF448754FF0F00C49F2F4
:1012300041394FF4A07745F210364FF4F07280B187
:101240001A484FF00108494580F806800780A0F849
:1012500002C001D0B14249D12C250581438184814E
:1012600062E012484FF00008494580F80680A0F877
:1012700000C0478006D0A1F5D04CBCF1040C01D0D1
:10128000B14217D12C2505814381A1F5D04384813A
:10129000043B01D0B1424FD1078042804CE00000B6
:1012A00000100140140000200C0C014078010020C7
:1012B00066660440514507D1A0F808B0A0F80AE0DE
:1012C0004FF42C5181810EE0A1F5C856633E06D043
:1012D0002221018120214181212181812CE02C21A9
:1012E0000181448183810280458025E0A1F5D04CB5
:1012F000BCF1040C09D051450BD1A0F808B0A0F8FE
:101300000AE04FF42C53838120E02C250581448191
:1013100009E0A1F5C85CBCF1630C11D02223038164
:101320002123438120238381A1F5D043043B01D0B5
:10133000B14201D102804780BDE8F04F002043E474
:101340004FF02C0CA0F808C04381848105804280B6
:10135000EAE72DE9FF4F044691464844DFF878E478
:10136000401E86B087B2BEF80400E2B2049204EBDD
:101370000902521E1FFA82FC4FEA1C22CE18039269
:101380000CF0FF02761E1FFA86FC02924FEA1C2226
:1013900001920CF0FF020D4600927246A0F5134137
:1013A0005289B3B24FEA14284FEA152B05F0FF0A11
:1013B000413910D0A0F5A64110390CD0A0F5D0418C
:1013C000043908D09EF8061041F6631C05910129E6
:1013D00050D160454ED1F1461046FFF7D7F8FF4C8B
:1013E0004FF48076266165156561FD4FC7F8008072
:1013F0004FF0800CC4F814C0C4F810C025612661F9
:10140000656104983860C4F814C0C4F810C0256140
:101410002661656103983860C4F814C0C4F810C030
:1014200025612661656102983860C4F814C0C4F86B
:1014300010C02561B9F80C00FFF7A8F826616561B6
:10144000C7F800B0C4F814C0C4F810C02561266104
:101450006561C7F800A0C4F814C0C4F810C02561C5
:101460002661656101983860C4F814C0C4F810C0E2
:101470002561FDE0D849604509885BD1A1EB0900F1
:10148000001B1FFA80F8B0B209901046FFF77EF8F3
:10149000D24C4FF48077276165156561DFF840C352
:1014A0004FEA1820CCF8000080266661266125618D
:1014B0002761656108F0FF00CCF8000066612661D5
:1014C00025612761656108EB0900401E0112CCF817
:1014D000001066612661256127616561C0B2CCF8A4
:1014E0000000666126612561BB488089FFF74EF8E0
:1014F00027616561CCF800B06661266125612761CE
:101500006561CCF800A0666126612561276165618F
:101510000998000ACCF80000666126612561276100
:1015200065610998C0B2CCF800006661266125614A
:101530000AB0A1E4A0F5A04CBCF5A26C24D005989B
:1015400001287CD03E4620462F469C46502201462C
:101550004FF0510A4FF052094FF053081046FFF771
:1015600062F831465046FFF75EF839464846FFF7C5
:101570005AF861464046FFF756F80AB02946204619
:10158000BDE8F04FFFF783B8F1461046FEF7FEFFC7
:10159000924C4FF48076266165156561904FC7F8CF
:1015A00000804FF0800CC4F814C0C4F810C025614E
:1015B000B9F80A00401C80B2FEF7E8FF26616561B9
:1015C00004983860C4F814C0C4F810C02561B9F894
:1015D0000A00801C80B2FEF7D9FF2661656103987E
:1015E0003860C4F814C0C4F810C02561B9F80A0006
:1015F000C01C80B2FEF7CAFF2661656102983860A0
:10160000C4F814C0C4F810C02561B9F80C00FEF786
:10161000BDFF26616561C7F800B0C4F814C0C4F806
:1016200010C02561B9F80C00401C80B2FEF7AEFF77
:1016300026616561C7F800A0C4F814C000E020E08E
:10164000C4F810C02561B9F80C00801C80B2FEF708
:101650009DFF2661656101983860C4F814C0C4F824
:1016600010C02561B9F80C00C01C80B2FEF78EFFD7
:101670002661656100983860C4F814C0C4F810C0D1
:1016800055E7CA1B521E091B491E28461E4697B223
:101690001FFA81FC5AE72DE9F0434F4F064600241C
:1016A00038887D884543B888A0F5D041043902D1F7
:1016B000B87901280CD000210846FEF7E8FFFEF7B4
:1016C000C9FF46494FF480774B15454A80201AE000
:1016D0000020B8714FF02A08A7F80A804FF02B09B4
:1016E000A7F80C900146FEF7D2FF0120B871A7F8C9
:1016F0000A90A7F80C80E2E70F614B611660486121
:1017000008610B61641CAC42F6D3BDE8F0832DE99F
:10171000F84F0121192004F062FE0121314804F044
:1017200001FD4FF4F864ADF8004010208DF803007F
:10173000DFF8A88003208DF8020069464546404640
:1017400004F065FC2146284604F0CBFC244D4FF6FE
:10175000FF7B0C3D5C46ADF800B06946284604F0BE
:1017600056FC2146284604F0BCFC322004F030FB35
:1017700001210020FEF757FF322004F029FB002052
:10178000FEF762FF144C49F2413746F60409A08087
:1017900045F2103A45F21055FF2804D3584502D0BF
:1017A000B0F5134F79D1D320FEF7F0FEFEF708FF16
:1017B000FEF706FFFEF704FF0BEA00205E46A0805E
:1017C000FEF7FEFEA1880843A080B84265D0BF2086
:1017D000FEF7DCFE08E00000780100200010014068
:1017E0000C0C014000023000FEF7EAFEFEF7E8FEB6
:1017F000FEF7E6FEFEF7E4FE06EA0020A080FEF714
:10180000DFFEA1880843A080484546D0D420FEF7DB
:10181000BDFEFEF7D5FEFEF7D3FEFEF7D1FE06EACB
:101820000020A080FEF7CCFEA1880843A080504590
:1018300033D04FF45A40FEF7A9FEFEF7C1FE4FF435
:101840005B40FEF7A3FEFEF7BBFE06EA0020A08089
:101850004FF45C40FEF79AFEFEF7B2FEA188084303
:10186000A080B0F5004F7DD0A84216D0A120FEF791
:101870008DFEFEF7A5FEA080FEF7A2FE06EA002080
:10188000A080FEF79DFEA1880843A0F5AE41A08090
:10189000613902D141F66310A080A188FEA006F054
:1018A000E9FCA088B8427DD1CF20FEF76FFE002072
:1018B000FEF779FEC120FEF776FE3020FEF773FEBC
:1018C000ED20FEF763FE6420FEF76DFE0320FEF7B9
:1018D0006AFE1220FEF767FE8120FEF764FEE82014
:1018E000FEF754FE8520FEF75EFE1020FEF75BFE3D
:1018F0007A20FEF758FECB20FEF748FE3920FEF78F
:1019000052FE2C20FEF74FFE0020FEF74CFE342046
:10191000FEF749FE0220FEF746FEF720FEF736FEF0
:101920002020FEF740FEEA20FEF730FE0020FEF702
:101930003AFE0020FEF737FEC020FEF727FE1B20F0
:10194000FEF731FEC120FEF721FE0120FEF72BFE3F
:10195000C520FEF71BFE3020FEF725FE3020FEF7E7
:1019600022FE00E0B3E0C720FEF710FEB720FEF72E
:101970001AFE3620FEF70AFE4820FEF714FE3A2033
:10198000FEF704FE5520FEF70EFEB120FEF7FEFD29
:101990000020FEF708FE1A20FEF705FEB620FEF72F
:1019A000F5FD00E095E00A20FEF7FDFDA220FEF720
:1019B000FAFDF220FEF7EAFD0020FEF7F4FD2620F6
:1019C000FEF7E4FD0120FEF7EEFDE020FEF7DEFD70
:1019D0000F20FEF7E8FD2A20FEF7E5FD2820FEF7A0
:1019E000E2FD0820FEF7DFFD0E20FEF7DCFD0820FB
:1019F000FEF7D9FD5420FEF7D6FDA920FEF7D3FD52
:101A00004320FEF7D0FD0A20FEF7CDFD0F20FEF7A4
:101A1000CAFD0020FEF7C7FD0020FEF7C4FD002030
:101A2000FEF7C1FD0020FEF7BEFDE120FEF7AEFD92
:101A30000020FEF7B8FD1520FEF7B5FD1720FEF7D4
:101A4000B2FD0720FEF7AFFD1120FEF7ACFD06202A
:101A5000FEF7A9FD2B20FEF7A6FD5620FEF7A3FDFD
:101A60003C20FEF7A0FD0520FEF79DFD1020FEF7AF
:101A70009AFD0F20FEF797FD3F20FEF794FD3F20D3
:101A8000FEF791FD0F20FEF78EFD2B20FEF77EFD69
:101A90000020FEF788FD0020FEF785FD0120FEF7FF
:101AA00082FD3F20FEF77FFD2A20FEF76FFD00201C
:101AB000FEF779FD0020FEF776FD0020FEF773FDAE
:101AC000EF20FEF770FD1120FEF760FDA7E0A58076
:101AD000E3E648457ED11120FEF758FD142004F0BE
:101AE00077F9D020FEF752FD0720FEF75CFD42207B
:101AF000FEF759FD1D20FEF756FDD120FEF746FDED
:101B00000020FEF750FD1A20FEF74DFD0920FEF7DC
:101B10004AFDD220FEF73AFD0120FEF744FD2220C7
:101B2000FEF741FDC020FEF731FD1020FEF73BFD22
:101B30003B20FEF738FD0020FEF735FD0220FEF7C2
:101B400032FD1120FEF72FFDC520FEF71FFD0320FB
:101B5000FEF729FDC820FEF719FD0020FEF723FD42
:101B60002520FEF720FD2120FEF71DFD0520FEF7B4
:101B70001AFD0020FEF717FD0A20FEF714FD652070
:101B8000FEF711FD2520FEF70EFD7720FEF70BFD79
:101B90005020FEF708FD0F20FEF705FD0020FEF7A0
:101BA00002FDF820FEF7F2FC0120FEF7FCFCFE200F
:101BB000FEF7ECFC0020FEF7F6FC0220FEF7F3FC3B
:101BC0002020FEF7E3FC3620FEF7E0FC0820FEF7BD
:101BD000EAFC00E029E03A20FEF7D8FC5520FEF7A9
:101BE000E2FC2B20FEF7D2FC0020FEF7DCFC0020FC
:101BF000FEF7D9FC0120FEF7D6FC3F20FEF7D3FC10
:101C00002A20FEF7C3FC0020FEF7CDFC0020FEF7E3
:101C1000CAFC0120FEF7C7FCDF20FEF7C4FC7820D9
:101C200004F0D6F8292001F004BF50457ED1ED2004
:101C3000FEF7ACFC0120FEF7B6FCFE20FEF7B3FC7D
:101C4000EE20FEF7A3FCDE20FEF7ADFC2120FEF720
:101C5000AAFCF120FEF79AFC0120FEF7A4FCDF208D
:101C6000FEF794FC1020FEF79EFCC420FEF78EFCCD
:101C70008F20FEF798FCC620FEF788FC0020FEF7B8
:101C800092FCE220FEF78FFCE220FEF78CFCE220C3
:101C9000FEF789FCBF2007E0204C43442049443A2A
:101CA00025780D0A00000000FEF770FCAA20FEF760
:101CB0007AFCB020FEF76AFC0D20FEF774FC0020D1
:101CC000FEF771FC0D20FEF76EFC0020FEF76BFCAA
:101CD0001120FEF768FC0020FEF765FC1920FEF7D6
:101CE00062FC0020FEF75FFC2120FEF75CFC002078
:101CF000FEF759FC2D20FEF756FC0020FEF753FCA2
:101D00003D20FEF750FC0020FEF74DFC5D20FEF765
:101D10004AFC0020FEF747FC5D20FEF744FC002053
:101D2000FEF741FCB120FEF731FC00E0FDE380202E
:101D3000FEF739FC0020FEF736FC8B20FEF733FC63
:101D40000020FEF730FC9620FEF72DFC0020FEF769
:101D50002AFCB220FEF71AFC0020FEF724FC00202B
:101D6000FEF721FC0220FEF71EFC0020FEF71BFC04
:101D70000320FEF718FC0020FEF715FCB320FEF749
:101D800005FC0020FEF70FFC0020FEF70CFC0020F5
:101D9000FEF709FC0020FEF706FC0020FEF703FC1E
:101DA0000020FEF700FC0020FEF7FDFB0020FEF700
:101DB000FAFB0020FEF7F7FB0020FEF7F4FB002003
:101DC000FEF7F1FB0020FEF7EEFB0020FEF7EBFB39
:101DD0000020FEF7E8FB0020FEF7E5FB0020FEF701
:101DE000E2FB0020FEF7DFFB0020FEF7DCFB00201B
:101DF000FEF7D9FB0020FEF7D6FB0020FEF7D3FB51
:101E00000020FEF7D0FB0020FEF7CDFB0020FEF700
:101E1000CAFBB420FEF7BAFB8B20FEF7C4FB002000
:101E2000FEF7C1FB9620FEF7BEFB0020FEF7BBFBD2
:101E3000A120FEF7B8FB0020FEF7B5FBB520FEF7AA
:101E4000A5FB0220FEF7AFFB0020FEF7ACFB032052
:101E5000FEF7A9FB0020FEF7A6FB0420FEF7A3FB7C
:101E60000020FEF7A0FBB620FEF790FB0020FEF757
:101E70009AFB0020FEF797FBB720FEF787FB0020B8
:101E8000FEF791FB0020FEF78EFB3F20FEF78BFB59
:101E90000020FEF788FB5E20FEF785FB0020FEF7A2
:101EA00082FB6420FEF77FFB0020FEF77CFB8C208A
:101EB000FEF779FB0020FEF776FBAC20FEF773FB04
:101EC0000020FEF770FBDC20FEF76DFB0020FEF724
:101ED0006AFB7020FEF767FB0020FEF764FB902092
:101EE000FEF761FB0020FEF75EFBEB20FEF75BFBDD
:101EF0000020FEF758FBDC20FEF755FB0020FEF724
:101F000052FBB820FEF742FB0020FEF74CFB0020FE
:101F1000FEF749FB0020FEF746FB0020FEF743FBDF
:101F20000020FEF740FB0020FEF73DFB0020FEF7FF
:101F30003AFB0020FEF737FBBA20FEF727FB2420F0
:101F4000FEF731FB0020FEF72EFB0020FEF72BFBF7
:101F50000020FEF728FBC120FEF718FB2020FEF72B
:101F600022FB0020FEF71FFB5420FEF71CFB002085
:101F7000FEF719FBFF20FEF716FB0020FEF713FB10
:101F8000C220FEF703FB0A20FEF70DFB0020FEF740
:101F90000AFB0420FEF707FB0020FEF704FBC3202A
:101FA000FEF7F4FA3C20FEF7FEFA0020FEF7FBFAFB
:101FB0003A20FEF7F8FA0020FEF7F5FA3920FEF78E
:101FC000F2FA0020FEF7EFFA3720FEF7ECFA0020D5
:101FD000FEF7E9FA3C20FEF7E6FA0020FEF7E3FA06
:101FE0003620FEF7E0FA0020FEF7DDFA3220FEF799
:101FF000DAFA0020FEF7D7FA2F20FEF7D4FA0020F5
:10200000FEF7D1FA2C20FEF7CEFA0020FEF7CBFA2D
:102010002920FEF7C8FA0020FEF7C5FA2620FEF7B1
:10202000C2FA0020FEF7BFFA2420FEF7BCFA002017
:10203000FEF7B9FA2420FEF7B6FA0020FEF7B3FA4D
:102040002320FEF7B0FA0020FEF7ADFA3C20FEF7A1
:10205000AAFA0020FEF7A7FA3620FEF7A4FA00201D
:10206000FEF7A1FA3220FEF79EFA0020FEF79BFA57
:102070002F20FEF798FA0020FEF795FA2C20FEF7A5
:1020800092FA0020FEF78FFA2920FEF78CFA002042
:10209000FEF789FA2620FEF786FA0020FEF783FA7B
:1020A0002420FEF780FA0020FEF77DFA2420FEF7B8
:1020B0007AFA0020FEF777FA2320FEF774FA002060
:1020C000FEF771FAC420FEF761FA6220FEF76BFAA0
:1020D0000020FEF768FA0520FEF765FA0020FEF7FB
:1020E00062FA8420FEF75FFA0020FEF75CFAF02027
:1020F000FEF759FA0020FEF756FA1820FEF753FAB9
:102100000020FEF750FAA420FEF74DFA0020FEF75B
:102110004AFA1820FEF747FA0020FEF744FA50204A
:10212000FEF741FA0020FEF73EFA0C20FEF73BFADC
:102130000020FEF738FA1720FEF735FA0020FEF7E8
:1021400032FA9520FEF72FFA0020FEF72CFAF32042
:10215000FEF729FA0020FEF726FAE620FEF723FA1A
:102160000020FEF720FAC520FEF710FA3220FEF715
:102170001AFA0020FEF717FA4420FEF714FA00209E
:10218000FEF711FA6520FEF70EFA0020FEF70BFAB3
:102190007620FEF708FA0020FEF705FA8820FEF701
:1021A00002FA0020FEF7FFF9C620FEF7EFF9202023
:1021B000FEF7F9F90020FEF7F6F91720FEF7F3F91C
:1021C0000020FEF7F0F90120FEF7EDF90020FEF700
:1021D000EAF9C720FEF7DAF90020FEF7E4F900205B
:1021E000FEF7E1F90020FEF7DEF90020FEF7DBF94B
:1021F000C820FEF7CBF90020FEF7D5F90020FEF746
:10220000D2F90020FEF7CFF90020FEF7CCF9C92063
:10221000FEF7BCF90020FEF7C6F90020FEF7C3F96F
:102220000020FEF7C0F90020FEF7BDF90020FEF700
:10223000BAF90020FEF7B7F90020FEF7B4F9002044
:10224000FEF7B1F90020FEF7AEF90020FEF7ABF97A
:102250000020FEF7A8F90020FEF7A5F90020FEF700
:10226000A2F90020FEF79FF90020FEF79CF900205C
:10227000FEF799F9E020FEF789F91620FEF793F9A9
:102280000020FEF790F91C20FEF78DF90020FEF7E4
:102290008AF92120FEF787F90020FEF784F936201D
:1022A000FEF781F90020FEF77EF94620FEF77BF964
:1022B0000020FEF778F95220FEF775F90020FEF7AE
:1022C00072F96420FEF76FF90020FEF76CF97A20AE
:1022D000FEF769F90020FEF766F98B20FEF763F937
:1022E0000020FEF760F99920FEF75DF90020FEF767
:1022F0005AF9A820FEF757F90020FEF754F9B92043
:10230000FEF751F90020FEF74EF9C420FEF74BF915
:102310000020FEF748F9CA20FEF745F90020FEF735
:1023200042F9D220FEF73FF90020FEF73CF9D92010
:10233000FEF739F90020FEF736F9E020FEF733F911
:102340000020FEF730F9F320FEF72DF90020FEF70C
:102350002AF9E120FEF71AF91620FEF724F90020E9
:10236000FEF721F91C20FEF71EF90020FEF71BF9ED
:102370002220FEF718F90020FEF715F93620FEF7A7
:1023800012F90020FEF70FF94520FEF70CF90020A6
:10239000FEF709F95220FEF706F90020FEF703F9CF
:1023A0006420FEF700F90020FEF7FDF87A20FEF722
:1023B000FAF80020FEF7F7F88B20FEF7F4F800207B
:1023C000FEF7F1F89920FEF7EEF80020FEF7EBF8A3
:1023D000A820FEF7E8F80020FEF7E5F8B920FEF7A0
:1023E000E2F80020FEF7DFF8C420FEF7DCF800205A
:1023F000FEF7D9F8CA20FEF7D6F80020FEF7D3F88A
:10240000D220FEF7D0F80020FEF7CDF8D820FEF756
:10241000CAF80020FEF7C7F8E020FEF7C4F8002055
:10242000FEF7C1F8F320FEF7BEF80020FEF7BBF878
:10243000E220FEF7ABF80520FEF7B5F80020FEF726
:10244000B2F80B20FEF7AFF80020FEF7ACF81B2027
:10245000FEF7A9F80020FEF7A6F83420FEF7A3F84F
:102460000020FEF7A0F84420FEF79DF80020FEF7BC
:102470009AF84F20FEF797F80020FEF794F86120B5
:10248000FEF791F80020FEF78EF87920FEF78BF822
:102490000020FEF788F88820FEF785F80020FEF778
:1024A00082F89720FEF77FF80020FEF77CF8A62040
:1024B000FEF779F80020FEF776F8B720FEF773F8FC
:1024C0000020FEF770F8C220FEF76DF80020FEF73E
:1024D0006AF8C720FEF767F80020FEF764F8D120FD
:1024E000FEF761F80020FEF75EF8D620FEF75BF8F5
:1024F0000020FEF758F8DD20FEF755F80020FEF723
:1025000052F8F320FEF74FF80020FEF74CF8E320D6
:10251000FEF73CF80520FEF746F80020FEF743F8EA
:102520000A20FEF740F8002000E003E3FEF73BF846
:102530001C20FEF738F80020FEF735F83320FEF7B0
:1025400032F80020FEF72FF84420FEF72CF8002088
:10255000FEF729F85020FEF726F80020FEF723F8B2
:102560006220FEF720F80020FEF71DF87820FEF725
:102570001AF80020FEF717F88820FEF714F800205C
:10258000FEF711F89720FEF70EF80020FEF70BF883
:10259000A620FEF708F80020FEF705F8B720FEF7A2
:1025A00002F80020FDF7FFFFC220FDF7FCFF00202E
:1025B000FDF7F9FFC720FDF7F6FF0020FDF7F3FF59
:1025C000D120FDF7F0FF0020FDF7EDFFD520FDF74E
:1025D000EAFF0020FDF7E7FFDD20FDF7E4FF002024
:1025E000FDF7E1FFF320FDF7DEFF0020FDF7DBFF45
:1025F000E420FDF7CBFF0120FDF7D5FF0020FDF71C
:10260000D2FF0120FDF7CFFF0020FDF7CCFF022015
:10261000FDF7C9FF0020FDF7C6FF2A20FDF7C3FF25
:102620000020FDF7C0FF3C20FDF7BDFF0020FDF7B7
:10263000BAFF4B20FDF7B7FF0020FDF7B4FF5D2088
:10264000FDF7B1FF0020FDF7AEFF7420FDF7ABFFF3
:102650000020FDF7A8FF8420FDF7A5FF0020FDF76F
:10266000A2FF9320FDF79FFF0020FDF79CFFA22013
:10267000FDF799FF0020FDF796FFB320FDF793FFCC
:102680000020FDF790FFBE20FDF78DFF0020FDF735
:102690008AFFC420FDF787FF0020FDF784FFCD20CF
:1026A000FDF781FF0020FDF77EFFD320FDF77BFFC4
:1026B0000020FDF778FFDD20FDF775FF0020FDF716
:1026C00072FFF320FDF76FFF0020FDF76CFFE520A0
:1026D000FDF75CFF0020FDF766FF0020FDF763FFBC
:1026E0000020FDF760FF0020FDF75DFF0220FDF7F1
:1026F0005AFF0020FDF757FF2920FDF754FF002067
:10270000FDF751FF3C20FDF74EFF0020FDF74BFF8A
:102710004B20FDF748FF0020FDF745FF5D20FDF74A
:1027200042FF0020FDF73FFF7420FDF73CFF002033
:10273000FDF739FF8420FDF736FF0020FDF733FF5A
:102740009320FDF730FF0020FDF72DFFA220FDF7BD
:102750002AFF0020FDF727FFB320FDF724FF00200C
:10276000FDF721FFBE20FDF71EFF0020FDF71BFF38
:10277000C420FDF718FF0020FDF715FFCD20FDF761
:1027800012FF0020FDF70FFFD320FDF70CFF002004
:10279000FDF709FFDC20FDF706FF0020FDF703FF32
:1027A000F320FDF700FF0020FDF7FDFEE620FDF71A
:1027B000EDFE1120FDF7F7FE0020FDF7F4FE3420BA
:1027C000FDF7F1FE0020FDF7EEFE5620FDF7EBFED3
:1027D0000020FDF7E8FE7620FDF7E5FE0020FDF77E
:1027E000E2FE7720FDF7DFFE0020FDF7DCFE66202D
:1027F000FDF7D9FE0020FDF7D6FE8820FDF7D3FEB9
:102800000020FDF7D0FE9920FDF7CDFE0020FDF75A
:10281000CAFEBB20FDF7C7FE0020FDF7C4FE9920CD
:10282000FDF7C1FE0020FDF7BEFE6620FDF7BBFEF2
:102830000020FDF7B8FE5520FDF7B5FE0020FDF79E
:10284000B2FE5520FDF7AFFE0020FDF7ACFE45209F
:10285000FDF7A9FE0020FDF7A6FE4320FDF7A3FE2D
:102860000020FDF7A0FE4420FDF79DFE0020FDF7AF
:102870009AFEE720FDF78AFE3220FDF794FE002045
:10288000FDF791FE5520FDF78EFE0020FDF78BFE33
:102890007620FDF788FE0020FDF785FE6620FDF717
:1028A00082FE0020FDF77FFE6720FDF77CFE002002
:1028B000FDF779FE6720FDF776FE0020FDF773FE39
:1028C0008720FDF770FE0020FDF76DFE9920FDF7D3
:1028D0006AFE0020FDF767FEBB20FDF764FE0020C6
:1028E000FDF761FE9920FDF75EFE0020FDF75BFE1F
:1028F0007720FDF758FE0020FDF755FE4420FDF738
:1029000052FE0020FDF74FFE5620FDF74CFE002042
:10291000FDF749FE2320FDF746FE0020FDF743FEAC
:102920003320FDF740FE0020FDF73DFE4520FDF77A
:102930003AFE0020FDF737FEE820FDF727FE0020D5
:10294000FDF731FE0020FDF72EFE9920FDF72BFE4E
:102950000020FDF728FE8720FDF725FE0020FDF76B
:1029600022FE8820FDF71FFE0020FDF71CFE7720C9
:10297000FDF719FE0020FDF716FE6620FDF713FE99
:102980000020FDF710FE8820FDF70DFE0020FDF76A
:102990000AFEAA20FDF707FE0020FDF704FEBB207B
:1029A000FDF701FE0020FDF7FEFD9920FDF7FBFD80
:1029B0000020FDF7F8FD6620FDF7F5FD0020FDF78E
:1029C000F2FD5520FDF7EFFD0020FDF7ECFD552051
:1029D000FDF7E9FD0020FDF7E6FD4420FDF7E3FDEE
:1029E0000020FDF7E0FD4420FDF7DDFD0020FDF7B0
:1029F000DAFD5520FDF7D7FD0020FDF7D4FDE920D5
:102A0000FDF7C4FDAA20FDF7CEFD0020FDF7CBFDAC
:102A10000020FDF7C8FD0020FDF7C5FD0020FDF7F3
:102A2000B5FDAA20FDF7BFFDCF20FDF7AFFD0020CB
:102A3000FDF7B9FD0020FDF7B6FD0020FDF7B3FD61
:102A40000020FDF7B0FD0020FDF7ADFD0020FDF7F3
:102A5000AAFD0020FDF7A7FD0020FDF7A4FD002042
:102A6000FDF7A1FD0020FDF79EFD0020FDF79BFD79
:102A70000020FDF798FD0020FDF795FD0020FDF7F3
:102A800092FD0020FDF78FFD0020FDF78CFD00205A
:102A9000FDF789FDF020FDF779FD0020FDF783FDAE
:102AA0005020FDF780FD0020FDF77DFD0020FDF7A3
:102AB0007AFD0020FDF777FDF320FDF767FD00208C
:102AC000FDF771FDF920FDF761FD0620FDF76BFDB7
:102AD0001020FDF768FD2920FDF765FD0020FDF7BA
:102AE00062FD3A20FDF752FD5520FDF75CFD1120F7
:102AF000FDF74CFD642003F06BF92920FDF746FD3E
:102B00003520FDF743FD0020FDF74DFD5120FDF779
:102B10003DFDFF20FDF747FD5320FDF737FD2C203D
:102B2000FDF741FD5520FDF731FD8220FDF73BFD0E
:102B30002C20FCE3A8427DD14FF47044552120465F
:102B4000FDF771FD651CAA212846FDF76CFDA61C4A
:102B500052213046FDF767FDE71C08213846FDF796
:102B600062FD4FF2040C01216046FDF75CFD0D2172
:102B70004FF43040FDF757FD0D214BF20100FDF7FA
:102B800052FD0D214BF20200FDF74DFD4FF436488A
:102B900034214046FDF747FD34214BF20160FDF73B
:102BA00042FD34214BF20260FDF73DFD4FF4314907
:102BB0000D214846FDF737FD4BF2011A0D21504615
:102BC000FDF731FD0D214BF20210FDF72CFD3421F4
:102BD0004FF43740FDF727FD34214BF20170FDF72C
:102BE00022FD34214BF20270FDF71DFD00214FF450
:102BF0003240FDF718FD00214BF20120FDF713FDD7
:102C000000214BF20220FDF70EFD24214FF4384045
:102C1000FDF709FD24214BF60100FDF704FD2421F9
:102C20004BF60200FDF7FFFC01214FF43F40FDF79A
:102C3000FAFC00E0FEE30F214FF43340FDF7F3FC14
:102C40000F214BF20130FDF7EEFC0F214BF2023069
:102C5000FDF7E9FC34214FF43940FDF7E4FC342161
:102C60004BF60110FDF7DFFC34214BF60210FDF7A7
:102C7000DAFC08214FF43540FDF7D5FC08214BF272
:102C80000150FDF7D0FC08214BF20250FDF7CBFCC0
:102C900003214FF44240FDF7C6FC24214FF43A4093
:102CA000FDF7C1FC24214BF60120FDF7BCFC2421DB
:102CB0004BF60220FDF7B7FC00214FF43C40FDF736
:102CC000B2FC78214BF60140FDF7ADFC00214BF63C
:102CD0000240FDF7A8FC00214FF43D40FDF7A3FCA6
:102CE00078214BF60150FDF79EFC00214BF6025077
:102CF000FDF799FC00214FF43E40FDF794FC642160
:102D00004BF60160FDF78FFC00214FF45140FDF7B9
:102D10008AFC33214DF20110FDF785FC00214DF2B4
:102D20000210FDF780FC34214DF20310FDF77BFC0F
:102D300000214DF20410FDF776FC3A214DF205100A
:102D4000FDF771FC00214DF20610FDF76CFC4A21E5
:102D50004DF20710FDF767FC00214DF20810FDF75A
:102D600062FC5C214DF20910FDF75DFC00214DF283
:102D70000A10FDF758FC81214DF20B10FDF753FCB2
:102D800000214DF20C10FDF74EFCA6214DF20D1066
:102D9000FDF749FC00214DF20E10FDF744FCE52142
:102DA0004DF20F10FDF73FFC01214DF21010FDF721
:102DB0003AFC13214DF21110FDF735FC01214DF2C3
:102DC0001210FDF730FC54214DF21310FDF72BFCCF
:102DD00001214DF21410FDF726FC82214DF2151051
:102DE000FDF721FC01214DF21610FDF71CFCCA2154
:102DF0004DF21710FDF717FC02214DF21810FDF7E8
:102E000012FC00214DF21910FDF70DFC02214DF2CC
:102E10001A10FDF708FC01214DF21B10FDF703FC11
:102E200002214DF21C10FDF7FEFB34214DF21D1066
:102E3000FDF7F9FB02214DF21E10FDF7F4FB6721AF
:102E40004DF21F10FDF7EFFB02214DF22010FDF7B0
:102E5000EAFB84214DF22110FDF7E5FB02214DF242
:102E60002210FDF7E0FBA4214DF22310FDF7DBFB60
:102E700002214DF22410FDF7D6FBB7214DF22510AB
:102E8000FDF7D1FB02214DF22610FDF7CCFBCF213F
:102E90004DF22710FDF7C7FB02214DF22810FDF778
:102EA000C2FBDE214DF22910FDF7BDFB02214DF2E0
:102EB0002A10FDF7B8FBF2214DF22B10FDF7B3FB02
:102EC00002214DF22C10FDF7AEFBFE214DF22D102C
:102ED000FDF7A9FB03214DF22E10FDF7A4FB1021F5
:102EE0004DF22F10FDF79FFB03214DF23010FDF73F
:102EF0009AFB33214DF23110FDF795FB03214DF282
:102F00003210FDF790FB6D214DF23310FDF78BFB76
:102F100000214FF45240FDF786FB33214DF2012092
:102F2000FDF781FB00214DF20220FDF77CFB3421EF
:102F30004DF20320FDF777FB00214DF20420FDF751
:102F400072FB3A214DF20520FDF76DFB00214DF299
:102F50000620FDF768FB4A214DF20720FDF763FBD1
:102F600000214DF20820FDF75EFB5C214DF20920A7
:102F7000FDF759FB00214DF20A20FDF754FB81219A
:102F80004DF20B20FDF74FFB00214DF20C20FDF719
:102F90004AFBA6214DF20D20FDF745FB00214DF225
:102FA0000E20FDF740FBE5214DF20F20FDF73BFB26
:102FB00001214DF21020FDF736FB13214DF21120B7
:102FC000FDF731FB01214DF21220FDF72CFB5421BE
:102FD0004DF21320FDF727FB01214DF21420FDF7E0
:102FE00022FB82214DF21520FDF71DFB01214DF240
:102FF0001620FDF718FBCA214DF21720FDF713FB31
:1030000002214DF21820FDF70EFB00214DF2192090
:10301000FDF709FB02214DF21A20FDF704FB012107
:103020004DF21B20FDF7FFFA02214DF21C20FDF7A7
:10303000FAFA34214DF21D20FDF7F5FA02214DF286
:103040001E20FDF7F0FA67214DF21F20FDF7EBFA85
:1030500002214DF22020FDF7E6FA84214DF22120D5
:10306000FDF7E1FA02214DF22220FDF7DCFAA4215E
:103070004DF22320FDF7D7FA02214DF22420FDF76F
:10308000D2FAB7214DF22520FDF7CDFA02214DF2FB
:103090002620FDF7C8FACF214DF22720FDF7C3FA0D
:1030A00002214DF22820FDF7BEFADE214DF2292043
:1030B000FDF7B9FA02214DF22A20FDF7B4FAF22108
:1030C0004DF22B20FDF7AFFA02214DF22C20FDF737
:1030D000AAFAFE214DF22D20FDF7A5FA03214DF2AB
:1030E0002E20FDF7A0FA10214DF22F20FDF79BFABC
:1030F00003214DF23020FDF796FA33214DF23120B5
:10310000FDF791FA03214DF23220FDF78CFA6D2183
:103110004DF23320FDF787FA00214FF45340FDF7BD
:1031200082FA33214DF20130FDF77DFA00214DF294
:103130000230FDF778FA34214DF20330FDF773FACF
:1031400000214DF20430FDF76EFA3A214DF20530C0
:10315000FDF769FA00214DF20630FDF764FA4A21C5
:103160004DF20730FDF75FFA00214DF20830FDF710
:103170005AFA5C214DF20930FDF755FA00214DF263
:103180000A30FDF750FA81214DF20B30FDF74BFA72
:1031900000214DF20C30FDF746FAA6214DF20D301C
:1031A000FDF741FA00214DF20E30FDF73CFAE52122
:1031B0004DF20F30FDF737FA01214DF21030FDF7D7
:1031C00032FA13214DF21130FDF72DFA01214DF2A3
:1031D0001230FDF728FA54214DF21330FDF723FA8F
:1031E00001214DF21430FDF71EFA82214DF2153007
:1031F000FDF719FA01214DF21630FDF714FACA2134
:103200004DF21730FDF70FFA02214DF21830FDF79D
:103210000AFA00214DF21930FDF705FA02214DF2AC
:103220001A30FDF700FA01214DF21B30FDF7FBF9D2
:1032300002214DF21C30FDF7F6F934214DF21D301C
:10324000FDF7F1F902214DF21E30FDF7ECF967218F
:103250004DF21F30FDF7E7F902214DF22030FDF766
:10326000E2F984214DF22130FDF7DDF902214DF222
:103270002230FDF7D8F9A4214DF22330FDF7D3F920
:1032800002214DF22430FDF7CEF9B7214DF2253061
:10329000FDF7C9F902214DF22630FDF7C4F9CF211F
:1032A0004DF22730FDF7BFF902214DF22830FDF72E
:1032B000BAF9DE214DF22930FDF7B5F902214DF2C0
:1032C0002A30FDF7B0F9F2214DF22B30FDF7ABF9C2
:1032D00002214DF22C30FDF7A6F9FE214DF22D30E2
:1032E000FDF7A1F903214DF22E30FDF79CF91021D5
:1032F0004DF22F30FDF797F903214DF23030FDF7F5
:1033000092F933214DF23130FDF78DF903214DF261
:103310003230FDF788F96D214DF23330FDF783F936
:1033200000214FF45440FDF77EF9332100E080E3A3
:103330004DF20140FDF777F900214DF20240FDF713
:1033400072F934214DF20340FDF76DF900214DF281
:103350000440FDF768F93A214DF20540FDF763F9A5
:1033600000214DF20640FDF75EF94A214DF207407B
:10337000FDF759F900214DF20840FDF754F95C21A1
:103380004DF20940FDF74FF900214DF20A40FDF7DB
:103390004AF981214DF20B40FDF745F900214DF22C
:1033A0000C40FDF740F9A6214DF20D40FDF73BF929
:1033B00000214DF20E40FDF736F9E5214DF20F40A8
:1033C000FDF731F901214DF21040FDF72CF91321E1
:1033D0004DF21140FDF727F901214DF21240FDF7A2
:1033E00022F954214DF21340FDF71DF901214DF250
:1033F0001440FDF718F982214DF21540FDF713F93D
:1034000001214DF21640FDF70EF9CA214DF2174089
:10341000FDF709F902214DF21840FDF704F90021EA
:103420004DF21940FDF7FFF802214DF21A40FDF769
:10343000FAF800E001E301214DF21B40FDF7F3F83B
:1034400002214DF21C40FDF7EEF834214DF21D40F3
:10345000FDF7E9F802214DF21E40FDF7E4F867217F
:103460004DF21F40FDF7DFF802214DF22040FDF73D
:10347000DAF884214DF22140FDF7D5F802214DF212
:103480002240FDF7D0F8A4214DF22340FDF7CBF800
:1034900002214DF22440FDF7C6F8B7214DF2254038
:1034A000FDF7C1F802214DF22640FDF7BCF8CF210F
:1034B0004DF22740FDF7B7F802214DF22840FDF705
:1034C000B2F8DE214DF22940FDF7ADF802214DF2B0
:1034D0002A40FDF7A8F8F2214DF22B40FDF7A3F8A2
:1034E00002214DF22C40FDF79EF8FE214DF22D40B9
:1034F000FDF799F803214DF22E40FDF794F81021C5
:103500004DF22F40FDF78FF803214DF23040FDF7CB
:103510008AF833214DF23140FDF785F803214DF251
:103520003240FDF780F86D214DF23340FDF77BF816
:1035300000214FF45540FDF776F833214DF201504C
:10354000FDF771F800214DF20250FDF76CF83421BF
:103550004DF20350FDF767F800214DF20450FDF7DE
:1035600062F83A214DF20550FDF75DF800214DF269
:103570000650FDF758F84A214DF20750FDF753F871
:1035800000214DF20850FDF74EF85C214DF2095034
:10359000FDF749F800214DF20A50FDF744F881216A
:1035A0004DF20B50FDF73FF800214DF20C50FDF7A6
:1035B0003AF8A6214DF20D50FDF735F800214DF2F5
:1035C0000E50FDF730F8E5214DF20F50FDF72BF8C6
:1035D00001214DF21050FDF726F813214DF2115044
:1035E000FDF721F801214DF21250FDF71CF854218E
:1035F0004DF21350FDF717F801214DF21450FDF76D
:1036000012F882214DF21550FDF70DF801214DF20F
:103610001650FDF708F8CA214DF21750FDF703F8D0
:1036200002214DF21850FCF7FEFF00214DF2195017
:10363000FCF7F9FF02214DF21A50FCF7F4FF0121CB
:103640004DF21B50FCF7EFFF02214DF21C50FCF72E
:10365000EAFF34214DF21D50FCF7E5FF02214DF247
:103660001E50FCF7E0FF67214DF21F50FCF7DBFF17
:1036700002214DF22050FCF7D6FF84214DF221505B
:10368000FCF7D1FF02214DF22250FCF7CCFFA42120
:103690004DF22350FCF7C7FF02214DF22450FCF7F6
:1036A000C2FFB7214DF22550FCF7BDFF02214DF2BC
:1036B0002650FCF7B8FFCF214DF22750FCF7B3FF9F
:1036C00002214DF22850FCF7AEFFDE214DF22950C9
:1036D000FCF7A9FF02214DF22A50FCF7A4FFF221CA
:1036E0004DF22B50FCF79FFF02214DF22C50FCF7BE
:1036F0009AFFFE214DF22D50FCF795FF03214DF26C
:103700002E50FCF790FF10214DF22F50FCF78BFF4D
:1037100003214DF23050FCF786FF33214DF231503A
:10372000FCF781FF03214DF23250FCF77CFF6D2145
:103730004DF23350FCF777FF00214FF45640FCF771
:1037400072FF33214DF20160FCF76DFF00214DF255
:103750000260FCF768FF34214DF20360FCF763FF61
:1037600000214DF20460FCF75EFF3A214DF2056046
:10377000FCF759FF00214DF20660FCF754FF4A2187
:103780004DF20760FCF74FFF00214DF20860FCF797
:103790004AFF5C214DF20960FCF745FF00214DF224
:1037A0000A60FCF740FF81214DF20B60FCF73BFF04
:1037B00000214DF20C60FCF736FFA6214DF20D60A2
:1037C000FCF731FF00214DF20E60FCF72CFFE521E4
:1037D0004DF20F60FCF727FF01214DF21060FCF75E
:1037E00022FF13214DF21160FCF71DFF01214DF264
:1037F0001260FCF718FF54214DF21360FCF713FF21
:1038000001214DF21460FCF70EFF82214DF215608C
:10381000FCF709FF01214DF21660FCF704FFCA21F5
:103820004DF21760FCF7FFFE02214DF21860FCF725
:10383000FAFE00214DF21960FCF7F5FE02214DF26F
:103840001A60FCF7F0FE01214DF21B60FCF7EBFE65
:1038500002214DF21C60FCF7E6FE34214DF21D60A2
:10386000FCF7E1FE02214DF21E60FCF7DCFE672151
:103870004DF21F60FCF7D7FE02214DF22060FCF7ED
:10388000D2FE84214DF22160FCF7CDFE02214DF2E3
:103890002260FCF7C8FEA4214DF22360FCF7C3FEB2
:1038A00002214DF22460FCF7BEFEB7214DF22560E7
:1038B000FCF7B9FE02214DF22660FCF7B4FECF21E1
:1038C0004DF22760FCF7AFFE02214DF22860FCF7B5
:1038D000AAFEDE214DF22960FCF7A5FE02214DF281
:1038E0002A60FCF7A0FEF2214DF22B60FCF79BFE54
:1038F00002214DF22C60FCF796FEFE214DF22D6068
:10390000FCF791FE03214DF22E60FCF78CFE102196
:103910004DF22F60FCF787FE03214DF23060FCF77B
:1039200082FE33214DF23160FCF77DFE03214DF222
:103930003260FCF778FE6D214DF23360FCF773FEC8
:1039400055212046FCF76FFEAA212846FCF76BFEA6
:1039500052213046FCF767FE08213846FCF763FE2B
:1039600000216046FCF75FFECC214846FCF75BFE79
:1039700000215046FCF757FE05214046FCF753FE58
:1039800070214FF43740FCF74EFE70214BF201706E
:10399000FCF749FE01214FF43840FCF744FE0321B7
:1039A0004BF60100FCF73FFE03214BF60200FCF74B
:1039B0003AFE03214BF60300FCF735FE02214FF4DB
:1039C0003C40FCF730FE00214BF60140FCF72BFE9B
:1039D00000214BF60240FCF726FED0214FF449406F
:1039E000FCF721FE02214CF60110FCF71CFE5021D1
:1039F0004CF60210FCF717FE50214CF60310FCF7B2
:103A000012FE50214CF60410FCF70DFE00214FF47D
:103A10005450FCF708FE55214FF46850FCF703FEA4
:103A20004FF48850FCF7B2FD782002F0BAF94FF459
:103A30002450FCF7ABFD01F050BAA0F513414FF450
:103A400080774FF4E06940F2022A40F23F144FF4CD
:103A50002746253932D0A0F5134140F207752839A1
:103A60007DD0A0F513414FF48876203978D0A0F5A9
:103A70001341313975D0A0F5A841083972D0A0F5AD
:103A8000A8514FF4407605396DD0A0F53541053980
:103A90006AD0A0F54541053967D0A0F509418939BB
:103AA0007DD0A0F58A4131397AD0A0F58A413539E7
:103AB00077D0A0F5C851633974D0BCE747F6F00160
:103AC000E520FCF7B0FD39460120FCF7ACFD494686
:103AD0000220FCF7A8FD41F230010320FCF7A3FD12
:103AE00000210420FCF79FFD51460820FCF79BFDB8
:103AF00000210920FCF797FD00210A20FCF793FD27
:103B000000210C20FCF78FFD00210D20FCF78BFD20
:103B100000210F20FCF787FD00211020FCF783FD1A
:103B200007211120FCF77FFD00211220FCF77BFD0F
:103B300000211320FCF777FD00210720FCF773FD1F
:103B400041F290611020FCF76EFD40F22721112018
:103B5000FCF769FD9D211220FCF765FD06E085E07C
:103B600040E1E3E1B7E252E3FEE3FEE34FF4C85184
:103B70001320FCF758FD25212920FCF754FD0D21C9
:103B80002B20FCF750FD07213020FCF74CFD40F2C4
:103B900003313120FCF747FD0321322003E0E5E348
:103BA000E5E3E5E3E5E3FCF73EFD40F206213520E1
:103BB000FCF739FD08213620FCF735FD40F20641BF
:103BC0003720FCF730FD4FF441713820FCF72BFD16
:103BD00007213920FCF727FD40F202613C20FCF769
:103BE00022FD08213D20FCF71EFD00215020FCF79E
:103BF0001AFDEF215120FCF716FD00215220FCF7A1
:103C000012FD21465320FCF70EFD31466020FCF7E3
:103C10000AFD01216120FCF706FD00216A20FCF766
:103C200002FD00218020FCF7FEFC00218120FCF732
:103C3000FAFC00218220FCF7F6FC00218320FCF72F
:103C4000F2FC00218420FCF7EEFC00218520FCF72B
:103C5000EAFC10219020FCF7E6FC4FF4C0619220B2
:103C6000FCF7E1FC40F233110720FDE341F28F0144
:103C7000EC20FCF7D8FC41F23421EF20FCF7D3FC18
:103C800039460120FCF7CFFC49460220FCF7CBFC6B
:103C900041F230010320FCF7C6FC00210420FCF7B0
:103CA000C2FC51460820FCF7BEFC00210920FCF7AD
:103CB000BAFC00210A20FCF7B6FC01210C20FCF71D
:103CC000B2FC00210D20FCF7AEFC00210F20FCF718
:103CD000AAFC00211020FCF7A6FC07211120FCF70C
:103CE000A2FC00211220FCF79EFC00211320FCF70F
:103CF0009AFC01210720FCF796FC322002F068F8BC
:103D000041F290411020FCF78EFC40F22721112057
:103D1000FCF789FC322002F05BF88A211220FCF7C4
:103D200082FC322002F054F84FF4D0511320FCF7FB
:103D30007AFC06212920FCF776FC0D212B20FCF7CC
:103D400072FC322002F044F800212020FCF76BFCCA
:103D500000212120FCF767FC322002F039F8002115
:103D60003020FCF760FC40F204613120FCF75BFC82
:103D700040F205313220FCF756FC00213520FCF7DB
:103D800052FC40F609413620FCF74DFC4FF401711E
:103D90003720FCF748FC40F201313820FCF743FCA7
:103DA00029463920FCF73FFC00213C20FCF73BFC76
:103DB00040F60A213D20FCF736FC322002F008F8DC
:103DC00000215020FCF72FFCEF215120FCF72BFCA9
:103DD00000215220FCF727FC21465320FCF723FC4E
:103DE00031464DE100210846FCF71DFC3946012013
:103DF000FCF719FC49460220FCF715FC41F23001A2
:103E00000320FCF710FC00210420FCF70CFC5146B9
:103E10000820FCF708FC00210920FCF704FC002125
:103E20000A20FCF700FC01210C20FCF7FCFB002120
:103E30000D20FCF7F8FB00210F20FCF7F4FB3220EB
:103E400001F0C6FF40F201110720FCF7ECFB322025
:103E500001F0BEFF4FF486511020FCF7E4FB072170
:103E60001120FCF7E0FB31461220FCF7DCFB4FF49D
:103E700030611320FCF7D7FB00212920FCF7D3FB8E
:103E800044F210012B20FCF7CEFB00215020FCF760
:103E9000CAFBEF215120FCF7C6FB00215220FCF7A2
:103EA000C2FB21465320FCF7BEFB4FF41C5160209F
:103EB000FCF7B9FB01216120FCF7B5FB00216A206A
:103EC000FCF7B1FB00218020FCF7ADFB0021812035
:103ED000FCF7A9FB00218220FCF7A5FB0021832031
:103EE000FCF7A1FB00218420FCF79DFB002185202D
:103EF000FCF799FB10219020FCF795FB0021922004
:103F0000FCF791FB01219320FCF78DFB31469520B6
:103F1000FCF789FB00219720FCF785FB0021982006
:103F2000FCF781FB40F2731107207EE341F214019C
:103F3000E720FCF778FB39460120FCF774FB4FF4CF
:103F400000710220FCF76FFB41F238010320FCF7FF
:103F50006AFB51460820FCF766FB00210920FCF7AC
:103F600062FB00210A20FCF75EFB00210C20FCF71D
:103F70005AFB00210D20FCF756FB00210F20FCF717
:103F800052FB00211020FCF74EFB07211120FCF70B
:103F90004AFB00211220FCF746FB00211320FCF70E
:103FA00042FBC82001F014FF41F290611020FCF7A1
:103FB0003AFB40F227211120FCF735FB322001F0BB
:103FC00007FF0C211220FCF72EFB322001F000FF2E
:103FD0004FF400611320FCF726FB11212920FCF788
:103FE00022FB0B212B20FCF71EFB322001F0F0FE00
:103FF00000212020FCF717FB21462120FCF713FBB2
:1040000000213020FCF70FFB4FF48376314631203E
:10401000FCF709FB00213220FCF705FB4FF401718E
:104020003520FCF700FB41F20A613620FCF7FBFA71
:1040300029463720FCF7F7FA31463820FCF7F3FA27
:1040400029463920FCF7EFFA40F202413C20FCF708
:10405000EAFA40F60F413D20FCF7E5FA0021502036
:10406000FCF7E1FAEF215120FCF7DDFA00215220A4
:10407000FCF7D9FA21465320FCF7D5FA4FF41C512E
:104080006020FCF7D0FA01216120FCF7CCFA002176
:104090006A20FCF7C8FA00218020FCF7C4FA00214E
:1040A0008120FCF7C0FA00218220FCF7BCFA002135
:1040B0008320FCF7B8FA00218420FCF7B4FA002131
:1040C0008520FCF7B0FA10219020FCF7ACFA4FF4F1
:1040D000C0619220FEE339460120FCF7A4FA49466C
:1040E0000220FCF7A0FA41F230010320FCF79BFA12
:1040F00000210420FCF797FA40F207210820FCF782
:1041000092FA00210920FCF78EFA00210A20FCF720
:104110008AFA00210C20FCF786FA00210D20FCF71A
:1041200082FA00210F20FCF77EFA142001F050FEE5
:1041300041F2B0611020FCF776FA01211120FCF762
:1041400072FA01211720FCF76EFA4FF49C711220CD
:10415000FCF769FA4FF400611320FCF764FA0921B7
:104160002920FCF760FA09212A20FCF75CFA0021DB
:10417000A420FCF758FA00215020FCF754FAEF2154
:104180005120FCF750FA00215220FCF74CFA21464E
:104190005320FCF748FA4FF41C516020FCF743FA17
:1041A00001216120FCF73FFA00216A20FCF73BFA6D
:1041B00000218020FCF737FA00218120FCF733FA38
:1041C00000218220FCF72FFA00218320FCF72BFA34
:1041D00000218420FCF727FA00218520FCF723FA30
:1041E00013219020FCF71FFA00219220FCF71BFA04
:1041F00003219320FCF717FA31469520FCF713FAB8
:1042000040F273110720FCF70EFA32200DE1002175
:104210000720FCF708FA322001F0DAFD4FF48E7126
:104220001220FCF700FA0121A420FCF7FCF90F2171
:104230000820FCF7F8F908210A20FCF7F4F9082116
:104240000D20FCF7F0F929463020FCF7ECF90721A6
:104250003120FCF7E8F940F203613220FCF7E3F982
:1042600049463320FCF7DFF951463420FCF7DBF9EF
:1042700002213520FCF7D7F941F60F713620FCF703
:10428000D2F929463720FCF7CEF900213820FCF777
:10429000CAF900213920FCF7C6F929463A20FCF773
:1042A000C2F900213B20FCF7BEF907213C20FCF7B6
:1042B000BAF900213D20FCF7B6F9322001F088FD63
:1042C00001210720FCF7AFF901211720FCF7ABF91A
:1042D000322001F07DFD4FF4BD511020FCF7A3F911
:1042E00040F217211120FCF79EF94FF48F71122034
:1042F000FCF799F94FF470611320FCF794F9002151
:104300002A20FCF790F90A212920FCF78CF94FF4B8
:104310009F711220FCF787F900215020FCF783F9E8
:10432000EF215120FCF77FF900215220FCF77BF9A7
:1043300021465320FCF777F94FF41C516020FCF71D
:1043400072F901216120FCF76EF900216A20FCF767
:104350006AF900218020FCF766F900218120FCF732
:1043600062F90021822005E062E05FE126E2DAE204
:104370008EE3FDE3FCF757F900218320FCF753F9A6
:1043800000218420FCF74FF900218520FCF74BF930
:1043900013219020FCF747F931469220FCF743F9AE
:1043A00005219320FCF73FF900219520FCF73BF90C
:1043B00000219720FCF737F900219820FCF733F90A
:1043C00039460120FCF72FF949460220FCF72BF96A
:1043D00041F238010320FCF726F900210420FCF704
:1043E00022F900210C20FCF71EF900210F20FCF718
:1043F0001AF900212020FCF716F900212120FCF7F2
:1044000012F921210720FCF70EF9142001F0E0FC3D
:1044100061210720FCF707F9142001F0D9FC40F2D4
:1044200073110720FCF7FFF8142001F0D1FC2EE3F4
:1044300000210846FCF7F7F800210846FCF7F3F8DE
:1044400000210846FCF7EFF800210846FCF7EBF8DE
:104450000121A420FCF7E7F8142001F0B9FC4FF487
:104460001C552946602000E0DBE0FCF7DCF85646EE
:1044700051460820FCF7D7F84FF405713020FCF7BF
:10448000D2F843F215713120FCF7CDF840F2046107
:104490003220FCF7C8F840F616613320FCF7C3F869
:1044A00042F211213420FCF7BEF84FF4A851352018
:1044B000FCF7B9F848F207513620FCF7B4F841F29E
:1044C00007413720FCF7AFF841F203413820FCF7F1
:1044D000AAF820213920FCF7A6F81A219020FCF731
:1044E000A2F800211020FCF79EF807211120FCF70C
:1044F0009AF800211220FCF796F800211320FCF70F
:1045000092F8142001F064FC4FF4E6611020FCF7EF
:104510008AF840F237111120FCF785F8142001F0D9
:1045200057FC4FF4DC711220FCF77DF8142001F0E9
:104530004FFC4FF470611320FCF775F880212A209E
:10454000FCF771F848212920FCF76DF8142001F0E0
:104550003FFC39460120FCF766F849460220FCF78B
:1045600062F841F238010320FCF75DF8314608207B
:10457000FCF759F800210A20FCF755F800210C201F
:10458000FCF751F800210D20FCF74DF830210E20EA
:10459000FCF749F800215020FCF745F8EF215120A5
:1045A000FCF741F800215220FCF73DF8214653204A
:1045B000FCF739F829466020FCF735F80121612025
:1045C000FCF731F800216A20FCF72DF8112190202A
:1045D000FCF729F84FF4C0619220FCF724F840F270
:1045E00002419320FCF71FF802219420FCF71BF8EE
:1045F000142001F0EDFB01210720FCF714F8142032
:1046000001F0E6FB61210720FCF70DF840F2731181
:104610000720FCF708F800212020FCF704F800210F
:104620002120FCF700F8222100202EE2002108467C
:10463000FBF7F9FF00210846FBF7F5FF142001F016
:10464000C7FB00210846FBF7EEFF00210846FBF7F9
:10465000EAFF00210846FBF7E6FF00210846FBF7CA
:10466000E2FF0121A420FBF7DEFF142001F0B0FBE4
:104670004FF41C516020FBF7D6FF40F606010820DE
:10468000FBF7D1FF40F2037529463020FBF7CBFF43
:1046900001213120FBF7C7FF04213220FBF7C3FFC4
:1046A0004FF481713320FBF7BEFF31463420FBF716
:1046B000BAFF40F203113520FBF7B5FF1F2136206A
:1046C000FBF7B1FF29463720FBF7ADFF012138206A
:1046D000FBF7A9FF04213920FBF7A5FF1521902046
:1046E000FBF7A1FF4FF482611020FBF79CFF40F223
:1046F00047211120FBF797FF4FF4DE711220FBF7E3
:1047000092FF4FF460611320FBF78DFF782001F0DA
:104710005FFB39460120FBF786FF4FF40071022052
:10472000FBF781FF41F230010320FBF77CFF0821FA
:104730000A20FBF778FF00210C20FBF774FF2021F3
:104740000E20FBF770FF00210F20FBF76CFF00210C
:104750002020FBF768FF00212120FBF764FF3D21AB
:104760002A20FBF760FF142001F032FB2D212920C5
:10477000FBF759FF00215020FBF755FF4DF2EF01E9
:104780005120FBF750FF00215220FBF74CFF214640
:104790005320FBF748FF00216120FBF744FF002175
:1047A0006A20FBF740FF31469220FBF73CFF0521D2
:1047B0009320FBF738FF3946FFF7B6BB01210020F5
:1047C000FBF731FF4AF6A4010320FBF72CFF002181
:1047D0000C20FBF728FF40F60C010D20FBF723FF10
:1047E0004FF42C510E20FBF71EFFB0211E20FBF7CB
:1047F0001AFF42F63F310120FBF715FF4FF4C0616D
:104800000220FBF710FF00211020FBF70CFF46F2FF
:1048100078011120FBF707FF00210520FBF703FFBC
:1048200000210620FBF7FFFE4EF61C711620FBF759
:10483000FAFE03211720FBF7F6FE40F23321072092
:10484000FBF7F1FE00210B20FBF7EDFE00210F200E
:10485000FBF7E9FE00214120FBF7E5FE00214220A5
:10486000FBF7E1FE00214820FBF7DDFE2146492051
:10487000FBF7D9FE00214A20FBF7D5FE00214B2093
:10488000FBF7D1FE4FF46F414420FBF7CCFE002133
:104890004520FBF7C8FE21464620FBF7C4FE29460B
:1048A0003020FBF7C0FE4FF4017421463120FBF7A6
:1048B000BAFE21463220FBF7B6FE40F202552946E9
:1048C0003320FBF7B0FE691D3420FBF7ACFE214618
:1048D000352000E081E1FBF7A6FE21463620FBF7FC
:1048E000A2FE29463720FBF79EFE40F20234214605
:1048F0003A20FBF798FE21463B20FBF794FE00216F
:104900002320FBF790FE00212420FBF78CFE4FF4C0
:1049100000412520FBF787FE00214F20FBF783FE97
:1049200000214E20B1E001210020FBF77CFE0A208F
:1049300001F04EFA41F228611020FBF774FE0E21BF
:104940001220FBF770FE40F639211320FBF76BFEB7
:104950000A2001F03DFA40211120FBF764FE5021AE
:104960001520FBF760FE0A2001F032FA1E2112200A
:10497000FBF759FE0A2001F02BFA4FF4B151102039
:10498000FBF751FE42F639211320FBF74CFE0A20BB
:1049900001F01EFA39460120FBF745FE31460220A0
:1049A000FBF741FE41F238010320FBF73CFE514684
:1049B0000820FBF738FE08210A20FBF734FE00210F
:1049C0003020FBF730FE40F202413120FBF72BFE96
:1049D0004FF483713220FBF726FE40F2035133205F
:1049E000FBF721FE4FF482713420FBF71CFE40F2EE
:1049F00001313520FBF717FE29463620FBF713FE61
:104A000040F205313720FBF70EFE4FF402713820DB
:104A1000FBF709FE40F60B713920FBF704FE02217B
:104A20004120FBF700FE4FF41C516020FBF7FBFD1B
:104A300001216120FBF7F7FD4FF404719020FBF793
:104A4000F2FD4FF485719220FBF7EDFD04219320D8
:104A5000FBF7E9FD3946A020FBF7E5FD0121072022
:104A6000FBF7E1FD21210720FBF7DDFD23210720D6
:104A7000FBF7D9FD33210720FBF7D5FD40F23311B9
:104A80000720FBF7D0FD0021A020FBF7CCFD24E29E
:104A900030211520FBF7C7FD10219A20FBF7C3FD3D
:104AA00020211120FBF7BFFD43F228411020FBF726
:104AB000BAFD02211220FBF7B6FD41F238011320A6
:104AC000FBF7B1FD282001F083F912210846FBF71E
:104AD000AAFD282001F07CF943F220411020FBF7C9
:104AE000A2FD43F238011320FBF79DFD462001F0A3
:104AF0006FF900213020FBF796FD40F20241312092
:104B0000FBF791FD40F207313220FBF78CFD4FF4AB
:104B100041713320FBF787FD04213420FBF783FD2F
:104B200040F201413520FBF77EFD29463620FBF798
:104B30007AFD40F205313720FBF775FD4FF4C26472
:104B400021463820FBF76FFD21463920FBF76BFD2E
:104B500039460120FBF767FD31460220FBF763FD74
:104B600041F230010320FBF75EFD40F6080100E052
:104B700038E00820FBF757FD08210A20FBF753FD1A
:104B80004FF41C516020FBF74EFD01216120FBF723
:104B90004AFD4FF49F719020FBF745FD3946922066
:104BA000FBF741FD39469320FBF73DFD4FF44051A3
:104BB000A020FBF738FD1021A320FBF734FD0121D5
:104BC0000720FBF730FD21210720FBF72CFD2321D7
:104BD0000720FBF728FD33210720FBF724FD40F2D7
:104BE0003311E9E5E220FBF7D1FC4446C8F8107028
:104BF0004FF40075C8F81450DFF8D4861D21C8F8AA
:104C000000108026666126612561276165610220AA
:104C1000C8F800006661266125612761656104208E
:104C2000C8F80000666126612561642001F0B9F8CA
:104C3000E020FBF7ABFC276165614FF00109C8F884
:104C400000906661266125610A2001F0C1F8E0202C
:104C5000FBF79CFC276165614FF0030AC8F800A0D0
:104C60006661266125610C2001F0B2F80120FBF796
:104C70008DFC0A2001F0ACF8E620FBF787FC2761E9
:104C800065612F21C8F800106661266125612761E2
:104C90006561FF21C8F80010666126612561276102
:104CA0006561C8F80010666126612561B020FBF7D8
:104CB0006DFC2761656120214046C8F800106661DF
:104CC00026612561276165614FF0000CC8F800C0BE
:104CD00066612661256127616561C8F800A066618B
:104CE000266125612761656140F21F3101606661BF
:104CF0002661256127616561C8F8009066612661BB
:104D000025612761656140F2DF11C8F80010666116
:104D10002661256127616561C8F800C0666126616A
:104D20002561B420FBF732FC276165610420C8F8D7
:104D300000006661266125612761656140F21F41BF
:104D40004046C8F8001066612661256127616561EB
:104D5000C8F800C0666126612561276165612E2162
:104D6000C8F8001066612661256127616561C0F899
:104D700000C066612661256127616561C0F800C0D9
:104D800066612661256127616561C0F800C06661C2
:104D90002661256127616561C0F800C066612661F2
:104DA0002561B620FBF7F2FB2761656102214046D1
:104DB000C8F80010666126612561276165614FF4BE
:104DC0000371C8F80010666126612561276165617D
:104DD000C8F800C0666126612561276165611721F9
:104DE00001606661266125612761656115210160A9
:104DF00066612661256127616561C0F800C0666152
:104E00002661256127616561C0F800C06661266181
:104E10002561F020FBF7BAFB27616561C8F800A0A7
:104E20006661266125612920FBF7B0FBD020FBF7E6
:104E3000ADFB27616561C8F800C066612661256128
:104E4000BE20FBF7A3FB276165610521C8F80010B0
:104E500066612661256127616561FE21C8F8001041
:104E600066612661256127616561C8F80090666109
:104E70002661256127616561C8F800C06661266109
:104E8000256127616561C8F800C0666126612561FA
:104E900027616561C8F800C0666126612561B82098
:104EA000FBF774FB27616561C8F800A066612661A5
:104EB000256127616561C8F80090666126612561FA
:104EC000BA20FBF763FB27616561C8F80090666153
:104ED000266125616420FCF753F90020FCF797F95F
:104EE000FC490120C1F8A8015846FCF7D4FBBDE8F5
:104EF000F88F2DE9F84FF84D81469846A8880A9E0C
:104F0000A0F5D043043B02D1A87901280AD0A2EB36
:104F10000900401C85B20C46F04F4FF4007A4FF068
:104F2000800B31E02B880846991A0024AC712A24A2
:104F3000A3EB09036C812B27491E5B1EAF8189B24D
:104F400042469BB20096FFF7D4FF0120A8716F8103
:104F5000AC81CCE721464846FBF799FBFBF77AFB8F
:104F600000204FF4807C5346D94A594608E0C7F8E0
:104F700010C07B611660796139613B61401C80B271
:104F8000A842F4D3641CA4B24445E3D9AFE72DE9A9
:104F9000F04F8346A2EB0B00401C894685B2A3EB81
:104FA0000900401C1FFA80FA0024099E21E009EB49
:104FB000040081B25846FBF76AFBFBF74BFBC7497D
:104FC00000204B154FF48078C14A80270DE0C1F8CE
:104FD00010804B6104FB050C36F81CC0C2F800C001
:104FE0004F610F610B61401C80B2A842EFD3641C7B
:104FF000A4B25445DBD3BDE8F08F2DE9FE4F002667
:10500000A2EB000882465F1A701E35468946B8F149
:10501000000F02DD4FF0010102E003D14FF000016B
:10502000019102E0C8F100080190002F02DD4FF06D
:10503000010002E003D14FF00000009002E0C7F150
:10504000000700904046B84501DD044600E03C46BC
:10505000601C4FF0000B029015E01FFA89F11FFA57
:105060008AF0FBF727FF46443D44A64202DD019942
:10507000361B8A44A54202DD00992D1B89440BF1A1
:1050800001001FFA80FB02998B45E6DDBDE8FE8F2B
:10509000F0B51C4615460E4607460B46FFF7ADFF1A
:1050A0003A46234631461046FFF7A7FF23462A46D5
:1050B00019463846FFF7A1FF2A4623463146BDE888
:1050C000F040104699E72DE9FC4F80460024154634
:1050D00003200F46A0EB450649E0781B81B208EBA0
:1050E000040A01901FFA8AF0FBF7E4FE381B81B234
:1050F00008EB050900901FFA89F0FBF7DBFE07EBD0
:10510000040B1FFA8BF11FFA89F0FBF7D3FE07EBB4
:1051100005091FFA89F11FFA8AF0FBF7CBFEA8EB0D
:10512000040A1FFA89F11FFA8AF0FBF7C3FEA8EB05
:1051300005091FFA8BF11FFA89F0FBF7BBFE0198F6
:1051400081B21FFA8AF0FBF7B5FE009881B21FFA10
:1051500089F0FBF7AFFE641C002E03DA06EB840631
:10516000B61D04E0601B06EB80066D1E0A36AC42DD
:10517000B3DDBDE8FC8F2DE9F84F82461F460C4693
:105180008B46580700D0012000EBD7007908484330
:10519000203AC0B202F0FF090026009041E00C2F37
:1051A00010D0102F12D0182F3ED14D4909EBC90055
:1051B00001EB80004FF00008855D28060AD54948BC
:1051C00002880BE009EB49004749F1E7474901EB49
:1051D0000910EFE70A9828B942484288214650460C
:1051E000FBF77CFE6806050E3B48641CA4B24088B1
:1051F000A04219D9A4EB0B00B84209D10AF1010071
:105200001FFA80FA34485C46018851450CD906E003
:1052100008F1010000F0FF08B8F1080FCDD3761CAB
:10522000F6B200988642BAD361E60346012000E058
:105230005843491EC9B2FBD270472DE9FF4F81B0D8
:105240000027DDF838B01D46924680463C46B946F8
:105250004FEA5B0627E0281B401EC1B20A20FFF779
:10526000E4FFBAFBF0F00A21B0FBF1F201FB1200FF
:1052700027B9691E8C4201DA48B101273030C2B229
:1052800006FB048080B25B46CDF8009006E006FB8A
:10529000048080B25B462022CDF800900299FFF78F
:1052A0006AFF641CE4B2AC42D5D305B0A3E62DE995
:1052B000FF4F81B08046DDF83CA00E984FF000090A
:1052C0001F4693464C460AF0010546083CE00000A4
:1052D0000C0C014000002242780100200010014027
:1052E0001C94000814000020B88900082C8E0008C7
:1052F000381B401EC1B20A20FFF797FFBBFBF0F03E
:105300000A21B0FBF1F201FB1200B9F1000F05D147
:10531000791E8C4202DA48B14FF001093030C2B236
:1053200006FB048080B200950E9B08E05FEA0A60ED
:1053300006FB04800E9B80B2009508D530220299AE
:10534000FFF719FF641CE4B2BC42D1D3ADE72022C1
:10535000F5E72DE9F84F044600F0FF0810190D4657
:10536000DDE90A761FFA80FA58191FFA80F94FF022
:10537000000B11E0544502D3E819444685B24D456F
:105380000FD23B4629462046CDF800B0FFF7F3FE8A
:1053900004EB570084B2761C3278A2F120005E281C
:1053A000E8D9A4E538B50121142001F018F801214D
:1053B000384800F0B7FE4FF40040ADF80000364D1D
:1053C00048248DF803406946284600F020FE20213D
:1053D000ADF800108DF803406946304800F017FE24
:1053E0000120ADF8000028208DF80300694628460A
:1053F00000F00DFE38BD2DE9F041294C274F264D18
:1054000001264FF4004808B1267001E0207878B1F9
:105410002021384600F051FE88B14146284600F070
:105420004CFE60B10121284600F047FE012806D05D
:105430002021384600F041FE01281DD028E00A2036
:1054400000F0C6FC002020702021384600F035FE18
:1054500058B14146284600F030FE48B101212846A7
:1054600000F02BFE012805D012E00120BDE8F081FC
:105470000220FBE70320F9E74146284600F01DFE25
:10548000012805D10121284600F017FE00B9267039
:105490000020EBE70002300000080140001001404E
:1054A0001800002028B1012805D10121EF2000F0CB
:1054B000E6BB0021FAE7704710B500F04DFC05206F
:1054C00000F086FC00F048FC052000F081FC002084
:1054D000FFF7E8FF002000F0EFFB202801D00020BC
:1054E00010BD012010BD70B500F0C8FAFFF7E4FF51
:1054F000002813D00020FFF7D5FFF74D002405EB5F
:105500004400417815F8140000F0B9FB641CE4B2C3
:10551000332CF4D30020FFF7C5FF012070BD1CB56C
:10552000EE491F204FF4967208804FF6FF700090EE
:105530001346AA211E20FFF7DCFC1024E8A0CDE9C9
:1055400000402346C822AA211E20FFF702FFEAA03E
:10555000CDE900401023C822BE211E20FFF7F9FE2E
:105560001CBD2DE9FE430025DB4E2C46AC360295D2
:1055700006EB4400417816F8140000F080FB641C30
:10558000E4B21E2CF4D3D54F1F204FF4967238800E
:105590004FF6FF70009000261346AA211E20FFF749
:1055A000A8FC1024DAA0CDE900402346C822B4218B
:1055B0001E20FFF7CEFECCA0CDE900401023C8226C
:1055C000D2211E20FFF7C5FE4FF47840DFF8589334
:1055D000388018240020FFF70EFF032806D002AA07
:1055E0000221432000F08AFB68B15EE00020FFF753
:1055F00059FF0021412000F042FB0021422000F031
:105600003EFBBDE8FE83BDF8080000284DD0102801
:1056100074D008DC012810D0022819D0042855D0F5
:10562000082842D15DE0202875D040287ED080280F
:1056300070D0B0F5807F38D18EE0BCA0CDE90040BD
:105640001023C822FA216E20FFF783FEBBA009E0D9
:10565000BCA0CDE900401023C822FA216420FFF746
:1056600078FEBCA002F006FEBC4FC7F8885150205F
:1056700007F5C47700F0ACFB4FF00108C7F80080D5
:10568000502000F0A5FB3D60502000F0A1FBC7F8C2
:105690000080502000F09CFBB1A0CDE90040102319
:1056A000C822FA212820FFF754FE322000F090FB98
:1056B000761CF6B2052E8DD1D9F8A00149460028F6
:1056C00055D00020C1F8A001002683E7ABA0CDE9AA
:1056D00000401023C822FA216420FFF73AFEABA055
:1056E000C0E7ACA0CDE900401023C822FA21642015
:1056F000FFF72FFEABA0B5E700E00CE0ABA0CDE9D3
:1057000000401023C822FA215020FFF722FEABA050
:10571000A8E70BE015E0ACA0CDE900401023C822BB
:10572000FA215020FFF715FEABA09BE7ADA0CDE915
:1057300000401023C822FA214620FFF70AFEADA040
:1057400090E7AFA0CDE900401023C822FA21322013
:10575000FFF7FFFDAEA085E7B1A0CDE90040102323
:10576000C822FA216420FFF7F4FDB1A07AE70120F6
:10577000A8E72DE9FC470025574E2C46663606EB78
:105780004400417816F8140000F079FA641CE4B281
:10579000232CF4D30020FFF785FE504F1F204FF439
:1057A000967238804FF6FF70009000241346AA21AD
:1057B0001E20FFF79EFB102655A0CDE90060334662
:1057C000C822B4211E20FFF7C4FD9BA0CDE90060D4
:1057D0001023C822D2211E20FFF7BBFD98A0CDE9DF
:1057E00000601023C822F0211E20FFF7B2FD97A011
:1057F000CDE900601023C822F021A020FFF7A9FD09
:105800004FF47840DFF820A138800020FFF7F3FD47
:1058100003283BD0B02000F04FFA8146B12000F0C1
:105820004BFA0646B22000F047FA182700F00F00A6
:10583000CDE9007546EA00264FF4877803234A46EF
:1058400041463220FFF733FDCDE900750323324690
:1058500041469820FFF72BFD49467EA002F00AFD45
:10586000314682A002F006FD642000F0B1FA641C0B
:10587000E4B2052CC9D1DAF8A001514620B10020CC
:10588000C1F8A0010024C0E70120F9E7BDE8FC87CA
:105890000024FFF744FE244D0020FFF7ACFD50B17B
:1058A000012804D0022804D1FFF75BFE01E0FFF7D6
:1058B00060FFFFF734FE322000F08AFA641CE4B285
:1058C000052CE9D1D5F8A00120B10020C5F8A00130
:1058D0000024E1E70120F9E778A100081400002086
:1058E0004B4559313A202020476573747572652005
:1058F00074657374000000004B4559303A20202035
:105900005073207465737420202020200000000054
:105910004B45595F55503A20457869742074686545
:10592000207465737400000000002142555020204F
:1059300020202020202020200000000055700D0A8B
:1059400000000000446F776D2020202020202020C0
:1059500000000000446F776D0D0A000000802242B5
:105960002020202020202020202020202020202037
:105970002020202020202020000000004C6566749C
:105980002020202020202020000000004C6566748C
:105990000D0A000052696768742020202020202012
:1059A0000000000052696768740D0A00466F727744
:1059B000617264202020202000000000466F727772
:1059C0006172640D0A0000004261636B776172646A
:1059D00020202020000000004261636B7761726428
:1059E0000D0A0000436C6F636B776973652020209C
:1059F00000000000436C6F636B776973650D0A00EC
:105A0000416E7469436C6F636B7769736500000066
:105A1000416E7469436C6F636B776973650D0A003F
:105A200057617665202020202020202020000000C3
:105A3000576176650D0A0000507320746573740019
:105A40004272696768746E657373000053697A65A2
:105A5000000000006F626A5F6272696768746E6559
:105A60007373203D2025640D0A0000006F626A5F99
:105A700073697A653A25640D0A00000038B5012182
:105A8000102000F0ACFC4FF4C054ADF800401020E2
:105A90008DF803000320B54D8DF8020069462846B5
:105AA00000F0B5FA2146284600F01BFB38BD70B562
:105AB000AE48416821F470414160416841F4405171
:105AC0004160AB4C0120C4F8AC01C4F8B001042023
:105AD00004F5D67400F065F900252560042000F077
