:020000040800F2
:10000000F0080020E90100084D1E0008771C0008D8
:10001000491E0008E5060008D5240008000000007D
:10002000000000000000000000000000991F000810
:10003000E906000800000000891E0008F11F000802
:10004000030200080302000803020008030200087C
:10005000030200080302000803020008030200086C
:10006000030200080302000803020008030200085C
:10007000030200080302000803020008030200084C
:10008000030200080302000803020008030200083C
:10009000030200080302000803020008030200082C
:1000A000030200080302000803020008030200081C
:1000B00003020008030200085120000803020008A0
:1000C00003020008030200080302000803020008FC
:1000D0000302000895240008030200080302000838
:1000E00003020008030200080302000800F002F8FF
:1000F00000F06BF80AA090E8000C82448344AAF157
:100100000107DA4501D100F060F8AFF2090EBAE854
:100110000F0013F0010F18BFFB1A43F0010318473B
:10012000D8390000F83900000A444FF0000C10F8EC
:10013000013B13F0070408BF10F8014B1D1108BF65
:1001400010F8015B641E05D010F8016B641E01F805
:10015000016BF9D113F0080F1EBF10F8014BAD1C55
:100160000C1B09D16D1E58BF01F801CBFAD505E073
:1001700014F8016B01F8016B6D1EF9D59142D6D3CD
:10018000704700000023002400250026103A28BFF5
:1001900078C1FBD8520728BF30C148BF0B607047F9
:1001A000642900F09F80752900F09C80782900F078
:1001B000D580632900F02982732900F02E82002067
:1001C00070471FB51FBD10B510BD00F059FA11469C
:1001D000FFF7F7FF02F0D2F900F077FA03B4FFF768
:1001E000F2FF03BC02F07FF9094880470948004745
:1001F000FEE7FEE7FEE7FEE7FEE7FEE7FEE7FEE7D7
:10020000FEE7FEE704480549054A064B7047000033
:10021000F91F0008ED000008F0020020F00800209F
:10022000F0040020F0040020704700000FB40449DF
:1002300010B503AA029800F0F5F910BC5DF814FBA4
:100240000800002070B5044685690068C10601D524
:10025000302600E02026C00707D070BDD4E9012178
:1002600030469047206A401C20626D1EF6D570BD56
:1002700070B5044685690078C00707D170BDD4E920
:10028000012120209047206A401C20626D1EF6D577
:1002900070BD70B50C460546012A05D02878800649
:1002A00000D5EA69002302E0012305E05B1C9342CC
:1002B00002D2E05C0028F9D1A869E618C01AA8614A
:1002C000286A184428622846FFF7BCFF04E0D5E9F5
:1002D000012114F8010B9047B442F8D32846FFF7E8
:1002E000C7FF70BD2DE9F04106460024106875294E
:1002F000314616A510D0AFF30080002802DA404244
:1003000013A507E031688A0701D512A502E0490765
:1003100004D511A5012401E0AFF3008000210A22D9
:1003200006F1240709E0B0FBF2FCB0FBF2F302FB9C
:100330001C00303078541846491C0028F3D123465D
:100340002A463046BDE8F04100F0FCB8000000004D
:100350002D0000002B0000002000000070B50446B6
:100360000D4621461068AFF300802188090502D5AB
:100370000F4A7A4402E00E4A7A440E32002104F118
:10038000240305E000F00F060009965D5E54491C49
:100390000028F7D120780023000704D5702D02D063
:1003A00009B1022311322046BDE8704000F0CAB8FE
:1003B000923600002DE9F05F894604464FF0000AAE
:1003C000DFF874B1FB44C0F820A02046E1688847FC
:1003D000002874D0252806D0D4E901219047206A4E
:1003E000401C2062F1E700265F462046E16888470E
:1003F0002028054607DB312D05D2781910F8200C8E
:1004000008B10643F1E7B00701D526F00406C4F8A9
:100410001CA00027C4F818A02A2D09D0284602F0F5
:100420005BF838B304EB8708303DC8F8185019E082
:1004300059F8041B204604EB87029161E168884764
:10044000012F054618D1E069002820DA26F02006A1
:100450001DE0D8F8180000EB800005EB40003038B4
:10046000C8F818002046E1688847054602F034F8CD
:100470000028EED1012F0AD02E2D08D12046E168A8
:1004800088477F1C0546022F46F02006C4DBA06982
:10049000002803DA404246F00106A061F00701D0CF
:1004A00026F010066C2D0BD0682D09D04C2D39D0BC
:1004B0006A2D35D0742D35D07A2D33D016E038E042
:1004C000E1682F4620468847B842054609D16C2F7F
:1004D00026D04FF48060E1680643204688470546F1
:1004E00004E06C2F1AD04FF4807006430DB3A5F1D1
:1004F0004100192802D8203546F400664A462946AC
:10050000204626604E46FFF74BFE80B101280BD0F7
:10051000F61D26F0070000F1080956E74020E4E741
:100520008020D8E70020D6E706F104094DE72846E9
:1005300052E7206ABDE8F09F6836000070477047B8
:10054000704770472DE9F0470D469946924604469C
:1005500000F124080168880604D5E06921F0100143
:10056000216000E00120A84201DD471B00E00027D8
:10057000A1697A1902EB0900081AA0612078C00667
:1005800002D42046FFF75EFE002608E0D4E90121F0
:100590001AF806009047206A401C761C20624E45DF
:1005A000F4DB2078C0060AD52046FFF74BFE06E0B4
:1005B000D4E9012130209047206A401C2062381E77
:1005C000A7F10107F4DC07E0D4E9012118F80500E0
:1005D0009047206A401C2062281EA5F10105F3DC2B
:1005E0002046FFF745FE2078000602D50220BDE830
:1005F000F0870120FBE710B5436913B1AFF300802A
:1006000001E0FFF746FE012010BD127800F1240141
:100610000A7000224A700122EDE711684FF0FF32A4
:10062000E9E70000074B70B50D467B4400F011F878
:100630000446284600F020F810B14FF0FF3070BD9E
:10064000204670BD331F000001694A1C0261087812
:10065000704700B58FB0CDE9013100210591054902
:100660007944CDE9031011466846FFF7A3FE0FB0A9
:1006700000BD0000E5FFFFFF007B00F08000704739
:10068000754600F02BF8AE4605006946534620F04B
:100690000700854618B020B5FFF7B4FDBDE820403F
:1006A0004FF000064FF000074FF000084FF0000B2E
:1006B00021F00701AC46ACE8C009ACE8C009ACE8E1
:1006C000C009ACE8C0098D46704710B50446AFF3C9
:1006D00000802046BDE81040FFF780BD004870470D
:1006E0009002002000BFFEE77047000010B5002018
:1006F0000F4908600F48006820F470400D490860F9
:100700000846006840F44050086000200A49C1F8DB
:100710008C01032001F000FF01200549086003203F
:1007200001F0FAFE00200449C1F8880110BD000064
:1007300088012142000801400000214210B500203C
:100740000F4908600F48006820F470400D490860A8
:100750000846006840F44050086001200A49C1F88A
:100760008C01022001F0D8FE01200549086002201A
:1007700001F0D2FE00200449C1F8880110BD00003C
:1007800088012142000801400000214270B5054661
:1007900000241748006820F4704015490860084696
:1007A000006840F400400860002616E0002011496F
:1007B0000860042001F0B0FE01200F49C1F8880153
:1007C0006006040E0B487C38006808B1601CC4B297
:1007D000042001F0A1FE701CC6B2082EE6DB15B99C
:1007E000FFF7ACFF01E0FFF781FF204670BD00007E
:1007F00000080140880121420000214270B50446F2
:100800001848006820F470401649086008460068DF
:1008100040F44050086000201349086000251EE0A5
:10082000E00920B101201049091D086003E0002003
:100830000D49091D08606006040E052001F06CFEDC
:10084000012009490860052001F066FE00200749E3
:10085000C1F88801052001F05FFE681CC5B2082DB3
:10086000DEDB70BD0008014088012142000021420A
:1008700010B50F48006820F470400D490860084624
:10088000006840F44050086001200A4908600A49A5
:10089000C1F88801042001F03FFE002005490860EE
:1008A000042001F039FE00200349C1F8880110BD81
:1008B000000801408C0121420000214210B50F4880
:1008C000006820F470400D4908600846006840F454
:1008D0004050086000200A4908600A49C1F88C01AC
:1008E000042001F019FE0120054908600549C1F8FE
:1008F0008C01042001F010FE10BD00000008014032
:10090000880121420000214210B5002415480068EA
:1009100020F47040134908600846006840F4004025
:100920000860012010490860032001F0F5FD012056
:100930000E49C1F88801032001F0EEFD07E0601CBC
:10094000C4B2FA2C03DDFFF7B9FF012010BD064841
:10095000803800680028F2D10349091F086000BFF1
:10096000F4E70000000801408C0121420000214210
:1009700070B50446FFF77CFFE620FFF73FFFFFF767
:10098000C3FF18B1FFF79AFF002070BD2046FFF7A4
:1009900035FFFFF7B9FFFFF76BFFE720FFF72EFFEB
:1009A000FFF7B2FF0020FFF7F1FE0546FFF786FFD5
:1009B0002846EAE770B506460C461546FFF758FF8D
:1009C000E620FFF71BFFFFF79FFF18B1FFF776FF49
:1009D000012070BD3046FFF711FFFFF795FFFFF7CD
:1009E00047FFE720FFF70AFFFFF78EFF0DE0012C1E
:1009F00004D10020FFF7CAFE287003E00120FFF7B2
:100A0000C5FE28706D1C601E84B2002CEFD1FFF76C
:100A100055FF0020DDE710B5FFF72AFFE620FFF7BE
:100A2000EDFEFFF74BFF10BD70B505460C46FFF716
:100A30001FFFE620FFF7E2FEFFF766FF18B1FFF7A2
:100A40003DFF012070BD2846FFF7D8FEFFF75CFF91
:100A50002046FFF7D3FEFFF757FFFFF72FFF0020D9
:100A6000F0E7000000B585B000BF0F48806940F096
:100A700004000D4988610846806900F00400009078
:100A800000BF00BF0C2001900120029003900320C2
:100A9000049001220C21054800F0D8FA01A903486E
:100AA00000F03EF905B000BD001002400008014012
:100AB00008B500200090002701F0E6FD00240AE0C0
:100AC0004C4A02EB440251784A4A12F81400FFF7EC
:100AD000ABFF601CC4B21E2CF2D3002001F0D4FD89
:100AE000002445A0FFF7A2FB83E06A4602214320D1
:100AF000FFF760FF0546002D69D19DF800009DF8C5
:100B0000011040EA0126002E61D0102E27D008DC0B
:100B1000012E10D0022E13D0042E16D0082E37D15D
:100B200018E0202E20D0402E23D0802E26D0B6F5DF
:100B3000807F2DD127E035A0FFF778FB012729E042
:100B400034A0FFF773FB012724E034A0FFF76EFB0E
:100B500001271FE033A0FFF769FB01271AE033A04C
:100B6000FFF764FB012715E033A0FFF75FFB0127C8
:100B700010E034A0FFF75AFB01270BE034A0FFF789
:100B800055FB012706E036A0FFF750FB012701E0E7
:100B9000002700BF00BFD7B10020334908605020B4
:100BA00001F0AEFC01203149C1F88401502001F070
:100BB000A7FC00202C490860502001F0A1FC012076
:100BC0002A49C1F88401502001F09AFC0027322004
:100BD00001F096FC601CC4B2052C0AD12248001F0B
:100BE000006808B9012000E000201F49091F0860C3
:100BF00000247AE7CC3900080D0ACAD6CAC6CAB69C
:100C0000B1F0B2E2CAD40D0A0000000055700D0A1E
:100C100000000000446F776D0D0A00004C6566749B
:100C20000D0A000052696768740D0A00466F7277FA
:100C30006172640D0A0000004261636B7761726447
:100C40000D0A0000436C6F636B776973650D0A00D2
:100C5000416E7469436C6F636B776973650D0A004D
:100C6000576176650D0A000084012242000022428D
:100C700070B50446002594F82100022803D0042012
:100C8000A063012548E02068006820F00E0021687C
:100C900008602068006820F00100216808601F4992
:100CA0002068884201D1012026E01C4914312068C7
:100CB000884201D110201FE018492831206888425D
:100CC00001D1801518E015493C312068884201D1D6
:100CD000801411E0114950312068884202D14FF44C
:100CE000803009E00D4964312068884202D14FF418
:100CF000801001E04FF080700849083948600120F9
:100D000084F8210000BF002084F8200000BF606B41
:100D100010B12046616B8847284670BD080002402C
:100D20002DE9F847034600240020002584460027CB
:100D300000226EE14FF0010808FA02F4D1F80080B9
:100D400008EA0400A0427DD1DFF8D0A2D1F80480E7
:100D5000A8EB0A09D0453AD014DCB8F1030F50D003
:100D600009DCB8F1000F31D0B8F1010F1CD0B8F197
:100D7000020F49D120E0B8F1110F18D0B8F1120FCD
:100D800042D11EE0B9F5881F25D006DCB9F5803FB9
:100D900020D0B9F5801F37D11AE0B9F5001F18D05F
:100DA000B9F5041F30D117E0D1F80CC02DE0D1F80F
:100DB0000C8008F1040C28E0D1F80C8008F1080C34
:100DC00023E0D1F80C8008F10C0C1EE000BF00BF3E
:100DD00000BF00BF00BF00BFD1F80880B8F1000F0E
:100DE00002D14FF0040C0BE0D1F80880B8F1010FEC
:100DF00003D14FF0080C1C6102E04FF0080C5C615D
:100E000003E04FF0000C00E000BF00BFFF2801D856
:100E1000984601E003F104084646FF2802D84FEA4D
:100E2000820803E0A2F108084FEA88084746D6F88E
:100E300000804FF00F0909FA07F928EA09080CFAAF
:100E400007F900E088E048EA0908C6F80080D1F810
:100E5000048008F08058B8F1805F7DD100BFDFF8D2
:100E6000C081D8F8188048F00108DFF8B491C9F8BB
:100E70001880C846D8F8188008F00108CDF800801E
:100E800000BF00BF4FEAB9384FEA920958F829501D
:100E90004FEA82784FEA18794FF00F0808FA09F8FC
:100EA00025EA0805DFF87C81434502D14FF00008B0
:100EB00016E0DFF87481434502D14FF001080FE0DE
:100EC000DFF86881434502D14FF0020808E0DFF8FF
:100ED0006081434502D14FF0030801E04FF0040860
:100EE0004FEA82794FEA197908FA09F848EA0505C4
:100EF000DFF840814FEA920948F82950D1F8048080
:100F000008F48038B8F5803F0AD1DFF82C81D8F892
:100F1000008048EA0008DFF82091C9F8008009E065
:100F2000DFF81481D8F8008028EA0008DFF808917B
:100F3000C9F80080D1F8048008F40038B8F5003F03
:100F400010D1DFF8F48008F10408D8F8008048EAEE
:100F50000008DFF8E49000E05AE009F10409C9F85C
:100F600000800DE0DFF8D08008F10408D8F8008098
:100F700028EA0008DFF8C09009F10409C9F80080E8
:100F8000D1F8048008F48018B8F5801F0ED1DFF87E
:100F9000A88008F10808D8F8008048EA0008DFF8BF
:100FA000989009F10809C9F800800DE0DFF8888001
:100FB00008F10808D8F8008028EA0008DFF87890DF
:100FC00009F10809C9F80080D1F8048008F4001874
:100FD000B8F5001F0ED1DFF8608008F10C08D8F8D2
:100FE000008048EA0008DFF8509009F10C09C9F8C0
:100FF00000800DE0DFF8408008F10C08D8F8008090
:1010000028EA0008DFF8309009F10C09C9F80080DF
:10101000521C102AFFF48EAEBDE8F88700001110B4
:101020000010024000080140000C01400010014087
:10103000001401400800014000040140024693688A
:101040000B400BB1012000E0002070470AB10161A4
:1010500001E00B040361704701480068704700001D
:101060001000002002480068401C014908607047D9
:101070001000002010B50848006840F01000064934
:101080000860052000F06AF80F2000F007F800F073
:1010900019F8002010BD00000020024070B5044681
:1010A000074800684FF47A71B0FBF1F5284600F06C
:1010B000E1FB00222146501E00F012F8002070BD16
:1010C00000000020704700BF00F01F020121914086
:1010D0004209920002F1E022C2F8001100BF7047FD
:1010E0002DE9F05F80460D461646002700F0B0FE61
:1010F000074639462A46334601F00700C0F1070A81
:10110000BAF1040F02D94FF0040A01E0C0F1070A56
:10111000D14600F1040ABAF1070F02D24FF0000ADB
:1011200001E0A0F1030AD4464FF0010A0AFA09FAD5
:10113000AAF1010A0AEA020A0AFA0CFA4FF0010BB4
:101140000BFA0CFBABF1010B0BEA030B4AEA0B04A5
:101150002146404600F084FEBDE8F09F00BF00F04D
:101160000702064B19684FF6FF031940044B0B4367
:1011700043EA0221014B196000BF70470CED00E00B
:101180000000FA0570B504460D4600266248006866
:1011900000F00700A8420ED25F48006820F0070068
:1011A00028435D4908600846006800F00700A8422F
:1011B00001D0012070BD207800F00200022807D184
:1011C0005648406820F0F000A16808435349486041
:1011D000207800F0010000285DD06068012806D169
:1011E0004E48006800F4003090B90120E2E76068E2
:1011F000022806D14948006800F0007040B901207B
:10120000D8E74648006800F0020008B90120D1E79D
:101210004248406820F00300616808433F49486045
:10122000FFF71AFF06466068012810D108E0FFF7B3
:1012300013FF801B41F28831884201D90320B9E7AE
:101240003648406800F00C000428F0D123E06068C4
:10125000022810D108E0FFF7FFFE801B41F2883121
:10126000884201D90320A5E72C48406800F00C0013
:101270000828F0D10FE008E0FFF7EEFE801B41F2F6
:101280008831884201D9032094E72448406800F05F
:101290000C000028F0D12048006800F00700A842A8
:1012A0000ED91D48006820F0070028431A4908603D
:1012B0000846006800F00700A84201D0012079E745
:1012C000207800F00400042807D11448406820F476
:1012D000E060E168084311494860207800F00800A8
:1012E000082808D10D48406820F46050216940EA80
:1012F000C1000A49486000F03DF808494968C1F357
:101300000311074A515CC840064908600F20FFF7E7
:10131000C5FE00204EE70000002002400010024001
:1013200008390008000000200148006870470000EC
:101330000000002000B5FFF7F7FF04494968C1F33A
:101340000221034A515CC84000BD00000010024069
:101350001839000800B5FFF7E7FF04494968C1F3F1
:10136000C221034A515CC84000BD00000010024089
:1013700018390008F0B585B00FF2700C9CE8E01049
:1013800001A8A0E8E0101DA52D680095002100240B
:101390000022002300201A4D696801F00C05FDB100
:1013A000042D02D0082D1AD101E016481AE001AD33
:1013B000C1F38346AB5D01F480355DB1104D6D68BE
:1013C000C5F340451DF805400E4DB5FBF4F505FB92
:1013D00003F202E00C4D03FB05F2104602E000BFF1
:1013E000084800BF00BF05B0F0BD000002030405BF
:1013F000060708090A0B0C0D0E0F10100102000061
:101400000010024000127A0000093D00F8B50446C1
:101410000025207800F00100002878D0F8484068C6
:1014200000F00C0004280CD0F548406800F00C00D7
:10143000082811D1F248406800F48030B0F5803FB0
:101440000AD1EF48006800F4003000285FD06068DF
:1014500000285CD10120F8BD00BF6068B0F5803F76
:1014600006D1E748006840F48030E549086028E08C
:10147000606858B9E248006820F48030E0490860AC
:101480000846006820F4802008601AE06068B0F523
:10149000A02F0BD1DA48006840F48020D8490860BA
:1014A0000846006840F4803008600AE0D4480068CC
:1014B00020F48030D24908600846006820F480207B
:1014C000086000BF606888B1FFF7C6FD054606E00A
:1014D000FFF7C2FD401B642801D90320BBE7C848C1
:1014E000006800F400300028F2D010E0FFF7B4FDEF
:1014F000054606E0FFF7B0FD401B642801D9032034
:10150000A9E7BF48006800F400300028F2D1207835
:1015100000F00200022857D1B948406800F00C00E2
:1015200050B1B748406800F00C00082818D1B44802
:10153000406800F4803098B9B148006800F00200BB
:1015400020B12069012801D0012084E7AC4800685F
:1015500020F0F800616940EAC100A949086033E061
:101560002069E8B10120A7490860FFF775FD05462D
:1015700006E0FFF771FD401B022801D903206AE74E
:101580009F48006800F002000028F2D09C480068E4
:1015900020F0F800616940EAC1009949086013E051
:1015A000002098490860FFF757FD054606E0FFF761
:1015B00053FD401B022801D903204CE790480068E6
:1015C00000F002000028F2D1207800F0080008287E
:1015D0002DD1A069B8B101208B490860FFF73CFD0F
:1015E000054606E0FFF738FD401B022801D903201D
:1015F00031E78348406A00F002000028F2D0012061
:1016000000F0B6FC13E000207F490860FFF724FDDE
:10161000054606E0FFF720FD401B022801D9032004
:1016200019E77748406A00F002000028F2D12078DC
:1016300000F00400042873D100267148C06900F04E
:10164000805070B900BF6E48C06940F080506C494E
:10165000C8610846C06900F08050009000BF00BF1C
:1016600001266A48006800F48070B0B967480068D5
:1016700040F4807065490860FFF7EEFC054606E01F
:10168000FFF7EAFC401B642801D90320E3E65F482A
:10169000006800F480700028F2D000BFE0680128E4
:1016A00006D15748006A40F001005549086227E01A
:1016B000E06858B95248006A20F0010050490862B9
:1016C0000846006A20F00400086219E0E068052876
:1016D0000BD14B48006A40F00400494908620846B3
:1016E000006A40F0010008620AE04548006A20F004
:1016F0000100434908620846006A20F004000862BD
:1017000000BFE068A0B1FFF7A7FC054609E0FFF7BE
:10171000A3FC401B41F28831884202D903209AE69B
:1017200022E03748006A00F002000028EFD012E003
:10173000FFF792FC054608E0FFF78EFC401B41F2E4
:101740008831884201D9032085E62D48006A00F0DF
:1017500002000028F0D1012E05D12948C06920F0EF
:1017600080502749C86100BFE069C8B32448406879
:1017700000F00C00082860D0E069022848D1002061
:1017800020490866FFF768FC054606E0FFF764FCA1
:10179000401B022801D903205DE61948006800F0CB
:1017A00000700028F2D1206AB0F5803F07D11448BC
:1017B000406820F40030A168084311494860D4E92A
:1017C000080108430E49496821F4741108430C4983
:1017D000486001200B490866FFF73EFC054607E01C
:1017E0002DE0FFF739FC401B022801D9032032E627
:1017F0000348006800F000700028F2D01FE00000ED
:10180000001002400000424280044242007000404A
:1018100000200C490866FFF71FFC054606E0FFF7AD
:101820001BFC401B022801D9032014E6064800686F
:1018300000F000700028F2D101E001200BE600204A
:1018400009E600000000424200100240042808D1CE
:101850004FF0E021096941F004014FF0E0221161ED
:1018600007E04FF0E021096921F004014FF0E02288
:101870001161704770B504462546681EB0F1807F3F
:1018800001D301200FE0681E4FF0E02148610F21D5
:101890004FF0FF3000F0E4FA00204FF0E0218861C3
:1018A00007200861002070BD10B504460CB9012066
:1018B00010BD94F83D0028B9002084F83C00204673
:1018C00000F00CF8022084F83D00211D206800F093
:1018D000E1FB012084F83D000020E9E77047014664
:1018E0000868C06840F001000A68D06008680068B5
:1018F00040F001000A681060002070477047014600
:101900000022002391F8392091F83A3042EA03008E
:10191000704700002DE9F0470446206805682068FC
:10192000C668206847694FF00008C14605F00F08F7
:10193000B8F1000F0AD105F0200038B106F0200000
:1019400020B1204600F03AFCBDE8F087B8F1000F66
:101950006DD007F0010018B906F49070002866D029
:1019600005F0010030B106F4807018B1E06B40F072
:101970000100E06305F0040030B107F0010018B188
:10198000E06B40F00200E06305F0020030B107F0C8
:10199000010018B1E06B40F00400E06305F00800BE
:1019A00030B107F0010018B1E06B40F00800E063CF
:1019B000E06B68B305F0200028B106F0200010B1FC
:1019C000204600F0FBFB20684069C0F38019E06B03
:1019D00000F0080010B9B9F1000F22D0204600F045
:1019E000CDFB2068406900F04000B0B1206840693C
:1019F00020F0400021684861606B50B11748616B6E
:101A00004863606BFFF734F910B1606B416B884736
:101A10000CE02046FFF772FF08E02046FFF76EFF5C
:101A200004E02046FFF76AFF0020E0638CE705F042
:101A3000800030B106F0800018B1204600F0F6FCBE
:101A400082E705F0400030B106F0400018B12046B2
:101A500000F0A4FB78E700BF76E7000069210008EA
:101A600010B504460CB9012010BDA06900B100E01A
:101A700000BF94F8390028B9002084F838002046C7
:101A800000F028F8242084F839002068C06820F489
:101A900000502168C860204600F0E4FB206800691F
:101AA00020F49040216808612068406920F02A00F5
:101AB000216848612068C06840F400502168C8600F
:101AC0000020E063202084F8390084F83A000020E8
:101AD000CAE7000010B586B0044625492068884250
:101AE00044D100BF2348806940F004002149886147
:101AF0000846806900F00400019000BF00BF00BFED
:101B00000846806940F4804088610846806900F496
:101B10008040019000BF00BF00BF0846806940F0D0
:101B2000010088610846806900F00100019000BF53
:101B300000BF48150290022003900120049003206A
:101B4000059002A90C48FFF7EBF84FF48060029073
:101B50000020039002A90848FFF7E2F82520FFF7CC
:101B6000B2FA032211462520FFF7BAFA06B010BDDB
:101B700000380140001002400008014010B5034643
:101B800093F83A0020282FD101B10AB9012010BDE5
:101B900000BF93F83800012801D10220F7E70120A7
:101BA00083F8380000BF99629A85DA850020D863EF
:101BB000222083F83A0000BF002083F8380000BFDD
:101BC0001868C06840F480701C68E060186840695C
:101BD00040F001001C6860611868C06840F0200097
:101BE0001C68E0600020D2E70220D0E71D4A0168AF
:101BF000914236D11C49098801F4004189BB1A4938
:101C0000098801F4804171B1184909780A2903D083
:101C10000021154A118024E01349098841F400414C
:101C2000114A11801DE0114909780D2906D10E498C
:101C3000098841F480410C4A118012E00B4909786F
:101C4000094A1288C2F30D02094B995406490988C2
:101C5000491C054A118011460988C72901DD002168
:101C600011807047003801400C0000200E00002059
:101C700048010020704700BFFEE7000000B585B0B6
:101C800000BF2448806940F004002249886108466A
:101C9000806900F00400009000BF00BF00BF08464C
:101CA000806940F0100088610846806900F01000EB
:101CB000009000BF00BF00BF0846806940F02000D0
:101CC00088610846806900F02000009000BF00BFD6
:101CD0000120019000200290022003900320049034
:101CE00001A90D48FFF71CF84FF440700190002047
:101CF0000290012003900320049001A90748FFF7F8
:101D00000FF80420019001A90548FFF709F805B074
:101D100000BD00000010024000080140001001401A
:101D20000014014010B5044614B101202F49087079
:101D30002E48007800283BD04FF480712C48FFF7E4
:101D40007DF980B14FF400712948FFF777F950B160
:101D500004212848FFF772F928B101212648FFF72E
:101D60006DF9012824D10A2000F0CAFB00201F4988
:101D700008704FF480711E48FFF760F908B9012020
:101D800010BD4FF400711A48FFF758F908B9022046
:101D9000F6E704211748FFF751F908B90320EFE7E8
:101DA00001211548FFF74AF901281CD10420E7E773
:101DB0004FF480710E48FFF741F9012813D1410219
:101DC0000B48FFF73BF901280DD104210948FFF723
:101DD00035F9012807D101210748FFF72FF910B97C
:101DE0000120024908700020CAE70000140000200A
:101DF00000100140001401400008014000B585B00A
:101E000000BF0F48806940F010000D498861084606
:101E1000806900F01000009000BF00BFFF2001901B
:101E2000012002900390032004900122FF21054825
:101E3000FFF70CF901A90348FEF772FF05B000BDDA
:101E4000001002400010014000BFFEE77047000094
:101E500002480068C0F30220704700000CED00E06B
:101E600010B5002807DA0A07140E054A00F00F0320
:101E70001B1FD45403E00A07130E024A135410BD6B
:101E800018ED00E000E400E07047000008B5002411
:101E90000025002000900026002700F0F5FB00BF81
:101EA0000AE0244A02EB44025178224A12F8140054
:101EB000FEF7BAFD601CC4B2232CF2D3002000F060
:101EC000E3FB00241CA0FEF7B1F932E0B020FEF7DE
:101ED0004FFD0646B120FEF74BFD8DF80000B22005
:101EE000FEF746FD8DF801009DF800009DF80110F9
:101EF00001F00F0140EA01270A2000F001FB681CF5
:101F0000C5B20A2D08D10025314610A0FEF78EF982
:101F1000394613A0FEF78AF9601CC4B2322C08D1EE
:101F20001248006808B9012000E000200F4908604D
:101F30000024CBE7863900080D0ABDD3BDFCBEE006
:101F4000C0EBB2E2CAD40D0A000000004272696719
:101F500068746E6573733A2025640D0A00000000F2
:101F600053697A653A2025640D0A000080012242F7
:101F700008B508490968C9084FF47A72B1FBF2F153
:101F80004143009100BF00BF00994A1E0092002902
:101F9000F9D108BD00000020704730B58FB005466C
:101FA00000240120059000040690002007900220E4
:101FB0000C90C1030D910E9505A8FFF727FA044672
:101FC0000CB100BFFEE70F2000900220019000201E
:101FD00002904FF480600390002004900221684634
:101FE000FFF7D0F804460CB100BFFEE70FB030BDDC
:101FF00010B5FFF737F810BD1148006840F0010038
:102000000F490860084640680E4908400C4948607E
:10201000084600680C4908400949086008460068FD
:1020200020F4802008600846406820F4FE004860E4
:102030004FF41F008860C80304490860704700001F
:10204000001002400000FFF8FFFFF6FE08ED00E080
:1020500010B50E480068C06800F0010080B10C495E
:1020600008698047002009490968486200BF4FF4A9
:102070007A7006490968C86201460448C16000BF19
:102080006FF0010001490968086110BD500200208D
:102090005400002000220268184B984208D0B0F18A
:1020A000804F05D0164B984202D0164B984203D170
:1020B00022F070024B681A43104B984208D0B0F1DE
:1020C000804F05D00E4B984202D00E4B984203D160
:1020D00022F44072CB681A4322F080024B691A4303
:1020E00002608B68C3620B688362044B984201D123
:1020F0000B6903630123436170470000002C01401A
:10210000000400400008004038B505460C4600BFFA
:102110001248C06940F004001049C8610846C0690F
:1021200000F00400009000BF00BF032211461E20F3
:10213000FEF7D6FF1E20FEF7C6FF094809490860D2
:102140000846446000218160C56001618021816191
:10215000FFF7AAFB0348FFF7C2FB38BD001002409F
:10216000000800405002002070B505466C6A00204F
:10217000E085E0842046FFF7C1FB70BD0168C968B7
:1021800021F490710268D1600168496921F0010170
:1021900002685161202180F83A10704710B504465A
:1021A0002068C06820F040002168C860202084F8C2
:1021B00039002046FFF75EFD002010BD70B50446D3
:1021C00094F83A0022284AD1A068B0F5805F13D174
:1021D000A56A206940B920684068C0F308002880DB
:1021E000A06A801CA06219E020684068C0B2288004
:1021F000A06A401CA06211E0206938B920684068DC
:10220000C1B2A26A501CA062117007E02068406849
:1022100000F07F01A26A501CA0621170E08D401E88
:1022200080B2E085C8B92068C06820F0200021682D
:10223000C8602068C06820F480702168C860206889
:10224000406920F0010021684861202084F83A00AC
:102250002046FFF7CBFC002070BD0020FCE70220E9
:10226000FAE700002DE9F0410446002520680069E6
:1022700020F44050E1680843216808612169A068A2
:1022800008436169084305432068C06841F20C6156
:10229000884328432168C8602068406920F4407062
:1022A000A1690843216848615F49206888425CD180
:1022B000FFF750F800EBC00101EB001061688900E6
:1022C000B0FBF1F6FFF746F800EBC00101EB0010A0
:1022D00061688900B0FBF1F06421B0FBF1F000EB24
:1022E000C00101EB0010A6EB8000322101EB0010D1
:1022F0006421B0FBF1F000F0F006FFF72BF800EBE3
:10230000C00101EB001061688900B0FBF1F06421AD
:10231000B0FBF1F006EB0016FFF71CF800EBC00174
:1023200001EB001061688900B0FBF1F7FFF712F8CC
:1023300000EBC00101EB001061688900B0FBF1F017
:102340006421B0FBF1F000EBC00101EB0010A7EB42
:102350008000322101EB00106421B0FBF1F000F0AD
:102360000F003044216888605BE0FEF7E3FF00EB7C
:10237000C00101EB001061688900B0FBF1F6FEF7C7
:10238000D9FF00EBC00101EB001061688900B0FBD0
:10239000F1F06421B0FBF1F000EBC00101EB0010A3
:1023A000A6EB8000322101EB00106421B0FBF1F0BC
:1023B00000F0F006FEF7BEFF00EBC00101EB0010DD
:1023C00061688900B0FBF1F06421B0FBF1F006EB2D
:1023D0000016FEF7AFFF00EBC00101EB00106168D3
:1023E0008900B0FBF1F7FEF7A5FF00EBC00101EBA0
:1023F000001061688900B0FBF1F06421B0FBF1F0DE
:1024000000EBC00101EB0010A7EB8000322101EBD3
:1024100000106421B0FBF1F000F00F00304421689F
:102420008860BDE8F081000000380140014691F865
:10243000390021282CD18868B0F5805F0FD10A6A55
:102440001088C0F308000B685860086918B9086A5A
:10245000801C086209E0086A401C086205E00B6AFB
:10246000581C086218780B685860C88C401E80B2EF
:10247000C88458B90868C06820F080000B68D8602C
:102480000868C06840F040000B68D86000207047C2
:102490000220FCE710B500240C48FFF73BFA00BF10
:1024A00001E0641C00BF0948FFF729FA2028F8D191
:1024B00000BF002401E0641C00BF0122044903485E
:1024C000FFF75CFB0028F6D100BF10BD1002002012
:1024D0000E00002000BFFEE730380A2801D201209C
:1024E00070470020704700BF7047000010B50446D9
:1024F0000420FFF7ABF90148046010BD0400002080
:1025000030B50446002504E04FF47A7000F004F87A
:102510006D1CA542F8D330BD70B5034600224FF0C4
:10252000E02675690D4E366803FB06F44FF0E02691
:10253000B16910E04FF0E026B06988420BD08842C4
:1025400002D20E1A324402E02E1A0E4432440146E0
:10255000A24200D300E0EDE700BF70BD0400002000
:1025600000BF054A126802F04002002AF9D0C2B248
:10257000014B1B1D1A60704700380140FEF77AFDC1
:102580004FF4E010FFF709FD4820FFF7AFFF4FF4CD
:10259000E13000F0F3F8FFF731FCFFF76FFB482064
:1025A00000F0E8FC10A0FDF741FE15A0FDF73EFE8F
:1025B0000EE019A0FDF73AFE4FF4FA70FFF7A0FF06
:1025C0001B48006808B9012000E000201849086095
:1025D00000F038F80028ECD016A0FDF727FE01E047
:1025E00000F064F8FCE70000414C49454E54454B6F
:1025F000204E414E4F2053544D33320D0A000000FF
:1026000053656E736F722050414A373632305532FF
:1026100020544553540D0A0050414A373632305544
:1026200032204572726F722121210D0A00000000D4
:102630008001224250414A373632305532204F4BCA
:102640000D0A000070B5FEF70DFA00F07BF80546A4
:102650000DB9002070BD002000F016F800240AE03B
:10266000084A02EB44025178064A12F81400FEF7B9
:10267000DBF9601CC4B2332CF2D3002000F004F864
:102680000120E7E72039000810B5044614B1012CF9
:102690000AD104E00021EF20FEF7C6F904E0012191
:1026A000EF20FEF7C1F900BF00BF10BD002500F00C
:1026B00023F81DE00020FFF735FB044644B1012C50
:1026C00003D0022C03D1FEF7F3F9FFF7DFFB00BFC5
:1026D0003220FFF715FF681CC5B2052D08D105484B
:1026E000006808B9012000E00020024908600025C8
:1026F000E0E700008001224210B505A0FDF796FD3D
:1027000004A0FDF793FD09A0FDF790FD10BD0000AA
:102710000D0A00004B4559313A20CAD6CAC6CAB67E
:10272000B1F0B2E2CAD40D0A000000004B455930A6
:102730003A20BDD3BDFCBEE0C0EBB2E2CAD40D0A64
:102740000000000010B50A24FEF765F90520FFF728
:10275000D7FEFEF760F90520FFF7D2FE0020FFF755
:1027600093FF0020FEF704F90446202C01D000203E
:1027700010BD0120FCE701460868704710B504460B
:1027800009480A4908600846446000218160C16028
:10279000016181610C214161FFF762F90122044965
:1027A0000248FFF7EBF910BD00380140100200208D
:1027B0000E00002030B595B0054613AB12AA09A94A
:1027C000284600F03FFA044614B1204615B030BD4B
:1027D0000020149026E0224909689DF8502001EB62
:1027E000C20113AB11AA486801A900F02BFA0446F4
:1027F0000CB12046EAE709A901A800F0E1FC60B9A4
:102800009DF844009DF84810884201DD0220DDE774
:102810009DF85000124988750AE09DF85000401C50
:10282000C0B214900E48007D9DF850108842D2DC52
:1028300000BF0B48007D9DF85010884201D1042054
:10284000C4E714A9284600F0DDFA04460CB120467E
:10285000BCE79DF85000024948750020B6E700002B
:10286000540000202DE9F0419AB09C48847D007D01
:10287000A04202DC1AB0BDE8F0819849096801EB7A
:10288000C40106AB07AA486808A900F0DBF908A94B
:1028900093A0FDF7CBFC002644E09048008B01217B
:1028A000B1400840D8B122218FA0FDF7BFFC3046CF
:1028B00000F02EFB89492431471839468BA0FDF7DB
:1028C000B5FC222188A0FDF7B1FC304600F020FBCA
:1028D00082492431084410A941F8260018E0304606
:1028E00000F016FB7D492431085810A941F8260054
:1028F0007A48C07D30B910A850F826107CA0FDF7AA
:1029000095FC05E010A850F826107AA0FDF78EFC83
:102910009DF81C00401EB04202D078A0FDF786FC56
:10292000701CC6B29DF81C008642B6DB74A0FDF791
:102930007DFC00F03FFB6948407D0B280DD2DFE8AD
:1029400000F0060D151E27323F4E5F728700634967
:10295000096851F834008047054690E05F4A1268E4
:1029600052F8341010988847054688E05B4B1B6886
:1029700053F83420DDE91001904705467FE0574FBA
:102980003F6857F8343010A807C89847054676E0E6
:10299000DFF848C1DCF800C05CF8347010A80FC83C
:1029A000B84705466BE01498DFF830C10090DCF8BA
:1029B00000C05CF8347010A80FC8B84705465EE048
:1029C000DDE91401DFF814C1CDE90001DCF800C035
:1029D0005CF8347010A80FC8B84705464FE0DDE931
:1029E00014121698DFF8F4C0CDE900120290DCF85A
:1029F00000C05CF8347010A80FC8B84705463EE028
:102A0000DDE91423DDE91610DFF8D0C0CDE900239D
:102A1000CDE90210DCF800C05CF8347010A80FC8D3
:102A2000B84705462BE0DDE91523DDE91710CDE9B0
:102A30000123CDE903101498DFF8A0C00090DCF862
:102A400000C05CF8347010A80FC8B847054616E0FF
:102A5000DDE91623DDE91810CDE90223CDE90410E4
:102A6000DDE91401DFF874C0CDE90001DCF800C035
:102A70005CF8347010A80FC8B847054600BF00BF07
:102A800000F056FA9DF8180001280CD11348C07DBB
:102A900020B929461BA0FDF7C9FB07E029461BA06A
:102AA000FDF7C4FB02E018A0FDF7C0FB0B4890F84F
:102AB000EC0088B10948D0F8F0000A21B0FBF1F22F
:102AC00001FB12070548D0F8F000B0FBF1F83A46D8
:102AD000414611A0FDF7AAFB00BFCBE65400002041
:102AE0000D0A2573280000002563000025730000EF
:102AF000256C640030582558000000002C000000B0
:102B0000290000003D256C753B0D0A003D3058251D
:102B1000583B0D0A0000000046756E6374696F6EC5
:102B20002052756E2054696D653A25642E253164F6
:102B30006D730D0A00000000F0B503461546002035
:102B40000022002600245BE01F782C2F01D104B95D
:102B500001221F78292F01D01F780FB904B950E046
:102B6000002E3AD11F78302F02DB1F78392F17DD66
:102B70001F782D2F14D01F782B2F11D01F78612F85
:102B800002DB1F78662F0BDD1F78412F02DB1F78D9
:102B9000462F05DD1F78582F02D01F78782F0CD1D3
:102BA00002B12EE01F78612F03DB1F78203F0F70EA
:102BB00001E01F780F70491C1FE01F78222F04D1FD
:102BC00002B11EE00126012417E01F78202F14D047
:102BD0001F782C2F11D0FF2613E01F78222F00D151
:102BE000002402B10DE044B11F785C2F02D15B1CC0
:102BF000471CF8B21F780F70491C471CF8B25B1CC9
:102C0000A2E700BF00270F702E70F0BD10B504467C
:102C1000002010700BE020780870641C491C1078AC
:102C2000401C10701078984201DB012010BD207804
:102C3000202802D020780028EDD10020087000BFA5
:102C4000F4E700002DE9FF4F85B080468946002754
:102C5000002004900390012002904FF0000B00250B
:102C600044461DE02078202816D005F07F00052876
:102C700012DA0DB945F0800505F07F00042803D174
:102C800020782A2800D00EE0207805F07F010DF88A
:102C90000100681CC5B202E0852D00D103E0641C70
:102CA00020780028DED100BF8DB1002005F07F0123
:102CB0000DF8010051A1684600F082FA18B9002110
:102CC0000898017002E001210898017000254FF07A
:102CD000000A444614E0641C0AF1010000F0FF0AF7
:102CE0002078202802D020782A2809D1204600F018
:102CF000D9F90646282E03D02A2E01D0CDF810A0EF
:102D00002078282802D020780028E4D1444604986E
:102D100010B10498401C04444FF0000A002654E00F
:102D2000207810B94FF0010A50E02078282803D10C
:102D300016B9781CC7B213E02078292808D13EB90B
:102D400017B1781EC7B201E04FF0010A47B93DE064
:102D50002078222804D10EB9012000E00020064688
:102D600047B9207820282FD0207889F8000009F171
:102D7000010929E020782C2804D101200290681C48
:102D8000C5B214E02078202811D0207828280ED051
:102D90004DB9BBF1050F06DA20780DF80B000BF1E9
:102DA000010000F0FF0B0298401CC0B20290012FFE
:102DB0000AD10298022807D10298401CC0B20290A2
:102DC0000398401CC0B20390641CA9E700BF03989D
:102DD000012809D100200DF80B0008A1684600F079
:102DE000EFF908B9002003900799039808700020B4
:102DF00089F80000504609B0BDE8F08F766F69642D
:102E0000000000002DE9F043B5B005460F46002450
:102E1000002604E000213D488155701CC6B20A2EF0
:102E2000F8DB06E06D1C287818B9012035B0BDE844
:102E3000F08328782828F5D16D1C61E034AA694612
:102E40002846FFF779FE064635449DF8D00020B1AC
:102E5000012827D0FF284CD149E09DF8000000B39D
:102E600033A9684600F029F906460EB10220DDE7D5
:102E7000204600F04DF825490A31339A0A50A1F155
:102E80002400008B0121A140884320491A3908837E
:102E900004211E480155601CC4B20A2C01DD032028
:102EA000C4E726E0684600F0A7F9401C00F0FF08E0
:102EB000204600F02DF815490A3100EB010949467A
:102EC000684600F08EF911481A38018B0120A040A5
:102ED000014388B20D491A3908830C4800F8048070
:102EE000601CC4B20A2C01DD03209FE701E0022030
:102EF0009CE700BF2878292801D0287800B900E095
:102F00009CE700BF3C70002090E700006E000020AE
:102F100002460020002105E0044B5B5C0344D8B26C
:102F20004B1CD9B29142F7DB704700006E000020C5
:102F30000E480068006900F0010040B10C48D0F86C
:102F4000F0004FF6FF7108440949C1F8F000084845
:102F5000D0F8F00005490968496A08440449C1F8F5
:102F6000F0000846D0F8F000704700005002002042
:102F70005400002010B5044604EBC40000EB04101C
:102F80000122C2EB800081B24FF47A70FFF7BCF8E7
:102F900001200149C87510BD5400002010B502463B
:102FA000012000E050430B1EA1F10104E1B2F9D170
:102FB00010BD00006FF0010009490968086100BFF9
:102FC000000C07490968C86201460548C16000BF96
:102FD00000200349096848620249C1F8F0007047BF
:102FE000500200205400002070B51D48008800F4F5
:102FF0000040002833D01A48057800201949485568
:10300000194881681748884704461CB91649C8689A
:10301000804721E0134800F0FBF80546012D00D061
:103020002C46CCB1012C06D0022C08D0032C0AD09F
:10303000042C10D10BE00DA0FDF7F8F80BE00EA06A
:10304000FDF7F4F807E00FA0FDF7F0F803E010A09B
:10305000FDF7ECF800BF00BF00200149088070BDFB
:103060000C0000204801002054000020BAAFCAFD27
:10307000B4EDCEF3210D0A00B2CECAFDB4EDCEF30D
:10308000210D0A00B2CECAFDCCABB6E0210D0A007C
:10309000CEB4D5D2B5BDC6A5C5E4B5C4BAAFCAFDD8
:1030A000210D0A000146491C00E0491C087820282F
:1030B00001D10029F9D1087870472DE9F04F054674
:1030C0000F4600264FF00A09B3462C460020386010
:1030D00034E02078392802DC2078302811DA28788A
:1030E0002D2802D028782B2800D156B120784628E8
:1030F00002DC2078412804DA2078582817D1012EE4
:1031000015D12078412801DB4FF0100928782D28AF
:1031100003D14FF0020B6D1C0FE028782B2803D150
:103120004FF0010B6D1C08E0701CC6B205E0207862
:1031300000B904E00120BDE8F08F641CC9E700BFBE
:103140002C46B9F1100F0FD1032E01DA0220F2E75D
:103150002078302806D16078582803D1A41CB01EEE
:10316000C6B204E00320E6E70EB90420E3E71BE063
:103170000EB1701EC6B22078392806DC20783028BF
:1031800003DB2078A0F1300A02E02078A0F1370AB2
:1031900031464846FFF702FF39680AFB00103860E5
:1031A000641C207800B900E0E2E700BFBBF1020F29
:1031B00004D13868C0F10008C7F800800020BAE7E1
:1031C00002460AE010780B78984201D0012070473F
:1031D000107800B902E0521C491CF3E700BF002040
:1031E000F5E706E002780A70027802B902E0401CB6
:1031F000491CF7E700BF70470146002005E00A7848
:1032000002B903E0421CD0B2491CF8E700BF704786
:1032100010B58CB004461E230BAA03A92046FFF765
:10322000F5FC0090009810B101200CB010BD9DF885
:103230002C00044400200B900EE040489DF82C2008
:1032400050F8221003A8FFF7BBFF00B908E09DF873
:103250002C00401CC0B20B909DF82C000728ECD32A
:1032600000BF9DF82C00072863D2DFE800F00405BA
:103270003C5E6564630000BF31A0FCF7D7FF31A05E
:10328000FCF7D4FF3FA0FCF7D1FF4EA0FCF7CEFF28
:103290005CA0FCF7CBFF6BA0FCF7C8FF79A0FCF7A4
:1032A000C5FF87A0FCF7C2FF8CA0FCF7BFFF94A06E
:1032B000FCF7BCFF98A0FCF7B9FF9DA0FCF7B6FF98
:1032C000A2A0FCF7B3FFA8A0FCF7B0FFB4A0FCF7E6
:1032D000ADFFC1A0FCF7AAFFCCA0FCF7A7FFD8A0C8
:1032E000FCF7A4FFA2E216A0FCF7A0FFE4A0FCF705
:1032F0009DFF00200B900EE0F14800689DF82C2007
:1033000000EBC2004168EFA0FCF790FF9DF82C0095
:10331000401CC0B20B90EA48007D9DF82C108842FA
:10332000EADC07A0FCF782FF80E205A0FCF77EFF45
:10333000CCE179E24DE221E2F4E100001800002046
:103340000D0A00002D2D2D2D2D2D2D2D2D2D2D2D4A
:103350002D2D2D2D2D2D2D2D2D2D2D2D55534D411B
:1033600052542056332E322D2D2D2D2D2D2D2D2D19
:103370002D2D2D2D2D2D2D2D2D2D2D2D2D2D2D208A
:103380000D0A00002020202055534D415254CAC739
:10339000D3C9414C49454E54454BBFAAB7A2B5C409
:1033A000D2BBB8F6C1E9C7C9B5C4B4AEBFDAB5F788
:1033B000CAD4BBA5BDBBD7E9BCFE2CCDA8B9FD20A6
:1033C0000D0A0000CBFC2CC4E3BFC9D2D4CDA8B9F0
:1033D000FDB4AEBFDAD6FACAD6B5F7D3C3B3CCD0F4
:1033E000F2C0EFC3E6B5C4C8CEBACEBAAFCAFD2CA0
:1033F000B2A2D6B4D0D02ED2F2B4CB2CC4E3BFC983
:103400000D0A0000D2D4CBE6D2E2B8FCB8C4BAAF01
:10341000CAFDB5C4CAE4C8EBB2CECAFD28D6A7B36C
:10342000D6CAFDD7D62831302F3136BDF8D6C62CB6
:10343000D6A7B3D6B8BACAFD29A1A2D7D6B7FBB4CE
:10344000AE0D0A00A1A2BAAFCAFDC8EBBFDAB5D86B
:10345000D6B7B5C8D7F7CEAAB2CECAFD292CB5A526
:10346000B8F6BAAFCAFDD7EEB6E0D6A7B3D63130BC
:10347000B8F6CAE4C8EBB2CECAFD2CB2A2D6A7B346
:10348000D60D0A00BAAFCAFDB7B5BBD8D6B5CFD4F2
:10349000CABE2ED6A7B3D6B2CECAFDCFD4CABEBD41
:1034A000F8D6C6C9E8D6C3B9A6C4DC2CD6A7B3D60D
:1034B000BDF8D6C6D7AABBBBB9A6C4DC2E0D0A0080
:1034C000BCBCCAF5D6A7B3D63A7777772E6F7065AE
:1034D0006E6564762E636F6D0D0A000055534D4185
:1034E0005254D3D037B8F6CFB5CDB3C3FCC1EE2814
:1034F000B1D8D0EBD0A1D0B4293A0D0A0000000019
:103500003F3A202020202020BBF1C8A1B0EFD6FAFE
:10351000D0C5CFA20D0A000068656C703A2020204B
:10352000BBF1C8A1B0EFD6FAD0C5CFA20D0A0000FA
:103530006C6973743A202020BFC9D3C3B5C4BAAF35
:10354000CAFDC1D0B1ED0D0A0A00000069643A203D
:1035500020202020BFC9D3C3BAAFCAFDB5C4494497
:10356000C1D0B1ED0D0A0A006865783A202020200C
:10357000B2CECAFD3136BDF8D6C6CFD4CABE2CBA3B
:10358000F3B8FABFD5B8F12BCAFDD7D6BCB4D6B4C0
:10359000D0D0BDF8D6C6D7AABBBB0D0A0A00000022
:1035A0006465633A20202020B2CECAFD3130BDF8D8
:1035B000D6C6CFD4CABE2CBAF3B8FABFD5B8F12B51
:1035C000CAFDD7D6BCB4D6B4D0D0BDF8D6C6D7AA1B
:1035D000BBBB0D0A0A00000072756E74696D653A16
:1035E000312CBFAAC6F4BAAFCAFDD4CBD0D0BCC66A
:1035F000CAB13B302CB9D8B1D5BAAFCAFDD4CBD003
:10360000D0BCC6CAB13B0D0A0A000000C7EBB0B47B
:10361000D5D5B3CCD0F2B1E0D0B4B8F1CABDCAE4CC
:10362000C8EBBAAFCAFDC3FBBCB0B2CECAFDB2A2F2
:10363000D2D4BBD8B3B5BCFCBDE1CAF82E0D0A008C
:103640002D2D2D2D2D2D2D2D2D2D2D2D2D2D2D2DAA
:103650002D2D2D2D2D2D2D2D2D2D414C49454E54EB
:10366000454B2D2D2D2D2D2D2D2D2D2D2D2D2D2D54
:103670002D2D2D2D2D2D2D2D2D2D2D200D0A000024
:103680002D2D2D2D2D2D2D2D2D2D2D2D2D2D2D2D6A
:103690002D2D2D2D2D2D2D2D2DBAAFCAFDC7E5B504
:1036A000A52D2D2D2D2D2D2D2D2D2D2D2D2D2D2DD2
:1036B0002D2D2D2D2D2D2D2D2D2D2D2D200D0A00B7
:1036C0005400002025730D0A0000000059A0FCF7EB
:1036D000ADFD00200B901AE0664909689DF82C208A
:1036E00001EBC20101AB02AA486803A9FFF7AAFADD
:1036F000604800689DF82C1050F8312003A95EA0A6
:10370000FCF794FD9DF82C00401CC0B20B9059486A
:10371000007D9DF82C108842DEDCAFF2DC30FCF737
:1037200085FD83E0AFF2E830FCF780FD0BAA03A92A
:103730002046FFF701FA9DF82C00C8B9694603A896
:10374000FFF7BBFC0B909DF82C0020B94FA000990F
:10375000FCF76CFD0EE09DF82C00042801D002203F
:1037600063E54DA0FCF762FD01204249C87501E008
:1037700002205AE547A0FCF759FD57E045A0FCF7A9
:1037800055FD0BAA03A92046FFF7D6F99DF82C009A
:10379000C8B9694603A8FFF790FC0B909DF82C0070
:1037A00020B942A00099FCF741FD0EE09DF82C00E5
:1037B000042801D0022038E53FA0FCF737FD0020A7
:1037C0002C49C87501E002202FE532A0FCF72EFD40
:1037D0002CE030A0FCF72AFD0BAA03A92046FFF736
:1037E000ABF99DF82C00C8B9694603A8FFF765FC42
:1037F0000B909DF82C0078B91E49009881F8EC00D8
:10380000084690F8EC0018B130A0FCF70FFD07E077
:1038100035A0FCF70BFD03E0022006E5022004E5DD
:103820001CA0FCF703FD01E00120FEE400BF002026
:10383000FBE400002D2D2D2D2D2D2D2D2D2D2D2D8D
:103840002D2D2D2D2D2D2D2D2D2D2D2D2DBAAFCAFC
:10385000FD204944202D2D2D2D2D2D2D2D2D2D2DAF
:103860002D2D2D2D2D2D2D2D2D2D2D2D2D2D2D2D88
:10387000200D0A005400002025732069642069731C
:103880003A0D0A3058253038580D0A004845583A44
:10389000305825580D0A00003136BDF8D6C6B2CED4
:1038A000CAFDCFD4CABE210D0A0000004445433AE8
:1038B000256C750D0A0000003130BDF8D6C6B2CEB9
:1038C000CAFDCFD4CABE210D0A00000052756E2079
:1038D00054696D652043616C63756C6174696F6ECA
:1038E000204F4E0D0A00000052756E2054696D6520
:1038F0002043616C63756C6174696F6E204F46463E
:103900000D0A000001607047000000000000000088
:103910000102030406070809000000000102030475
:10392000EF0037073817390641004200462D470F90
:10393000483C49004A1E4C2051105E1060278042CE
:10394000814482048B019006950A960C97059A147F
:103950009C3FA519CC19CD0BCE13CF64D021EF011C
:10396000020F0310040225012739287F29083EFF92
:103970005E3D6596679769CD6A016D2C6E01720197
:10398000733574007701EF0041004200483C490064
:1039900051138320842085008610870088058918AC
:1039A0008A109FF869966A02EF01011E020F031048
:1039B00004024150433465CE660B67CE680B69E95B
:1039C0006A056B506CC36D506EC37405EF00410007
:1039D0004200EF00483C4900511083209FF9EF015D
:1039E000011E020F03100402414043306596660039
:1039F0006797680169CD6A016BB06C046D2C6E012C
:103A00007400EF0041FF4201303132333435363734
:103A10003839414243444546403058003031323312
:103A20003435363738396162636465664030780012
:103A30000400000800000000000000020001000077
:103A4000100000003F00000064656300696400002E
:103A500072756E74696D650068656C7000000000B9
:103A60006C69737400000000686578007538204741
:103A7000535F57726974655F4279746528753820A1
:103A80005245475F416464726573732C75382052E8
:103A900045475F646174612900000000766F6964C6
:103AA0002077726974655F616464722875333220AF
:103AB000616464722C7533322076616C29000000D9
:103AC00075333220726561645F6164647228753396
:103AD000322061646472290075382047535F526553
:103AE00061645F42797465287538205245475F41AB
:103AF0006464726573732900183B0008000000209D
:103B000048010000280100086C3B00084801002023
:103B1000A807000084010008110410A24A04320121
:103B200013443A1B0858041A60041A4C041A680417
:103B30001A48041A50041377271B08C008130539C4
:103B40001B089C0813290A1B086C081371091B0821
:103B5000D80822341420752F1B08B5281365281B9C
:0C3B600008E90C1965295701D900000084
:04000005080000ED02
:00000001FF
