:020000040800F2
:10000000E8060020CD010008BB110008C710000859
:10001000B9110008D3020008E11300080000000035
:10002000000000000000000000000000BF110008F8
:10003000D502000800000000BD110008C111000831
:10004000E7010008E7010008E7010008E7010008F0
:10005000E7010008E7010008D9020008E7010008ED
:10006000E7010008E7010008E7010008E7010008D0
:10007000E7010008E7010008E7010008E7010008C0
:10008000E7010008E7010008E7010008E7010008B0
:10009000E7010008E7010008E7010008E7010008A0
:1000A000E7010008E7010008E7010008E701000890
:1000B000E7010008E7010008E7010008E701000880
:1000C000E7010008E7010008E7010008E701000870
:1000D000E7010008D5130008E7010008E701000860
:1000E00035030008E7010008E7010008E701000800
:1000F000E7010008E7010008E7010008E701000840
:10010000E7010008E7010008E7010008E70100082F
:10011000E7010008E7010008E7010008E70100081F
:10012000E7010008E7010008E7010008E70100080F
:1001300000F002F800F03AF80AA090E8000C8244BF
:100140008344AAF10107DA4501D100F02FF8AFF29C
:10015000090EBAE80F0013F0010F18BFFB1A43F0A5
:1001600001031847FC1300001C140000103A24BFC0
:1001700078C878C1FAD8520724BF30C830C144BF0C
:1001800004680C607047000000230024002500264E
:10019000103A28BF78C1FBD8520728BF30C148BFEA
:1001A0000B6070471FB51FBD10B510BD00F058F8AB
:1001B0001146FFF7F7FF01F025F900F076F803B4D8
:1001C000FFF7F2FF03BC00F07DF80000094880470C
:1001D00009480047FEE7FEE7FEE7FEE7FEE7FEE729
:1001E000FEE7FEE7FEE7FEE704480549054A064B41
:1001F000704700002312000831010008E8000020C9
:10020000E8060020E8020020E80200204FF000028B
:1002100000B5134694469646203922BFA0E80C50FC
:10022000A0E80C50B1F12001BFF4F7AF090728BFD7
:10023000A0E80C5048BF0CC05DF804EB890028BF53
:1002400040F8042B08BF704748BF20F8022B11F07C
:10025000804F18BF00F8012B7047704770477047F8
:10026000754600F02BF8AE4605006946534620F06F
:100270000700854618B020B5FFF7B6FFBDE820405F
:100280004FF000064FF000074FF000084FF0000B52
:1002900021F00701AC46ACE8C009ACE8C009ACE805
:1002A000C009ACE8C0098D46704710B50446AFF3ED
:1002B00000802046BDE81040FFF781BF004870472E
:1002C0008400002001491820ABBEFEE72600020092
:1002D0007047FEE7704700002DE9F041012110480A
:1002E00000F016FA012814D146030E4F3146384665
:1002F00000F00EFA0C4D012468B13146384600F08A
:1003000007FA012805D109490F22094800F0BBFE70
:100310002C60BDE8F08105490F220F39F5E7000098
:100320000008014000100140140401400F000020AB
:100330004000002010B501210A4800F0E9F900282A
:100340000ED14FF400542146074800F0E1F901288E
:1003500006D10F220549064800F095FE05480460C5
:1003600010BD000000080140001001401E000020E8
:10037000400000201404014072B6FEE710B590F86A
:1003800021100022022905D00421816380F8202059
:10039000012010BD01680B6823F00E030B6001689B
:1003A0000B6823F001030B6090F84030C46B01210F
:1003B00001FA03F3636080F8211080F820201046D2
:1003C00010BD00002DE9F05F90F8211000240229F3
:1003D00003D004218163012485E001680A6822F0CA
:1003E0000E020A6001680A6822F001020A603F4EAC
:1003F0003E4FB215DFF8F4C0DFF8F090DFF8ECA064
:10040000DFF8E8B0DFF8E4E00168783F1301150297
:10041000ACF1640CA9F15009AAF13C0AABF1280B2C
:10042000AEF1140E4FF48018B14227D9B9420ED064
:10043000614512D049451DD0514518D0594518D0B5
:10044000714501D1424615E0294EB14201D1012248
:1004500010E0274E1436B14201D110220AE0244E9A
:100460002836B14206D0224A3C32914201D11A4686
:1004700000E02A461E49091F0A602BE0B94213D04A
:10048000614517D0494522D051451DD059451DD051
:10049000714501D142461AE0B14202D14FF080725B
:1004A00015E0134EB14201D1012210E0104E143676
:1004B000B14201D110220AE00D4E2836B14206D0D9
:1004C0000B4A3C32914201D11A4600E02A460749C4
:1004D00080394A60012180F82110002180F8201025
:1004E000416B01B188472046BDE8F09F8000024083
:1004F0000804024070B5044600F01CF90546601C73
:1005000002D004480078044400F014F9401BA042D3
:10051000FAD370BD300000202DE9F84FDFF8C89104
:10052000002409F1040A0AF1040B23460F270BF1FA
:10053000040ED1E00125A54006EA0502AA4276D1C3
:10054000DFF8A8C14E68A6EB0C0866452BD00DDC81
:10055000032E34D005DC36B3012E19D0022E2FD154
:100560001BE0112E16D0122E2AD119E0B8F5881FE3
:1005700019D006DCB8F5803F15D0B8F5801F1FD123
:1005800011E0B8F5001F0ED0B8F5041F18D10AE02D
:10059000CB6815E0CB681B1D12E0CB6808330FE079
:1005A000CB680C330CE08B682BB1012B4FF00803A8
:1005B00003D0456104E0042302E0056100E000236C
:1005C000FF2A01D8064601E000F104064FEA84053F
:1005D00001D9A5F12005D6F8008007FA05FC28EA24
:1005E0000C0803FA05F548EA0508C6F800804D68CE
:1005F000ED0070D53E4DAE6946F00106AE61AD69C5
:1006000024F0030605F0010500953A4D06EB050CB4
:10061000DCF80850A607360F07FA06F825EA0805A1
:10062000DFF8D480404503D14FF0000825E052E0C8
:10063000DFF8C880404502D14FF001081DE0DFF827
:10064000C080404502D14FF0020816E0DFF8B480C8
:10065000404502D14FF003080FE0DFF8AC80404581
:1006600002D14FF0040808E0DFF8A080404502D135
:100670004FF0050801E04FF0060808FA06F848EACE
:100680000508CCF808804D68D9F80060ED034D46A8
:1006900001D5164300E096432E604D68DAF80060FD
:1006A000AD03554601D5164300E096432E604D68D4
:1006B000DBF80060ED025D4601D5164300E096438D
:1006C0002E604D68DEF80060AD02754601D5164318
:1006D00000E096432E60641C0A681646E2407FF4F0
:1006E00029AFBDE8F88F00000004014000001110A0
:1006F000001002400000014000080140000C0140D1
:10070000001001400014014000180140001C01408D
:100710008068084000D001207047C26821EA0203C7
:100720000A4043EA0241016170470AB10161704722
:100730000904FBE701488068704700003000002092
:1007400002488168027811448160704730000020BF
:10075000074810B5016841F010010160032000F066
:1007600075F80F2000F006F800F024F8002010BD06
:100770000020024070B50D4D04464FF47A71287880
:10078000B1FBF0F00A490968B1FBF0F000F0ECFAB7
:1007900048B9102C07D200222146501E00F036F82E
:1007A00000206C6070BD012070BD00003000002092
:1007B0003C0000200C4808B5816941F001018161CD
:1007C000816901F001010091C16941F08051C1616D
:1007D000C06900F0805000900448416821F0E06159
:1007E00041F00071416008BD00100240000001406E
:1007F000002809DB00F01F02012191404009800020
:1008000000F1E020C0F8001170470000F0B40E4B7A
:100810001B680C46C3F30223C3F10705042D00D95E
:100820000425191D072901D2002300E0DB1E012643
:1008300006FA05F1491E214099409E40761E164059
:100840003143F0BC00F0CDBD0CED00E0064900F0F6
:10085000070208684FF6FF03184040EA0220034AE7
:1008600010430860704700000CED00E00000FA053E
:100870002DE9F0470F46050061D0434E306800F087
:100880000700B84209D2306820F0070038433060D2
:10089000306800F00700B84251D128683B4C81070E
:1008A00012D5400703D5606840F4E06060602878A6
:1008B000000703D5606840F4605060606068A96814
:1008C00020F0F000084360602878C00728D06868EE
:1008D000012810D02168022810D0890700292EDABB
:1008E000616821F0030101436160FFF723FF804647
:1008F00041F288390DE021688903EFE78901EDE7CE
:10090000FFF718FFA0EB0801494502D90320BDE815
:10091000F0876068696800F00C00B0EB810FEFD1E0
:10092000306800F00700B8420BD9306820F00700AB
:1009300038433060306800F00700B84201D0012031
:10094000E5E72878400705D56068E96820F4E060AD
:10095000084360602878000706D56068296920F49C
:10096000605040EAC100606000F038F86168084AF1
:10097000C1F30311515CC84006490860064800688D
:10098000FFF7F8FE0020C2E70020024000100240FE
:10099000481500083C0000203400002004480549A8
:1009A00000684968044AC1F30221515CC84070479D
:1009B0003C0000200010024058150008044805497A
:1009C00000684968044AC1F3C221515CC8407047BD
:1009D0003C000020001002405815000812A185B00C
:1009E0000FC98DE80F0014A0144A006804905168E4
:1009F000134801F00C03042B10D0082B0ED1C1F3C7
:100A00008343C9031DF803000AD5516804AAC1F342
:100A10004041515C0A4A5043B0FBF1F005B07047C9
:100A200008494843FAE700000203040506070809DD
:100A30000A0B0C0D0E0F10100102000000100240F6
:100A400000127A0000093D002DE9F84F040070D033
:100A50002078C04DC00749D06868C0F381000128E4
:100A600007D06868C0F38100022809D16868C00314
:100A700006D52868800339D560680028E7D035E0BE
:100A80006068B0F5803F0BD010B1B0F5A02F11D049
:100A9000286820F480302860286820F4802002E054
:100AA000286840F480302860606890B1FFF742FE0B
:100AB00006460AE0286840F480202860F0E700BF7E
:100AC000FFF738FE801B642873D828688003F7D5A9
:100AD0000CE0FFF72FFE064605E000BFFFF72AFEF9
:100AE000801B6428F0D828688003F7D420789A4EB9
:100AF00080074FF001094FF0000839D5686810F001
:100B00000C0F07D06868C0F38100022809D168681B
:100B1000C00306D42868800714D52069012808D1AD
:100B200010E02069B0B1C6F80090FFF703FE074659
:100B300005E00AE1FFF7FEFDC01B0228C4D82868C3
:100B40008007F7D52868616920F0F80040EAC10005
:100B500028600DE0C6F80080FFF7ECFD074604E0D2
:100B6000FFF7E8FDC01B022823D828688007F7D4C8
:100B7000207800072CD57948A169D9B1C0F8009038
:100B8000FFF7D8FD074604E0FFF7D4FDC01B02289D
:100B90000FD8686A8007F7D571484FF4FA5100689A
:100BA000B0FBF1F0009000BF0098411E0091FAD216
:100BB0000EE080E0C0F80080FFF7BCFD074604E0CF
:100BC000FFF7B8FDC01B022875D8686A8007F7D404
:100BD0002078400760D5E8690027C00008D4E8699C
:100BE00040F08050E861E869012700F080500090F3
:100BF0005C480168C90513D40168834641F48071DB
:100C00000160FFF797FD824606E000BFFFF792FD07
:100C1000A0EB0A0064284ED8DBF80000C005F5D52B
:100C2000E06801280AD008B1052813D0286A20F00E
:100C300001002862286A20F0040002E0286A40F0DF
:100C400001002862E06841F2883B98B1FFF772FD2D
:100C500082460BE0286A40F004002862EEE700BFFD
:100C6000FFF768FDA0EB0A0159455AD8286A8007AA
:100C7000F6D50CE0FFF75EFD824605E0FFF75AFD72
:100C8000A0EB0A0159454CD8286A8007F6D41FB159
:100C9000E86920F08050E861E06988B36968C1F3D1
:100CA0008101022944D00228C6F8608004D0FFF7F1
:100CB00041FD044638E034E0FFF73CFD074604E020
:100CC000FFF738FDC01B02282BD828688001F7D415
:100CD000206AB0F5803F05D16868A16820F4003033
:100CE00008436860D4E908010843696821F4741175
:100CF00008436860C6F86090FFF71CFD044606E0F4
:100D000025E000BFFFF716FD001B022809D8286860
:100D10008001F7D51BE000BFFFF70CFD001B022888
:100D200002D90320BDE8F88F28688001F4D40EE0D2
:100D30000128F7D06868226A00F48031914204D11A
:100D4000616A00F47010884201D00120EAE70020B7
:100D5000E8E70000001002400000424280044242E6
:100D60003C0000200070004010B5401EB0F1807FB4
:100D700001D3012010BD4FF0E02460610F21601706
:100D800000F02FFB0020A06107202061002010BD93
:100D900070477047F8B5026804461068D168536917
:100DA00010F00F0F4FF0000553D003F0010601F4CF
:100DB000907737435FD0C20705D0CA0503D5226CB0
:100DC00042F001022264420705D5DA0703D0226C03
:100DD00042F002022264820705D5DA0703D0226CB2
:100DE00042F004022264020707D501F020023243D8
:100DF00003D0226C42F008022264226C002A34D014
:100E0000800604D5880602D5204600F02BFA20681B
:100E10004069216CC0F38010090700D430B320462C
:100E200000F008FA2068416949061BD5416921F0A4
:100E300040014161A06BA8B158494163A06BFFF725
:100E4000C1FA002811D0A06B416B01B0BDE8F040A1
:100E5000084783060FD58B060DD52046BDE8F84020
:100E600000F000BA2046FFF794FFF8BD2046FFF7D8
:100E700090FF2564F8BD266B2023012E52D1C606B3
:100E800050D5CE064ED51068506800905069400687
:100E90002AD5A16B086840680004000CEAD0A68D32
:100EA0008642E7D9E0858869202818D0D06820F4E8
:100EB0008070D0602068416921F0010141612068A3
:100EC000416921F04001416184F83E30256320688A
:100ED000C16821F01001C160A06BFFF74FFAA08D2F
:100EE000E18D401A81B219E0A08DE18D401A81B2E6
:100EF000E08D0028BED00029BCD0D06820F49070CE
:100F0000D0602068426922F00102426184F83E30DC
:100F100025632068C26822F01002C2602046FFF7F5
:100F200037FFF8BD05062BD50D0629D594F83D00F1
:100F30002128F6D1A068B0F5805F01D12069B0B159
:100F4000206A411C2162216800784860E08C401EC4
:100F50000004000CE084E4D12068C16821F0800125
:100F6000C1602068C16841F04001C160F8BD206ADD
:100F70000088C0F308005060206A801C2062E5E70A
:100F80004006F3D54806F1D5D168204621F040014E
:100F9000D16084F83D3000F095F8F8BD25120008C6
:100FA00070B5040004D094F83D00002510B106E0AF
:100FB000012070BD84F83C50204600F023F8242026
:100FC00084F83D002068C16821F40051C1602046CA
:100FD00000F0A4F92068016921F4904101612068C2
:100FE000416921F02A0141612068C16841F4005142
:100FF000C1602564202084F83D0084F83E00002074
:1010000070BD000030B585B00024009401940294B6
:1010100003940068184988422CD11848816941F42A
:1010200080418161816901F480410491816941F0CD
:10103000040181618069124D00F0040004904FF4B6
:10104000007000900220019003200390694628461A
:10105000FFF762FA2815CDE9000469462846029494
:10106000FFF75AFA002211462520FFF7CFFB252073
:10107000FFF7BEFB05B030BD003801400010024054
:1010800000080140704790F83D30202B18D1A9B1DD
:10109000A2B190F83C30012B12D001628284C2844C
:1010A00000210164212280F83D2080F83C10006876
:1010B000C16841F08001C160002070470120704785
:1010C000022070477047FEE7F0B585B0002527483D
:1010D0000095019502950395816941F010018161A8
:1010E000816901F010010491816941F0040181617D
:1010F000816901F004010491816941F00801816175
:1011000080691B4F00F00800012204901146384608
:10111000FFF70BFB174E7814CDE9000669460295E0
:101120001548FFF7F9F90124CDE90046694613484F
:101130000295FFF7F1F90320CDE9024000946946DA
:1011400001943846FFF7E8F9002211460620FFF720
:101150005DFB0620FFF74CFB002211462820FFF71D
:1011600055FB2820FFF744FB05B0F0BD00100240FE
:10117000000C014000001110001001400008014067
:101180000C4810B50A4901604FF4E131416000217B
:1011900081600C22C160C0E904128161C161FFF766
:1011A000FFFE002803D0BDE81040FFF7E5B810BDF2
:1011B0000038014040000020FEE7FEE7704770471E
:1011C000FFF7BEBA30B58FB028216846FFF71EF88A
:1011D00014210AA8FFF71AF801210804CDE900102C
:1011E0000024029402250491CDE907504FF4E01049
:1011F00009906846FFF728FC08B172B6FEE70F2099
:10120000CDE90A054FF48060CDE90C4002210AA81F
:101210000E94FFF72DFB002801D072B6FEE70FB049
:1012200030BD704710B5406A0021C185C184FFF709
:10123000B0FD10BD0168CA6822F49072CA600168EE
:101240004A6922F001024A61016B012904D1016857
:10125000CA6822F01002CA60202180F83E100021E6
:101260000163704708B590F83E10222901D0022092
:1012700008BD82684FF480539A4201D1016921B1BF
:10128000816A9A421BD04AB10AE00268816A5268B8
:10129000C2F308020A80816A891C08E0026972B1FF
:1012A0000268526802F07F020A70816A491C8162FA
:1012B000C18D491E0904090CC18503D019E00268DB
:1012C0005268F1E70168CA6822F02002CA6001682A
:1012D000CA6822F48072CA6001684A6922F0010279
:1012E0004A61202180F83E10016B012903D0FFF7ED
:1012F000C9FE002008BD002101630168CA6822F010
:101300001002CA6001680A68D20602D50A684968F4
:101310000091818DFFF73CFDEBE7000070B50446BE
:1013200000680169E26821F44051114301612169BB
:10133000A0680843616908432168CA6841F20C63E8
:101340009A430243CA6020684169A26921F440714E
:10135000114341611E492068884202D1FFF72EFBEC
:1013600001E0FFF71BFB00EBC00101EB001260681E
:1013700064218000B2FBF0F3B3FBF1F36FF01806C9
:101380007343B2FBF0F5B2FBF0F605EB83053223B5
:1013900003EB0515B5FBF1F5B6FBF1F605F0F0052D
:1013A00005EB0615B2FBF0F6B2FBF0F0B0FBF1F086
:1013B0006FF01802504306EB800003EB0010B0FB07
:1013C000F1F0216800F00F002844886070BD000033
:1013D000003801400148FFF7DDBC0000400000205C
:1013E000FEE70907090E002804DB00F1E02080F881
:1013F0000014704700F00F0000F1E02080F8141D89
:1014000070470000FFF7A4F9FFF7DCFEFFF75CFE72
:10141000FFF7B6FE494D4A4E4A4C6F140121204653
:10142000FFF776F9012827D139463046FFF770F9E2
:1014300010BB1420FFF75EF84FF4FA7816E0052091
:10144000FFF758F801212846FFF767F94046FFF7F4
:1014500051F801212846FFF760F94046FFF74AF8A6
:1014600039463046FFF754F9012805D001212046BE
:10147000FFF74EF90028E2D039463046FFF748F929
:10148000012825D101212046FFF742F900BB142095
:10149000FFF730F816E00520FFF72CF80121284669
:1014A000FFF73BF97D20FFF725F801212846FFF7DC
:1014B00034F97D20FFF71EF801212046FFF728F9B7
:1014C000012805D039463046FFF722F90028E2D03E
:1014D00039463046FFF71CF901289FD101212046EB
:1014E000FFF716F9012899D11420FFF703F81DE042
:1014F0000520FEF7FFFF01212846FFF70EF93220F5
:10150000FEF7F8FF01212846FFF707F93220FEF722
:10151000F1FF01212046FFF7FBF8012806D13946EB
:101520003046FFF7F5F801283FF478AF0121204657
:10153000FFF7EEF80028D0D1DAE70000000C0140F8
:101540000010014000080140000000000000000001
:101550000102030406070809000000000102030459
:101560008015000800000020400000006C01000809
:10157000C015000840000020A806000088010008EF
:101580006D6F646520310A00000000000000006DEE
:101590006F646520320A00000000000000006D6FDB
:1015A000646520330A000000000000000000000015
:1015B0000100000010000000000000000024F40002
:0400000508000131BD
:00000001FF
