:020000040800F2
:1000000090050020010100085331000881220008FA
:1000100051310008BF0A0008DD330008000000006D
:100020000000000000000000000000005731000840
:10003000D90A0008000000005531000859310008B5
:100040001B0100081B0100081B0100081B01000820
:100050001B0100081B0100081B0100081B01000810
:100060001B0100081B0100081B0100081B01000800
:100070001B0100081B010008C10A0008CD0A000886
:100080001B0100081B0100081B0100081B010008E0
:100090001B0100081B0100081B0100081B010008D0
:1000A0001B0100081B0100081B0100081B010008C0
:1000B0001B0100081B0100081B0100089122000819
:1000C000852200081B0100081B0100081B01000815
:1000D0001B010008D13300081B0100081B010008A8
:1000E0001B0100081B0100081B010008DFF80CD0F1
:1000F00000F082FC00480047D5520008900500201F
:100100000648804706480047FEE7FEE7FEE7FEE7B1
:10011000FEE7FEE7FEE7FEE7FEE7FEE7BB3100088D
:10012000ED0000082DE9F0410024061B254671F181
:10013000000605DA01240027D0EB070067EB010178
:10014000161E73F1000605DA0027D2EB070201251F
:1001500067EB030300F022FB86460E4617469C46DB
:10016000AC4204D00025D0EB050E65EB010624B1AE
:100170000020D2EB000760EB030C704631463A4694
:100180006346BDE8F081202A04DB203A21FA02F020
:100190000021704721FA02F3D040C2F120029140C1
:1001A000084319467047D2B201E000F8012B491EFE
:1001B000FBD270470022F6E710B513460A46044604
:1001C0001946FFF7F0FF204610BD30B50446002069
:1001D000034600E05B1C934203D2E05CCD5C401B15
:1001E000F8D030BDF0B480EA0102D40F4200B2EB87
:1001F000410F02D20246084611464A0042D0C30DC2
:10020000DDB2C1F3C752AD1A202D35DAC1F31601A4
:1002100041F4000204B15242C5F1200602FA06F18F
:100220002A411044B3EBD05F23D0C4B1012DA0EB21
:10023000C35009DCF0BC4FF0004202EAC352DBB20B
:1002400000F5000000F005BB400000F1807000EBFD
:10025000C350A0F1807040EAD170490009E049081C
:1002600041EAC071A0EBC35000F50000400800EB6C
:10027000C350F0BC00F0E4BA6142012202EB41013C
:10028000001BF6E7F0BC704781F00041AAE780F060
:100290000040A7E780EA010210B502F000434000E9
:1002A00022D04A001FD0010E01EB1261C0F35600AC
:1002B000C2F3560240F4000042F40002A0FB022008
:1002C00000047F39140400D0401C50EA124001D4CD
:1002D0004000491EC2B20C0604EBD010401C40087E
:1002E000802A02D003E0002010BD20F00100002988
:1002F00000DA0020184310BD30B480EA010202F099
:10030000004530F0004221F0004013D090B1C30D01
:10031000D40DC2F31601C0F31600E41A41F4000133
:1003200040F400027D34914201D3641C00E0490096
:10033000002C02DA30BC002070474FF4000000238C
:10034000914201D3891A034340084FEA4101F7D192
:1003500051B1914202D14FF0004105E002D24FF07D
:10036000010101E06FF0010103EBC450284430BCEF
:1003700000F066BA420005D0C0F3C7525242914223
:1003800001DC0020704700EBC15070472DE9FE4FA3
:10039000804681EA0300C00F0C46009021F0004126
:1003A00023F00045B8EB0200A94105D240462146A2
:1003B00090461C460B46024623F00040104347D0AF
:1003C000270DC7F30A00C3F30A510290401A0190A7
:1003D00040286BDAC3F3130040F4801B0098924668
:1003E00020B10023D2EB030A63EB0B0B01985946B3
:1003F000C0F14002504600F002FA06460D46504653
:100400005946019A00F00AFA10EB080061410024F5
:1004100087EA115284EAE7731A4340D0009A62B324
:10042000019A012A4FEA075215DC001B61EB020119
:100430004FF0004202EA0752CDE90042001C41F5AC
:10044000801132462B4600F041FA03B0BDE8F08F30
:1004500040462146F9E7001B61EB0201001C41F513
:10046000801300185B412018A2F5001747EB030129
:1004700040EAD570B6196D4111E06D084FEA3606B5
:1004800045EAC0754FEA0752001B61EB0201001CF0
:1004900041F5801149084FEA3000001951413246B8
:1004A0002B4603B0BDE8F04F00F001BA00980122DE
:1004B00040000023D0EB020263EBE073009821467A
:1004C0004FEAE074B8EB000061EB0401E9E783F068
:1004D00000435BE781F0004158E72DE9FE4F81EAD8
:1004E000030404F0004421F0004100944FF0000B9D
:1004F00023F0004350EA01045ED052EA03045BD0CB
:10050000C3F30A54C1F30A552C44A4F2F334019402
:10051000A0FB0254C1F3130141F48011C3F3130390
:1005200043F4801301FB024400FB034E840A970A44
:1005300044EA815447EA8357A4FB076802958D0A71
:1005400005FB07854FEA932C04FB0C542705029DFD
:100550004FEA065847EA1637B5EB08056EEB070C6D
:10056000870E920E47EA811742EA8312A7FB020127
:10057000B6EB0B0164EB00042B0D43EA0C335E1861
:1005800044EB1C50DA465146E7FB0201C5F3130465
:100590004FEA0B3343EA14534FEA0432019C43EA17
:1005A0000603A4F10C040294009CCDE900B400F011
:1005B0008DF903B0BDE8F08F00200146F9E72DE981
:1005C000F04D81EA030404F0004B21F0004514468D
:1005D0004FF0000A23F0004150EA050220D054EA0F
:1005E00001021DD0C5F30A570246C5F31303C1F338
:1005F0001300C1F30A5640F4801543F48013A7EBAF
:100600000608101BD64608F2FD3873EB050002D32E
:1006100008F1010801E092185B41B8F1000F03DA1C
:1006200000200146BDE8F08D00204FF48011064601
:1006300084460EE0171B73EB050705D3121B63EB13
:10064000050306434CEA010C49084FEA30009218B2
:100650005B4150EA0107EDD152EA030012D082EA71
:10066000040083EA0501084305D0101BAB4106D204
:100670000122002306E000224FF0004302E06FF069
:10068000010253101AEB06004CEB085110EB0A0064
:1006900041EB0B01BDE8F04D00F009B9C10F80EA54
:1006A000E0700844CA079623002100F0D2B89623D0
:1006B0000022114600F0CDB800F0004220F00040CA
:1006C000C10DC0F3160040F400007F2901DA0020BC
:1006D0007047962903DCC1F19601C84001E09639C4
:1006E0008840002AF4D04042704720F00040C10DFD
:1006F000C0F3160040F400007F2901DA00207047A3
:10070000962903DCC1F19601C840704796398840AC
:10071000704700F0004230F000400AD0C10D01F5F2
:100720006071C0F3160042EA0151C208400711434C
:10073000704700200146704701F0004330B421F0BB
:10074000004150EA010206D00A0DA2F56072C1F321
:100750001301002A02DC30BC00207047440F44EA39
:10076000C104C100E01830BC00EBC25000F068B812
:1007700030B50B46014600202022012409E021FA71
:1007800002F59D4205D303FA02F5491B04FA02F56E
:100790002844151EA2F10102F1DC30BD2DE9F05F05
:1007A0000546002092469B468846064681464024E0
:1007B0001BE02846414647462246FFF7E4FC5346E5
:1007C0005A46C01A914110D311461846224600F0ED
:1007D00016F82D1A67EB01084F462246012000212A
:1007E00000F00DF817EB00094E41201EA4F10104A2
:1007F000DFDC484631462A464346BDE8F09F202AC2
:1008000004DB203A00FA02F1002070479140C2F167
:10081000200320FA03F3194390407047202A06DB97
:10082000CB17203A41FA02F043EAE07306E041FABE
:1008300002F3D040C2F120029140084319467047AC
:100840000029A8BF7047401C490008BF20F00100E4
:10085000704710B4B0FA80FC00FA0CF050EA0104C2
:1008600004BF10BC704749B1CCF1200421FA04F454
:1008700011FA0CF118BF012121430843A3EB0C012D
:10088000CB1D4FEA00614FEA102042BF002010BC90
:10089000704700EBC35010440029A4BF10BC704740
:1008A000401C490008BF20F0010010BC704710B583
:1008B000141E73F1000408DA401C41F10001921883
:1008C0005B411A4301D120F0010010BD2DE9F04D2C
:1008D00092469B4611B1B1FA81F202E0B0FA80F281
:1008E00020329046FFF78BFF04460F4640EA0A008D
:1008F00041EA0B0153465A46084313D0114653EAC6
:10090000010019D0C8F140025046FFF73CFC0546F3
:100910000E46504659464246FFF771FF084305D040
:10092000012004E020463946BDE8F08D0020054353
:1009300046EAE0762C4337430A986305E40AA0EBC5
:1009400008000022FD0A44EA47540A3002D500207C
:100950000146E9E7010510196941DDE9084500197B
:100960006941BDE8F04DA2E770B521F000430343B3
:100970000CD0C1F30A550024D5EB040564EB040345
:10098000D617AD1AB34102DB0020014670BD201816
:1009900041EB025170BDC1F30A52C1F3130140F2A1
:1009A000FF3341F480119A4202DA00200146704779
:1009B00040F233439A42A2F2334202DC5242FFF742
:1009C000E2BBFFF71CBF000030B5041E71F100044C
:1009D00004DB4FF00044404264EB0101141E73F14C
:1009E000000405DB1C464FF00043524263EB040356
:1009F000994208BF904230BD064C074D06E0E068C2
:100A000040F0010394E8070098471034AC42F6D355
:100A1000FFF770FB70710008907100082DE9F04D30
:100A200000231A461B1A8A4103DB00200146BDE859
:100A3000F08DC1F30A52C1F3130141F480154FF058
:100A4000000BD10702D100186D41521E0027044649
:100A500040F2FF11384601EB620A3E4680460246EC
:100A600000204FF48011FFF78EFBC2197141BB18B3
:100A700046EB0100B4EB030C75EB000C04D3E41A55
:100A800065EB000517460E46241908F101006D417B
:100A900080463428E3DDF91946EB0600091BA8411E
:100AA00003D24FF0FF32134601E0002213461BEB46
:100AB000070046EB0A51BDE8F04DFFF7F8BEFEE730
:100AC000014800F07FB8000048010020014800F014
:100AD00079B8000004010020704772B6FEE710B537
:100AE00090F821100022022905D00421816380F8AA
:100AF0002020012010BD01680B6823F00E030B605D
:100B000001680B6823F001030B6090F84030C46B60
:100B1000012101FA03F3636080F8211080F820209E
:100B2000104610BD10B590F821100024022903D002
:100B30000421816301243DE001680A6822F00E026D
:100B40000A6001680A6822F001020A601A4A016814
:100B5000914201D1012121E0174A1432914201D181
:100B600010211BE0144A2832914201D1891515E069
:100B7000114A3C32914201D189140FE00E4A5032A1
:100B8000914202D14FF4803108E00B4A6432914225
:100B900002D14FF4801101E04FF08071064A083A0B
:100BA0005160012180F82110002180F82010416B54
:100BB00001B18847204610BD0800024090F821008E
:100BC000704700002DE9F05FC16B0C6801680B688D
:100BD000D0F840C0042202FA0CF2494DDFF824A1FB
:100BE000494E4A4FDFF828B1DFF828E122422CD0E5
:100BF0005A072AD50A68920603D40A6822F004022A
:100C00000A600168A94201D1042219E0514501D1CD
:100C1000402215E0B14202D14FF4806210E0B942A7
:100C200002D14FF480420BE0594502D14FF48022AB
:100C300006E0714502D14FF4800201E04FF080627E
:100C40002F4908394A60C16A3BE04FF0020808FAB0
:100C50000CF818EA040F4FF000094FF0010235D0EC
:100C60005FEA837832D50B689B0605D40B6823F0C6
:100C70000A030B6080F821200168A94201D10222F9
:100C800019E0514501D1202215E0B14202D14FF4C3
:100C9000007210E0B94202D14FF400520BE0594506
:100CA00002D14FF4003206E0714502D14FF4001238
:100CB00001E04FF00072124908394A6080F8209034
:100CC000816A00291AD0BDE8F05F0847082505FAB7
:100CD0000CF5254212D01B0710D50B6823F00E032C
:100CE0000B6090F84010C36B02FA01F15960826307
:100CF00080F8212080F82090016BE2E7BDE8F09FAA
:100D0000080002401C000240300002404400024043
:100D1000580002406C00024030B528B308C813499F
:100D200014221944B1FBF2F18900C16310498163B7
:100D3000022141771A6843F6F0718A43D0E9001422
:100D40002143D0E902452C432143046921434469EE
:100D50002143846921431143196000214163012229
:100D600042770177084630BD012030BDF8FFFDBF56
:100D70000000024070B5044600F0FEF80546601C15
:100D800002D004480078044400F0F6F8401BA0426A
:100D9000FAD370BD440000202DE9F84FDFF8B89178
:100DA000002409F1040A0AF1040B23460F270BF172
:100DB000040EC9E00125A5402A40AA427DD1674E14
:100DC000D1F804C0ACEB0608B44532D014DCBCF159
:100DD000030F3AD009DCBCF1000F2AD0BCF1010F9F
:100DE0001CD0BCF1020F31D11DE0BCF1110F17D0A6
:100DF000BCF1120F2AD119E0B8F5881F19D006DC12
:100E0000B8F5803F15D0B8F5801F1FD111E0B8F5B7
:100E1000001F0ED0B8F5041F18D10AE0CB6815E00A
:100E2000CB681B1D12E0CB6808330FE0CB680C3396
:100E30000CE08B682BB1012B4FF0080303D0456108
:100E400004E0042302E0056100E00023FF2A01D84A
:100E5000064601E000F104064FEA840501D9A5F138
:100E60002005D6F8008007FA05FC28EA0C0803FAEA
:100E700005F548EA0508C6F800804D68ED0062D522
:100E8000374DAE6946F00106AE61AD6924F0030648
:100E900005F001050095334D06EB050CDCF8085014
:100EA000A607360F07FA06F825EA0805DFF8B88026
:100EB000404503D14FF0000817E044E0DFF8AC8074
:100EC000404502D14FF001080FE0DFF8A480404513
:100ED00002D14FF0020808E0DFF89880404502D1C7
:100EE0004FF0030801E04FF0040808FA06F848EA5A
:100EF0000508CCF808804D68D9F80060ED034D4630
:100F000001D5164300E096432E604D68DAF8006084
:100F1000AD03554601D5164300E096432E604D685B
:100F2000DBF80060ED025D4601D5164300E0964314
:100F30002E604D68DEF80060AD02754601D516439F
:100F400000E096432E60641C0D682A46E5407FF45D
:100F500031AFBDE8F88F000000040140000011101F
:100F6000001002400000014000080140000C014058
:100F700000100140001401400148806870470000E3
:100F800044000020704770472DE9F0410168044695
:100F90004A694E6890F83E000025D743FA050BD405
:100FA000F243D20508D46FF4807201254A612168AA
:100FB0000A6842F400420A60B90508D4F143C90541
:100FC00005D422686FF4007145F00205516179057E
:100FD00025D4F143C90522D4638D94F83D10226BCA
:100FE000202808D13BB9212910D029290ED0282941
:100FF00001D1212A0AD022686FF48061516145F045
:101000000405102806D0402804D008E0204601F04E
:1010100019FE04E02068016841F4007101603805A0
:1010200008D4F043C00505D421686FF4006045F092
:1010300008054861002D07D0206C28432064204615
:10104000BDE8F04101F088B9BDE8F0812DE9F04735
:10105000026800215368C66A90F83E4090F83D50FF
:10106000102C12D0402C10D0046C002C7DD0546970
:10107000E443A6077AD4DE43B60577D4036C03B104
:101080009169BDE8F04701F0B9BD976951694FF426
:101090002A0CC9435FEAC1784FF02A4904D066455B
:1010A0002AD04E4528D010E0DE43B6050DD4C16AE3
:1010B000614501D1012103E0C16A494501D10821FF
:1010C000C162BDE8F04701F031BC0E0716D4DE4323
:1010D000B60513D4416CC9B21161416B09B1896A7B
:1010E00029B9816B002907D0896A002904D00068DA
:1010F000416841F400614160BDE8F0878E0706D485
:10110000DE43B60503D4BDE8F04701F063BBFE4300
:10111000526876074FEA02521DD4002AECDB0A0619
:1011200008D4DA43520505D4490705D5BDE8F04790
:1011300001F0F4BA4907DFD4D9438905DCD4212D65
:1011400005D0402CD8D1BDE8F04701F035BCBDE852
:10115000F04701F0A1BA002ACEDB4A060BD4DA43ED
:10116000520508D4490708D501E00DE00EE0BDE8BE
:10117000F04701F01DBA4907BED4D9438905BBD455
:10118000BDE8F04701F0ABB9916970E7E10606D41C
:10119000D943890503D4BDE8F04701F095BD282166
:1011A000212D27D0292D25D0650655D4DD436D0589
:1011B00052D4640752D590F83D30448D002C9BD01A
:1011C0001269446A2270426A521C4262428D521E67
:1011D0004285428D002A8FD12A2B8DD10268536817
:1011E00023F4806353602222026380F83D1000F0F4
:1011F00019FB81E7250623D4DD436D0520D4640760
:1012000020D590F83D30448D002CF2D0446A2478EB
:101210001461426A521C4262428D521E4285428DC6
:10122000002AE6D1292BE4D10268536823F48063B5
:1012300053602122026380F83D1000F0F4FA5BE76E
:101240006107D6D4D9438905D3D4418D0029D0D0A4
:10125000416A097811610AE06107CAD4D943890556
:10126000C7D4418D0029C4D01169426A1170416A06
:10127000491C4162418D491E41853DE77047000090
:1012800070B5040025D094F83D00002520B984F8FD
:101290003C50204600F07EFA242084F83D0020686F
:1012A000016821F0010101602068016841F40041FA
:1012B00001602068016821F40041016000F0E2FB58
:1012C0004D4A6168914201D84C4900E04C4988423E
:1012D00001D2012070BD4B492368B0FBF1F15E687B
:1012E00026F03F060E435E606368934206D94FF4D2
:1012F000967359434FF47A73B1FBF3F12368491C99
:101300001E6A26F03F06314319626168914210D887
:101310004900401EB0FBF1F2521CC2F30B02042A3A
:1013200001D2042022E0B0FBF1F0401CC0F30B001E
:101330001CE0A268F2B301EBC10303EB0116431EEC
:10134000B3FBF6F35B1C43F480431B0549D092B317
:1013500001EBC10202EB0111401EB0FBF1F0401C99
:10136000C0F30B0040F4804040F400402168CA699B
:101370004CF6FF739A431043C861D4E90710014348
:101380002068026822F0C00211430160D4E9030121
:1013900001432068826848F2FF339A431143816019
:1013A000D4E9050108432168CA6822F0FF0210430E
:1013B000C86001E00EE016E02068016841F001011C
:1013C00001602564202084F83D00256384F83E50A8
:1013D000002070BD01EB4106431EB3FBF6F35B1C1E
:1013E000B3E70120C2E701EB4101401EB0FBF1F081
:1013F000401CC0F30B00B7E7A086010080841E00EC
:1014000000093D0040420F00704770477047704729
:10141000704700002DE9FF4F83B00025DDE910790A
:101420009A4693460446DDF848800095FFF7A4FDF0
:10143000064694F83D0020287CD1192301228549D5
:101440002046009601F014FD0028F5D194F83C00E8
:1014500001286FD0012084F83C0020680168C9078A
:1014600003D1016841F0010101602068016821F4A5
:1014700000610160222084F83D00402084F83E0095
:1014800025646762A4F82A90608D20857248E06226
:10149000CDE9008653465A462046049901F0DCFA0D
:1014A00000287DD1208DDFF8B491202768B1012874
:1014B00014D00228206801681ED041F480610160C8
:1014C0002068416980690090B6E0206841698169BF
:1014D0000091016841F400710160ADE0206801688D
:1014E00021F48061016072B62068416981690091D0
:1014F000016841F400710AE041F40061016072B6D4
:101500002068416981690091016821F4806101606E
:1015100062B691E0032868D801280CD0022843461F
:101520004FF000024946204600960FD001F0A0FC83
:10153000B0BB10E08BE032464146204601F017FD7B
:1015400070BB20680069616A08706CE001F090FC73
:1015500030BB72B634E02068016821F4806101601C
:1015600072B620680069616A0870606A401C606237
:10157000208D401E2085608D401E6085384846F2D3
:10158000A8110068B0FBF1F0C0EBC00000EB8000D8
:101590000090401E009008D020684069C04300E0E1
:1015A00029E040070CD50098F3E744F8305F6773F3
:1015B000A573206940F02000206162B625731AE00F
:1015C0002068016841F40071016020680069616A67
:1015D0000870606A401C6062218D491E2185618D02
:1015E000491E618562B621681BE0324641462046AD
:1015F00001F0BDFC18B1012007B0BDE8F08F2068F4
:101600000069616A0870606A401C6062218D491E31
:101610002185618D491E618521684A69D24352073F
:101620000AD409690170606A401C6062208D401E06
:101630002085608D401E6085208D00287FF46AAF74
:1016400084F83D7084F83E5084F83C50D4E7022082
:10165000D2E70000020010000000FFFF04000100BC
:10166000500000202DE9FF4F83B09A46DDE9119725
:1016700093460446DDF84080FFF77EFC054694F86B
:101680003D0020287FD119230122404920460095A2
:1016900001F0EEFB002876D194F83C00012872D0CE
:1016A000012084F83C0020680168C90703D1016863
:1016B00041F0010101602068016821F400610160CE
:1016C000212084F83D00402084F83E000026266456
:1016D000C4F82480A4F82A90608D20852C48E0620C
:1016E000CDE9007553465A462046049901F032FA76
:1016F00070B930E02A463946204601F06BFC58B1FB
:10170000206C042804D12068016841F40071016054
:10171000012007B0BDE8F08F606A21680078086199
:10172000606A401C6062218D491E89B22185628DEC
:10173000521E628522685369DB435B070BD469B193
:1017400000781061606A401C6062208D401E208518
:10175000608D401E6085208D0028CBD12A463946F9
:10176000204601F05FFB0028CAD154F83D0B016808
:1017700041F400710160202004F81E09E6776677C5
:101780000020C6E7FFE70220C3E7000002001000C8
:101790000000FFFF10B586B0002100910191029179
:1017A000039100681B49884232D11B4CA06940F06C
:1017B0000800A061A069694600F0080004904FF499
:1017C0004070009012200190032003901348FFF70F
:1017D000E3FA1348416841F0E06141F002014160E1
:1017E000E06940F40010E061E069002200F40010BC
:1017F000049011461F2000F07DF81F2000F06CF8C7
:1018000000221146202000F075F8202000F064F836
:1018100006B010BD0054004000100240000C014012
:101820000000014070477047024881680278114407
:101830008160704744000020074810B5016841F0FE
:1018400010010160032000F075F80F2000F006F889
:1018500000F024F8002010BD0020024070B50D4DAE
:1018600004464FF47A712878B1FBF0F00A49096810
:10187000B1FBF0F000F0ECFA48B9102C07D20022CE
:101880002146501E00F036F800206C6070BD01202B
:1018900070BD000044000020500000200C4808B536
:1018A000816941F001018161816901F001010091CB
:1018B000C16941F08051C161C06900F08050009061
:1018C0000448416821F0E06141F00071416008BDC9
:1018D0000010024000000140002809DB00F01F0258
:1018E000012191404009800000F1E020C0F8001182
:1018F00070470000F0B40E4B1B680C46C3F3022384
:10190000C3F10705042D00D90425191D072901D2AB
:10191000002300E0DB1E012606FA05F1491E2140E6
:1019200099409E40761E16403143F0BC01F07CBDCC
:101930000CED00E0064900F0070208684FF6FF03CF
:10194000184040EA0220034A104308607047000034
:101950000CED00E00000FA052DE9F0470F46050008
:1019600061D0434E306800F00700B84209D23068B9
:1019700020F0070038433060306800F00700B842BC
:1019800051D128683B4C810712D5400703D56068C8
:1019900040F4E06060602878000703D5606840F498
:1019A000605060606068A96820F0F00008436060E3
:1019B0002878C00728D06868012810D0216802283C
:1019C00010D0890700292EDA616821F00301014354
:1019D0006160FFF7D1FA804641F288390DE0216855
:1019E0008903EFE78901EDE7FFF7C6FAA0EB0801ED
:1019F000494502D90320BDE8F0876068696800F0B6
:101A00000C00B0EB810FEFD1306800F00700B84256
:101A10000BD9306820F0070038433060306800F0A0
:101A20000700B84201D00120E5E72878400705D536
:101A30006068E96820F4E060084360602878000787
:101A400006D56068296920F4605040EAC1006060F2
:101A500000F038F86168084AC1F30311515CC840CE
:101A60000649086006480068FFF7F8FE0020C2E754
:101A700000200240001002401270000850000020B8
:101A8000480000200448054900684968044AC1F339
:101A90000221515CC84070475000002000100240F5
:101AA000227000080448054900684968044AC1F3E7
:101AB000C221515CC8407047500000200010024015
:101AC0002270000812A185B00FC98DE80F0014A084
:101AD000144A006804905168134801F00C03042B69
:101AE00010D0082B0ED1C1F38343C9031DF80300A6
:101AF0000AD5516804AAC1F34041515C0A4A5043D7
:101B0000B0FBF1F005B0704708494843FAE7000020
:101B100002030405060708090A0B0C0D0E0F10102E
:101B2000010200000010024000127A0000093D008E
:101B30002DE9F84F040070D02078C04DC00749D07F
:101B40006868C0F38100012807D06868C0F381008D
:101B5000022809D16868C00306D52868800339D5F2
:101B600060680028E7D035E06068B0F5803F0BD0B2
:101B700010B1B0F5A02F11D0286820F48030286073
:101B8000286820F4802002E0286840F48030286033
:101B9000606890B1FFF7F0F906460AE0286840F463
:101BA00080202860F0E700BFFFF7E6F9801B64287B
:101BB00073D828688003F7D50CE0FFF7DDF90646F7
:101BC00005E000BFFFF7D8F9801B6428F0D828682B
:101BD0008003F7D420789A4E80074FF001094FF028
:101BE000000839D5686810F00C0F07D06868C0F39A
:101BF0008100022809D16868C00306D428688007DC
:101C000014D52069012808D110E02069B0B1C6F8C8
:101C10000090FFF7B1F9074605E00AE1FFF7ACF9DC
:101C2000C01B0228C4D828688007F7D528686169D6
:101C300020F0F80040EAC10028600DE0C6F80080FE
:101C4000FFF79AF9074604E0FFF796F9C01B022850
:101C500023D828688007F7D4207800072CD5794846
:101C6000A169D9B1C0F80090FFF786F9074604E0F2
:101C7000FFF782F9C01B02280FD8686A8007F7D5E2
:101C800071484FF4FA510068B0FBF1F0009000BFCA
:101C90000098411E0091FAD20EE080E0C0F800806A
:101CA000FFF76AF9074604E0FFF766F9C01B022850
:101CB00075D8686A8007F7D42078400760D5E8694E
:101CC0000027C00008D4E86940F08050E861E86966
:101CD000012700F0805000905C480168C90513D4CA
:101CE0000168834641F480710160FFF745F982463F
:101CF00006E000BFFFF740F9A0EB0A0064284ED8C9
:101D0000DBF80000C005F5D5E06801280AD008B16D
:101D1000052813D0286A20F001002862286A20F0E4
:101D2000040002E0286A40F001002862E06841F205
:101D3000883B98B1FFF720F982460BE0286A40F013
:101D400004002862EEE700BFFFF716F9A0EB0A01D6
:101D500059455AD8286A8007F6D50CE0FFF70CF9E8
:101D6000824605E0FFF708F9A0EB0A0159454CD877
:101D7000286A8007F6D41FB1E86920F08050E86136
:101D8000E06988B36968C1F38101022944D002285F
:101D9000C6F8608004D0FFF7EFF8044638E034E07E
:101DA000FFF7EAF8074604E0FFF7E6F8C01B022851
:101DB0002BD828688001F7D4206AB0F5803F05D180
:101DC0006868A16820F4003008436860D4E908011D
:101DD0000843696821F4741108436860C6F860908C
:101DE000FFF7CAF8044606E025E000BFFFF7C4F895
:101DF000001B022809D828688001F7D51BE000BF26
:101E0000FFF7BAF8001B022802D90320BDE8F88FBB
:101E100028688001F4D40EE00128F7D06868226AAF
:101E200000F48031914204D1616A00F4701088425C
:101E300001D00120EAE70020E8E70000001002409E
:101E400000004242800442425000002000700040E6
:101E500010B5401EB0F1807F01D3012010BD4FF0BE
:101E6000E02460610F21601701F0DEFA0020A0611C
:101E700007202061002010BD70477047F8B5026848
:101E800004461068D168536910F00F0F4FF0000539
:101E900053D003F0010601F4907737435FD0C207B7
:101EA00005D0CA0503D5226C42F001022264420724
:101EB00005D5DA0703D0226C42F0020222648207C1
:101EC00005D5DA0703D0226C42F00402226402072F
:101ED00007D501F02002324303D0226C42F0080201
:101EE0002264226C002A34D0800604D5880602D5EC
:101EF000204601F083F920684069216CC0F380100E
:101F0000090700D430B3204601F060F92068416928
:101F100049061BD5416921F040014161A06BA8B180
:101F200058494163A06BFEF7FDFD002811D0A06B5E
:101F3000416B01B0BDE8F040084783060FD58B0622
:101F40000DD52046BDE8F84001F058B92046FFF70E
:101F500094FFF8BD2046FFF790FF2564F8BD266B7F
:101F60002023012E52D1C60650D5CE064ED510687C
:101F700050680090506940062AD5A16B08684068F7
:101F80000004000CEAD0A68D8642E7D9E085886976
:101F9000202818D0D06820F48070D0602068416973
:101FA00021F0010141612068416921F04001416156
:101FB00084F83E3025632068C16821F01001C160BB
:101FC000A06BFEF78CFDA08DE18D401A81B219E067
:101FD000A08DE18D401A81B2E08D0028BED000298D
:101FE000BCD0D06820F49070D0602068426922F0A4
:101FF0000102426184F83E3025632068C26822F005
:102000001002C2602046FFF737FFF8BD05062BD54A
:102010000D0629D594F83D002128F6D1A068B0F529
:10202000805F01D12069B0B1206A411C2162216822
:1020300000784860E08C401E0004000CE084E4D18D
:102040002068C16821F08001C1602068C16841F04A
:102050004001C160F8BD206A0088C0F308005060EC
:10206000206A801C2062E5E74006F3D54806F1D5DA
:10207000D168204621F04001D16084F83D3000F065
:10208000FEF8F8BDBD31000870B5040004D094F826
:102090003D00002510B106E0012070BD84F83C50E1
:1020A000204600F023F8242084F83D002068C16811
:1020B00021F40051C160204601F0FCF8206801695C
:1020C00021F4904101612068416921F02A014161B8
:1020D0002068C16841F40051C1602564202084F863
:1020E0003D0084F83E00002070BD0000F0B585B0D2
:1020F00000240646009401940294039400682D493C
:10210000884254D12C48816941F4804181618169C0
:1021100001F480410491816941F004018161806989
:10212000264D00F0040004904FF40070009002204F
:1021300001900320039069462846FEF72DFE2815DE
:10214000CDE90004694628460294FEF725FE1D4DA0
:102150001B488027C5E90004C5E902472C616C6172
:10216000AC612846EC61FEF7D7FD08B1FEF7B5FC7F
:10217000B5636E62134D12484435143801C5102002
:1021800091C5104845F8104944306C61AC61EC6170
:10219000FEF7C2FD08B1FEF7A0FC756300221146F0
:1021A00025206E62FFF7A6FB2520FFF795FB05B003
:1021B000F0BD00000038014000100240000801405E
:1021C0005800024004010020704700002DE9F84348
:1021D000044690F83D001F4616460D4620284CD177
:1021E000C5B1BEB194F83C00012846D0012084F866
:1021F0003C004FF00008C4F84080212084F83D00E6
:10220000FEF7BAFEA6848146E684A068B0F5805F3A
:1022100003D004E00120BDE8F883206928B12E46F0
:102220005FF0000584F83C800EE00026FAE780218C
:10223000204601F09BF8A0B9AEB116F8010B216859
:102240004860E08C401EE084E08C4B464FF000027A
:1022500000970028EBD14FF04001204601F086F8AE
:1022600030B10320D7E735F8020BC0F30800E6E7EA
:10227000202084F83D000020CDE70220CBE7704706
:10228000FEE700000148FEF77FBE00006C00002062
:102290000148FEF7DBBE00006C00002038B5406A44
:1022A000002190F83D202B4B46F2A8141B68B3FB8D
:1022B000F4F3C3EBC30303EB830300933BB15B1E57
:1022C000009303681B689B0505D5009BF6E7036C2C
:1022D00043F020030364436B03B19962836B03B142
:1022E000996203681C6824F480641C604185436B18
:1022F00003B15963836B03B1596303681C6824F00D
:1023000001041C6090F83D402023602C0BD0282451
:1023100034EA02020FD080F83D3080F83E1000BF52
:10232000FEF7ACFF38BD80F83D3080F83E10016408
:10233000FEF728FE38BD0268136843F001031360FE
:102340000268136843F480631360016380F83D40C2
:10235000E6E700005000002070B5044690F83D000C
:1023600094F83E10102901D0402906D1222804D12A
:1023700021680A6822F400620A60282131EA00021A
:102380004FF000054FF0200626D021684968090566
:1023900005D4602803D084F83D6084F83E5025635E
:1023A00020684168090537D5416821F40061416022
:1023B000606B3D4990F82120012A11D04163606B88
:1023C000FEF7B0FB38B32068016821F0010101601D
:1023D00084F83D60606B1CE0256384F83D10DFE706
:1023E000A06B4163A06BFEF79DFBA0B12068416923
:1023F000C943490605D40069616A0870606A401CD7
:1024000060622068016821F00101016084F83D608C
:10241000A06B416B884710E094F83D10602910D004
:102420004169C943490605D40069616A0870606A58
:10243000401C60622046FEF721FF206CC1071CD1C2
:1024400015E084F83D6025644169C943490605D417
:102450000069616A0870606A401C606220680168F7
:1024600021F0010101602046FEF78CFDE5E78107C0
:1024700003D4410701D4000704D52068416821F442
:10248000E061416094F83D00216C49070BD5282894
:1024900009D10648E062256384F83D6084F83E5027
:1024A0002046FEF7B1FF70BD9D2200080000FFFF2F
:1024B00001684A69D24352050FD46FF480624A61C1
:1024C000002140F8301F202242738173026942F0DC
:1024D000040202610173012070470020704710B5AB
:1024E000C26A438D0168042B06D0438D032B08D0AC
:1024F000438D022B1DD012E04A6822F480624A60AC
:102500000CE04B6823F480634B60042A06D0022A57
:1025100004D001680A6822F480620A6001680969CF
:10252000426A1170416A491C4162418D491E4185D0
:1025300010BD012A30D0102A2ED0042A30D0022A11
:102540002ED00A6842F400720A6001680969426A82
:102550001170416A491C4162428D521E42850268D7
:1025600012690A70416A491C4162418D491E4185C8
:1025700001684A6822F440724A60202180F83D10C8
:1025800090F83E200021402A80F83E100CD0122105
:102590000163FEF73AFF10BD0A6822F48062D3E7B8
:1025A0000A6842F48062CFE70163FEF730FF10BD96
:1025B00038B590F83D10222914D1418D032912D944
:1025C00001680969426A1170416A491C4162418D82
:1025D000491E4185418D032904D10068416821F4D9
:1025E0008061416038BDC26A022AFBD0012901D056
:1025F0000029F7D1274946F2A81300220968B1FB48
:10260000F3F101EB8101009101682023009C641E1D
:10261000009422D00C68A405F8D40C6824F48064DB
:102620000C6001684C6824F4E0644C60016809693E
:10263000446A2170416A491C4162418D491E4185AD
:1026400080F83D3090F83E1080F83E2040291DD0A3
:1026500012210163FEF7D9FE38BD046C44F020045A
:1026600004644C6824F4E0644C6001680969446ABD
:102670002170416A491C4162418D491E418580F8A3
:102680003D3080F83E20FEF7F9FD38BD0263FEF7CD
:10269000BEFE38BD5000002010B5C26A90F83D1053
:1026A00021290BD1418D51B1416A0268097811612C
:1026B000416A491C4162418D491E418510BD20235C
:1026C0000021082A13D0202A11D012F5803F0ED005
:1026D0000268546824F4E06454601122026380F8B4
:1026E0003E1080F83D3000BFFEF790FE10BD02683E
:1026F000546824F4E06454600268146844F400747C
:102700001460016380F83D3090F83E2080F83E1060
:10271000402AE9D1FEF77CFE10BD000010B590F80C
:102720003D1090F83E30C26A048DB4B1212903D027
:10273000402B11D122290FD1418DE1B390F83E10E9
:10274000402942D0416A026809781161416A491CF6
:102750004162418D491E418510BD2129E8D12023C8
:102760000021082A13D0202A11D012F5803F0ED064
:102770000268546824F4E06454601122026380F813
:102780003E1080F83D3000BFFEF740FE10BD0268ED
:10279000546824F4E06454600268146844F40074DB
:1027A0001460016380F83D3090F83E2080F83E10C0
:1027B000402AE9D100E002E0FEF72AFE10BD0068E1
:1027C000416821F48061416010BDBDE8104000F017
:1027D000F3B8000078B590F83E50C26A046B90F8E8
:1027E0003D6000230168222E73D1066D0EB9402D85
:1027F0006FD0056D1DB90569B5F5404F1BD0458DEE
:1028000095B3468D484D012E20D0448D022C4DD0DD
:102810000C6844F480640C6001684C68240579D528
:10282000AA4273D0012A71D0082A6FD0102A6DD025
:10283000202A6BD06EE04A698A6900920A6842F4E5
:1028400080720A60016D491C016578BDAA4214D1ED
:102850000A6822F480620A6001684A68120504D599
:102860000A6822F4806217E0FFE74A698A690092E9
:102870000A6842F400720A6050E0082A10D0202A48
:102880000ED0122C0AD0042A03D0022A01D0102A1A
:10289000E6D10A6842F480620A603BE0012ADFD098
:1028A0000A6822F480620A600168DEE7042A11D017
:1028B000022A0FD0102A0DD00C6844F400640C607A
:1028C00001684C698C6900940C6824F480640C6085
:1028D00008E025E00C6844F480640C6001684C69F1
:1028E0008969009101684C68240517D5AA4207D070
:1028F000012A05D0082A03D0102A01D0202A0DD1A0
:102900004A6842F480524A6008E0FFE74A6842F4AD
:1029100080524A6001684A6989690091036578BDFF
:1029200048698869009078BD0000FFFF90F83E106C
:10293000402910D00169B1F5804F19D0016DA9B3BC
:10294000016D012910D1416C5FF0F10201F4407179
:1029500042EAD11106E0016D0029416C05D0C9B2EF
:1029600041F0010100680161704701F0FE01F9E7E3
:1029700090F83D102129416C09D0C9B241F0010104
:1029800002681161416B29B1896A49B902E001F01D
:10299000FE01F5E7816B0029E6D0896A0029E3D0C2
:1029A0000068416841F4006141607047FFE7416C95
:1029B000F02201F44071CBE710B590F83D10026DA4
:1029C00022B3026D012A2FD0026D022A1DD12229C5
:1029D0002FD0428D0AB1212933D0428D002A14D143
:1029E000212912D101684A6822F4E0624A60016834
:1029F0000A6842F400720A6000210163202280F814
:102A00003D2080F83E10FEF703FD10BDC16C01298A
:102A1000816C02D0C1F3072108E00268C9B21161DC
:102A2000016D891C016510BD816CC9B2026811611C
:102A300004E001680A6842F480720A60016D491C72
:102A4000F0E7416A026809781161416A491C4162F4
:102A5000418D491E418510BD2DE9F84F044600689F
:102A600089460B9D01689846174641F480610160D4
:102A70002068016841F48071016000954FF0011BEE
:102A80000022594620460A9B00F0F2F94FF4007AE2
:102A900040B120680068C00501D5C4F840A00320FB
:102AA000BDE8F88F216809F0FE0008612B4628492F
:102AB00020460A9A00F010FAF0BB2068416980694C
:102AC00000902A4620460A9900F084FA40B1206C12
:102AD00004283AD12068016841F40071016034E0B3
:102AE000FEB2B8F1010F09D02168380A08612A4600
:102AF00020460A9900F06EFA0028E8D120680661A5
:102B00002A4620460A9900F065FA0028DFD120689D
:102B1000016841F480710160009500225946204609
:102B20000A9B00F0A5F90028B3D1216809F0FF0045
:102B300040F00100086100E007E02B460449204610
:102B40000A9A00F0C9F90028AAD00120A8E70000DD
:102B5000020001002DE9F843044600680D46DDE956
:102B6000089701689846164641F4807101604B460B
:102B700000224FF001112046009700F079F948B18A
:102B800020680068C00502D54FF40070206403205F
:102B9000BDE8F883216805F0FE0008613B464A461F
:102BA0001549204600F098F988B920684169806984
:102BB00000903A464946204600F00CFA48B1206C95
:102BC000042804D12068016841F4007101600120EB
:102BD000DEE7F5B2B8F1010F09D02168300A0861CB
:102BE0003A464946204600F0F5F90028E7D120682A
:102BF00005610020CCE700000200010038B50C465A
:102C000090F83D2000212825954302680B4605D009
:102C100051699169009180F83C3038BD556825F4C0
:102C200080655560E243540700D50121120601D5A5
:102C3000828900E0028B80F83C3092B2FEF7A3F963
:102C400038BD00002DE9F04190F83D40C26A0023F4
:102C500020261C4F01686FF48065082A01D0202AC5
:102C600001D1282C04D0212C16D04D61BDE8F08173
:102C7000C7624A6822F4E0624A6001684D610168F7
:102C80000A6822F480620A60036380F83D6080F87D
:102C90003E30FEF7B9FBE9E7C7622122026380F804
:102CA0003D6080F83E304A6822F4E0624A60016884
:102CB0004D6101680A6822F480620A60FEF7B3FD84
:102CC000D4E700000000FFFFF8B590F83D6004462F
:102CD0000068416821F4E061416020680025416995
:102CE0000091016841F0010101602068016821F450
:102CF0008061016020684168090520D5474F222E78
:102D000048D02A2E46D0616B096849686185618D7B
:102D100019B1216C41F004012164416821F4006182
:102D20004160606BFDF74AFF012808D0606B476384
:102D3000606BFDF7F7FE10B1606B416B8847608DEB
:102D400008B320684169C943490708D40069616A2A
:102D50000870606A401C6062608D401E608520685B
:102D60004169C943490608D40069616A0870606A0C
:102D7000401C6062608D401E6085608D18B1206CC3
:102D800040F004002064206C00B32046BDE8F84009
:102D9000FFF7E2BAA16B096849686185618D19B1D5
:102DA000216C41F004012164416821F4006141601B
:102DB000A06BFDF703FF0128C1D0A06B4763A06B98
:102DC000FDF7B0FE0028BAD0A06BB6E72A2E06D1D8
:102DD0002563282084F83D002046FEF723FD94F863
:102DE0003D10202028290DD0216B222901D0222E30
:102DF00007D1256384F83D0084F83E502046FEF755
:102E000011FDF8BD0649E162256384F83D0084F8B0
:102E10003E502046FEF7F8FAF8BD00009D2200085B
:102E20000000FFFF70B516460D4604460DE0204633
:102E3000FFF73EFB08B1012070BD681C05D0FEF70E
:102E40009BF8801BA84207D835B120684069C04371
:102E50004007ECD4002070BD002044F8300F202142
:102E60006173A073216941F0200121612073E2E7C1
:102E70002DE9F0471E4690460D460446C1F307472C
:102E8000DDF8209008E0701C06D0FEF775F8A0EB86
:102E90000900B0420FD876B12068012F18D08069A0
:102EA00025EA00000004000C14D000214145EAD0BE
:102EB0000020BDE8F087002044F8300F2021617326
:102EC000A073216941F02001216120730120F0E706
:102ED0004069E5E70121E9E72DE9F0479A46914687
:102EE0000E46044600254FF02008C1F3074725E0B1
:102EF00020684069C043400514D42068016841F44B
:102F00000071016021686FF480604861256384F876
:102F10003D8084F83E50206C40F00400206484F82A
:102F20003C501FE0B9F1FF3F08D0FEF725F8A0EBB9
:102F30000A0149450CD8B9F1000F09D02068012FCA
:102F400013D0806926EA00000004000C0BD0CFE704
:102F500044F8305F84F80D80A573206940F02000AC
:102F6000206125730120BDE8F0874069EAE72DE97B
:102F7000F041002590460E460446202717E04069A0
:102F8000C043C0060CD454F8301B6FF010004861E9
:102F900044F810596777A577206A2062257717E0F3
:102FA000FDF7EAFFA0EB0800B04208D83EB1206868
:102FB0004169C9434906E2D40020BDE8F08144F8E4
:102FC000305F6773A573206940F02000206125738E
:102FD0000120F2E770B516460D4604460DE0204686
:102FE000FFF766FA08B1012070BD681C05D0FDF737
:102FF000C3FF801BA84207D835B120684069C04391
:103000000006ECD4002070BD002044F8300F2021D1
:103010006173A073216941F0200121612073E2E70F
:103020003EB54000CDE900320A4640F6FF74014645
:10303000029401230148FEF7EDF93EBD6C0000202B
:103040003EB54000CDE900320A4640F6FF74014625
:10305000029401230148FEF705FB3EBD6C000020F1
:103060000D4808B5416941F0010141614069002204
:1030700000F00100009011460E20FEF73BFC0E20F0
:10308000FEF72AFC002211460F20FEF733FCBDE8B4
:1030900008400F20FEF720BC001002400D4808B584
:1030A000816941F020018161816901F02001009175
:1030B000816941F004018161816901F0040100919D
:1030C000816941F008018161806900F00800009089
:1030D00008BD0000001002400D4810B50B4901600A
:1030E0000C49416000214FF480428160C0E9031225
:1030F00041618161C1610162FEF7C2F8002803D01D
:10310000BDE81040FDF7E9BC10BD000000540040D0
:103110006C000020801A06000C4810B50A490160B6
:103120004FF4E1314160002181600C22C160C0E9AF
:1031300004128161C161FEF7A7FF002803D0BDE83A
:103140001040FDF7CABC10BD00380140C00000208F
:10315000FEE7FEE770477047FEF766BB30B58FB0FD
:1031600028216846FDF726F814210AA8FDF722F861
:1031700001210804CDE900100024029402250491E5
:10318000CDE907504FF4E01009906846FEF7D0FCF7
:1031900008B172B6FEE70F20CDE90A054FF4806052
:1031A000CDE90C4002210AA80E94FEF7D5FB0028B9
:1031B00001D072B6FEE70FB030BD704710B5406A5F
:1031C0000021C185C184FEF758FE10BD0168CA68A0
:1031D00022F49072CA6001684A6922F001024A61D1
:1031E000016B012904D10168CA6822F01002CA608B
:1031F000202180F83E1000210163704708B590F847
:103200003E10222901D0022008BD82684FF480536D
:103210009A4201D1016921B1816A9A421BD04AB117
:103220000AE00268816A5268C2F308020A80816A71
:10323000891C08E0026972B10268526802F07F02DC
:103240000A70816A491C8162C18D491E0904090CFA
:10325000C18503D019E002685268F1E70168CA68C5
:1032600022F02002CA600168CA6822F48072CA6033
:1032700001684A6922F001024A61202180F83E106B
:10328000016B012903D0FEF79FFF002008BD00213C
:1032900001630168CA6822F01002CA6001680A6806
:1032A000D20602D50A6849680091818DFEF7E4FDD7
:1032B000EBE7000070B5044600680169E26821F49C
:1032C0004051114301612169A068084361690843C5
:1032D0002168CA6841F20C639A430243CA602068BD
:1032E0004169A26921F44071114341611E4920687E
:1032F000884202D1FEF7D6FB01E0FEF7C3FB00EBEC
:10330000C00101EB0012606864218000B2FBF0F3A1
:10331000B3FBF1F36FF018067343B2FBF0F5B2FBA9
:10332000F0F605EB8305322303EB0515B5FBF1F54C
:10333000B6FBF1F605F0F00505EB0615B2FBF0F66D
:10334000B2FBF0F0B0FBF1F06FF01802504306EB67
:10335000800003EB0010B0FBF1F0216800F00F00DB
:103360002844886070BD0000003801402DE9F0411C
:10337000984617460E460446069D1DE0681C1BD065
:103380002DB1FDF7F9FDA0EB0800A84214D9206883
:10339000C16821F4D071C1602068416921F0010148
:1033A0004161202084F83D0084F83E00002084F82C
:1033B0003C000320BDE8F0812068006836EA000088
:1033C00004D00020B842D9D00020F3E70120F9E76B
:1033D0000148FEF753BD0000C0000020FEE70000DA
:1033E0000FB4054B10B503A9044A029800F06CF91C
:1033F00010BC5DF814FB0000BD4D00085400002017
:10340000490050EAC12018BF04204A0D18BF40F0FF
:10341000010040F2FF72B2EB515F08BF40F00200C2
:10342000012808BF052070470907090E002804DBA2
:1034300000F1E02080F80014704700F00F0000F168
:10344000E02080F8141D70472DE9F0414F1E00EB7D
:10345000C7010446D1E9000115461E4637F00602B1
:103460000DD02A463346FDF738F87F1E04EBC7031C
:10347000D3E90023FCF78AFF37F00602F1D1022FCF
:1034800025D0042F13D0062F18BFBDE8F0812A469F
:103490003346FDF722F8D4E90A23FCF777FF2A46E2
:1034A0003346FDF71AF8D4E90823FCF76FFF2A46E4
:1034B0003346FDF712F8D4E90623FCF767FF2A46E6
:1034C0003346FDF70AF8D4E90423FCF75FFF2A46E8
:1034D0003346FDF702F8D4E90223FCF757FF2A46EA
:1034E0003346FCF7FAFFD4E90023BDE8F041FCF7CE
:1034F0004DBF0122FDF738BAFCF748BF0022134642
:1035000010461146FDF75BB8024A00201107FDF78F
:103510002BBA000001FDFFFF02E008C8121F08C11E
:10352000002AFAD170477047002001E001C1121F44
:10353000002AFBD170470000014908607047000075
:10354000580000202DE9FF5F82B00021DDE9043042
:10355000020DDDF840B0034318D044F61050A2F23B
:10356000FF3242431514119801281FD0A5EB0B0020
:10357000401C5FEA000A4FF000064E4FDFF838911A
:10358000B046504615D5CAF1000413E01198012445
:103590004AA3012801D16FEA0B010298119AC0E9F0
:1035A0000031C0E9024206B0BDE8F09FCBF1000057
:1035B000DFE704460021404A491842EB0450CDE9B8
:1035C000001012E0E00707D032463B46404649462D
:1035D000FCF783FF8046894632463B461046194633
:1035E000FCF77BFF06460F466410002CEAD1DDE9AC
:1035F0000401DDE90023BAF1000F06DAFCF76DFFE4
:1036000042464B46FCF769FF05E0FCF7D8FF42460F
:103610004B46FCF7D4FF04460E460022284BFDF72C
:10362000D3F903D84FF0FF30014607E00022254BC5
:1036300020463146FCF7AAFEFDF7ADF9102409E05B
:10364000002C0ADB0A220023FDF7A8F8039B303286
:103650001A55641E50EA0102F2D1641C039AC4F1A7
:1036600011031444119A012A03D0012208430DD1F9
:103670000AE0084304D000204FF0110B119072E7CC
:10368000A3EB0B056D1E0DE05B4504DD4FF0000262
:1036900005F1010504E003DA4FF00002A5F1010590
:1036A000002AECD002981199C0E90231C0E9004526
:1036B00079E70000000014400000F03F30000000F7
:1036C0000000F0430000E03F2DE9FF4F95B09B461E
:1036D0008946064600250FE2252877D10024274693
:1036E000F84A0121059400E0044316F8013F203B0D
:1036F00001FA03F01042F7D130782A2811D06FF088
:103700002F033078A0F13002092A16D8059A44F028
:10371000020402EB820203EB42021044761C059085
:10372000EFE759F8042B0592002A03DA504244F4DB
:103730000054059044F00204761C30782E2816D1EF
:1037400016F8010F44F004042A280DD06FF02F0260
:103750003078A0F13003092B09D807EB870302EB7F
:103760004303C718761CF3E759F8047B761C3078BE
:103770006C280FD006DC4C2817D068280DD06A289A
:1037800014D104E0742810D07A280FD10DE044F44D
:1037900000140AE044F4801401E044F44014727808
:1037A000824202D104F58014761C761C307866289B
:1037B0000BD013DC582877D009DC002875D04528B9
:1037C000F6D04628F4D047281AD19DE118E06328A6
:1037D00035D0642879D0652812D195E1702873D04E
:1037E00008DC6728F1D069286FD06E280DD06F28CB
:1037F00006D1B5E073282CD0752875D0782874D000
:103800005A46179990476D1C75E1C4F3025002287F
:1038100009D003280DD0D9F8001004280DD00D6070
:1038200009F1040967E1D9F80010EA17C1E900526B
:10383000F6E7D9F800100D80F2E70D70F0E719F8FF
:10384000041B8DF8001000208DF80100EA460120CD
:1038500003E059F804AB4FF0FF3061074FF000016F
:1038600002D40DE008F101018846B9420FDA804523
:10387000F8DB1AF808100029F4D108E008F101017A
:1038800088468142FADB1AF808100029F6D105981B
:103890005B46A0EB080721463846179A00F094FAD9
:1038A000284400EB080507E04DE029E10DE01AF897
:1038B000010B5A4617999047B8F10108F7D25B46B9
:1038C00021463846179A13E142E00A220092C4F3D7
:1038D00002524FF0000A022A08D059F804CB032AFA
:1038E0004FEAEC710AD00DE029E02AE009F1070166
:1038F00021F00702F2E802C1914609E00FFA8CFCC0
:103900004FEAEC71042A03D14FFA8CFC4FEAEC71B8
:10391000002907DA0A460021DCF1000C61EB020104
:103920002D2202E0220504D52B228DF8042001224D
:1039300003E0E20701D02022F7E7904659E00A2190
:1039400002E010220DE010214FF0000A00910BE080
:1039500010224FF0000A44F004040827009203E00C
:1039600008224FF0000A0092C4F30252022A05D046
:1039700059F804CB0021032A08D009E009F1070116
:1039800021F00702F2E802C1914605E01FFA8CFC23
:10399000042A01D10CF0FF0C4FF00008220728D5B3
:1039A000702806D0009B83F0100353EA0A0305D069
:1039B0000EE040228DF80420012208E05CEA0102BA
:1039C00006D030228DF804208DF8050002229046A2
:1039D000009B83F0080353EA0A030AD15CEA010260
:1039E00001D1620705D530228DF804204FF001087F
:1039F0007F1E582804D034A003900EA802900DE03A
:103A000036A0F9E753466046009AFCF7C7FE8446A5
:103A10000398825C0298401E029002705CEA0100EA
:103A2000F0D1029806A9081A00F1200A600702D511
:103A300024F4803400E00127574502DDA7EB0A009B
:103A400000E0002000EB0A01009005984144401A74
:103A50000590E00306D45B462146179A059800F0CE
:103A6000B3F90544002706E001A85A46C05D17993E
:103A700090476D1C7F1C4745F6DBE0030CD55B4689
:103A80002146179A059800F09FF9054404E030207C
:103A90005A46179990476D1C0099481E00900029BE
:103AA000F5DC08E0029802995A460078491C029118
:103AB000179990476D1CBAF10001AAF1010AF1DCD7
:103AC00065E10000092801003031323334353637E2
:103AD000383961626364656600000000303132335A
:103AE00034353637383941424344454600000000FA
:103AF00000F058F90544761C307800287FF4ECADCE
:103B000019B02846BDE8F08F620700D4062709F1F6
:103B1000070222F0070CFCE80223E14603F000480C
:103B20005FEA080C02D00FF2702C0DE05FEA045C33
:103B300002D50FF2682C07E05FEAC47C02D00FF2D6
:103B4000602C01E0AFF2700C4FF0FF3823F000431F
:103B5000CDF850C065280CD006DC452809D0462891
:103B60001DD047283DD13DE0662818D067287ED17A
:103B700038E00021112F01DB112000E0781CCDE995
:103B8000000106A90EA8FFF7DDFCDDE90F010E9A82
:103B900003910021009207F1010A04914DE04FF0DA
:103BA00000400097CDE9011006A90EA8FFF7CAFC56
:103BB000DDE90F0203920E9B11990022DDF80CA0A3
:103BC0000093049211B9791C00EB010AB7EB0A00CB
:103BD00004D4C0F1FF3007F1010A0490AAEB0700FA
:103BE000019044E0012F00DA01270021112F01DDAF
:103BF000112000E03846CDE9000106A90EA8FFF724
:103C0000A1FCDDE90F010E9A0391002104910092BD
:103C1000BA4621070CD40399514500DA8A46BAF115
:103C2000010F05DD009AAAF10101515C302908D08D
:103C3000B84202DA10F1040F06DA0121CDE90110D1
:103C400015E0AAF10101E9E7002805DC0499014427
:103C50000491AAEB000102E0411C514500DD8A46B7
:103C60000499401A401C01904FF000400290200738
:103C700004D40198504501DBCDF8048000208DF874
:103C80004F0002980DF14F07B0F1004F25D02B20C7
:103C90000E9002984FF0020800280CDA4042029081
:103CA0002D200E9007E00A210298FCF761FD3031CB
:103CB000029007F8011DB8F10001A8F10108F2DC3B
:103CC00002980028EFD1791E0E980870307800F025
:103CD000200040F0450007F8020D12A8C01B00F1BB
:103CE00007081498007800B1012000EB0A01019840
:103CF00001EBE07105984144401A401E0590E00335
:103D000006D45B462146179A059800F05DF80544F5
:103D10001498007818B15A46179990476D1CE00323
:103D200024D55B462146179A059800F04DF80544C6
:103D30001CE00498002807DBDDE90301884203DD6D
:103D40000098405C179901E0179930205A46904737
:103D5000049805F10105401C04900198401E019053
:103D600004D12E205A46179990476D1CBAF10001D4
:103D7000AAF1010ADDDC05E017F8010B5A46179994
:103D800090476D1CB8F10001A8F10108F4DC5B4616
:103D90002146179A0598ABE62D0000002B00000085
:103DA000200000002DE9F041044600251E4617467C
:103DB000880404D405E039462020B0476D1C641EF9
:103DC000F9D52846BDE8F0812DE9F04104460025EB
:103DD0001E469046C80301D5302700E020278804FE
:103DE00004D505E041463846B0476D1C641EF9D540
:103DF0002846BDE8F08100002DE9FE4F07460E463B
:103E00000025684600F0E6FF00246FF00F0AE84640
:103E10004FF0010957F8240056F82410401A00D535
:103E20004042FCF73BFC5146FCF7A4FA58F824103A
:103E300011F0FF4F0BD0FCF75FFA4FF07E51FCF70B
:103E400023FA0A4920F00040884205DC07E00849CF
:103E500008440849884202D309FA04F00543641C67
:103E6000032CD7DB2846BDE8FE8F0000295C0F3EFF
:103E7000666666C19A99D9002DE9F04D8D4F21F003
:103E8000004A86B005460C46BA452ADBAAEB070075
:103E900028430AD08848824501DC1AD1CDB106B04A
:103EA0002846BDE8F04DFFF724BB844A844B2846E2
:103EB000FCF713FB07460E46824A834B28462146F1
:103EC000FCF70BFB06B03A463346BDE8F04DFCF775
:103ED0005DBA0120FFF730FB06B0BDE8F04DFFF7FB
:103EE0000DBB7A48824542DABAF1795F0BDA28468F
:103EF000FFF786FA042808BFFFF706FB284606B03E
:103F00002146BDE8F08D2A460B461046FCF7E5FA3F
:103F1000834602466E480E460B4606217844FFF75C
:103F200093FA5A463346FCF7D8FA804669488A46DF
:103F30005A46334604217844FFF786FA5A463346F8
:103F4000FCF7CBFA00223B46FCF720FA02460B4670
:103F500040465146FCF733FB2A462346FCF7BDFAA0
:103F600006B02A462346BDE8F04DFCF70FBA2846B6
:103F700024F0004100223D463B46FCF7ABFA4FF0EF
:103F8000FF32FCF7F1FC0646024653480F460B464B
:103F900006217844FFF758FA32463B46FCF79DFA73
:103FA000CDE900014D4832463B4604217844FFF7F5
:103FB0004BFA32463B46FCF790FA00222B46FCF7C0
:103FC000E5F9834602913046394602F0D9F9804638
:103FD00043480D46504517DCDDE900015A46029B77
:103FE000FCF7EDFA42462B46FCF777FA42462B46A1
:103FF000FCF7CCF90122FCF7B7FC304A304BFCF758
:1040000066FA304A304B4CE04FF0000A52460B46FD
:104010004046FCF7BBF9CDE9031052462B4610464B
:104020001946FCF75AFA32463B46FCF753FADDE9EB
:104030000332FCF7C4FA06460F46DDE900015A4692
:10404000029BFCF7BCFA83460091012230463946B8
:10405000FCF78AFC194A1A4BFCF73CFA06460F4655
:10406000012240462946FCF77FFC5A46009BFCF79C
:1040700034FA32463B46FCF72AFA06460F4601223E
:1040800050462946FCF770FC0E4DDFF858802A4652
:104090004346FCF71FFA32463B46FCF71BFA2A461A
:1040A0004346FCF717FA002CD8BF81F0004106B058
:1040B000BDE8F08D0000F03F0000F07F075C143396
:1040C00026A6913C182D4454FB21F93F0000E03F07
:1040D00010310000263100009A300000B03000009E
:1040E0003333EF3FFB21E93F2DE9F84F04460D46FE
:1040F00021F0004000917349814211DC72498842ED
:1041000001DC06D12CB120462946BDE8F84FFFF767
:10411000F0B96E48002DCCBF6D496E49BDE8F88FEF
:104120006D49814211DD6D498142D8BF4FF0FF36A4
:104130006DDD20462946FFF763F9042808BFFFF725
:10414000E3F920462946BDE8F88F6549654F25F01B
:104150000045814233DD6449814219DD0026324643
:104160004FF0804320462946FCF710F980468A46E6
:10417000012220462946FCF7F7FB00223B46FCF7CC
:10418000A6F942465346FCF71AFA04460D463EE0AD
:1041900001260022BA463B4620462946FCF7F6F89F
:1041A00080460F460022534620462946FCF78FF9E9
:1041B00042463B46FCF703FA04460D4627E04B49CE
:1041C00081421BDDDFF828A102260022534620464B
:1041D0002946FCF782F900223B46FCF7D7F88046D7
:1041E0000F460022534620462946FCF770F9424606
:1041F0003B46FCF7E4F904460D4608E00326224658
:104200002B4600203B49FCF7DAF904460D462246CE
:104210002B4610461946FCF760F98B46824602464B
:104220000B46FCF75AF907460246334888460B46C8
:1042300006217844FFF708F952465B46FCF74DF932
:1042400082462E488B463A46434605217844FFF77E
:10425000FBF83A464346FCF740F902460B46002E6F
:10426000504659460CDAFCF791F822462B46FCF7EB
:1042700034F901B022462B46BDE8F04FFCF72AB9CD
:10428000FCF784F822462B46FCF727F91C4A7A44AF
:1042900002EBC603D3E90023FCF719F922462B46AB
:1042A000FCF715F9174A7A4402EBC603D3E9002359
:1042B000FCF710F9009A002AB8BF81F00041BDE870
:1042C000F88F0000000010440000F07F182D4454C7
:1042D000FB21F93FFB21F9BF0000DC3F0000203E3D
:1042E0000000F33F0000F03F0000E63F0080034085
:1042F0000000F83F0000F0BFB22E0000702E00005A
:104300000E2E0000D62D00002DE9F04D9446CCF184
:10431000000423F000464CEA0404524F46EAD474E9
:104320009A46884621F00042BC4206D8454240EAFF
:10433000050442EAD474BC4204D9BDE8F04D62469B
:10434000FFF7DAB8AAF14055A5F17F6555EA0C04EC
:104350000BD0022404EAAA74434DDFF810E144EACA
:10436000D87452EA000B04D00CE0BDE8F04DFFF722
:10437000BBBE002C14BF012CBDE8F08D022C30D048
:10438000032C32D056EA0C0B0AD0BE4220D1BA42DE
:1043900009D126F0804622F080423346114617E0CC
:1043A00000291ADB25E0DFF8C8B0FB44002C04BF6D
:1043B000DBE90001BDE8F08D012C02BFDBE9000163
:1043C00081F00041BDE8F08D022C0AD0032C0CD006
:1043D000BA4212D1B8F1000F0BDA23482549BDE8E3
:1043E000F08D28462449BDE8F08D28467146BDE889
:1043F000F08D1D482149BDE8F08D921B12153C2A15
:10440000C4BF19481D490EDCBAF1000FBEBF12F13E
:104410003C0F0020014606DB6246FCF7D0F821F095
:104420000041FFF761FE002C08BFBDE8F08D012CB4
:1044300004BF81F00041BDE8F08D114A114B022C00
:1044400007D0FCF744F82A46BDE8F04D0A4BFCF7CC
:104450003EB8FCF73CF82A46BDE8F04D064BFCF7A9
:1044600039B800000000F07F182D4454FB2109C02A
:104470006A2D0000FB21F9BFFB210940FB21F93F18
:10448000075C143326A6A13C08B560B120208DF846
:10449000000028208DF8010030208DF8020038201F
:1044A0008DF8030004E0A32204216846FBF77BFE9D
:1044B0006A46042140F69E2001F0CCFE01F08AFB02
:1044C00008BD00003EB5044602208DF80000CA2059
:1044D0008DF80100E3208DF8020009208DF803001B
:1044E0006A460421682001F0B5FEA3208DF8000083
:1044F000610609D5C0218DF80110C8218DF8021080
:10450000C2218DF8031005E08DF801008DF802003E
:104510008DF8030014F4C07F09D0C4218DF8041075
:10452000CC218DF80510C6218DF8061005E08DF818
:1045300004008DF805008DF806008DF808008DF850
:1045400007008DF809006A460A2140F6A72001F00D
:1045500081FEA0074FF0D80503D020208DF8000081
:1045600001E08DF800506A46012140F6B62001F0C6
:1045700071FEA00601D5012000E0002000F08EF8B9
:1045800014F4C07F1ED0E0050AD5B2208DF80000DB
:104590008B208DF80100B6208DF802009B2009E0E9
:1045A000B0208DF8000080208DF80100B4208DF837
:1045B000020090208DF803006A46042140F6A220F4
:1045C00001F048FEE1074FF40B6022D0F8218DF88E
:1045D00000106A46012101F03DFEFA21072000F09B
:1045E00039FB072000F004FB012000F021FB6420D0
:1045F00000F0C4FB4FF4FA7000F0D0FBC82125484E
:1046000000F0BEFA282000F0D3FA0A2000F0E0FA09
:1046100005E08DF800506A46012101F01BFEA0075D
:1046200003D5D9208DF8000001E08DF800506A46CE
:10463000012140F23D7001F00DFE600701D501201F
:1046400000E0002000F048F8E00601D5012000E07D
:104650000020FFF719FF104D44F00800688101F0B9
:10466000B9FA0020A873600601D50620A87314F4D7
:10467000C07F02D0A87B801DA87314F0140F02D055
:10468000A87B1030A873A00702D0A87B001DA873D8
:1046900000203EBD09E3CA025C0000200EB54FF4C5
:1046A000976310B106A107C901E008A207CA8DE807
:1046B00007006A460921184601F0CCFD0EBD000036
:1046C000B8AAB38DB4980D355D000000B8AAAAAAA7
:1046D000B088C3C5C700000008B560B1C0208DF820
:1046E0000000C2208DF80100C4208DF80200C62011
:1046F0008DF8030004E08B2204216846FBF753FD8C
:104700006A46042140F6982001F0A4FD01F062FA07
:1047100008BD0000C8234FF48062024940F6F6301D
:1047200001F03AB91C6400082DE9FF4F89B0174623
:10473000DDE9165200244C4E884681462C80A24664
:10474000B07B694601F0D4F94FF0FF3B18B15846F1
:104750000DB0BDE8F08F708910F0140F3CD00099B7
:1047600009BA21F0FF039DF803100B433B60019948
:104770001B1409BA21F0FF029DF807105B430A439E
:104780007A6002999DF80B4009BA21F0FF0121439C
:10479000B960039C091424BA24F0FF0C9DF80F4063
:1047A00012144CEA040CC7F80CC04FEA2C474943DA
:1047B00002FB023207FB071111441024A1F17061C2
:1047C000B1F1007F04D901F005FAA5F800A0BEE719
:1047D000298841F4807129804206694611D50A1959
:1047E000A41D13885BBAA8F8003053885BBAA8F8F8
:1047F0000230928852BAA8F804202A8842F00802AF
:104800002A8010F4C07F11D00A19A41D13885BBA46
:10481000A9F8003053885BBAA9F80230928852BADE
:10482000A9F804202A8842F070022A80800716D056
:104830000C44E07800F0C00500F03F016078C0074C
:1048400006D0C80801F007013268491C02B1904740
:104850006078000703D5716809B1A80988470C98EA
:1048600000F0E6FD002073E75C0000202DE9FF4129
:10487000044603A800F046FFBDF80C00410CC3033A
:104880002F48028902F00300550754F8200000D594
:104890004042C2F3C105960654F8255000D56D423A
:1048A000C2F38116D20554F8264000D56442A0FB1D
:1048B0000367C21702FB037200FB0120820042EA79
:1048C0009670A5FB0367EA1702FB037205FB012242
:1048D000950045EA9672A4FB0367E51705FB037391
:1048E00004FB01318B0043EA9671030E8DF8003012
:1048F000030C8DF80130030A8DF802308DF80300A7
:10490000100E8DF80400100C8DF80500100A8DF8BB
:104910000600080E8DF80800080C8DF80900080A3A
:104920008DF80A008DF807208DF80B106A460C21CF
:104930004FF4257001F08EFC04B0BDE8F08100005A
:104940005C00002030B5044613A285B007CA8DE88C
:1049500007004FF0FF35C82C16D8C820B0FBF4F183
:10496000491E080A8DF80C008DF80D1003AA0221CB
:1049700040F2162001F06EFC30B96A460C2140F678
:10498000C12001F067FC10B1284605B030BD0548D4
:1049900084810020F9E70000FEF2ABC4AAF1DFDF5A
:1049A000BBAFDFDF5C000020F8B53049098901F0BA
:1049B000030250F822404A0700D56442C1F3C10205
:1049C0008B0650F8222000D55242C1F3811350F8D3
:1049D0002330C80500D55B42254984FB0140850092
:1049E00045EA947082FB0142A40F44EA820483FBEF
:1049F0000121950F45EA8105010E8DF80010010C8B
:104A00008DF80110010A8DF802108DF803006A4636
:104A100004214FF4747001F01DFC4FF0FF3688B98B
:104A2000200E8DF80000200C8DF80100200A8DF872
:104A300002008DF803406A4604214FF4757001F0BE
:104A400009FC08B13046F8BD280E8DF80000280C8E
:104A50008DF80100280A8DF802008DF803506A468F
:104A600004214FF4767001F0F5FBF8BD5C000020E6
:104A700009E3CA022DE9FF4104463CA004F0030308
:104A8000006802903AA0006803903AA006683AA035
:104A9000056802A8C15C8DF80010C4F3C101425C36
:104AA0008DF80120C4F38112805C8DF8020003A808
:104AB000C35C8DF80430415C8DF80510805C8DF886
:104AC00006006A46032140F2264001F0C3FB4FF086
:104AD000FF37E0BB01AA032140F22A4001F0BAFBF4
:104AE000A8BBCDE9006560070BD59DF8000040F03C
:104AF00001008DF800009DF8040040F001008DF8E1
:104B00000400A0060BD59DF8010040F001008DF8CF
:104B100001009DF8050040F001008DF80500E0055A
:104B20000BD59DF8020040F001008DF802009DF8C1
:104B3000060040F001008DF806006A4603214FF49C
:104B4000886001F087FB10B901AA032100E004E0AE
:104B500040F2314001F07EFB18B1384604B0BDE8A8
:104B6000F081064804810020F8E700004CCD6C007D
:104B70000CC92C0036567600264666005C000020E4
:104B80004FF47A7290FBF2F008B54843010E8DF8AD
:104B90000010010C8DF80110010A8DF802108DF83B
:104BA00003006A4604214FF4AE7001F053FB08BDC8
:104BB0000521B0FBF1F008B5010A8DF800108DF861
:104BC00001006A4602214FF4AD7001F043FB08BDBD
:104BD0000521B0FBF1F008B5010A8DF800108DF841
:104BE00001006A4602214FF4AC7001F033FB08BDAE
:104BF00008B500218DF80010C10702D030218DF8D2
:104C00000010810705D59DF8001041F00C018DF8CA
:104C10000010400705D59DF8000040F003008DF816
:104C200000006A4601214FF4A47001F013FB08BD97
:104C300008B560B1042800D90420401E8DF800009A
:104C40006A46012140F24F1001F004FB08BD01202B
:104C5000F3E700002DE9FC41054640074FF0FF3621
:104C60007CD0B1F5C86F79D80846FBF720FD3E49E6
:104C7000FBF742FB074601A800F026FD9DF8040063
:104C8000022806D004280DD008282ED0102865D17F
:104C900034E00E213846FBF76DFBFBF726FD84B2AE
:104CA000324907E00D213846FBF764FBFBF71DFD99
:104CB0002F4984B23846FBF7EDFAFBF716FD210ABF
:104CC0008DF8001080B28DF80140010A8DF80210B5
:104CD0008DF80300E8076C4620D0224602214FF4ED
:104CE000EA7001F0B7FAC8BB11E00C213846FBF7B7
:104CF00041FBFBF7FAFC84B21E49DBE70B21384687
:104D0000FBF738FBFBF7F1FC84B21B49D2E7A21C8E
:104D100002214FF4927001F09DFAF8B9A8070DD561
:104D20006A4602214FF4EC7001F094FAB0B9A21C6B
:104D300002214FF4947001F08DFA78B9680710D50C
:104D40006A4602214FF4EE7001F084FA30B9A21CD9
:104D500002214FF4967001F07DFA10B13046BDE8A3
:104D6000FC810020FBE700000000484300004046B3
:104D70000000C045000040450000C0440521B0FBD4
:104D8000F1F008B5010A8DF800108DF801006A46AF
:104D900002214FF4EF7001F05DFA08BD0521B0FB70
:104DA000F1F008B5010A8DF800108DF801006A468F
:104DB00002214FF4ED7001F04DFA08BD13B54FF626
:104DC000FF73012269460248FDF700FA00981CBDF6
:104DD000C00000202DE9FE430646264801AB042210
:104DE00040680D210078FEF71BF910B10720BDE8DF
:104DF000FE839DF804101C2000EAD1029DF80710E4
:104E0000DFF87490C1F301131A438DF800209DF868
:104E10000520C1F3810300EAD2021A438DF8012074
:104E20009DF8062001F0030100EAD20008430024A7
:104E3000124F8DF80200A0466D46285D10B146F86D
:104E400024900AE046F824800DE000BF56F82400C4
:104E50003946FBF71FFA46F82400285D401E10F083
:104E6000FF002855F2D1641CE4B2032CE5D30020E6
:104E7000BDE70000000000207B14AE3E1D5A843FB9
:104E80002DE9FE4F05460120C14E8DF800004FF080
:104E900000088DF8018030680C461746817C7068E8
:104EA0006B4602220078FEF7CBF84FF0FF3A00285D
:104EB0007AD1C820FBF75EFF8DF8008030686B4622
:104EC0000122C17B70680078FEF7BAF80028EFD1A4
:104ED00030686B460122417970680078FEF7B0F8BF
:104EE0000028E5D130686B460122817C706800782B
:104EF000FEF7A6F80028DBD130686B460122C17DA1
:104F000070680078FEF79CF80028D1D130686B46B5
:104F10000122017970680078FEF792F80028C7D165
:104F20004FF00C098DF8009030686B460122017932
:104F300070680078FEF784F8002835D10F20FBF761
:104F400019FFB06A6B460122407A8DF80000306884
:104F5000817870680078FEF773F8002824D1B06A71
:104F60006B460122007A8DF8000030684178706845
:104F70000078FEF765F8002873D1B06A807A0FB127
:104F800040F0E0008DF8000030686B460122817926
:104F900070680078FEF754F8002862D12FB1B06A2B
:104FA000C07A40F0E00001E04AE018208DF80000EF
:104FB00030686B460122C17970680078FEF740F8CE
:104FC000F0BB17B1C820FBF7D5FE40208DF80000DC
:104FD00030686B460122017970680078FEF730F87E
:104FE00070BB78208DF8000030686B460122417953
:104FF00070680078FEF724F810BB3220FBF7BAFE89
:105000008DF80080306847466B4641797068012210
:105010000078FEF715F898B931687068B046897A5B
:1050200000786B460222FDF7FBFF48B9BDF800008F
:10503000AF6040BAB0FBF9F06F60C6B22F6000E01D
:105040000FE0A76067602760002739E0D8F80010FC
:10505000D8F804006B46C97A00780C22FDF7E0FF0F
:1050600010B15046BDE8FE8FBDF80000236840BA7D
:1050700002B2BDF80200BDF804101A44226040BA22
:10508000626800B21044606049BAA06809B208447E
:10509000A060BDF806002B6840BA02B2BDF8080057
:1050A0001A4440BA01B2BDF80A002A606A6840BAE0
:1050B00011446960A96800B208447F1CFFB2A8606F
:1050C000B742C3D328688322C117090441EA1041BB
:1050D00000040023FBF726F832460023FBF722F8F2
:1050E000286068688322C117090441EA104100045E
:1050F0000023FBF717F832460023FBF713F868602C
:10510000A8688322C117090441EA10410004002362
:10511000FBF708F832460023FBF704F8A860206884
:105120004FF40065C117090441EA104100042A4602
:105130000023FAF7F7FF32460023FAF7F3FF206067
:1051400060682A46C117090441EA1041000400239F
:10515000FAF7E8FF32460023FAF7E4FF6060A06840
:105160002A46C117090441EA104100040023FAF756
:10517000D9FF32460023FAF7D5FFA060002802DDF0
:10518000A0F5803001E000F58030A060002069E7E4
:10519000000000202DE9F84F81462E488846002562
:1051A00040686B46032200780D21FDF739FF10B1EE
:1051B0000720BDE8F88F9DF80000002400F01F00D4
:1051C0008DF800009DF801006FF00F0B00F01F003C
:1051D0008DF801009DF802006E4600F01F008DF86A
:1051E00002004FF0010A00BF59F8241058F82400BB
:1051F000081A00D54042FBF751FA5946FBF7BAF8B6
:105200000746305DC0B1144802E01449FBF742F88C
:10521000315D491E11F0FF013155F6D10146384686
:10522000FBF76AF84FF07E51FBF72EF80C4920F09F
:105230000040884205DC07E00A483844B0F1D97FD5
:1052400002D90AFA04F00543641C032CCCDB28467F
:10525000AFE70000000000200000C84154E3853F94
:10526000295C0F3E0000E0BE00B5024600F00DF8DC
:105270000346D01C00F009F843EAC003901D00F07B
:1052800004F843EA801080B200BD90F900100029B4
:1052900002DD4FF00000704702DA4FF00400704763
:1052A00090F90110002902DD4FF00100704702DA89
:1052B0004FF00500704790F90200002802DD4FF022
:1052C0000200704702DA4FF0060070474FF0070007
:1052D0007047000086B0FCF7AFFAFDF73FFFFDF71F
:1052E000DDFEFDF7F9FEFDF7BBFEFDF715FF29A07A
:1052F000FEF776F84FF47A7000E0C820FBF73AFD2D
:1053000000F090F90028F8D12AA0FEF769F830A043
:10531000FEF766F800208DF81000012140F6FF72BC
:1053200004A88DE807000B467522D0212E48FCF713
:1053300071F89DF81010682928D02CA0FEF750F8BD
:105340002F4C4FF4FA790220FBF714FD2C4A083257
:10535000111F081F00F098F80028F7D1A068FBF78C
:10536000D8F9074688466068FBF7D3F905460E462C
:105370002068FBF7CEF98DE8E00102460B4621A03C
:10538000FEF72EF84846FBF7F5FCDCE720A0FEF719
:1053900027F8D5E72D2D204D70753630353020504B
:1053A000726F6A656374205374617274202D2D20AE
:1053B0000D0A00005375636365737366756C6C79D1
:1053C00020696E697469616C697A6564210D0A00EF
:1053D000526561647920746F20726561642074681D
:1053E000652049440D0A00006C00002045727220BF
:1053F0006D70752069643A307825780D0A000000D8
:105400003800002025662C25662C25660D0A000034
:105410006D70753630353020494420526561643AEC
:10542000204F4B20617420307836380D0A00000080
:10543000704700002DE9F041124C20F001010025D9
:1054400094F8240010B10020BDE8F081A07A4FF05C
:10545000FF3668B10840277C2074884200D035466A
:1054600041B1012000F060FF00F0B4FB38B12774B7
:105470003046E9E7207D00B1012000F055FF2846C5
:10548000E2E70000000000202DE9F74F8EB00CA9E4
:1054900002A8CDE900010BAB03AA09A907A8FFF7F1
:1054A00043F918B1012011B0BDE8F08FBDF8080034
:1054B000C0057DD50398FBF7F1F86FF01D04214678
:1054C000FAF758FF82460498FBF7E8F82146FAF706
:1054D00051FF81460598FBF7E1F82146FAF74AFFAC
:1054E00080460698FBF7DAF82146FAF743FF0546AF
:1054F00001215046FAF73EFF06464146FAF7CAFE3A
:1055000004464FF040414846FAF7C4FE0746294694
:10551000FAF7C0FE2146FAF765FEFBF7FAF8FEF748
:10552000ABFC4FF0663B5A463D4BFAF7D6FFFBF714
:1055300003F90E99086001214046FAF71BFF414626
:105540000090FAF7A7FE044638464946FAF7A2FE4D
:105550002146FAF799FE4FF07E51FAF743FEFBF72A
:10556000D8F807460C4630464946FAF793FE0646F9
:1055700029460098FAF78EFE3146FAF733FEFBF71C
:10558000C8F83A462346FEF7BFFE5A46244BFAF7C0
:10559000A4FFFBF7D1F80F99086029460846FAF7EF
:1055A00079FE074641460846FAF774FE064600E0D3
:1055B00034E049460846FAF76DFE0446514608466F
:1055C000FAF768FE2146FAF70DFE3146FAF75CFE5F
:1055D0003946FAF759FEFBF79CF806460C46294671
:1055E0005046FAF757FE054641464846FAF752FE3E
:1055F0002946FAF7F7FD0121FAF7BCFEFBF789F817
:1056000032462346FEF780FE5A46054BFAF765FF01
:10561000FBF792F810990860002044E7022042E767
:1056200066A64C4010B52648FBF72AFE00F0F0F8BD
:1056300008B10A2010BD782000F0B0FD10F0FF0F77
:1056400001D0012010BD7820FFF7F4FE10F0FF0F0D
:1056500001D0022010BD642000F060FD10F0FF0FAB
:1056600001D0032010BDFFF755F810F0FF0F01D057
:10567000042010BD1348FFF7F7FDFFF7FBF910F00A
:10568000FF0F01D0052010BD40F27310FEF71AFF86
:1056900010F0FF0F01D0062010BD6420FFF752F973
:1056A00010F0FF0F01D0072010BD00F0FDFD01201C
:1056B00000F05AFC10F0FF00F6D0092010BD0000E9
:1056C0006C0000202C0000200D494A7A42B1012ACA
:1056D00008D0022A0FD0032A0FD04FF0FF307047B6
:1056E000022200E004220270C97C11B11106C90D2A
:1056F0000170002070470822F5E71022F3E7000050
:10570000000000200F494A7A42B1012A09D0022A3A
:1057100011D0032A12D04FF0FF3070474FF480426F
:1057200001E041F69C720280C97C11B1C2F34E01C6
:105730000180002070474FF48052F4E74FF400627C
:10574000F1E70000000000200B49097A39B1012976
:1057500007D002290AD003290BD0002103E0FA2147
:1057600001E04FF4FA710180002070474FF47A7124
:10577000F9E74FF4FA61F6E7000000200A49097AD8
:1057800041B1012908D002290AD003290AD04FF0DB
:10579000FF307047054900E005490160002070476F
:1057A0000449FAE70449F8E7000000200000034339
:1057B0000000834233330342333383410C49C97AB7
:1057C000072913D2DFE801F01204060A0C0E1000BC
:1057D000BC2100E062210180002070472A21FAE705
:1057E0001421F8E70A21F6E70521F4E70021F2E7A2
:1057F00000000020054991F8242012B14FF0FF303D
:105800007047C98901800020704700000000002017
:105810002DE9FC414C4C80208DF8000020686B463F
:105820000122817C60680078FDF70AFC4FF0FF37A9
:10583000002832D16420FBF79DFA00258DF8005036
:1058400020686B460122817C60680078FDF7F8FBD8
:10585000002870D120686B460622817D6068007840
:10586000FDF7DEFB002866D19DF805009DF80310CA
:10587000C007400F01F0010140EA41019DF801001D
:105880004FF0010600F00100014309D0012905D0C5
:10589000022915D02DA0FDF7A3FD4CE0E67410E021
:1058A00020686B460122C17860680078FDF7B8FB7C
:1058B00040BB9DF8000010F00F0020D0042822D03B
:1058C000E574FF2004F80A0F4FF6FF7104F8020C8C
:1058D00004F8010C6070A180A0712072A670267679
:1058E0006576E572A572E56025616561A576E57668
:1058F000A5834FF4FA6000F073FB18B907E01D4868
:10590000FDF76EFD17E01CA0FDF76AFDC6E702205B
:1059100000F088FA78B92A2000F0CAFB58B9322082
:1059200000F0FCFB38B90020FFF784FD18B9002017
:1059300000F0ACFA10B13846BDE8FC81002000F060
:105940002DFC0020F8E7000000000020556E737564
:1059500070706F7274656420736F667477617265BE
:105960002070726F64756374207265762025642ED2
:105970000A0000002071000848616C662073656EA3
:105980007369746976697479207061727420666FC6
:10599000756E642E0A0000002DE9FF4FDFF8948039
:1059A000064685B098F8250015460F464FF0FF399A
:1059B000B0BBAFB3002420E0301B102800DD102066
:1059C00080B283463A1901469246204600F042FCD6
:1059D00030BB6A465946204600F0D2F800BB50461C
:1059E0005A466946FAF7F1FB20B16FF0010009B0A1
:1059F000BDE8F08F04EB0B0084B2B442DCD3280A7C
:105A00008DF810008DF81150D8F80000444604AB12
:105A1000817ED8F8040002220078FDF711FB08B15E
:105A20004846E4E7012084F825000898E084002037
:105A3000DDE70000000000202DE9F84305464FF0A7
:105A4000FF39282844D80727284C00267DB101209B
:105A500000F0FCFA20208DF800004FF00108012D25
:105A600017D0052D18D88DF8018005201FE00020E3
:105A700000F0ECFA8DF800608DF8017020686B463C
:105A80000222817C60680078FDF7DAFA00BB267597
:105A900029E08DF80160E8E7142D04D802208DF884
:105AA00001000A2003E003208DF80100142000F01B
:105AB000FFFA9DF801006B4607EB80108DF801009E
:105AC00020680222817C60680078FDF7B9FA10B185
:105AD0004846BDE8F8830820A072267384F8148035
